:020000040800F2
:10000000F0070020C5000008BD1D0008E917000822
:1000100000000000000000000000000000000000E0
:10002000000000000000000000000000D11E0008D9
:100030000000000000000000BF1D0008D31E0008E3
:10004000D700000800000000D7000008D700000813
:10005000D7000008D7000008D7000008D700000824
:1000600000000000D70000080D030008D7000008BA
:10007000D70000084D1F0008D7000008000000004E
:10008000D70000080000000000000000D7000008B2
:1000900000000000D7000008D7000008D7000008C3
:1000A00000000000D7000008000000005D260008E6
:1000B0000348854600F0A2F800480047A52700083D
:1000C000F00700200448804704480047FEE7FEE7A9
:1000D000FEE7FEE7FEE7FEE74B1F0008B100000861
:1000E00030B50B46014600202022012409E00D46D0
:1000F000D5409D4205D31D469540491B2546954058
:1001000040191546521E002DF1DC30BDF0B51FB46C
:100110000646002082B005464024019100901BE075
:10012000019922460F46304600F020F8049A059BBC
:10013000801A994110D310461946224600F04DF816
:10014000361A8F410197224601200021009F00F0BE
:1001500044F838184D4100902046641E0028DFDC2A
:10016000019B00982946324607B0F0BD10B5202A01
:1001700004DB0846203AD040002110BD0B46D34096
:10018000D0402024A21A91400843194610BD10B552
:1001900003461C460C43A40703D009E010C9121FF4
:1001A00010C3042AFAD203E00C781C70491C5B1CB3
:1001B000521EF9D210BDD2B201E00270401C491E9D
:1001C000FBD270470022F6E710B513460A460446F4
:1001D0001946FFF7F0FF204610BD10B5202A04DBBA
:1001E0000146203A9140002010BD914020239C1AE6
:1001F0000346E3401943904010BD0000064C012522
:10020000064E05E0E36807CC2B430C3C98471034BE
:10021000B442F7D3FFF750FFA8280008C828000809
:10022000F8B50D0004465AD0502002F0F5FA2060CF
:10023000002801D102F08CFA2E462036307C02F0E4
:10024000EBFA07004CD0307E02F0E6FA009000286E
:1002500046D0317C3846FFF7B5FF317E0098FFF776
:10026000B1FF21682878087021681F48486021681C
:100270001E48886021681E48C86021681D480861C2
:1002800021681D48486121681C48886121681C4814
:10029000C86121681B48086221681B4848622068C1
:1002A000C76221680020203148742168327C2031E7
:1002B0000A742268009951632168327E20310A76DF
:1002C0002168203148762268696C51642268E96BA4
:1002D000D1632168403148722168E86CC864F8BD78
:1002E00002F036FAF8BD00001D1A0008951B000840
:1002F000A51A0008451B0008B11900084D1A00088E
:10030000D91B0008191D0008CF1C000810B50348B0
:1003100000F0A0F8024800F09DF810BD6801002030
:10032000AC01002010B504460068054940181421AE
:10033000FFF7D6FE800020640248E06310BD000095
:10034000F8FFFDBF0000024030B5056C0124AC4051
:10035000C56B6C60046863604368102B036803D04E
:1003600099600068C26030BD9A600068C16030BDAD
:10037000704772B6FEE700000EB5044A6B4607CA26
:1003800007C3684601F01CFD0EBD0000842800086C
:1003900070B50446104600230A4D0FE02278504005
:1003A0000022641CC60702D04008684000E04008F4
:1003B000521C92B2082AF5D35B1C9BB28B42EDD340
:1003C00070BD000001A0000030B5014620314B781F
:1003D0000022022B04D0042383630A70012030BD65
:1003E00003681C680E25AC431C6003681C68640825
:1003F00064001C600123056C1C46C06BAC4044606B
:100400004B700A70002030BD70B5002401462031C9
:100410004A78022A03D004218163012416E002688D
:1004200013680E25AB431360026813685B085B001A
:1004300013600122056C1346AB40C56B6B604A70BC
:1004400000220A70416B002900D08847204670BD09
:10045000806B7047F0B4C16B0D6801680C680422B2
:10046000066C1346B3402B420DD063070BD50B68C7
:100470009B0602D40B6893430B60016C8A40C16BEE
:100480004A60C16A19E00227B74002462F400123A3
:100490002032002F15D0A70713D50C68A40604D46A
:1004A0000C680A25AC430C605370036C0221994020
:1004B000C36B596000211170816A002916D0F0BC0D
:1004C00008470827B7402F4210D024070ED50C68E4
:1004D0000E25AC430C60046C1946A140C46B6160EE
:1004E0008363537000211170016BE6E7F0BC704725
:1004F00070B5040021D0022120462030054641700D
:10050000226811680E48A368014060682669184394
:10051000E3683343184363691843A3691843E369E5
:100520001843084310602046FFF7FCFE0021A1633A
:10053000012068702970084670BD012070BD000060
:100540000FC0FFFFF8B504468C4620300178002527
:10055000012909D00126067041780027012905D01C
:10056000077002252846F8BD0220F8BD022141701F
:10057000A763206801684908490001606146204678
:10058000FFF7E2FEE06A00282068016802D00E2230
:10059000114306E00A221143016020680168042229
:1005A000914301602068016831430160DAE700008F
:1005B00070B5044600F0ECF80546601C02D0044813
:1005C0000078241800F0E4F8401BA042FAD370BD74
:1005D00064000020F8B5002303240125BAE02E466C
:1005E0009E40B44632407CD00E79B607B60F012E3D
:1005F00001D0022E17D186682746B6465E00B74066
:1006000000967646BE43B646CF68009EB740764613
:100610003743876046686746BE430F79FF06FF0F82
:100620009F40374347600E79F643B6070ED0C66841
:100630002746B4465E00B646B7406646BE43B4465B
:100640008F687646B74066463743C7600E79B6076F
:10065000B60F022E14D1DE08B60036180096366AA0
:100660005F07B446FE0E0F27B646B7406646BE4348
:10067000B4460F697646B74066463743009E3762F8
:1006800006682746B4465E00B646B7406646BE4397
:100690000F79B446BF07BF0F7646B740664637436B
:1006A00007604E68B603B60F53D02D4FBE692E4378
:1006B000BE61BE699F08F607F60F2A4EBF00BE193D
:1006C0000096B6680F27B4469E07360FB646B74069
:1006D0006646BE430927FF06B446B84202D100274A
:1006E00010E036E0204FB84201D101270AE01F4F49
:1006F000B84201D1022705E01D4FB84201D10327BE
:1007000000E005277646B74066463743009EB7604F
:10071000184E36684F689643FF0300D51643154FB1
:100720003E607E684F689643BF0300D51643114F65
:100730007E60BE684F689643FF0200D516430D4F9A
:10074000BE60FE684F689643BF0200D51643094A53
:10075000D6605B1C0A681646DE4000D03FE7F8BD55
:10076000001002400000014000040048000800485A
:10077000000C0048000401400069084000D001203E
:100780007047002A01D08161704781627047000084
:1007900001488068704700006400002002488168BA
:1007A00002788918816070476400002010B50648FF
:1007B0000168102211430160002000F007F800F0EA
:1007C00027F8002010BD00000020024070B504464C
:1007D0000D4D7D202978C000FFF782FC01460B48B3
:1007E0000068FFF77DFC00F043FB002809D1042CD2
:1007F00007D200222146401E00F02AF800206C603B
:1008000070BD012070BD0000640000207000002059
:1008100008B508488169012211438161816911404D
:100820000091C26901040A43C261C0690840009096
:1008300008BD000000100240002805DBC106C90EFB
:1008400001208840014908607047000000E100E095
:1008500010B501F04BFF10BDF8B505460068354CEA
:10086000C00352D5E0690026C00007D4E169200426
:100870000143E161E1690140012600912E480168D0
:10088000C90510D40168821511430160FFF780FF8C
:10089000074604E0FFF77CFFC01B642824D82648E5
:1008A0000068C005F6D5206A03273F02384020D0F3
:1008B0006968394081421CD0206A226AB84301210C
:1008C00009040A432262226A8A4322622062C00724
:1008D0000FD0FFF75DFF009008E0FFF759FF009988
:1008E000411A1648814201D90320F8BD206A8007C9
:1008F000F3D5206A6968B84308432062002E04D00B
:10090000E169012000078143E1612878C00705D033
:10091000206BA9688008800008432063287880063F
:1009200005D5206B10218843E96808432063002027
:10093000F8BD000000100240007000408813000065
:10094000F8B50F46060059D03A4D2868C007C00FC9
:10095000B84209D228684008400038432860286817
:10096000C007C00FB84249D13068334C81070CD55D
:10097000400704D560680721090208436060606889
:10098000F0218843B168084360603078C00726D002
:10099000706801280ED0216802280ED0890700292E
:1009A0002CDA61688908890001436160FFF7F0FE75
:1009B00000900DE021688903F1E78901EFE7FFF777
:1009C000E7FE0099411A1D48814201D90320F8BD74
:1009D00060680C210840716889008842EFD128685E
:1009E000C007C00FB8420BD9286840084000384300
:1009F00028602868C007C00FB84201D00120F8BDA8
:100A00003078400706D56068072109028843F168FD
:100A10000843606000F028F86168094A0906090F78
:100A2000515CC840074908600020FFF7CFFE002056
:100A3000F8BD0000002002400010024088130000B2
:100A400090280008700000200448054900684968A3
:100A5000044A4905490F515CC840704770000020A6
:100A600000100240A028000810B514A30FCB88B0D6
:100A70006C460FC415A30FCB0FC4184A51680C2045
:100A80000B4603401648042B16D0082B14D18B02BA
:100A90001B0F6C46E45CD26A04AB1207120F9A5C1F
:100AA000C90305D500231946FFF730FB214601E0B5
:100AB00020460C4901F002FE08B010BD02030405F7
:100AC000060708090A0B0C0D0E0F10100102030493
:100AD00005060708090A0B0C0D0E0F100010024046
:100AE00000127A0000093D00FEB5040070D02078A5
:100AF000DC4DC0074AD068680007800F012807D086
:100B000068680007800F022809D16868C00306D50D
:100B1000286880033AD560680028E7D036E061682D
:100B2000012914D001208004002901D0052914D006
:100B30002A68012109048A432A60296881432960BF
:100B40006068002816D0FFF723FE06460EE02868EE
:100B50000121090408432860F2E72968014329605C
:100B6000F5E7FFF715FE801B64286ED82868800320
:100B7000F7D50BE0FFF70CFE064604E0FFF708FE92
:100B8000801B6428F1D828688003F7D420780126D8
:100B9000800700283CDA68680007800F07D0686883
:100BA0000007800F022809D16868C00306D42868AE
:100BB000800716D5E06801280AD112E0E068002815
:100BC000286816D030432860FFF7E2FD074605E0AD
:100BD00043E1FFF7DDFDC01B0228C6D82868800767
:100BE000F7D52868F82188432169C900084328609F
:100BF0000EE0400840002860FFF7CAFD074604E009
:100C0000FFF7C6FDC01B0228AFD828688007F7D4BD
:100C10002078000722D5E0690028686A0ED03043AA
:100C20006862FFF7B5FD074604E0FFF7B1FDC01BA2
:100C300002289AD8686A8007F7D50FE0400840007C
:100C40006862FFF7A5FD074605E09DE0FFF7A0FD00
:100C5000C01B022889D8686A8007F7D42078042747
:100C60004007002860DA00200190E869C00008D43D
:100C7000E969B8060143E961E96901400120009191
:100C8000019079480168C90511D4016882151143A2
:100C90000160FFF77DFD009005E0FFF779FD009909
:100CA000401A642870D870480068C005F5D5A0685F
:100CB00001280AD0002801D0052810D0286A400851
:100CC00040002862286AB84301E0286A304328625D
:100CD000A068002812D0FFF75BFD00900AE0286AA8
:100CE00038432862F1E7FFF753FD0099411A5F4846
:100CF000814249D8286A8007F5D50DE0FFF748FD05
:100D0000009006E0FFF744FD0099411A57488142E0
:100D10003AD8286A8007F5D40198002804D0E969F8
:100D2000012000078143E9612078C00635D560695C
:100D300001280CD0401D686B23D038436863686B72
:100D4000400840006863FFF723FD064622E0686B19
:100D500038436863686B30436863FFF719FD0646E4
:100D600004E0FFF715FD801B02285BD8686B800745
:100D7000F7D5686BF8218843A169C9000843686307
:100D80000BE0B8436863F4E74CE0FFF701FD801B1C
:100D9000022847D8686B8007F7D4206A00285ED005
:100DA00069680907890F022942D001263606022800
:100DB000286805D0B0432860FFF7EAFC044633E01A
:100DC000B0432860FFF7E4FC074604E0FFF7E0FCCF
:100DD000C01B022826D828688001F7D4E86AE16A97
:100DE000000900010843E862616AA06A0843696873
:100DF0003D2212049143084368602868304328600C
:100E0000FFF7C6FC044604E0FFF7C2FC001B022803
:100E100008D828688001F7D521E0FFF7B9FC001B4E
:100E2000022801D90320FEBD28688001F5D416E010
:100E30000128F8D06868E96A01221204636A024056
:100E40009A420AD10907E26A090F914205D10F219E
:100E500089040840A16A884201D00120FEBD00201B
:100E6000FEBD00000010024000700040881300002A
:100E7000094910B5401E884201D9012010BD074C18
:100E800060610321081F01F031FC0020A0610720F0
:100E90002061002010BD0000FFFFFF0000E000E027
:100EA00070477047F0B502462032137F012B1BD0EC
:100EB000012616770223537705686B68AC687027A4
:100EC000BB430F681F436F600068084B984202D015
:100ED000074B984204D1802349689C432143816099
:100EE000567700201077F0BD0220F0BD002C0140A5
:100EF0000004004070B5040005D025462035687F09
:100F0000002802D006E0012070BD0020287720468E
:100F100000F014F802206877211D206801F01EF807
:100F200001204034A071A877E87720706070A0702D
:100F3000E070207160716877002070BD08B50068AE
:100F4000094988420FD109488269C1140A43826164
:100F5000806900220840009011460D20FFF778FCC0
:100F60000D20FFF769FC08BD002C01400010024075
:100F7000014620314A7F012A01D001207047022218
:100F80004A770268D36801210B43D3600068084A9E
:100F9000904202D0074A904204D182685207520F11
:100FA000062A02D002680A4302600020704700004F
:100FB000002C014000040040F8B5054604462035E9
:100FC000287F0026012817D0012028770220687783
:100FD000226890687727FF23B8431B0298439060EC
:100FE0000868502838D00EDC20284FD006DC0028B6
:100FF0004CD010281ED149E00220F8BD302845D041
:10100000402817D13AE060282ED0702819D001224C
:101010001203801A0FD090420CD1CB684A688968BD
:10102000206800F0D7FF20688168012292031143F5
:10103000816000E001260120687700202877304693
:10104000F8BDCB684A688968206800F0C3FF216852
:10105000886838438860EEE7CA684968206800F00D
:10106000CCFF5021206806E0CA684968206800F07B
:10107000D5FF6021206800F0B8FFDCE7CA68496846
:10108000206800F0BAFF40212068F4E7226801469A
:101090001046F0E7704770B5044600680169002506
:1010A000C9438907002915DBC168C943890711D4E1
:1010B000E91E0161012020772068806980072046B1
:1010C00002D0FFF7E7FF04E000F096F8204600F0BA
:1010D00094F8257720680169C943490717D4C16886
:1010E000C943490713D40421C94301610220207771
:1010F000206880698005800F204602D0FFF7CAFF74
:1011000004E000F079F8204600F077F825772068B1
:101110000169C943090716D4C168C943090712D434
:101120000821C9430161042020772068C069800735
:10113000204602D0FFF7AEFF04E000F05DF8204645
:1011400000F05BF8257720680169C943C90617D408
:10115000C168C943C90613D41021C94301610820DD
:1011600020772068C0698005800F204602D0FFF7F5
:1011700091FF04E000F040F8204600F03EF82577AB
:1011800020680169C943C90708D1C168C943C907B3
:1011900004D1891E0161204600F030F82068016901
:1011A000C943090609D4C168C943090605D4802189
:1011B000C94301612046FFF773FE20680169C943F6
:1011C000490609D4C168C943490605D44021C94329
:1011D0000161204600F03CF820680169C943890696
:1011E00009D4C168C943890605D42021C9430161D6
:1011F0002046FFF756FE70BD7047704770B5006817
:10120000114988421ED11149086800281AD00023CC
:10121000006801240EE04279002A0AD0002808D094
:101220000288521C92B202804588AA4201D1047100
:1012300003800C300A680C26156812797243AA18CC
:101240008242E8D870BD0000002C01406000002000
:1012500070477047F8B50446806FE66F21688A686A
:101260002546120610278035002A1BDA212819D1BD
:10127000EFF31080012282F310888A6880239A435A
:101280008A6080F31088E06E002808D0FFF79CF891
:10129000002804D0E06EFFF7DBF8202824D0204699
:1012A00001F07BF82168886840061BD5222E19D1F1
:1012B000EFF31080012282F310888A6840239A435A
:1012C0008A6080F31088206F002808D0FFF77CF830
:1012D000002804D0206FFFF7BBF8202804D0204658
:1012E00001F02CF80020F8BD2F600320F8BD7047F6
:1012F000F8B502680446D069116896689C4B0546AB
:101300001D402023002D75D0F7079A4DFF0FBC46D6
:101310000D402F436DD02546C7078035002F06D0DE
:10132000CF0504D5012717622A683A432A6082074D
:1013300008D5F20706D0276802223A622A680427F5
:101340003A432A60420708D5F20706D026680422ED
:1013500032622A68022632432A6002070AD50A4608
:101360001A406646324305D02668082232622E684B
:1013700016432E60020508D54A0106D501222668CB
:10138000D20232622A681A432A602A68002A39D0B7
:10139000800606D5880604D5616E002901D0204656
:1013A0008847286821688968490602D428210842AC
:1013B0002DD0204600F0C2FF21688868400622D563
:1013C000EFF31080012282F310888B684022934350
:1013D0008B6080F31088206F002814D06649416329
:1013E000206FFFF711F800280CD0206F416B08E048
:1013F00000E012E0850610D58D060ED5616E9DE0E9
:1014000020468847F8BD2046FFF771FFF8BD20460B
:10141000FFF76DFF00202860F8BD256E012D7DD1FE
:10142000C5067BD5CD0679D5102616622268906850
:10143000254640064035002845DA216F0868406897
:101440000004000CE8D02F8B8742E5D968838869B7
:10145000202833D0EFF31080012181F31088116828
:101460003701B943116080F31088EFF31080012138
:1014700081F3108821688A68520852008A6080F3DC
:101480001088EFF31080012181F3108821688A68A9
:101490004027BA438A6080F31088E3670020206603
:1014A000EFF31080012181F3108821680A68B243AC
:1014B0000A6080F31088206FFEF786FF288B698B07
:1014C000401A81B231E0288B698B401A81B2688B57
:1014D0000028A1D000299FD0EFF31080012585F3CB
:1014E00010881568FF272137BD43156080F31088E9
:1014F000EFF31080012282F31088226895686D084E
:101500006D00956080F31088E367002020666066B8
:10151000EFF31080012282F3108800E009E02268D6
:101520001368B343136080F310882046FFF791FEE1
:10153000F8BD050606D50D0604D5A16E002900D01C
:101540005EE7F8BD4006FCD54806FAD52046EFF325
:101550001081012484F3108814684025AC43146082
:1015600081F3108883670021816600F03BF9F8BDA4
:101570000F08000020010004D921000810B5040064
:1015800003D0A06F002802D007E0012010BD002189
:1015900074200155204600F027F82420A067206819
:1015A0000168490849000160204600F007FF012852
:1015B000ECD0606A002802D0204600F075FD20685B
:1015C00041680122D202914341602068816808226B
:1015D0009143816020680168012211430160204627
:1015E00000F0C8FD10BD0000F0B587B0064614211C
:1015F0006846FEF7E7FD2D493068884254D12C48F3
:101600008269012189030A43826182690A40059245
:101610004269C9000A4342614069002408400590BC
:10162000032040020090022001900320039001203B
:101630000490092002946946C006FEF7CBFF1E4DB8
:101640001C48286010208027291D91C12C616C61E5
:101650000002AC61E8612846FEF74AFF002801D08D
:10166000FEF787FEF5666E621248134D143044355E
:1016700011C52C60AC60EC6001206F6040032C61F0
:10168000686128460838083DFEF732FF002801D07F
:10169000FEF76FFE3567002211461B206E62FFF7D2
:1016A000D7F81B20FFF7C8F807B0F0BD003801409D
:1016B000001002401C0002406801002070B5C36F9A
:1016C000202B2BD100290BD0002A09D001248368BC
:1016D0002403A34206D10369002B03D1CB0701D019
:1016E000012070BD034660331C7D012C16D00124FF
:1016F0001C7500230366046863681B020BD5EFF3B7
:101700001083012585F3108825680126B606354328
:10171000256083F3108800F0DFFE70BD022070BDED
:1017200070477047F8B50446806F202852D10029D1
:101730000BD0002A09D00123A0681B03984206D1D0
:101740002069002803D1C80701D00120F8BD254633
:101750006035287D01283DD0012028752046403085
:10176000E164028242820026274680373E602120C3
:10177000A067E06E00281BD017498162E16E174810
:10178000C862E16E16480863E06E13464663E06C7B
:10179000216884460A4628326146E06EFEF7D2FE92
:1017A000002805D0102038602E752020A067CCE7D7
:1017B0002168402008622E75EFF31080012181F32B
:1017C000108821688A6880231A438A6080F3108811
:1017D0000020F8BD0220F8BDE922000833230008EC
:1017E000ED21000870477047FEE70000014600B594
:1017F0000548012900D00021026891710268012189
:10180000917300F03DFF00BD1800002008B50848A6
:10181000416901221143416140691040002200905A
:1018200011460A20FFF714F80A20FFF705F808BD53
:1018300000100240F0B587B014216846FEF7C2FCE4
:101840001E484269012189050A43426142690A40F2
:101850000592426949110A43426142690A40059270
:10186000426949000A43426140690326084009274A
:101870007603FF060590012231463846FEF781FFC8
:10188000FF20002501240090694601950294384606
:10189000FEF7A0FE022000906946019502940848D8
:1018A000FEF798FE03200390019469460096029487
:1018B0003846FEF78FFE07B0F0BD00000010024072
:1018C0000004004800B595B0FEF756FD0007000F74
:1018D0000F2800D9102069460870802008A90874D4
:1018E000087606480F900648139006481190034862
:1018F0006946C01CFEF794FC15B000BD0100002035
:10190000E40000207C00002010B586B00024009484
:1019100018480194029403940494154905940160B5
:10192000FF21E031846041607D210461C900446190
:10193000C16080218161FFF7DDFA002801D0FEF748
:1019400018FD01200003009069460A48FFF734FBA8
:10195000002801D0FEF70DFD049404A90548059464
:10196000FFF7A0FA002801D0FEF703FD06B010BD76
:10197000002C01409C00002010B50C480A49016071
:10198000E1214902416000218160C1600161816102
:10199000C1610C22016242614162FFF7EFFD002844
:1019A00001D0FEF7E6FC10BD00380140E400002045
:1019B000FFB5044617A205CA83B0009001922278B1
:1019C000684602700A0A8270C170002606715908C2
:1019D0001D464171857127462037397CE06AFEF744
:1019E000F1FB7E7407226946E06AFEF7D0FB787C43
:1019F0002A46C01DC0B27874E16A08180599FEF73E
:101A0000C6FB787C401978742269002120469047F3
:101A100007B0F0BD0046000000000000C06B0028C9
:101A200006D00122054B022903D0112900D11A70DA
:101A3000704719780029FBD0027070470000002021
:101A400001484068C168084700000020F8B5054615
:101A500040300678022E01D2102700E02027002413
:101A6000B94211D2BB420FD2007A0F46103700287C
:101A70000CD0686C002E12D0C01911461A46FEF721
:101A800086FB002800D001242046F8BD1046002E19
:101A900002D0696CC919F1E76A6C5118EEE7401879
:101AA000EBE70000F8B50446214640314A7A0020B1
:101AB000002A44D0002625464E722035697E022930
:101AC00005D9891E89B21E4A606BFEF761FC616B05
:101AD00023780A789A422DD16A7E8A181E3A537F5B
:101AE000177F1A023A4353BA020A0002024390B225
:101AF00083421FD14878052811D004DC012807D083
:101B0000022817D104E00F2809D0112812D10AE0C9
:101B1000E16920468847606B6268417808E0216A85
:101B20002046884706E0616A20468847626811219E
:101B300020469047697E606BFEF744FB6E76F8BDE9
:101B4000FFFF000038B5054620350446002913D1B3
:101B5000697C0F4AE06AFEF71BFC0146684601807B
:101B6000697CE06A411868460078087068464078E9
:101B70004870687C801C68746A7CE16AE06CFFF7DE
:101B8000D1FDE06C0068C169C9434906FBD438BD8A
:101B9000FFFF000070B50446C06C0D460068C169C7
:101BA000C943C90617D410210162002C10D0606B04
:101BB00000280DD0E06CFFF74DFB2046296820304F
:101BC000027E4968511A4176616BE06CFFF776FD41
:101BD00001204034607270BDFEB5416B0446487907
:101BE00009790002084340BAC6B2F008710700D074
:101BF000012140180190304600F00EFE00900028B0
:101C000061D03146FEF7DEFA25462035297CE06AB0
:101C1000FEF7D8FA00276F74616BE06A0A780270E9
:101C200049784170687C0199801CC0B2431CE26A0B
:101C30006B741154616B4878012801D0012200E0D7
:101C400000222046403002700772C878897800026E
:101C5000084341BAA76933462046009AB847002195
:101C60002AE00020CA0094461DE0009B9A5CD2073F
:101C7000D20F08D0E76A6B7CBE46FF5C82403A43D5
:101C80007746FA540BE0E36A02936F7CBE46DB5D55
:101C900017461A468740BA43029B7746DA55401CDE
:101CA000C0B2082803D262461218B242DDD3687C63
:101CB000401C491C6874C9B201988142D1D3226981
:101CC000002120469047009800F042FDFEBD70B50F
:101CD000054604462035297CC06AFEF773FA0020C9
:101CE0006874616BE06A0A78027049784170687CB8
:101CF000E36A801CC0B2411C012269741A54FEF7C9
:101D00003BFB697C0246481CE36A68745A542269AA
:101D100000212046904770BDF8B5044600214030B0
:101D2000017001210172606B25464178203505293B
:101D30004179027906D00802104340BAC3B20020AC
:101D4000E26A1DE008021043FF2140BA09028842FE
:101D500001D1012000E00020694608700123687E5F
:101D60006A4668741E4610E0C108666BC91D715C46
:101D70004607760FF140C907C90F1154401CC0B285
:101D80009842F1D3062068740026002A08D0616BBF
:101D9000A769C87889780002084341BA2046B84745
:101DA000297CE06AFEF70EFA6A7C616BE06AFEF756
:101DB000EEF92269314620469047F8BDFEE77047AC
:101DC000F8B500260446002836D02168002933D013
:101DD000096800208871216809688873206800F00C
:101DE0004FFC2068012700688771206800688773AE
:101DF000206800F045FC00256068002818D02168A4
:101E0000002009688873206800F03AFC2189606826
:101E1000FEF7B2FCA072C007C00F0721491B884023
:101E20003043C6B2206800688773206800F028FC41
:101E30006D1CEDB2082DDFD33046F8BDFEB509208C
:101E4000C00600902048012604680020019001ADE2
:101E500003AF029028E031460098FEF78DFC002881
:101E600018D0002301A8281AC1B218482B70007896
:101E70000246CA40D207D20F9A4212D0E36B002228
:101E80001A702A78002A07D001228A400F4902439B
:101E90000A7006E00123E5E701228A400B499043DE
:101EA00008707004060C6D1CBD42D4D3002C0AD0FF
:101EB000204601214030017001720823A56901AA62
:101EC00000212046A847FEBD04000020200000207D
:101ED000704710B5FEF762FC10BD70B594B03021AC
:101EE0006846FEF76FF9002401250E942804139428
:101EF0000F9409900D941094009500010C94129485
:101F0000022601950A90119408960B946846FEF7F4
:101F1000EBFD002801D072B6FEE707200C900E946E
:101F200001210D960F940CA8FEF70AFD002801D0A0
:101F300072B6FEE710A810951294FEF78DFC0028EB
:101F400001D072B6FEE714B070BD704710B50248FC
:101F5000FFF7A1F810BD00009C00002070B50268DA
:101F6000174B184E984201D0B04203D17024A243BF
:101F70004C682243144C154D984208D0B04206D00C
:101F8000134EB04203D0A04201D0A84204D1032690
:101F90003602B243CE6832438026B2434E693243A2
:101FA00002608A68C2620A688262984203D0A042D4
:101FB00001D0A84201D1096901630121416170BDCD
:101FC000002C014000040040004401400048014052
:101FD0000020004030B58468FF252D021B0213430A
:101FE000AC430B432343836030BD826870239A4324
:101FF0000A4307210A438260704730B5036A046AC6
:102000006408640004628469F025AC431201224331
:102010000A24A3430B438261036230BD30B5036AD7
:102020001024A34303628469036A0F252D0312035E
:10203000AC432243A024A3430901194382610162F6
:1020400030BD000010B509480068C06B00280CD0F6
:10205000027801210648002A01D0017002E00278CE
:102060004A4002700078FFF7C1FB10BD0400002059
:102070005400002070B50B4D00262868046808E065
:102080002079002804D0A068002801D0804726715C
:102090000C3428680C220168007950430818A042CB
:1020A000EED870BD6000002010B5818CC90707D044
:1020B00001684A6801235B049A43836A1A434A60B1
:1020C000818C890707D501684A6801231B049A435C
:1020D000C36A1A434A60818C490707D501684A6878
:1020E00001239B049A43036B1A434A60818C0907BE
:1020F00007D501684A680123DB039A43436B1A43FF
:102100004A60818CC90607D50268916801231B03C8
:102110009943836B19439160818C890607D50168C7
:102120008A6801235B039A43C36B1A438A60818CDC
:10213000490612D503685A6801210905046C8A43CF
:1021400022435A60026C8A4207D102685168032315
:102150005B059943436C19435160818C090607D58F
:1021600001684A680123DB04806C9A4302434A6099
:1021700010BD0000F8B50446002680300660FEF76A
:1021800007FB054620680068124F000709D50121AA
:102190002B46002249052046009700F0F5F900285B
:1021A0000DD12068006840070BD501212B46002285
:1021B00089052046009700F0E7F9002801D00320A8
:1021C000F8BD2020A067E0672666603426750020F1
:1021D000F8BD0000FFFFFF0110B5406A0022014674
:1021E00040314A834A82FFF782F810BD70B5446AD5
:1021F000A06FE56F2168896800260906002906DAC4
:10220000212804D152200653204600F0C6F8206849
:102210008068400606D5222D04D15A200653204658
:1022200000F08CF8204680300168102211430160D4
:102230002046FFF75CF870BD10B501468969406A19
:10224000202938D000225A210A52EFF310810122AE
:1022500082F3108802681368FF240134A3431360DB
:1022600081F31088EFF31081012282F31088026855
:1022700093685B085B00936081F31088EFF3108133
:10228000012282F31088026893684024A34393607C
:1022900081F310882021C167016E01290BD1EFF372
:1022A0001081012282F31088026813681024A3436E
:1022B000136081F31088016E012902D0FFF730FA14
:1022C00010BD5821095AFEF7C4FF10BD10B5406A71
:1022D000016E012902D0FFF724FA10BD5821095AD6
:1022E0004908FEF7B6FF10BD10B501468969406A7E
:1022F00020291BD0002252210A52EFF31081012223
:1023000082F31088026893688024A343936081F36A
:102310001088EFF31081012282F3108800680268B0
:1023200040231A43026081F3108810BDFFF75AFA68
:1023300010BD10B5406AFFF756FA10BD10B5EFF3A7
:102340001081012282F3108802681368FF2421346F
:10235000A343136081F31088EFF31081012282F30D
:102360001088026893685B085B00936081F31088B3
:10237000016E01290BD1EFF31081012282F3108845
:10238000026813681024A343136081F3108820218E
:10239000C16700210166416610BD10B5EFF31081E1
:1023A000012282F3108802681368C024A3431360DB
:1023B00081F310882021816710BD000070B50446AC
:1023C00080682169E2690843616900251143084377
:1023D00021680A683C4B1A4002430A602168486839
:1023E000032212039043E26810434860A169206A07
:1023F000084321688A680B231B029A4302438A60C0
:102400003248006B8007800F16D0012818D00228B0
:1024100018D0032812D010210120E369C0032C4AF0
:102420002C4E83422BD100290ED002290FD0042933
:102430000FD008293FD110E00021EDE70221EBE7A2
:102440000421E9E70821E7E7FEF7FEFA03E010467A
:1024500003E0FEF709FB002831D0616840004A081C
:102460008018FDF73DFE80B201461039B14222D8F6
:102470001849491C01400007400F08431DE000298E
:1024800006D0022907D0042907D0082913D108E073
:10249000FEF7DAFA03E0104603E0FEF7E5FA00285B
:1024A0000DD061684A081018FDF71AFE80B2014687
:1024B0001039B14201D9012501E02168C86000202E
:1024C0006066A066284670BDF369FFFF00100240F9
:1024D00000127A00EFFF0000F8B504464165403075
:1024E00000262746028380373E602220E06725468B
:1024F000206F603500281BD020498162216F204861
:10250000C862216F1F480863206F13464663606DE1
:102510002168844662462431206FFEF713F80028B4
:1025200006D0102038602E752020E0670120F8BD0D
:102530002E75EFF31080012181F3108821680A685D
:10254000FF2301331A430A6080F31088EFF31080F1
:10255000012181F31088226893680B43936080F314
:102560001088EFF3108081F3108821688A68402377
:102570001A438A6080F310880020F8BD39220008D1
:10258000CD220008ED210008FFB581B005461746B1
:10259000044660350A9E55E0701C53D0FEF7F8F8EB
:1025A0000499401AB04230D8002E2ED0206801681D
:1025B000490747D5C069C043000543D401202168BD
:1025C000C0020862EFF31080012181F310882168B6
:1025D0000B68FF22A13293430B6080F31088EFF366
:1025E0001080012181F3108821688A685208520006
:1025F0008A6080F310882020A067E0678034206024
:1026000000202875032005B0F0BDEFF310800121F4
:1026100081F3108821680B68FF22A13293430B607D
:1026200080F31088EFF31080012181F31088216876
:102630008A68520852008A6080F310882020A067C0
:10264000E067DDE72068C1690298884304D0002074
:10265000B842A1D00020D6E70120F9E710B505481F
:102660000068002802D08268034990470348FEF7BB
:102670003FFE10BD04000020AC010020E40000205B
:1026800070B501680C680B46616905798AB2ED0086
:1026900019465D1907E08E79002E8E8801D03243ED
:1026A00000E0B24308318D42F5D8002805D0002B58
:1026B00003D0D04300041043A06170BDF8B5040CF2
:1026C0008BB2264682B25E430D0C1046370C58433F
:1026D000360480190021794116466E43370C3604C2
:1026E0008019794126466E438919F8BD8307FF2278
:1026F000DB0E9A408907090E9940002808DB830801
:1027000009489B001B1818689043084318607047DD
:102710000007000F0838830804489B001B18D8697D
:1027200090430843D861704700E400E000ED00E00A
:1027300002E008C8121F08C1002AFAD1704770478A
:10274000002001E001C1121F002AFBD170470000E8
:1027500010B5002823D0124B0022001F196803E097
:10276000814203D80A4649680029F9D1002A0AD0D3
:102770001368841A9C4204D100681818106010462F
:1027800002E0506000E01860002907D002680B1AD0
:10279000934203D10B68D21802604968416010BDB2
:1027A00074000020FEF702F81648FDF701FFFFF75E
:1027B00094FBFFF73FF8FFF729F8FFF7DDF8FFF785
:1027C000A3F81148FEF7D4FB114910480860FFF741
:1027D00079F8104C2068002810D0C06C006801689F
:1027E000102211430160206838210A5C416BC06CE3
:1027F000FEF764FF2068002120304176FFF73AFCA5
:10280000FCE70000881300009C0000205800002016
:102810006000002004000020F0B50B30C108C900A2
:10282000144F0026144A0FE003688B420BD38B42EF
:1028300005D95C1A4318456830C3083B00E043687B
:10284000136002C004E0021D10680028ECD130467D
:10285000002803D13868002801D00020F0BD064AC6
:1028600006481060064A121AD208D20044C001205D
:102870003860D7E77800002074000020F4010020C1
:10288000F0030020180000200004004802000000AF
:102890000000000000000000010203040607080910
:1028A0000000000001020304C82800080000002006
:1028B0007C00000030270008442900087C0000202C
:1028C000740700004027000800000000000000001E
:1028D0000000004800200000000000480040000008
:1028E00008000020020000000000000000000A00B4
:1028F0000001000045200008000001000001000068
:10290000411A000800003200000100003D1E0008CE
:1029100000006400000100007103000801000000D5
:10292000240000200400000000000000010000005E
:10293000040000000000000000127A000000000007
:042940000000000093
:04000005080000B13E
:00000001FF
