:020000040800F2
:1000000000090020C5000008A72C000849250008A9
:1000100000000000000000000000000000000000E0
:10002000000000000000000000000000DD2F0008BC
:100030000000000000000000112D0008DF2F000864
:10004000D700000800000000D7000008D700000813
:10005000D7000008D7000008D7000008D700000824
:1000600000000000D700000821050008D7000008A4
:10007000D700000869300008D70000080000000021
:10008000D70000080000000000000000D7000008B2
:1000900000000000D7000008D7000008D7000008C3
:1000A00000000000D7000008000000009939000897
:1000B0000348854600F0A2F900480047AD3B000820
:1000C000000900200448804704480047FEE7FEE797
:1000D000FEE7FEE7FEE7FEE765300008B100000836
:1000E00030B50B46014600202022012409E00D46D0
:1000F000D5409D4205D31D469540491B2546954058
:1001000040191546521E002DF1DC30BDF0B51FB46C
:100110000646002082B005464024019100901BE075
:10012000019922460F46304600F020F8049A059BBC
:10013000801A994110D310461946224600F00CF956
:10014000361A8F410197224601200021009F00F0BE
:1001500003F938184D4100902046641E0028DFDC6A
:10016000019B00982946324607B0F0BD10B5202A01
:1001700004DB0846203AD040002110BD0B46D34096
:10018000D0402024A21A91400843194610BD10B552
:1001900003461C460C43A40703D009E010C9121FF4
:1001A00010C3042AFAD203E00C781C70491C5B1CB3
:1001B000521EF9D210BDD2B201E00270401C491E9D
:1001C000FBD270470022F6E710B513460A460446F4
:1001D0001946FFF7F0FF204610BDF8B502464A4029
:1001E000D40F42004B0052085B089A4202D20246EA
:1001F000084611464A0023D0C30D4A00DDB2120E54
:10020000AD1A202D35DA49020126490AF6058A1968
:10021000002C00D0524220214F1B1146B9402A41E8
:100220001018C20D9A4221D0002C17D0012D08DCE5
:10023000DA05801AD20F8019D207DBB200F0A4F8D9
:10024000F8BDDA05801A012340001B06C01880188B
:100250005A428018CA0F1043490007E04908C207F4
:100260001143DA05801A80194008801800F084F8DC
:10027000F8BD61000122511A001BF7E70122D207E5
:100280005140AAE70122D2075040A6E7024670B5C6
:100290004A40D30FDB0740002DD04A002AD0010E80
:1002A000140E000212020919400A520A8418E501CC
:1002B00004465443000A120A2E045043A41942195A
:1002C000200CC543AA18120C0125AD03521C52196B
:1002D00012047F39240400D0521C104301D4400082
:1002E000491EC2B20C06C0092018401C4008802AD2
:1002F00002D003E0002070BD40084000002900DA71
:100300000020184370BD410040020122400AD2057E
:10031000090E80187F2901DA00207047962903DC36
:100320009622511AC840704796398840704700009D
:100330000122D207002800DB101A002900DB511A25
:10034000814270470122D207002800DB101A0029E1
:1003500000DB511A8842704710B5202A04DB0146A1
:10036000203A9140002010BD914020239C1A034662
:10037000E3401943904010BD002904DA401C4900B5
:1003800001D140084000704770B40024050C05D12D
:100390001024000402D1002921D01124050E01D11E
:1003A00000020834050F01D10001241D850F01D181
:1003B0008000A41C002801DB4000641C002908D038
:1003C00020252E1B0D46F540A14000D001212943D8
:1003D000084301061B1B000ADB1D02D5002070BC70
:1003E0007047DB05181880180029F8DA401C49000E
:1003F000F5D170BC4008400070470000064C012554
:10040000064E05E0E36807CC2B430C3C98471034BC
:10041000B442F7D3FFF750FE303D0008503D0008CE
:10042000F8B504460D46002D00D1F8BD4C2003F070
:1004300007FC20602068002802D1206803F08CFBB4
:100440002C21485D03F0FCFB0646002E03D130460C
:1004500003F082FBE9E73421485D03F0F1FB074636
:10046000002F03D1384603F077FBDEE72C20415DF7
:100470003046FFF7A7FE3420415D3846FFF7A2FE65
:100480002878216808701E48216848601D48216846
:1004900088601D482168C8601C48216808611C48A4
:1004A000216848611B48216888611B482168C86130
:1004B0001A48216808622068866200212068283076
:1004C00041712C20415D206828300171206807634C
:1004D0003420415D206830300171002120683030C7
:1004E0004171296C20680164A96B20688163002137
:1004F000206830304175A86C2168886400BF94E79B
:10050000B52A000899290008552A00088D280008F6
:100510001D290008072B0008272C0008C92B0008FC
:1005200010B5034800F0B6F8024800F0B3F810BD6B
:1005300078020020BC02002010B50446054A21685C
:10054000881A1421FFF7CCFD800020640148083888
:10055000E06310BD0800024030B50124056CAC40DA
:10056000C56B6C60046863604468102C04D1046837
:10057000A2600468E16003E00468A1600468E260CE
:1005800030BD704772B600BFFEE700000EB5044AEA
:1005900007CA6B4607C3684602F0BBFB0EBD0000EE
:1005A0000C3D0008F0B503461046002414E01D7809
:1005B0005B1C684000250BE0C607F60F002E03D039
:1005C0004610074F7E4000E0461030466E1CB5B224
:1005D000082DF1DB651CACB28C42E8DBF0BD0000FD
:1005E00001A0000001462120405C022808D0042020
:1005F000886300BF00222020425400BF01207047C2
:10060000086800680E2290430A6810600868006855
:10061000400840000A68106001200A6C9040CA6BD4
:10062000506001222120425400BF00222020425469
:1006300000BF0020E3E770B5044600252120005DDF
:10064000022803D00420A06301251EE02068006872
:100650000E21884321680860206800684008400037
:10066000216808600120216C8840E16B486001210D
:100670002120015500BF00212020015500BF606BE3
:10068000002802D02046616B8847284670BD01468D
:10069000886B704770B50446E06B05682068066893
:1006A0000420216C8840284000281BD004203040C2
:1006B000002817D02068006820210840002805D1B4
:1006C0002068006804218843216808600420216CA8
:1006D0008840E16B4860E06A002852D02046E16A19
:1006E00088474EE00220216C88402840002823D013
:1006F0000220304000281FD02068006820210840D8
:10070000002808D1206800680A2188432168086011
:100710000121212001550220216C8840E16B4860B5
:1007200000BF00212020015500BFA06A002828D06A
:100730002046A16A884724E00820216C8840284090
:1007400000281ED00820304000281AD020680068F9
:100750000E218843216808600120216C8840E16BEC
:1007600048600120A06301212120015500BF002124
:100770002020015500BF206B002802D02046216BAD
:10078000884770BD70B504460025002C01D10120BA
:1007900070BD022121200155206805680F480540E1
:1007A000A16860680843E1680843216908436169FA
:1007B0000843A1690843E1690843054320680560CF
:1007C0002046FFF7B9FE0020A0630121212001553A
:1007D0000021202001550020DAE700000FC0FFFFB4
:1007E000F8B504460D4616461F460020009000BF8F
:1007F0002020005D012801D10220F8BD0121202028
:10080000015500BF2120005D01282DD102212120AA
:1008100001550020A063206800684008400021685E
:1008200008603B46324629462046FFF795FEE06ABF
:10083000002806D0206800680E210843216808605F
:100840000BE0206800680A210843216808602068DE
:10085000006804218843216808602068006801213D
:1008600008432168086006E000BF002120200155F0
:1008700000BF022000900098BFE7000078B5034653
:100880000A460021DFE001268E4014683440002C27
:100890007ED01579AD07AD0F012D04D01579AD07C8
:1008A000AD0F022D18D198684E000325B5400646BD
:1008B000AE4330464E00D568B5402843986058682E
:1008C00001258D400646AE4330461026556835401A
:1008D0002D098D40284358601579AD07AD0F032DC4
:1008E0000BD0D8684E000325B5400646AE433046CF
:1008F0004E009568B5402843D8601579AD07AD0F17
:10090000022D15D1CD08AE001D462035A8594D0742
:10091000EE0E0F25B5400646AE4330464E07F60EA6
:100920001569B5402843CD08AD001E4620367051EC
:1009300018684E000325B5400646AE43304615798B
:10094000AD07AD0F4E00B5402843186003263604AE
:1009500055683540002D75D000BF3E4DAD6901266C
:1009600035433C4EB5613546AD69ED07ED0F009559
:1009700000BF00BF384D8E08B600A8598D072E0F56
:100980000F25B5400646AE4330460925ED0600E08A
:1009900058E0AB4201D100250FE0304DAB4201D110
:1009A00001250AE02E4DAB4201D1022505E02D4D77
:1009B000AB4201D1032500E005258E07360FB54077
:1009C0002843254D8E08B600A851274D28680546B6
:1009D000A54328460126360455683540002D02D02F
:1009E000054625432846204D286068680546A543EE
:1009F00028460126760455683540002D02D005466C
:100A000025432846184D6860A8680546A543284632
:100A10000126360555683540002D02D00546254390
:100A20002846114DA860E8680546A54328460126DA
:100A3000760555683540002D02D0054625432846E9
:100A4000094DE860491C1568CD40002D00D01AE71B
:100A500078BD00000010024008000140000400487A
:100A600000080048000C00480004014002461369D9
:100A70000B40002B01D0012000E000207047002A2D
:100A800001D0816100E08162704700000148006888
:100A900070470000A000002070B50446002C01D172
:100AA000012070BD18482168086018482168086056
:100AB0002168606848602168A0688860FFF7E6FFE9
:100AC00005460CE0FFF7E2FF401B272807D9206806
:100AD000C0684007400F002801D00320E1E72068EC
:100AE000C0684007400F0028ECD120680169E06829
:100AF000814203D02168E068086102E0044821686F
:100B000008600020CDE70000CCCC00005555000067
:100B1000AAAA0000014602480A6810600020704737
:100B2000AAAA00000348006803490978401801494F
:100B300008607047A0000020A800002010B50648FB
:100B400000681021084304490860002000F006F8FE
:100B500000F02EF8002010BD0020024070B50446C1
:100B6000104801787D20C000FFF7BAFA06463146EA
:100B70000D480068FFF7B4FA054600F09FFE002814
:100B800001D0012070BD042C07D200222146501E46
:100B900000F03CF80548046001E00120F2E7002085
:100BA000F0E70000A8000020AC000020A400002016
:100BB00008B500BF0D488069012108430B498861D1
:100BC00008468069C007C00F009000BF00BF00BF8B
:100BD0000846C069090408430449C8610846C06959
:100BE00009040840009000BF00BF08BD001002408B
:100BF0000146002905DBCB06DB0E01229A40024BA1
:100C00001A6000BF7047000000E100E070B50446C4
:100C10000D4616462946204602F04CFF70BD0000E6
:100C2000F8B5044600260025012109042068084083
:100C300088427AD100274B48C06909030840002840
:100C40000DD100BF4748C06908434649C8610846FE
:100C5000C06909040840009000BF00BF0127424856
:100C60000068FF2101310840002816D13E48006885
:100C700008433D490860FFF709FF064606E0FFF715
:100C800005FF801B642801D90320F8BD36480068A1
:100C9000FF21013108400028F1D03248006A0321C9
:100CA000090208400546002D2DD060680840A84282
:100CB00029D02C48006A884305462A48006A012149
:100CC00009040843274908620846006A012109040B
:100CD00088432449086208460562E807C00F0028D7
:100CE00011D0FFF7D3FE064607E0FFF7CFFE801BCB
:100CF0001E49884201D90320C7E71A48006A022129
:100D000008400028F1D01748006A032109028843EF
:100D10006168084313490862012F05D10846C0697C
:100D2000090488430F49C86100BF2078C007C00F7D
:100D3000002807D00B48006B80088000A16808439A
:100D400008490863202120680840202807D1054869
:100D5000006B10218843E1680843024908630020C2
:100D600093E700000010024000700040881300006C
:100D700070B504460D46002C01D1012070BD5248CB
:100D80000068C007C00FA8420ED24F480068400854
:100D9000400028434C49086008460068C007C00F5F
:100DA000A84201D00120E9E702212068084002287A
:100DB00014D1042120680840042807D14348406822
:100DC0000721090288434018404948603F4840686D
:100DD000F0218843A16808433C4948602078C00757
:100DE000C00F00283BD06068012808D13748006850
:100DF000012149040840002815D10120BEE76068A0
:100E0000022808D13148006801214906084000281D
:100E100009D10120B2E72D480068022108400028CE
:100E200001D10120AAE72948406880088000616854
:100E3000084326494860FFF729FE064607E0FFF70A
:100E400025FE801B2249884201D9032096E71F48CE
:100E500040680C210840616889008842EFD11A4837
:100E60000068C007C00FA8420ED9174800684008A4
:100E7000400028431449086008460068C007C00FB6
:100E8000A84201D0012079E7042120680840042805
:100E900008D10E484068072109028843E1680843E9
:100EA0000A49486000F032F808494968F0221140C8
:100EB0000909084A515CC840074908600020FFF74B
:100EC0004DFE00205AE700000020024000100240C2
:100ED00088130000183D0008AC000020014800689D
:100EE00070470000AC00002000B5FFF7F7FF054990
:100EF0004968072212021140090A034A515CC8409E
:100F000000BD000000100240283D0008F0B589B087
:100F100027A001460EC9C06805AC0EC4089028A0E1
:100F200001460EC9C06801AC0EC40490002400251F
:100F30000027002600200090254844680C2020400F
:100F400000282DD0042802D0082828D102E021480A
:100F5000009028E00F2080042040800C05A90E5C42
:100F60001B48C06A0007000F01A90D5C01200004A6
:100F700020400121090488420AD12A46002315484D
:100F80001946FFF7C3F8314602F07CFD074604E03E
:100F90001148314602F076FD0746009703E000BF96
:100FA0000C48009000BF00BF009809B0F0BD0000E1
:100FB00002030405060708090A0B0C0D0E0F10109A
:100FC0000102030405060708090A0B0C0D0E0F1099
:100FD0000010024000127A0000093D00FEB50446F0
:100FE000002C01D10120FEBD2078C007C00F0028D1
:100FF00071D0FC4840680C21084004280BD0F94807
:1010000040680840082812D1F648406801210904C8
:10101000084088420BD1F348006801214904084088
:1010200000286BD06068002868D10120DBE700BF92
:101030006068012807D1EB480068012109040843D2
:10104000E849086031E0606800280ED1E548006892
:10105000012109048843E34908600846006801212A
:1010600089048843DF4908601FE0606805280ED1C5
:10107000DC480068012189040843DA490860084611
:101080000068012109040843D64908600DE0D548ED
:101090000068012109048843D249086008460068B5
:1010A000012189048843CF49086000BF6068002897
:1010B00012D0FFF7EBFC054606E0FFF7E7FC401B0C
:1010C000642801D903208EE7C6480068012149043D
:1010D00008400028F1D011E0FFF7D8FC054606E0F3
:1010E000FFF7D4FC401B642801D903207BE7BD48EF
:1010F00000680121490408400028F1D1022120683C
:101100000840022861D1B74840680C2108400028F7
:101110000BD0B4484068084008281BD1B14840684B
:10112000012109040840002814D1AE4800680221BA
:101130000840002804D0E068012801D0012052E7CF
:10114000A8480068F82188432169C9000843A549D7
:1011500008603AE0E068002820D0A2480068012139
:101160000843A0490860FFF791FC054606E0FFF739
:101170008DFC401B022801D9032034E79948006800
:10118000022108400028F2D096480068F8218843E0
:101190002169C90008439349086016E09148006836
:1011A000400840008F490860FFF770FC054606E0E4
:1011B000FFF76CFC401B022801D9032013E7894884
:1011C0000068022108400028F2D108212068084068
:1011D000082831D1E069002817D08248406A0121EF
:1011E000084380494862FFF751FC054606E0FFF7D7
:1011F0004DFC401B022801D90320F4E67948406ADF
:10120000022108400028F2D016E07648406A4008E3
:10121000400074494862FFF739FC054606E0FFF7D5
:1012200035FC401B022801D90320DCE66D48406AEA
:10123000022108400028F2D1042120680840042837
:1012400073D1002001906748C069890608400028D2
:101250000ED100BF6348C06908436249C8610846AF
:10126000C06909040840009000BF00BF0120019040
:101270005D480068FF2101310840002816D15A4816
:101280000068084358490860FFF700FC054606E07F
:10129000FFF7FCFB401B642801D90320A3E652485A
:1012A0000068FF21013108400028F1D000BFA0688C
:1012B000012806D14B48006A0121084349490862C8
:1012C0002BE0A06800280CD14648006A4008400086
:1012D000444908620846006A04218843414908627B
:1012E0001BE0A06805280CD13E48006A0421084391
:1012F0003C4908620846006A0121084339490862EE
:101300000BE03848006A4008400036490862084649
:10131000006A042188433349086200BFA06800289E
:1013200013D0FFF7B3FB054608E02BE0FFF7AEFB59
:10133000401B2E49884201D9032054E62948006AFF
:10134000022108400028F1D011E0FFF79FFB05467D
:1013500007E0FFF79BFB401B2449884201D903208B
:1013600041E62048006A022108400028F1D1019896
:10137000012806D11B48C069012109078843194982
:10138000C86100BF102120680840102860D1606942
:1013900001282DD11348406B0421084311494863AB
:1013A0000846406B012108430E494863FFF76EFB76
:1013B000054606E0FFF76AFB401B022801D903201F
:1013C00011E60848406B022108400028F2D0054889
:1013D000406BF8218843A169C9000843014948636B
:1013E00036E000000010024000700040881300004A
:1013F0006069401D00280FD15A48406B0421884382
:10140000584948630846406BF8218843A169C900E0
:101410000843544948631BE05248406B0421084389
:10142000504948630846406B400840004863FFF756
:101430002DFB054606E0FFF729FB401B022801D9DA
:101440000320D0E54748406B022108400028F2D134
:10145000206A00284FD0434840680C2108400828E3
:1014600064D0206A022847D13E480068012109065D
:1014700088433C490860FFF709FB054606E0FFF793
:1014800005FB401B022801D90320ACE53548006864
:101490000121490608400028F1D100BF3148C06A47
:1014A00000090001E16A08432E49C862616AA06A26
:1014B00008432C4949683D221204914308432949B5
:1014C000486000BF08460068012109060843254915
:1014D0000860FFF7DBFA054606E0FFF7D7FA401B86
:1014E000022801D903207EE51E4800680121490633
:1014F00008400028F1D033E01A48006801210906AD
:10150000884318490860FFF7C1FA054606E0FFF76F
:10151000BDFA401B022801D9032064E51148006888
:101520000121490608400028F1D119E0206A01286C
:1015300000D158E50B484668C76A012000043040D6
:10154000616A88420AD13907090FE06A814205D1F0
:101550000F2080043040A16A884201D0012042E57A
:10156000002040E50010024070B50446002C01D177
:10157000012070BD606A002808D1FF210531606834
:10158000884200D105E00021E16102E000212161F3
:1015900061610021A1625D20005D002804D15C2012
:1015A0000155204600F066F802215D2001552068B3
:1015B0000068402188432168086007210902E0682B
:1015C000884201D9002501E001252D030F210902E0
:1015D000E068884206D007210902E068884201D00D
:1015E0000021A162FF21053160680840212292029A
:1015F000A168114008430222216911400843217D5E
:10160000C907C90F08431202A169114008433822D3
:10161000E169114008438022216A11400843920188
:10162000A16A1140084321680860A069000C0421E8
:1016300008401022616A114008430822616B114082
:1016400008430F221202E1681140084301210903F7
:1016500029400843216848602068C0690121C90207
:1016600088432168C8610020206601215D20015562
:1016700000207EE710B586B00446142101A8FEF7CD
:10168000A1FD1949206888422BD100BF1748806905
:1016900089140843154988610846806989140840FF
:1016A000009000BF00BF00BF1048406949010843D7
:1016B0000E494861084640690121490408400090EC
:1016C00000BF00BFA02001900220029000200390E4
:1016D000032004900020059001A90920C006FFF70F
:1016E000CDF806B010BD00000030014000100240EF
:1016F000FFB583B0044616461D460020029000BF89
:101700005C20005D012802D1022007B0F0BD01215C
:101710005C20015500BFFFF7B9F9074601965D202F
:10172000005D012802D002200290BDE0049800284C
:1017300001D0002E02D101200290B5E003215D20EE
:101740000155002020660498A063A687E687002044
:1017500020640021442001534620015300202065CD
:10176000E0640121C903A06888420CD120680068A8
:1017700040218843216808602068006801218903AE
:10178000084321680860206800684021084040281C
:1017900004D0206800680843216808600721090216
:1017A000E068884232D96068002802D00198012898
:1017B00009D1A06B00882168C860A06B801CA06361
:1017C000E08F401EE0871DE020688068022108400D
:1017D00002280AD1A06B00882168C860A06B801C19
:1017E000A063E08F401EE0870CE0FFF74FF9C01BBD
:1017F000A84202D3681C002801D1002D02D1032089
:10180000029051E0E08F0028DED131E060680028CE
:1018100002D00198012809D1A06B007821680873D3
:10182000A06B401CA063E08F401EE0871DE0206895
:1018300080680221084002280AD1A06B0078216844
:101840000873A06B401CA063E08F401EE0870CE093
:10185000FFF71CF9C01BA84202D3681C002801D165
:10186000002D02D1032002901EE0E08F0028DED17F
:101870003A462946204601F090FA002801D020205F
:101880002066A068002809D100BF00902068C068C9
:10189000009020688068009000BF00BF206E002884
:1018A00001D00120029000BF01215D20015500BF41
:1018B00000215C20015500BF029826E770B5044660
:1018C0002546681E0949884201D901200CE0681E9E
:1018D000074948610321081F02F0ECF80020044981
:1018E000886107200861002070BD0000FFFFFF0035
:1018F00000E000E07047704730B502460B4600BF7D
:101900003C20805C012801D1022030BD01253C2013
:10191000855400BF02253D20855410684468106836
:10192000816870252046A84304461868044310685F
:1019300044600D4D1068A84203D00C4D1068A842B9
:1019400007D180250846A84301465868014310681E
:10195000816001253D20855400BF00253C20855431
:1019600000BF0020D1E70000002C0140000400402F
:1019700010B50446002C01D1012010BD3D20005DB2
:10198000002805D100213C200155204600F022F816
:1019900002213D200155211D206801F06DFB012130
:1019A0004620015500BF3E2001553F2001554020F3
:1019B00001554120015500BF00BF42200155432081
:1019C0000155442001554520015500BF3D200155DA
:1019D0000020D2E738B504460D492068884215D169
:1019E00000BF0C488069C91408430A498861084649
:1019F0008069C9140840009000BF00BF0022114652
:101A00000D20FFF703F90D20FFF7F2F838BD0000B5
:101A1000002C01400010024001463D20405C01289E
:101A200001D00120704702233D2043540868C0685C
:101A3000012318430B68D8600E4B0868984203D006
:101A40000D4B086898420CD1086880684207520F15
:101A5000062A0CD008680068012318430B68186038
:101A600005E008680068012318430B68186000202F
:101A7000D8E70000002C014000040040F8B50446FF
:101A80000D460020009000BF3C20005D012801D1E0
:101A90000220F8BD01213C20015500BF02213D205C
:101AA0000155206886687721304688430646FF2125
:101AB0000902304688430646206886602868502818
:101AC00034D00CDC202851D004DC00284CD0102865
:101AD00052D14AE030284AD040284DD13AE060281F
:101AE0002ED0702807D001210903401A02D0401AD5
:101AF00042D10DE043E0EB686A68A968206801F014
:101B000003FB20688668772006432068866036E0FD
:101B1000EB686A68A968206801F0F6FA20688068B6
:101B20000121890308432168886028E0EA68696820
:101B3000206801F003FB5021206801F0F3FA1EE059
:101B4000EA686968206801F012FB6021206801F0F2
:101B5000E9FA14E0EA686968206801F0EFFA4021C8
:101B6000206801F0DFFA0AE000BF00BF00BF29686B
:101B7000206801F0D7FA02E00120009000BF00BF0A
:101B800001213D20015500BF00213C20015500BF2F
:101B900000987EE7704710B504462068006902216E
:101BA0000840400800281CD02068C0680840400851
:101BB000002816D0481F216808610120207720687E
:101BC00080698007800F002803D02046FFF7E2FFDE
:101BD00005E0204600F0C3F8204600F0C1F80020E0
:101BE00020772068006904210840800800281DD063
:101BF0002068C06808408008002817D0C8432168C2
:101C000008610220207720688069032109020840CA
:101C1000002803D02046FFF7BDFF05E0204600F076
:101C20009EF8204600F09CF800202077206800698C
:101C300008210840C00800281CD02068C06808405F
:101C4000C008002816D0C843216808610420207706
:101C50002068C0698007800F002803D02046FFF766
:101C600099FF05E0204600F07AF8204600F078F869
:101C70000020207720680069102108400009002812
:101C80001DD02068C06808400009002817D0C8434C
:101C900021680861082020772068C06903210902B3
:101CA0000840002803D02046FFF774FF05E02046D7
:101CB00000F055F8204600F053F800202077206807
:101CC0000069C007C00F01214840484000280CD0DF
:101CD0002068C068084048404840002805D0C81E19
:101CE00021680861204600F03DF8206800698021E5
:101CF0000840C00900280BD02068C0680840C0090F
:101D0000002805D0C843216808612046FFF7F2FD8E
:101D10002068006940210840800900280BD0206815
:101D2000C06808408009002805D0C84321680861C0
:101D3000204600F047F8206800692021084040094B
:101D400000280BD02068C06808404009002805D052
:101D5000C843216808612046FFF7CDFD10BD7047DC
:101D60007047000010B50146144A0868904223D11C
:101D70001348006800281FD0114A1268106810E04C
:101D80004279002A0CD000280AD00288521C92B254
:101D9000028043889A4203D101220271002202800C
:101DA0000C30074A12681368054A126812790C242D
:101DB00062439A188242E3D810BD0000002C014013
:101DC0009C00002070477047F8B50446A56FE66F89
:101DD0002068806880210840802827D1212D25D1C6
:101DE00000BF01F0A3FE0746012001F0B1FE20680C
:101DF00080688021884321688860384601F0A8FE09
:101E000000BFE06E00280ED0E06EFEF7EBFB00286E
:101E100009D0E06EFEF73BFC202804D11021802081
:101E200001510320F8BD204601F0E0FB20688068E6
:101E300040210840402827D1222E25D100BF01F0A3
:101E400075FE0746012001F083FE2068806840216E
:101E5000884321688860384601F07AFE00BF206F11
:101E600000280ED0206FFEF7BDFB002809D0206FA0
:101E7000FEF70DFC202804D1102180200151032001
:101E8000D0E7204601F058FB0020CBE77047000068
:101E9000F0B585B004462068C569206806682068EA
:101EA0008768E04828400390039800280FD120203D
:101EB000284000280BD020203040002807D0606E3A
:101EC000002802D02046616E884705B0F0BD039817
:101ED00000287DD0F807C00F002803D1D248304039
:101EE0000028F6D0E807C00F00280DD0FF200130F1
:101EF0003040002808D00120216808628020005965
:101F000001210843802108510220284000280CD0DC
:101F1000F807C00F002808D002202168086280203E
:101F2000005904210843802108510420284000283A
:101F30000CD0F807C00F002808D0042021680862E0
:101F400080200059022108438021085108202840A0
:101F5000002810D020203040002803D1F807C00FFF
:101F6000002808D008202168086280200059082134
:101F70000843802108510120C002284000280ED0CB
:101F8000012080063040002809D00120C0022168CD
:101F900008628020005920210843802108518020B8
:101FA0000059002854D020202840002809D02020A3
:101FB0003040002805D0606E002802D02046616EB7
:101FC000884780200059029020688068402100E006
:101FD0003FE00840402804D028210298084000280B
:101FE00030D0204601F0A8FA2068806840210840DF
:101FF000402823D100BF01F099FD0190012001F09C
:10200000A7FD206880684021884321688860019886
:1020100001F09EFD00BF206F00280BD08348216F88
:102020004863206FFEF707FB002811D0206F416B3B
:1020300088470DE02046FFF729FF09E02046FFF71B
:1020400025FF05E02046FFF721FF002180200151F8
:102050003BE7206E01287AD110202840002876D056
:10206000102030400028FAD0102021680862206833
:1020700080684021084040286BD1206F006840688C
:1020800080B201900198002860D05820015B01982F
:1020900081425BDD5A2101980853206F8069202816
:1020A0004BD000BF01F042FD0090012001F050FD37
:1020B00020680068FF21013188432168086000988A
:1020C00001F046FD00BF00BF01F030FD009001208F
:1020D00001F03EFD2068806840084000216888606B
:1020E000009801F035FD00BF00BF01F01FFD00901A
:1020F000012001F02DFD206880684021884321687F
:102100008860009801F024FD00BF2020E0670020D7
:10211000206600BF01F00AFD0090012001F018FDCB
:10212000206800681021884321680860009801F049
:102130000FFD00BF206FFEF755FA5820025B5A20B2
:10214000005B101A81B22046FFF73DFEBDE64CE071
:10215000FFE75820015B5A20005B081A80B201900B
:102160005A20005B00283FD0019800283CD000BFD7
:1021700001F0DCFC0090012001F0EAFC206800681E
:10218000FF212131884321680860009801F0E0FCBC
:1021900000BF00BF01F0CAFC0090012001F0D8FC94
:1021A000206880684008400021688860009801F03D
:1021B000CFFC00BF2020E06700202066606600BFE3
:1021C00001F0B4FC0090012001F0C2FC206800681E
:1021D0001021884321680860009801F0B9FC00BF15
:1021E00020460199FFF7EFFD6FE680202840002888
:1021F0000AD080203040002806D0A06E002802D0EF
:102200002046A16E884760E640202840002807D07D
:1022100040203040002803D0204601F0CCF954E69D
:1022200000BF52E60F080000200100047D330008C3
:1022300010B50446002C01D1012010BDA069002872
:1022400000D000E000BFA06F002805D1002174205D
:102250000155204600F02CF82420A0672068006873
:102260004008400021680860204601F0D5F90128A7
:1022700000D1E2E7606A002802D0204600F0CCFFDF
:10228000206840680121C9028843216848602068AD
:1022900080680821884321688860206800680121DF
:1022A000084321680860204601F02EF8C5E70000C9
:1022B00010B586B00446142101A8FDF783FF3B4901
:1022C000206888426FD100BF3948806901218903A5
:1022D000084337498861084680690121890308401D
:1022E000009000BF00BF00BF31484069C9000843EB
:1022F0002F4948610846406901214904084000907F
:1023000000BF00BF03204002019002200290002085
:102310000390032004900120059001A90920C00624
:10232000FEF7ACFA234824490860102048600021D9
:10233000214881608021C16000210161416181618A
:1023400001210903C161FEF71DFA002801D0FEF743
:1023500019F900BF1848E066446200BF1548143000
:1023600016490860002048600021144881608021DF
:10237000C160002101614161816101214903C161A5
:10238000FEF700FA002801D0FEF7FCF800BF0B486A
:102390002067446200BF002211461B20FEF736FC76
:1023A0001B20FEF725FC06B010BD000000380140E0
:1023B000001002401C00024078020020BC020020F5
:1023C000F8B504460D461646E06F20283ED1002D94
:1023D00001D0002E01D10120F8BD01210903A06820
:1023E000884208D12069002805D1E807C00F0028DD
:1023F00001D00120F0E700BF7420005D012801D169
:102400000220E9E701217420015500BF0020206669
:1024100020684068C9050840002811D000BF01F0BD
:1024200085FB0746012001F093FB2068006801212D
:102430008906084321680860384601F089FB00BF1F
:1024400032462946204601F0A7F9C5E70220C3E736
:1024500070477047F8B504460E461546A06F202811
:1024600068D1002E01D0002D01D10120F8BD01213D
:102470000903A068884208D12069002805D1F00727
:10248000C00F002801D00120F0E700BF7420005DDC
:10249000012801D10220E9E701217420015500BF84
:1024A000E66450200553522005530021802001513D
:1024B0002120A067E06E002821D01F48E16E8862CD
:1024C0001E48E16EC8621E48E16E08630020E16E9E
:1024D000486323681A4628322B46E16CE06EFEF70B
:1024E0007FF900280BD010218020015100BF00216E
:1024F0007420015500BF2020A0670120B6E74020CE
:102500002168086200BF00217420015500BF00BF90
:1025100001F00CFB0746012001F01AFB20688068DF
:102520008021084321688860384601F011FB00BF14
:1025300000209BE7022099E7CD3400082B350008E6
:10254000953300087047704700BFFEE770B504463A
:10255000012C00D100E0002005462A464021092038
:10256000C006FEF78CFA70BD08B500BF0A48406986
:10257000012108430849486108464069C007C00F67
:10258000009000BF00BF002211460A20FEF73EFB6C
:102590000A20FEF72DFB08BD0010024000B587B0F1
:1025A000142102A8FDF70EFE00BF35484069012145
:1025B0008905084332494861084640690121890577
:1025C0000840019000BF00BF00BF2D48406949117D
:1025D00008432B49486108464069012149040840E5
:1025E000019000BF00BF00BF254840694900084373
:1025F0002349486108464069012189040840019047
:1026000000BF00BF01221F490920C006FEF737FAAC
:10261000002240210920C006FEF731FA1F20029057
:102620000120039004900320059002A90920C00610
:10263000FEF724F94020029001200390002004902E
:10264000059002A90920C006FEF718F902200290A1
:10265000002003900120049002A90B48FEF70EF918
:102660000320400302900120039004900020059075
:1026700002A90920C006FEF701F907B000BD00005D
:10268000001002401F6000000004004810B5084818
:10269000084908600420486007490648C1600749A6
:1026A0008160FEF7F9F9002801D0FDF76BFF10BD3E
:1026B0000030004038010020FF0F0000E20400005D
:1026C00070B594B0FDF762FF044625072D0FF0208A
:1026D000204006460F2D01DC284600E01020694608
:1026E000087180210BA801710DA8017105490F9196
:1026F000054813900549119101A90548FDF790FE81
:1027000014B070BD44000020F4010020B800002087
:102710004000002010B5124812490860FF20053023
:10272000486000210F4881600F210902C16000212B
:10273000016141610121490281610821C1610021DA
:102740000162416281620721C162002101630821A7
:102750004163FEF709FF002801D0FDF713FF10BD0C
:10276000003001404801002000B587B000200390F0
:102770000490059006900190029017481749086050
:10278000FF20E03048600021144881607D21C900AD
:10279000C16000210161416180218161FFF7E8F89A
:1027A000002801D0FDF7EEFE01200003039003A9ED
:1027B0000A48FFF763F9002801D0FDF7E3FE002087
:1027C0000190029001A90548FFF796F8002801D072
:1027D000FDF7D8FE07B000BD002C0140AC01002081
:1027E00010B50E480E490860E12040024860002103
:1027F0000B488160C16001610C2141610021816150
:10280000C16101620020064948620846FFF710FDD9
:10281000002801D0FDF7B6FE10BD000000380140D1
:10282000F401002073B50446164D002D29D06068D0
:10283000002826D0684680880105090D019120787E
:10284000002802D00B20000301E0032000036946AA
:10285000898808430190228910231A4311460022D7
:102860006068FEF70CF9084B022201A92846FEF722
:102870003FFF228910231A43114601226068FEF7A8
:10288000FEF87CBD48010020FFFF0000FEB50446B5
:102890000E4617461D461AA103C9019100902178E2
:1028A0006846017031128170C6700021017169089B
:1028B000417185712C22115DA06AFDF783FC002116
:1028C0002D20015507226946A06AFDF760FC2D20E6
:1028D000005DC01DC1B22D2001552D21095DA26AE8
:1028E00050182A463946FDF752FC2D20005D40194C
:1028F000C1B22D20015500212046E2689047FEBD5F
:10290000004600000000000010B503480068816820
:1029100001480068884710BD40000020FFB583B023
:1029200004460D4616463C20005D022801DA1020C0
:1029300000E02020029000270298854228DA4420F7
:10294000005D00280ED101963C20005D022803D1D5
:102950006900206C401803E0206C4030690040188A
:1029600000900DE03C20005D022803D16900206C3E
:10297000401803E0206C4030690040180190009638
:10298000069A00990198FDF702FC002800D0012763
:10299000384607B0F0BD000070B50446002545205C
:1029A000005D002853D00021452001553520005DF1
:1029B000022808D93522125D921E91B2244A206B5A
:1029C000FDF7F0FD0546206B00782178884236D16E
:1029D0003520005D801E216B085C01023520005D02
:1029E000401E226B105C014328122A02104380B261
:1029F000814224D1206B407806280FD004DC0328C4
:102A000007D0042819D105E0102808D0112814D1C6
:102A100009E000BF2046A16988470FE000BF2046BB
:102A2000E16988470AE02046216A8847A06B0028B0
:102A300002D00121A06B017000E000BF00BF352271
:102A4000115D206BFDF7BEFB00213520015570BDE7
:102A5000FFFF000038B504460D46002D17D12D228A
:102A6000115D134AA06AFDF79DFD00902D20005DC9
:102A7000A16A09186846007808706846407848706E
:102A80002D20005D801CC1B22D20015500BF2D23DB
:102A90001A5DA16AA06CFFF7DDFC00BFA06C0068A6
:102AA000C0694021084080090028F7D038BD0000E7
:102AB000FFFF000070B504460D46A06C0068C069B9
:102AC00010210840000900281CD01020A16C0968C2
:102AD0000862002C13D0206B002810D0A06CFFF7E8
:102AE00073F93420005D29684968401AC1B2352065
:102AF000015534231A5D216BA06CFFF761FC0121A5
:102B00004520015570BDF8B50446206B00790002E0
:102B1000216B497908434006050E284601F090F8DC
:102B20000646002E00D14BE029463046FDF74AFB11
:102B30002C22115DA06AFDF745FB00212D200155D7
:102B4000216B0A78A06A0270497841702D20005DDF
:102B5000801CC1B22D200155005DA16A0D542D20AD
:102B6000005D401CC1B22D200155206B4078032828
:102B700001D1032100E002213C2001550021442025
:102B80000155206B80780002226BD27810430146F9
:102B90002B46324620466769B8472D21095DA26A57
:102BA00050182A463146FDF7F2FA2D20005D4019F3
:102BB000C1B22D20015500212046E268904700BF98
:102BC000304600F0C9FFF8BD10B504462C22115D57
:102BD000A06AFDF7F7FA00212D200155216B0A7834
:102BE000A06A0270497841702D20005D801CC1B23E
:102BF0002D2001550121025D005D401CC3B22D2036
:102C00000355A06A8154FDF7C1FC2D210A5D095DC1
:102C1000491CCBB22D210B55A16A885400212046B6
:102C2000E268904710BDF8B50446002600200090E9
:102C300003213C200155012144200155206B40789F
:102C4000062809D102200090206B061D3520015D69
:102C50002D200155012508E0206B80790090206B24
:102C6000C61D06212D2001550025002E0BD0206BFE
:102C700080780002226BD2781043014667693246A1
:102C80002046009BB8472C22115DA06AFDF79AFAF6
:102C90002D231A5D216BA06AFDF779FA294620469B
:102CA000E2689047F8BD00BFFEE70000F8B50446B3
:102CB0000D466178C900134A50582946FDF7E6FAD7
:102CC00000906078C0000F4A801841680098FDF7B6
:102CD00084FA0746FDF717FB86B200212846FDF768
:102CE00027FB08D008492846FDF72CFB01D80748E8
:102CF00002E0304600E00020064631462046FFF75D
:102D000091FDF8BD000000200000A841FFFF000079
:102D1000704770B504460026002C3CD0206800287F
:102D200039D0002021680968887100212068006876
:102D30008173206800F046FE0120216809688871CF
:102D40000121206800688173206800F03BFE0025A7
:102D50001FE0606800281AD0002120680068817395
:102D6000206800F02FFE21896068FDF77FFEA072C9
:102D7000A07AC007C00F0721491B88403043C6B264
:102D80000121206800688173206800F01BFE681C28
:102D9000C5B2082DDDD3304670BDF8B504460E46E9
:102DA0001546334600220321C9022046009500F053
:102DB00029F8002805D0206E202108432066032032
:102DC000F8BD3346002280212046009500F098F897
:102DD000002805D0206E2021084320660320EFE75D
:102DE00033460022032149022046009500F00AF8EC
:102DF000002805D0206E2021084320660320DFE74D
:102E00000020DDE7F0B585B004460D4616461F46A6
:102E100000200090FDF73AFE0A99401A381A0390F4
:102E2000FDF734FE029020680C30019033480068B2
:102E300023214843000D03994843049056E00320A2
:102E40004002854206D1002E04D1019801780091FC
:102E500068460078781C002848D0FDF717FE0299D4
:102E6000411A0398814202D20398002837D1206882
:102E70004068E021884321684860FF21053160688F
:102E800088420ED10121C903A068884203D04911AC
:102E9000A068884205D120680068402188432168E5
:102EA000086001214903A06A88420DD100BF206853
:102EB0000068884321680860206800680121490390
:102EC00008432168086000BF01215D20015500BF53
:102ED00000215C20015500BF032005B0F0BD04981F
:102EE000002800D103900498401E04902068806858
:102EF0002840B042A3D10020EFE70000AC00002042
:102F0000FFB583B004460D461E46FDF7BFFD0C9984
:102F1000401A371AFDF7BAFD01902F4800684001AA
:102F2000000D7843029049E0701C002846D0FDF760
:102F3000ADFD0199401AB84201D2002F37D1206867
:102F40004068E021884321684860FF2105316068BE
:102F500088420ED10121C903A068884203D04911DB
:102F6000A068884205D12068006840218843216814
:102F7000086001214903A06A88420DD100BF206882
:102F800000688843216808602068006801214903BF
:102F900008432168086000BF01215D20015500BF82
:102FA00000215C20015500BF032007B0F0BD02984E
:102FB000002800D100270298401E029020688068F7
:102FC0002840A84201D1012100E00021059881425A
:102FD000AAD10020E9E70000AC000020704710B53E
:102FE000FDF7A0FD10BD00B595B0302109A8FDF793
:102FF000E9F8002005900690079008900190029053
:10300000039004900920099001200A90109002205A
:103010001190C1031291C10413910021149109A8C8
:10302000FDF7DCFF002801D0FDF7ACFA0720059082
:1030300002200690002007900890012105A8FDF7C6
:1030400097FE002801D0FDF79DFA01200190002095
:10305000039001A8FDF7E4FD002801D0FDF792FAE6
:1030600015B000BD7047000010B50248FEF793FD93
:1030700010BD0000AC01002010B502681D4B984245
:1030800002D01D4B984205D170241346A3431A4623
:103090004B681A43174B98420BD0174B984208D0F5
:1030A000164B984205D0164B984202D0154B9842C9
:1030B00006D1032424021346A3431A46CB681A43BD
:1030C00080241346A3434C6923431A4602608B684D
:1030D000C3620B688362074B984205D0084B984245
:1030E00002D0084B984201D10B690363012343616D
:1030F00010BD0000002C01400004004000200040F2
:10310000004401400048014070B50C468168FF262C
:1031100036020D46B54329461D0215432543294372
:10312000816070BD10B50A46816870240B46A343C8
:103130001946072313431943816010BD70B50B4630
:103140001446026A056A6D086D0005628169F02601
:103150000D46B5432946250129430A261546B543A0
:103160002A4615461D432A468161026270BD70B52C
:103170000B461446056A1026B54305628169026A4A
:103180000F2636030D46B543294625032943A026BD
:103190001546B5432A461D012A438161026270BD6E
:1031A00010B50C480468A06B002811D0A06B007803
:1031B000002803D001200849087005E0064800787F
:1031C000012148400449087003480078FFF7BEF920
:1031D00010BD0000400000209800002010B50D48F0
:1031E000006804680AE02079002806D0A06800285A
:1031F00003D0A0688047002020710C340548006887
:1032000001680448006800790C2250430818A04265
:10321000E9D810BD9C000020818CC907C90F002986
:1032200008D001684968012252049143826A11431F
:10323000026851600222416A1140022907D10168E7
:103240004968D2039143C26A114302685160042263
:10325000416A1140042907D1016849681204914369
:10326000026B1143026851600822416A114008292B
:1032700007D10168496812039143426B1143026808
:1032800051601022416A1140102907D101688968F4
:1032900012029143826B1143026891602022416ABD
:1032A0001140202907D10168896812029143C26B3D
:1032B0001143026891604022416A1140402915D1B2
:1032C0000168496892039143026C1143026851609E
:1032D00001221205016C914208D10168496803225C
:1032E00052059143426C1143026851608022416A49
:1032F0001140802907D10168496812039143826C0B
:10330000114302685160704738B50446002180209F
:103310000151FDF7BBFB0546206800680821084005
:1033200008280BD114482B4600228904009020461F
:1033300000F0A4FA002801D0032038BD20680068FE
:103340000421084004280BD10B482B460022090514
:103350000090204600F092FA002801D00320ECE70C
:103360002020A067E0670020206600BF00217420B5
:10337000015500BF0020E0E7FFFFFF0170B50546E3
:103380006C6A00215A200153522001532046FEF757
:103390007DFD70BDF8B505466C6AA66FE76F2068C5
:1033A000806880210840802807D1212E05D1002186
:1033B00052200153204600F019F92068806840210E
:1033C0000840402807D1222F05D100215A2001535F
:1033D000204600F0B1F880200059102108438021D8
:1033E00008512046FEF752FDF8BD70B505466C6ADF
:1033F000A86920284CD000215A20015300BF00F0BA
:1034000095FB0646012000F0A3FB20680068FF2121
:103410000131884321680860304600F099FB00BF05
:1034200000BF00F083FB0646012000F091FB2068FE
:1034300080684008400021688860304600F088FBC2
:1034400000BF00BF00F072FB0646012000F080FBC9
:10345000206880684021884321688860304600F0F9
:1034600077FB00BF2020E067206E012810D100BF4D
:1034700000F05CFB0646012000F06AFB2068006853
:103480001021884321680860304600F061FB00BFCE
:10349000206E012805D15820015B2046FEF793FCE1
:1034A00002E02046FEF7D4FF70BD70B505466C6A99
:1034B000206E012806D15820005B41082046FEF707
:1034C00082FC02E02046FEF7C4FF70BD70B50546E1
:1034D0006C6AA869202824D000215220015300BF23
:1034E00000F024FB0646012000F032FB20688068D3
:1034F0008021884321688860304600F029FB00BFA6
:1035000000BF00F013FB0646012000F021FB2068FD
:1035100000684021084321680860304600F018FB2D
:1035200002E02046FFF70EF870BD70B50446656AEC
:103530002846FFF708F870BD70B5044600BF00F0DC
:10354000F5FA0546012000F003FB20680068FF2122
:103550002131884321680860284600F0F9FA00BF4D
:1035600000BF00F0E3FA0546012000F0F1FA206800
:1035700080684008400021688860284600F0E8FA2A
:1035800000BF206E012810D100BF00F0CFFA054621
:10359000012000F0DDFA20680068102188432168CE
:1035A0000860284600F0D4FA00BF2020E067002021
:1035B0002066606670BD70B5044600BF00F0B6FAC4
:1035C0000546012000F0C4FA2068006840218843C5
:1035D00021680860284600F0BBFA00BF2020A067E1
:1035E0000020A0662046FEF7ADFF70BD70B5044612
:1035F00000BF00F09BFA0546012000F0A9FA206800
:103600000068C021884321680860284600F0A0FABD
:1036100000BF2020A06770BDFEB5044600200090CA
:103620002169A068084361690843E1690843029081
:1036300020680068544908400299084321680860DE
:1036400020684068032109038843E1680843216832
:103650004860A0690290206A02990843029020689D
:1036600080680B2109028843029908432168886019
:1036700000BF4648006B8007800F002806D0012855
:1036800008D0022808D0032808D101E0002707E06D
:10369000022705E0042703E0082701E0102700BF08
:1036A00000BF00BF0121C903E069884239D1002F62
:1036B00006D0022F08D0042F08D0082F0DD109E022
:1036C000FDF712FC05460CE0314D0AE0FDF71EFC4B
:1036D000054606E00125ED0303E0002501200090EA
:1036E00000BF00BF002D49D06A0063685B08D01896
:1036F0006168FCF7F5FC86B2102E0FD32548864290
:103700000CD824480F38304001903007400F019901
:103710000843019001982168C8602FE001200090C3
:103720002CE0002F06D0022F08D0042F08D0082F3D
:103730000DD109E0FDF7D8FB05460CE0144D0AE079
:10374000FDF7E4FB054606E00125ED0303E0002557
:103750000120009000BF00BF002D0FD061684A0813
:103760005019FCF7BDFC86B2102E05D309488642DD
:1037700002D82068C66001E0012000900020606649
:10378000A0660098FEBD0000F369FFFF0010024034
:1037900000127A00FFFF0000F8B504460E461546F9
:1037A0006665582005530021802001512220E067E2
:1037B000206F002821D02E48216F88622D48216F6C
:1037C000C8622D48216F08630020216F4863236879
:1037D000194624312B46626D206FFDF701F8002851
:1037E0000BD010218020015100BF00217420015511
:1037F00000BF2020E0670120F8BD00BF0021742039
:10380000015500BF00BF00F091F90746012000F00C
:103810009FF920680068FF21013108432168086092
:10382000384600F095F900BF00BF00F07FF9074669
:10383000012000F08DF9206880680121084321688B
:103840008860384600F084F900BF00BF00F06EF9D0
:103850000746012000F07CF9206880684021084379
:1038600021688860384600F073F900BF0020C3E784
:10387000EB330008AB34000895330008FFB581B086
:1038800004460D4617460A9E78E0701C002875D045
:10389000FDF7FCF80499401AB04201D8002E2DD152
:1038A00000BF00F043F90090012000F051F92068BA
:1038B0000068FF21A131884321680860009800F06A
:1038C00047F900BF00BF00F031F90090012000F07F
:1038D0003FF92068806840084000216888600098AF
:1038E00000F036F900BF2020A067E06700BF00218C
:1038F0007420015500BF032005B0F0BD20680068AA
:1039000004210840002839D02068C06949020840D5
:10391000C00A002832D008462168086200BF00F0C3
:1039200005F90090012000F013F920680068FF21DC
:10393000A131884321680860009800F009F900BFB0
:1039400000BF00F0F3F80090012000F001F92068BA
:1039500080684008400021688860009800F0F8F80E
:1039600000BF2020A067E06720218020015100BF18
:1039700000217420015500BF0320BDE72068C06905
:103980002840A84201D1012000E00020B84200D127
:103990007BE70020B0E7000010B50748006800286A
:1039A00006D005480068054942680348006890470A
:1039B0000348FEF76DFA10BD40000020BC02002055
:1039C000F401002010B50168096849698AB20168EC
:1039D0000AE08B79002B02D08B881A4303E08C8895
:1039E0001346A3431A4608310479E40003681B19FF
:1039F0008B42EED8002809D00168002906D091B288
:103A0000D3431B04194303681B68996110BD000070
:103A100070B598B0602219496846FCF7B8FB1848A1
:103A20000468202000F00CF90546002D00D11FE0AD
:103A300020212846FCF7C6FB002C0AD003213C209D
:103A4000015500214420015520232A46204666695D
:103A5000B047002609E0B200A9580C2272436B4619
:103A6000D018FFF723F9701CC6B2082EF3D300BF9D
:103A7000284600F071F818B070BD0000AC3C00089A
:103A800040000020F8B582B28BB2040C0D0C104639
:103A90005843002126465E43370C3604801979418D
:103AA00016466E43370C36048019794126466E431C
:103AB0008919F8BD10B5002819DB1A4A03231B0227
:103AC000D21883089B00D2588307DC0EFF23A34043
:103AD0009A438B071B0E8407E40EA3401A43114B35
:103AE000032424021B198408A4001A5118E00E4A6A
:103AF00003071B0F083B9B089B00D2588307DC0E73
:103B0000FF23A3409A438B071B0E8407E40EA340B8
:103B10001A43054B0407240F083CA408A4001A51BB
:103B200010BD000000E100E01CED00E0EFF31080AC
:103B3000704702E008C8121F08C1002AFAD1704776
:103B40007047002001E001C1121F002AFBD170471D
:103B500080F310887047000010B5002823D0124B66
:103B60000022001F196803E0814203D80A46496811
:103B70000029F9D1002A0AD01368841A9C4204D182
:103B8000006818181060104602E0506000E01860ED
:103B9000002907D002680B1A934203D10B68D21890
:103BA00002604968416010BDB0000020FCF7C6FF0C
:103BB000FFF719FAFEF7F2FCFEF7D6FCFEF710FE4F
:103BC000FEF7D2FDFEF7A6FDFEF760FD1748FDF7F4
:103BD00023FF174817490860FEF772FD1648006872
:103BE00000281CD014480068806C00680068102110
:103BF000084311490968896C096808600E4B1B6805
:103C000030331A790C4B1B68196B0B4B1B68986C83
:103C1000FEF7D6FB0021084800683030417104E00F
:103C20000648FCF777FFFFF7D9FAF9E7AC01002067
:103C3000900000209C00002040000020380100205F
:103C4000F0B50B30C108C900144F0026144A0FE02C
:103C500003688B420BD38B4205D95C1A4318456825
:103C600030C3083B00E04368136002C004E0021D5B
:103C700010680028ECD13046002803D138680028AD
:103C800001D00020F0BD064A06481060064A121A0C
:103C9000D208D20044C001203860D7E7B400002029
:103CA000B0000020040300200005002000000000F8
:103CB000000000480200010001010000000000486F
:103CC00002000100000200000000004804000100A2
:103CD000010300000000004804000100000400008F
:103CE000000000480100010001050000000000483C
:103CF000010001000006000000000048080001006B
:103D000001070000000000480800010058000020E2
:103D10000004004802000000000000000000000055
:103D20000102030406070809000000000102030461
:103D3000503D000800000020B8000000323B0008A1
:103D4000083E0008B800002048080000423B000878
:103D5000C49C48436896C0BF1E264743FE4827417F
:103D6000907E4C436F6A9BC109B94A43AC2DA2C1F6
:103D7000C49C48436896C0BF1E264743FE4827415F
:103D8000907E4C436F6A9BC109B94A43AC2DA2C1D6
:103D900000000000000000000000004800200000BB
:103DA0000000004800400000480000200200000021
:103DB00000000A0000010000A1310008000001001D
:103DC0000001000009290008000032000001000085
:103DD000113A00080000640000010000830500089B
:103DE000600000200400000001000000000000004E
:103DF00000000000040000000100000000127A0032
:083E00000000000000000000BA
:04000005080000B13E
:00000001FF
