:020000040800F2
:10000000481F00200503000881470008293900081F
:1000100000000000000000000000000000000000E0
:10002000000000000000000000000000A9470008D8
:1000300000000000000000008B02000811480008CA
:10004000170300080000000017030008170300084A
:100050001703000817030008170300081703000818
:1000600000000000170300089D220008B5220008C8
:10007000170300081703000817030008000000001A
:10008000170300081703000800000000170300080A
:100090001703000817030008A94800081703000801
:1000A0001703000817030008170300080D4F000886
:1000B000314F000800F002F800F0BDF80CA030C885
:1000C000083824182D18A246671EAB4654465D46D4
:1000D000AC4201D100F0AFF87E460F3E0FCCB646E1
:1000E0000126334200D0FB1AA246AB4633431847E1
:1000F000D07A0000F07A0000103A02D378C878C1B4
:10010000FAD8520701D330C830C101D504680C6059
:10011000704700000023002400250026103A01D378
:1001200078C1FBD8520700D330C100D50B607047AF
:1001300010B56E2902D100F0EBFC10BD702902D180
:1001400000F02DFE10BD662902D107F013FA10BD94
:10015000652902D107F00EFA10BD672902D107F018
:1001600009FA10BD612902D107F00CFA10BD03682D
:100170001B0A01D380231943692902D100F092FCA4
:1001800010BD642902D100F08DFC10BD752902D18B
:1001900000F088FC10BD6F2902D100F0ABFD10BD4E
:1001A000782902D100F0E8FD10BDE92902D100F064
:1001B00047FD10BDE42902D100F042FD10BDF52934
:1001C00002D100F03DFD10BDEF2902D100F09EFDEF
:1001D00010BDF82902D100F0DDFD10BD0368DB0978
:1001E00001D380231943632902D101F0C2FA10BD63
:1001F000732902D101F0C5FA10BDE32902D101F043
:10020000CFFA10BDF32902D101F0D2FA10BD0020BF
:1002100010BD1FB501F02CFB04000020002107F0E9
:100220003BF9401C60600020002107F01FF9E060EE
:100230001FBD10B510BD01F0F3FA1146FFF7E9FF3D
:1002400004F015FF01F088FE03B4FFF7F2FF03BCD2
:1002500001F08EFE084B19680868203080F3098889
:10026000022080F31488BFF36F8F3FBCAE4608BCFA
:1002700004BC62B6184700009C000020EFF3108019
:1002800072B6704780F310887047EFF309800E4B09
:100290001A6820381060F0C044464D4656465F4606
:1002A000F0C008B572B606F05DFC62B60CBC116811
:1002B00008681030F0C8A046A946B246BB4680F395
:1002C00009882038F0C818479C00002070B5054602
:1002D0000C46164602E00FCC0FC5103E102EFAD287
:1002E000082E02D303CC03C5083E042E07D301CC4D
:1002F00001C5361F03E021782970641C6D1C761E31
:10030000F9D270BD0748804707480047FEE7FEE77F
:10031000FEE7FEE7FEE7FEE704480549034A054B12
:1003200070470000A5480008B5000008481D0020DF
:10033000481F0020481D0020FEB5054610460C460B
:10034000184373D0AE468C460020AD1A01469C413E
:1003500067D36646002701243D46B61A9D4102D365
:1003600013463A462124654676462F04360C3E4312
:100370002D0CB61A9D4104D3150C1B042B431204FB
:100380001034654676462F06360A3E432D0AB61AC5
:100390009D4104D3150E1B022B43120208346546FF
:1003A00076462F0736093E432D09B61A9D4104D3E0
:1003B000150F1B012B431201241D65467646AF071E
:1003C000B6083E43AD08B61A9D4104D3950F9B0075
:1003D0002B439200A41C65467646EF0776083E4301
:1003E0006D08B61A9D411AD392185B41641C16E041
:1003F0000018764665464941B71A9D410191009023
:1004000009D36046B11A98418E46844600980199F6
:100410000025401C6941DD0752082A435B08641E21
:10042000E6D57246634603B0F0BDFFE70020014603
:10043000C046C0462A462346F5E700007CB51D4667
:1004400016460C00009001D00019401E084B7B445A
:100450002A4669460190304600F073FB002C0546A1
:1004600003D06946002000F07FFB28467CBD0000D9
:100470002107000030B5441C03E00178401C00292E
:100480000DD08107F9D10B4BDD0104C8D11A91437E
:100490002940FAD0001B0A0603D0C01E30BD001B45
:1004A00030BD0A0401D0801E30BD0902FCD0401EC0
:1004B00030BD0000010101010346F0B50B439B076D
:1004C0002DD1244DEF01042A29D308C810C95E1B81
:1004D0009E43121F3E4017D0D8B2E1B2401A3106F7
:1004E000014310D198B2A1B2401A310401430AD19C
:1004F00018022102000A090A401A3102014302D1FE
:10050000180E210E401AF0BDA342DCD018BA21BA51
:10051000884201D90120F0BD0020C043F0BD002A6F
:1005200001D10020F0BD03780C78401C491C002B41
:100530000DD0A3420BD1521E09D003780C78401C79
:10054000491C002B03D0A34201D1521EEBD1181B32
:10055000F0BD00000101010110B5044600F002F8F1
:10056000204610BDF8B5042A2CD3830712D00B788F
:10057000491C0370401C521E83070BD00B78491C8A
:100580000370401C521E830704D00B78491C037073
:10059000401C521E8B079B0F05D0C91ADF00202379
:1005A000DE1B08C90AE0FFF791FEF8BD1D4608C929
:1005B000FD401C46B4402C4310C0121F042AF5D243
:1005C000F308C91A521EF0D40B78491C0370401C62
:1005D000521EEAD40B78491C0370401C012AE4D453
:1005E00009780170F8BDD2B210B513029A1813043D
:1005F0009A1800F00EF810BD01E004C0091F04298C
:10060000FBD28B0701D50280801CC90700D0027085
:10061000704700290BD0C30702D00270401C491E4E
:10062000022904D3830702D50280801C891EE3E7D8
:100630000022EEE70022DFE7024670B50A43920788
:100640002AD11E4DEE0104C808C9541B94433440FE
:1006500017D0D0B2D9B2401A2106014310D190B2BE
:1006600099B2401A210401430AD110021902000A6A
:10067000090A401A2102014302D1100E190E401A34
:1006800070BD9A42DFD010BA19BA884201D9012050
:1006900070BD0020C04370BD02780B78401C491C1F
:1006A000002A09D09A4207D102780B78401C491CD5
:1006B000002A01D09A42EFD0D01A70BD0101010189
:1006C000002203098B422CD3030A8B4211D300234F
:1006D0009C464EE003460B433CD4002243088B4229
:1006E00031D303098B421CD3030A8B4201D39446B6
:1006F0003FE0C3098B4201D3CB01C01A52418309A9
:100700008B4201D38B01C01A524143098B4201D362
:100710004B01C01A524103098B4201D30B01C01A8D
:100720005241C3088B4201D3CB00C01A5241830807
:100730008B4201D38B00C01A524143088B4201D334
:100740004B00C01A5241411A00D201465241104694
:1007500070475DE0CA0F00D04942031000D3404209
:10076000534000229C4603098B422DD3030A8B423F
:1007700012D3FC22890112BA030A8B420CD38901DD
:1007800092118B4208D3890192118B4204D38901C3
:100790003AD0921100E08909C3098B4201D3CB0101
:1007A000C01A524183098B4201D38B01C01A5241B6
:1007B00043098B4201D34B01C01A524103098B42BA
:1007C00001D30B01C01A5241C3088B4201D3CB00A5
:1007D000C01A524183088B4201D38B00C01A524188
:1007E000D9D243088B4201D34B00C01A5241411A5F
:1007F00000D20146634652415B10104601D340428D
:10080000002B00D54942704763465B1000D340423D
:1008100001B50020C046C04602BD70477047704712
:10082000F0B5FF252D04C609C209FF2704462E4056
:100830000137CB093E4348402A402B400746002A57
:100840006BD0002B69D0AA4267D0AB4265D000289C
:1008500000DA32460125ED0529432C430902200226
:10086000090AD21A4B0C7F24E31A434C000A7C4439
:10087000E35C7D242404121914145B00A21888423E
:1008800001D3521C00E0400049420C465C43241155
:100890005C43DB016415E318040A5C43C502200DC8
:1008A0000C4644436419250A5D432303EC0C0D46B2
:1008B000654300030019EB184C42A34201D35B18B7
:1008C000401CD4052018002B07D05B00C91804D3A6
:1008D000401C002901D1400840003F2189048A4280
:1008E00009D3002A08DC1106090F04D003214907A7
:1008F0004018C00FC007F0BD012241001206891840
:100900007F2252069142F6D205214907C84201D5FD
:100910009010F0BDFF20C005F0BD002F00DA324678
:100920001648AA4207D2AB4205D21902090E17D0C7
:10093000F80FC007F0BDFF2563002D06AB42F9D8C4
:100940004900A942F6D8AB4201D1A942F2D0A9424E
:1009500001D1002101E061004908D0050843F0BD44
:100960001102090EFBD0FF200243D005F0BD0A465C
:100970000146104654E700002A6F00000000C07FC7
:100980001F22030C02D10F2200041CD0030E01D140
:100990000002083A030F01D10001121F830F01D199
:1009A0008000921E002801DB4000521ED205511823
:1009B000021251181922904004D3491C002801D179
:1009C0004908490008467047C10FC90700D0404296
:1009D000012292071143D3E701218907D0E770B5BF
:1009E000044685690068C10601D5302600E020264E
:1009F000C00707D070BD62683046A1689047206A82
:100A0000401C20626D1EF6D570BD70B50446856928
:100A10000078C00707D170BD6268A16820209047A8
:100A2000206A401C20626D1EF6D570BD09684A051B
:100A300001D540B27047C905FCD500B270470968BE
:100A40004A0501D5C0B27047C905FCD580B27047D0
:100A500070B50C460546012A05D02878800600D5D9
:100A6000EA69002302E0012305E05B1C934202D205
:100A7000E05C0028F9D1A869E618C01AA861286AC4
:100A8000C01828622846FFF7AAFF04E06A682078A9
:100A9000A968641C9047B442F8D32846FFF7B5FF15
:100AA00070BD0000F7B5002575291068009914A6DF
:100AB00011D0FFF7BBFF002802DA404211A608E080
:100AC000009909688A0701D50FA602E0490704D5F5
:100AD0000EA6012501E0FFF7B2FF009F0024243796
:100AE00004E000F089FE30313955641C0028F8D14B
:100AF0002B4632462146009800F05FFAFEBD00000A
:100B0000000000002D0000002B000000200000006D
:100B100011680268006A530501D5087009E0D30521
:100B200001D5088005E0130602D5C21705C100E013
:100B3000086001207047000001694A1C02610878C2
:100B4000704700B58FB002910021059105490193CE
:100B50007944039111460490684600F02DF90FB0D6
:100B600000BD0000E5FFFFFF0A681070521C0A601C
:100B700070470CC908399A4202D2531C0B6010709E
:100B800070470000F7B50446154686B02B487844F8
:100B9000002703C83E460090019111E007986A467D
:100BA0007100415A02A800F007FE411C07D02178CD
:100BB000890603D5E269391891420ED83F18761C90
:100BC0002078800602D5E069B84206DDAE42E5DB5A
:100BD00007987100405A0028E0D1A069C01BA061AD
:100BE0002046FFF7FCFE154878445A3803C80090A9
:100BF0000020019116E041006A460798415A02A878
:100C000000F0DAFD0590401C0AD0002505E062687E
:100C100002A8A168405D90476D1C05988542F6D3F7
:100C20000498401CB0420490E5DB206AC0192062A1
:100C30002046FFF7EAFE09B0F0BD00004A6C000054
:100C4000F7B5D21D0025D20815A6D200F52905CA90
:100C500011D0002A05DA00214042914111A60A462E
:100C600008E0009909688B0701D50FA602E0490743
:100C700001D50EA601251146009F0024243704E06B
:100C800000F05EF930323A55641C02460A43F7D14F
:100C90002B4632462146009800F08FF9FEBD000039
:100CA000000000002D0000002B00000020000000CC
:100CB00070B504460021243408E05507D2086D0FB2
:100CC000303565545D072A43DB08491C15461D4332
:100CD000F3D10468002310A2250708D5A40601D487
:100CE000002904D0C46901230CA2641EC46100F071
:100CF00064F970BD10B5044621461068FFF79FFEE9
:100D0000002302462046FFF7D3FF10BDD21DD108B5
:100D1000C9000CC9CCE70000000000003000000052
:100D2000F8B50F460188090502D5224C7C4402E043
:100D3000204C7C440E3405460021243508E016077B
:100D40001209360FA65D6E541E0732431B09491C5B
:100D500016461E43F3D1224604780023240705D506
:100D6000702F06D0002901D00223113200F025F99E
:100D7000F8BD01231032F9E770B504460D4621464F
:100D80001068FFF75CFE0023024629462046FFF765
:100D9000C7FF70BDD21DD308DB000CCBC0E730B459
:100DA000036820241268234303600823C36130BC16
:100DB0000023B5E7B46A0000F3B50446002081B013
:100DC00020622046E1688847002872D0252802D09A
:100DD0006268A168ABE0594F00267F442046E16875
:100DE00088472028054608DB312D06D2781920389F
:100DF0000078002801D00643F0E7B00701D50420B1
:100E000086430020E0610746A0612A2D0AD02846CB
:100E100004F020F9002827D0B8000019303D0090D8
:100E2000856119E00298BA00121902C89161029016
:100E30002046E1688847012F054617D1E069002860
:100E40001FDA202086431CE000980A21806948436D
:100E500000994019303888612046E1688847054686
:100E600004F0F8F80028EFD1012F0AD02E2D08D178
:100E70002046E16888470546202006437F1C022F54
:100E8000C3DBA069002803DA4042A06101200643C9
:100E9000F00701D0102086436C2D0BD0682D09D0AF
:100EA0004C2D3CD06A2D38D0742D38D07A2D36D0C8
:100EB00016E040E0E1682F4620468847B8420546E4
:100EC00009D16C2F29D001208002E1680643204619
:100ED0008847054604E06C2F1DD0FF2001300643F3
:100EE000002D28D028464138192803D80120C002F7
:100EF00006432035204626602946029A1646FFF70B
:100F000017F9002810D001280BD0F61DF008C000FA
:100F10000830029055E74020E1E78020D5E7002027
:100F2000D3E7361D02964CE762682846A1689047D1
:100F3000206A401C44E7206AFEBD00002E6A0000C3
:100F40000B4670B5024689078008084319469D087C
:100F5000141AA94125090807054308092C19484115
:100F6000250A01060D43010A2C194141200C0D04EC
:100F700028430D0C00194D41002140194D41C00876
:100F800069070843E908840F8D002543840024186D
:100F90004D4124196D41121BAB4107E00925ED437A
:100FA0002C11521963410024401C61411C460A2542
:100FB0000026551BB441F1D270BDFFB504460D4665
:100FC00081B0243000902168880604D51022E069A1
:100FD0009143216000E00120A84201DD471B00E0B1
:100FE00000270498A1697A191018081AA0612078BE
:100FF000C00602D42046FFF7F2FC002608E0039862
:101000006268A168805D9047206A401C761C20625F
:1010100004988642F3DB2078C0060AD52046FFF705
:10102000DEFC06E06268A16830209047206A401C20
:10103000206238467F1E0028F4DC07E000986268D2
:10104000A168405D9047206A401C206228466D1EC2
:101050000028F3DC2046FFF7D8FC2078000602D5F4
:10106000022005B0F0BD0120FBE700007047FFB58E
:101070000C461E468FB003CA089009914F007D0DA3
:1010800000D16D1E002108460020C0460321099AA8
:1010900089050840002A03DA8200801840080840C9
:1010A000800D01280A9002DD0020C0430A900898B4
:1010B00007430DD0F048F149281848430714189801
:1010C00000281DD07542291E1DDD0A9842421BE0F2
:1010D0001898012802D00020302104E00020F243BB
:1010E00005E02154401CB042FBDB30460022189B37
:1010F000002121540F998B600A60486013B0F0BD45
:10110000BD1B6D1CDFE70A9A002900DA69420BA8B3
:1011100000F0F6FB0BAB07CB03AB07C308990998AC
:1011200000F05AFC6B4607C30146D5480918002D4C
:1011300000910BDDD24903980A9A494240180023D6
:1011400003A90390684600F0B7FE08E003990A9AE5
:101150000023081803A90390684600F057FE6B4669
:1011600007C30004000C03D00020C043410800E086
:101170001046189A002A03D00022009215461EE05D
:10118000751E05D4FFF7DCFE303262556D1EF9D5B1
:1011900001220843079602D000227F1C04E0207839
:1011A000302801D100227F1E002A069787D01EE03A
:1011B000112D07DAFFF7C4FE303262556D1C02466E
:1011C0000A43F5D1084303D00098002819D00EE057
:1011D0000021681E05E0235C625C63542254401EBB
:1011E000491C8142F7DBA81B401E07950690079A11
:1011F00018990020A0540F98079B069A81600CC094
:101200007CE711260020189059E7D21DF0B50D4655
:101210000446D10893B0C90003C90C900D9103F0A6
:10122000E1FE02460D98C00F01D02D2007E0206896
:10123000810701D52B2002E04007C00F4001032A9F
:101240000F9001D0072A05DB03462946204600F00F
:1012500013FB0EE12078800601D5E76900E0062740
:101260002846652D04D0662814D0672D69D12DE05D
:101270000020112F009001DB112300E07B1C0CAA41
:1012800003A910A8FFF7F3FE1199002610987D1C02
:101290000E9142E001203B460CAAC0070B900120B2
:1012A000009003A910A8FFF7E2FE119D1298109973
:1012B000002600280E9501D1781C0D18781B02D449
:1012C00046427D1C761EE81B00903AE0012F00DAB2
:1012D00001270020112F009001DD112300E03B4683
:1012E0000CAA03A910A8FFF7C2FE11993D46109859
:1012F00000260E91217809070BD40E99A94200DA35
:101300000D4603A9012D04DD4A19203AD27F302A67
:1013100006D0B84201DA011D04DA012100910FE084
:101320006D1EEFE7002802DC86192D1A03E0411C30
:10133000A94200DD0D46801B401C00900120C00723
:101340000B902078000705D40098A84202DB00200B
:10135000C043009069460020C8720B98012102AF7B
:101360000337C907884225D0022010902B20119006
:101370000B9800280BDA40420B902D20119006E0CC
:101380000B9800F039FA30317F1E0B9039701099AC
:10139000481E00291090F3DC0B980028F0D111981A
:1013A0007F1E38702088000501D5452000E06520AB
:1013B0007F1E387001A8C01BC01D0B900F9800281D
:1013C00000D0012041190098C01709180B9808187F
:1013D000A169081A401EA0612078C00602D42046E8
:1013E000FFF7FDFA0F98002805D06268A1689047C2
:1013F000206A401C20622078C00625D52046FFF7D1
:10140000EEFA21E0002E07DB0E98B04204DD03A8BF
:101410006268805DA16802E06268A1683020904740
:10142000206A761C401C20620098401E0028009014
:101430000AD100F01DFAC06862680168405CA168CA
:101440009047206A401C206228466D1E0028D9DC87
:1014500007E062683878A1687F1C9047206A401CCA
:1014600020620B99481E00290B90F2DC2046FFF702
:10147000CCFA032042E6000001FCFFFF104D000003
:10148000E1DFFFFFD21DF0B504460D46D0088DB058
:10149000C000466807683146384603F0A3FD02469F
:1014A000F00F01D02D2307E02068810701D52B2301
:1014B00002E04007C00F43016846002B037001D0D3
:1014C000012000E00020032A0A9001D0072A04DB53
:1014D0002946204600F0D0F92DE12078800601D47D
:1014E0000D2500E0E5697000400D0D2D01904BDAEF
:1014F000300D00210B9008460020C04603218905CD
:101500000840002E05DA82008018C20F1018401023
:1015100008408015012801DD0020C043A9000023F8
:10152000182906D39C460A460123183A1B07D340C4
:1015300003E001221205CA4094460C31202902D34F
:101540003A46203900E032468A40002802DD002A6F
:1015500006D119E0002817D10121C9078A4213D307
:10156000194663467F185E41002806D10120C00756
:10157000824202D1084687439E430B98310D814237
:1015800002D00198401C01902088000502D57149C5
:10159000794402E06F49794419396B460A98302240
:1015A0001A540A980A7C401C1A54401C0A9001984C
:1015B000002801DC302000E031201872019A01205F
:1015C000002A02D0644BD21804E072003A4302D0E1
:1015D000614A521C0192002D02DC2278120703D5C9
:1015E0006A462E20507202200022864694460CE065
:1015F00032033601120F6D1E8B5C02AA1354624631
:10160000521C401C9446052A01DA002DF0DC002211
:1016100002AE08E03B0F3F01CB5C521C6D1E335401
:10162000401C082A01DA002DF4DC23689A0601D553
:1016300011E0401E704504DD3218203AD27F302A76
:10164000F7D0002807DD3218203AD27F2E2A02D1A7
:101650001A0700D4401E002D03DD3E223254401CE8
:101660006D1E497C31540199401C002906DA2D2158
:10167000471C315401984042019003E02B21471C44
:10168000315401987D21C900884206DBFFF722F81A
:101690003030F0557F1C019101E0642808DB01988F
:1016A0006421FFF717F83030F0557F1C019101E0FD
:1016B0000A2806DB01980A21FFF70CF83030F055B4
:1016C0007F1C01980A21FFF705F83031F1550A987F
:1016D000A1697F1C7A191018081AA0612078C00629
:1016E00002D42046FFF77BF9216A6E460A98081853
:1016F000206204E062683078A168761C90470A98FE
:10170000401E0A90401CF5D12078C00602D5204624
:10171000FFF765F902AE09E03078761C3E280DD05F
:101720006268A1689047206A401C20627F1EF3D245
:101730002046FFF76AF90DB00320F0BD206A40197A
:10174000206203E06268A168302090476D1EEDD3EF
:10175000F8E700009C62000001FCFFFF10B5436940
:10176000002B02D0C046C04601E0FFF771F901200E
:1017700010BD1278014624310A7000224A700122FD
:10178000ECE711680022D243E8E710B54369002B6B
:1017900002D0C046C04601E0FFF7F4F9012010BDB9
:1017A00012880146243182840022C2840122ECE79F
:1017B00011680022D243E8E770B516460C4605468C
:1017C00000F04EF80368FF200230C05C012807D00B
:1017D000FF2C0ED8185D00280BD001202C7070BD96
:1017E000FF333246214608331868C3182846984705
:1017F00070BD0020C04370BD01468008081A020970
:101800001018020A1018020C1018C00882001218D2
:101810005200891A01E0401C0A390A29FBD270479C
:10182000754600F0A1FBAE46050069465346C00868
:10183000C000854618B020B5FEF76EFD60BC0027DD
:101840004908B6460026C0C5C0C5C0C5C0C5C0C58C
:10185000C0C5C0C5C0C5403D49008D4670470000A9
:1018600010B500F005F8001D10BD00BF2D5C000094
:1018700000487047041D0020F8B51F4604460123A8
:101880000068DB02032601461840072A05DB002812
:1018900001D017A506E017A504E0002801D016A581
:1018A00000E016A5102081432160A069C01E002F12
:1018B000A06101D0401EA0612046FFF790F8002FE4
:1018C00009D038466268A1689047206A401C2062AF
:1018D000C01C206206E0206AFAE762682878A168E6
:1018E0006D1C9047761EF8D22046FFF78EF8F8BDA3
:1018F0004E414E006E616E00494E4600696E6600B4
:10190000F7B516468AB0334878446C4603467C33B4
:10191000C06F5A689B680DC42E487844763003AC7B
:101920000DC80DC43720C001081837211B30FEF741
:10193000D1FE05460C46803D1B3C02D56442012089
:1019400000E000200027099010E0E0070CD00C20F8
:1019500020497843794432464C394118684601237E
:1019600000F054FA6B4607C364107F1C002CECD1C6
:10197000184F7F442E3F16E0E80712D02001C0190F
:101980000EC80691089307920068F04201D1981999
:1019900008903246012306A903A800F037FA03ABEA
:1019A00007C36D10641C002DE6D10998002806D0ED
:1019B00032466946012303A800F07EFA05E00123C0
:1019C0003246694603A800F021FA0A9B07C30DB00E
:1019D000F0BD0000385F0000034640000A4610B525
:1019E000400D0BD00121C9070F24A40200191C03CC
:1019F00064082143540D2143D20207E00021012055
:101A0000F2E7D40F490021435200401E0029F8DAC2
:101A1000DB0FDB07184310BDFFB50D46144685B03C
:101A20004868516803F0B8FA00910190A868A1686D
:101A300003F0B2FA02910390A868616803F0ACFA6F
:101A4000029A12188242029201D2012000E0002084
:101A5000019A0B18D2180028019202D08A4202D9AA
:101A600003E08A4201D2012000E00020009908181A
:101A700000906868A16803F08FFA029A12188242F7
:101A8000029201D2012000E00020019A0B18D21826
:101A90000028019202D08A4202D903E08A4201D290
:101AA000012000E0002000990818009028682168B3
:101AB00040004900400849084018FA49471814E016
:101AC00001994000C90F0843009001980299400015
:101AD000C90F08430190029803994000C90F0843B9
:101AE0000290039840007F1E039000980028E7DAD8
:101AF0000898002801D0EC4E00E00026B74201DA39
:101B0000012000E00020002804902AD0F71BF806EE
:101B1000C00E15D0029B2021091A039A8B401A434C
:101B20000392029A019BC2408B401A430292019A8F
:101B3000009BC2408B4000991A430192C140009122
:101B40007B110DD06F460320C11A03D500218200FE
:101B5000B95003E08A008100BA587A50401EF3D58C
:101B6000374603980299002800D0012001430898C5
:101B70000291002808460CD0002800D001200199CD
:101B8000019A490508430121D20AC902D2020192F1
:101B900000E001210E9B0122D207012B02D0002B75
:101BA00003D013E0002807D120E0904204D89042EF
:101BB0000CD1019B0B4209D0019B5918019105D111
:101BC0000099491C009101D17F1C009200280DD082
:101BD000102108460020C0460498002806D00F981F
:101BE000002803D0082108460020C0462868216844
:101BF000019B009A4840C10F0598C90739430EC0A0
:101C000009B0F0BDFFB587B0099A089808995368E4
:101C10009268406889689646002203931746944666
:101C2000089A12685300099A5B0812685200520819
:101C30009A1A9E4BD4180A9A002A01D0352200E045
:101C4000402206920022012315460492DB070593E9
:101C500024E0002D05D175460346039E4D1BB3417C
:101C600009D375466646039B491B049D9841059B15
:101C70007519AC465F4163463B4308D0059B049E03
:101C8000DD0776082E435B080496059301E0521E9B
:101C9000641EC50FED0749184041521C069B9A422D
:101CA000D7DB002D04D17546039A6B1A824101D20D
:101CB00003200CE0039A0B466B404240134303D0D1
:101CC000014303D0012002E0022000E00020614631
:101CD00001910021009702910A99002905D06146DF
:101CE00040020143704B019102E080070023029003
:101CF0009C4201DA012000E0002007003AD01A1BC4
:101D0000D006C00E15D0029D2021019C091AC540A5
:101D10008C402543029C8C4000D001242543019C2B
:101D20000295009DC4408D4000992C430194C14010
:101D3000009154111DD06D460221002202290CD1C0
:101D40000320001B07E0002804DB8600AE59002EAC
:101D500000D00122401C0328F5DB081B02D58800B7
:101D60002A5004E08000285810438A00A850491ED9
:101D7000E3D51C460A98002802980CD0002800D011
:101D800001200199019A490508430121D20AC9029B
:101D9000D202019200E00121109B0122D207012B07
:101DA00002D0002B03D013E0002807D11FE090429F
:101DB00004D890420CD1019B0B4209D0019B5918C9
:101DC000019105D10099491C009101D1641C009238
:101DD00000280CD0102108460020C046002F06D055
:101DE0001198002803D0082108460020C046089812
:101DF0000999019A009B006809684840C10F07983B
:101E0000C907214382600AC00BB0F0BD00B585B0A0
:101E1000019300920A460146002302A8FFF7FCFD49
:101E200002A807C805B000BDFFB50A461F4685B029
:101E30000799019301230091014602A8FFF7ECFDE9
:101E400002990398049ECA0F4900D20700920F22FC
:101E5000490892028C1A0021002800DB0C4645003C
:101E600013486D08844214D3079A002A04DA441EEA
:101E70000026104DF64302E004460D460E461021A2
:101E800008460020C046002F03D004210846002049
:101E9000C0462005E90A0843009908436905F20A8B
:101EA0001143ADE602C0FFFF013C0000FF3F000010
:101EB000FF070000FFFFFF7F00B585B00193009290
:101EC0000A460146002302A8FFF79CFE02A807C8A5
:101ED000A8E7FFB50A461F4685B00799019301237D
:101EE0000091014602A8FFF78DFE02990398049E17
:101EF000CA0F4900D20700920F22490892028C1A99
:101F00000021002800DB0C46450011486D08844282
:101F100014D3079A002A04DA441E00260D4DF64316
:101F200002E004460D460E46102108460020C04639
:101F3000002F03D0042108460020C0462005E90AEE
:101F40000843009908436905F20A114358E6000066
:101F5000FF070000FFFFFF7F10B50446C046C046E4
:101F60002046FEF771F910BD00487047E41C0020C0
:101F700001491820ABBEFEE726000200704770B58D
:101F800006460D46142003F057FB040007D004F06A
:101F9000D6FC21463046256004F0ECFC70BD04F010
:101FA0000FFD70BD0026094D0446F6433146A86971
:101FB00003F0D8F80028F9D1002CF7D0E2682046C9
:101FC000904703A10B4804F0DCF8EFE7080000207D
:101FD000536C61766520726563656976656420611E
:101FE000207061636B6574206F6620646174612E7C
:101FF0000D0A000060060020F8B50D00044660D010
:10200000542003F019FB2060002801D104F0D8FC13
:102010002E462036307C03F00FFB070052D0307E76
:1020200003F00AFB0090002852D0317C3846FEF7BE
:10203000FFFA317E0098FEF7FBFA2A7828A12F4894
:10204000236804F09EF821682878087021682C48DD
:10205000486021682B48886021682B48C860216847
:102060002A48086121682A4848612168294888610E
:1020700021682948C86121682848086221682848E1
:1020800048622068C76221680020203148742168B6
:10209000327C20310A742268009951632168327EB3
:1020A00020310A762168203148762168A86C88643E
:1020B0002168E86BC8632168286C08642168286D72
:1020C0000865F8BD17A10D4804F05BF8384604E038
:1020D0001BA10A4804F055F8009804F071FCF8BD03
:1020E0004D6F646275735B25645D5F68616E646CDF
:1020F0006572203D20307825700D0A0060060020B2
:10210000F1420008CD4400086D4300087D440008FA
:10211000854200081543000815450008A54600083B
:102120005946000870547862756620437265617480
:10213000696F6E206661696C6564210D0A0000009C
:10214000705278627566204372656174696F6E20A3
:102150006661696C6564210D0A000000F8B50446EB
:102160000D46582003F068FA2060002876D0002D34
:1021700074D02978017021686868486021683848FF
:10218000086421683748486421683748C863216873
:102190003648886321683648886421683548C864B1
:1021A000142003F049FA21680028886002D004F066
:1021B000BBFB01E004F004FC142003F03DFA2168AD
:1021C0000028C86002D004F0AFFB01E004F0F8FB87
:1021D0002068002686742068467420680674287F6C
:1021E00003F02AFA21680028886103D0297FFEF7CE
:1021F0001FFA01E004F0E4FB2F462037387903F0A2
:102200001BFA216800280862216803D03979FEF79B
:102210000FFA02E0886904F0D3FB2168287F087771
:10222000206833464677206839792030017120686C
:10223000203046712168A86A886229462C3146C937
:1022400020682C3046C02168286D08652168686DBB
:10225000486509A11048226803F093FFF8BD00000B
:10226000813A0008513C0008C1230008AD4700082E
:10227000093C00087D3900084C6F72615F68616E2F
:10228000646C6572203D20307825702C7265742056
:102290003D2025642E0D0A006006002010B503487D
:1022A00000F000F9024800F0FDF810BDD004002055
:1022B0008C04002010B5034800F0F4F8024800F048
:1022C000F1F810BD580500201405002010B5044693
:1022D0000068054940181421FEF7F2F980002064D7
:1022E0000248E06310BD0000F8FFFDBF000002409F
:1022F00030B5056C0124AC40C56B6C60046863604C
:102300004368102B036803D099600068C26030BD39
:102310009A600068C16030BD72B6FEE7C06802E036
:102320008A4204D040680268531CF9D100207047EB
:1023300010B50D48016989058A0F0C4909694904DE
:10234000890F89001143026900695207520E0A433E
:10235000C004C00FC4011443224605A1094803F07C
:1023600010FF204610BD000000040048000800488F
:10237000636F64696E67203D20307825582E0D0A02
:10238000000000006006002070B5044610460023DF
:102390000A4D0FE0227850400022641CC60702D08C
:1023A0004008684000E04008521C92B2082AF5D369
:1023B0005B1C9BB28B42EDD370BD000001A00000FE
:1023C00010B5012109200903C00600F0EBF900282F
:1023D00000D0012010BD030003D00868002804D1FC
:1023E00001E0002070471846083008604268106815
:1023F000401C00D1DA680A601046704700B500281A
:1024000005D00449FFF7E7FF0068411C00D1FF2019
:1024100000BD00002C00002030B5014620314B7873
:102420000022022B04D0042383630A70012030BDF4
:1024300003681C680E25AC431C6003681C686408B4
:1024400064001C600123056C1C46C06BAC404460FA
:102450004B700A70002030BD70B500240146203159
:102460004A78022A03D004218163012416E002681D
:1024700013680E25AB431360026813685B085B00AA
:1024800013600122056C1346AB40C56B6B604A704C
:1024900000220A70416B002900D08847204670BD99
:1024A000806B7047F0B4C16B0D6801680C68042242
:1024B000066C1346B3402B420DD063070BD50B6857
:1024C0009B0602D40B6893430B60016C8A40C16B7E
:1024D0004A60C16A19E00227B74002462F40012333
:1024E0002032002F15D0A70713D50C68A40604D4FA
:1024F0000C680A25AC430C605370036C02219940B0
:10250000C36B596000211170816A002916D0F0BC9C
:1025100008470827B7402F4210D024070ED50C6873
:102520000E25AC430C60046C1946A140C46B61607D
:102530008363537000211170016BE6E7F0BC7047B4
:1025400070B5040021D0022120462030054641709C
:10255000226811680E48A368014060682669184324
:10256000E3683343184363691843A3691843E36975
:102570001843084310602046FFF7A8FE0021A1631E
:10258000012068702970084670BD012070BD0000F0
:102590000FC0FFFFF8B504468C46203001780025B7
:1025A000012909D00126067041780027012905D0AC
:1025B000077002252846F8BD0220F8BD02214170AF
:1025C000A763206801684908490001606146204608
:1025D000FFF78EFEE06A00282068016802D00E2214
:1025E000114306E00A2211430160206801680422B9
:1025F000914301602068016831430160DAE700001F
:10260000F8B5002303240125BAE02E469E40B446C7
:1026100032407CD00E79B607B60F012E01D0022EC3
:1026200017D186682746B6465E00B74000967646C4
:10263000BE43B646CF68009EB740764637438760B4
:1026400046686746BE430F79FF06FF0F9F4037433A
:1026500047600E79F643B6070ED0C6682746B446E3
:102660005E00B646B7406646BE43B4468F687646BF
:10267000B74066463743C7600E79B607B60F022EDD
:1026800014D1DE08B60036180096366A5F07B446E5
:10269000FE0E0F27B646B7406646BE43B4460F69E6
:1026A0007646B74066463743009E3762066827463F
:1026B000B4465E00B646B7406646BE430F79B446A0
:1026C000BF07BF0F7646B7406646374307604E6880
:1026D000B603B60F53D02D4FBE692E43BE61BE69FF
:1026E0009F08F607F60F2A4EBF00BE190096B6687F
:1026F0000F27B4469E07360FB646B7406646BE4320
:102700000927FF06B446B84202D1002710E036E0A0
:10271000204FB84201D101270AE01F4FB84201D132
:10272000022705E01D4FB84201D1032700E005272D
:102730007646B74066463743009EB760184E366807
:102740004F689643FF0300D51643154F3E607E68E1
:102750004F689643BF0300D51643114F7E60BE6895
:102760004F689643FF0200D516430D4FBE60FE68CA
:102770004F689643BF0200D51643094AD6605B1CDA
:102780000A681646DE4000D03FE7F8BD0010024060
:10279000000001400004004800080048000C004808
:1027A000000401400069084000D001207047002A61
:1027B00001D08161704781627047000001488068E4
:1027C000704700008C000020024881680278891858
:1027D000816070478C00002010B506480168102207
:1027E00011430160032000F007F800F041F80020D9
:1027F00010BD00000020024000B5014687B0002255
:10280000162000F059F8162000F04AF813488269A3
:10281000012189040A43826180690840059004A966
:10282000684600F045F900F05FF90D49FDF748FFF3
:102830000D490C4A0A600D4A401ECA6048600020DB
:1028400008618860084600F065FB002802D001207E
:1028500007B000BD044800F083FBF9E70010024018
:1028600040420F00004801409C050020E7030000A3
:1028700008B50A48816901221143816181691140CB
:102880000091C26901040A43C261C0690022084084
:1028900003210090481F00F00FF808BD001002400F
:1028A000002805DBC106C90E0120884001490860E7
:1028B0007047000000E100E010B502F0A9FB10BD78
:1028C000F8B505460068354CC00352D5E0690026CE
:1028D000C00007D4E16920040143E161E1690140DE
:1028E000012600912E480168C90510D4016882159F
:1028F00011430160FFF762FF074604E0FFF75EFF48
:10290000C01B642824D826480068C005F6D5206A74
:1029100003273F02384020D06968394081421CD0EB
:10292000206A226AB843012109040A432262226A0A
:102930008A4322622062C0070FD0FFF73FFF00905A
:1029400008E0FFF73BFF0099411A1648814201D980
:102950000320F8BD206A8007F3D5206A6968B84370
:1029600008432062002E04D0E16901200007814362
:10297000E1612878C00705D0206BA9688008800035
:10298000084320632878800605D5206B10218843F2
:10299000E968084320630020F8BD000000100240F1
:1029A0000070004088130000F8B50F46060059D0AB
:1029B0003A4D2868C007C00FB84209D228684008BD
:1029C0004000384328602868C007C00FB84249D18A
:1029D0003068334C81070CD5400704D56068072167
:1029E0000902084360606068F0218843B1680843C9
:1029F00060603078C00726D0706801280ED021684A
:102A000002280ED0890700292CDA6168890889001C
:102A100001436160FFF7D2FE00900DE02168890359
:102A2000F1E78901EFE7FFF7C9FE0099411A1D4858
:102A3000814201D90320F8BD60680C21084071680B
:102A400089008842EFD12868C007C00FB8420BD96F
:102A5000286840084000384328602868C007C00F35
:102A6000B84201D00120F8BD3078400706D5606833
:102A7000072109028843F1680843606000F044F8C8
:102A80006168094A0906090F515CC8400749086096
:102A90000320FFF7B1FE0020F8BD00000020024037
:102AA000001002408813000084770008980000207E
:102AB00010B5072202600A4A53689B079B0F4360C8
:102AC0005368F02423408360526807231B021A4096
:102AD000C26004480068C007C00F086010BD000055
:102AE000001002400020024004480549006849687F
:102AF000044A4905490F515CC840704798000020BE
:102B0000001002409477000810B514A30FCB88B0D2
:102B10006C460FC415A30FCB0FC4184A51680C2084
:102B20000B4603401648042B16D0082B14D18B02F9
:102B30001B0F6C46E45CD26A04AB1207120F9A5C5E
:102B4000C90305D500231946FDF7F6FB214601E030
:102B500020460C4902F020FA08B010BD020304051B
:102B6000060708090A0B0C0D0E0F101001020304D2
:102B700005060708090A0B0C0D0E0F100010024085
:102B800000127A0000093D00FEB5040070D02078E4
:102B9000DC4DC0074AD068680007800F012807D0C5
:102BA00068680007800F022809D16868C00306D54D
:102BB000286880033AD560680028E7D036E061686D
:102BC000012914D001208004002901D0052914D046
:102BD0002A68012109048A432A60296881432960FF
:102BE0006068002816D0FFF7E9FD06460EE0286869
:102BF0000121090408432860F2E72968014329609C
:102C0000F5E7FFF7DBFD801B64286ED8286880039A
:102C1000F7D50BE0FFF7D2FD064604E0FFF7CEFD47
:102C2000801B6428F1D828688003F7D42078012617
:102C3000800700283CDA68680007800F07D06868C2
:102C40000007800F022809D16868C00306D42868ED
:102C5000800716D5E06801280AD112E0E068002854
:102C6000286816D030432860FFF7A8FD074605E026
:102C700043E1FFF7A3FDC01B0228C6D828688007E0
:102C8000F7D52868F82188432169C90008432860DE
:102C90000EE0400840002860FFF790FD074604E082
:102CA000FFF78CFDC01B0228AFD828688007F7D437
:102CB0002078000722D5E0690028686A0ED03043EA
:102CC0006862FFF77BFD074604E0FFF777FDC01B56
:102CD00002289AD8686A8007F7D50FE040084000BC
:102CE0006862FFF76BFD074605E09DE0FFF766FDB4
:102CF000C01B022889D8686A8007F7D42078042787
:102D00004007002860DA00200190E869C00008D47C
:102D1000E969B8060143E961E969014001200091D0
:102D2000019079480168C90511D4016882151143E1
:102D30000160FFF743FD009005E0FFF73FFD0099BC
:102D4000401A642870D870480068C005F5D5A0689E
:102D500001280AD0002801D0052810D0286A400890
:102D600040002862286AB84301E0286A304328629C
:102D7000A068002812D0FFF721FD00900AE0286A21
:102D800038432862F1E7FFF719FD0099411A5F48BF
:102D9000814249D8286A8007F5D50DE0FFF70EFD7E
:102DA000009006E0FFF70AFD0099411A574881425A
:102DB0003AD8286A8007F5D40198002804D0E96938
:102DC000012000078143E9612078C00635D560699C
:102DD00001280CD0401D686B23D038436863686BB2
:102DE000400840006863FFF7E9FC064622E0686B94
:102DF00038436863686B30436863FFF7DFFC06465F
:102E000004E0FFF7DBFC801B02285BD8686B8007BF
:102E1000F7D5686BF8218843A169C9000843686346
:102E20000BE0B8436863F4E74CE0FFF7C7FC801B96
:102E3000022847D8686B8007F7D4206A00285ED044
:102E400069680907890F022942D00126360602283F
:102E5000286805D0B0432860FFF7B0FC044633E093
:102E6000B0432860FFF7AAFC074604E0FFF7A6FC82
:102E7000C01B022826D828688001F7D4E86AE16AD6
:102E8000000900010843E862616AA06A08436968B2
:102E90003D2212049143084368602868304328604B
:102EA000FFF78CFC044604E0FFF788FC001B0228B7
:102EB00008D828688001F7D521E0FFF77FFC001BC8
:102EC000022801D90320FEBD28688001F5D416E050
:102ED0000128F8D06868E96A01221204636A024096
:102EE0009A420AD10907E26A090F914205D10F21DE
:102EF00089040840A16A884201D00120FEBD00205B
:102F0000FEBD000000100240007000408813000069
:102F10007047704770B5040005D025462035687F9E
:102F2000002802D006E0012070BD0020287720464E
:102F300000F014F802206877211D206801F0BCFC25
:102F400001204034A071A877E87720706070A070ED
:102F5000E070207160716877002070BD70470000DC
:102F6000014620314A7F012A01D001207047022208
:102F70004A770268D36801210B43D3600068094A8D
:102F8000904205D0084A904202D0084A904204D1AB
:102F900082685207520F062A02D002680A43026072
:102FA00000207047002C0140000400400040014018
:102FB000704770B50446006801690025C943890758
:102FC000002915DBC168C943890711D4E91E0161D5
:102FD00001202077206880698007204602D0FFF713
:102FE000E7FF04E000F096F8204600F094F825771B
:102FF00020680169C943490717D4C168C943490713
:1030000013D40421C943016102202077206880691C
:103010008005800F204602D0FFF7CAFF04E000F0D1
:1030200079F8204600F077F8257720680169C943D0
:10303000090716D4C168C943090712D40821C94336
:103040000161042020772068C0698007204602D0F3
:10305000FFF7AEFF04E000F05DF8204600F05BF8FB
:10306000257720680169C943C90617D4C168C943D7
:10307000C90613D41021C9430161082020772068B4
:10308000C0698005800F204602D0FFF791FF04E061
:1030900000F040F8204600F03EF8257720680169EE
:1030A000C943C90708D1C168C943C90704D1891EEA
:1030B0000161204600F030F820680169C943090623
:1030C00009D4C168C943090605D48021C9430161F7
:1030D0002046FFF71DFF20680169C943490609D44E
:1030E000C168C943490605D44021C943016120464E
:1030F00000F01CF820680169C943890609D4C16839
:10310000C943890605D42021C94301612046FFF740
:1031100000FF70BD7047704710B5006802498842D3
:1031200001D1FFF751FB10BD0048014070477047C7
:10313000F8B50446806FE66F21688A682546120656
:1031400010278035002A1BDA212819D1EFF31080CF
:10315000012282F310888A6880239A438A6080F370
:103160001088E06E002808D0FFF756F9002804D038
:10317000E06EFFF795F9202824D0204601F059FD94
:103180002168886840061BD5222E19D1EFF31080E4
:10319000012282F310888A6840239A438A6080F370
:1031A0001088206F002808D0FFF736F9002804D0D7
:1031B000206FFFF775F9202804D0204601F00AFDA2
:1031C0000020F8BD2F600320F8BD7047F8B50268F5
:1031D0000446D069116896689C4B05461D40202323
:1031E000002D75D0F7079A4DFF0FBC460D402F43B9
:1031F0006DD02546C7078035002F06D0CF0504D5F2
:10320000012717622A683A432A60820708D5F20725
:1032100006D0276802223A622A6804273A432A60C5
:10322000420708D5F20706D02668042232622A68CF
:10323000022632432A6002070AD50A461A40664629
:10324000324305D02668082232622E6816432E606B
:10325000020508D54A0106D501222668D20232624B
:103260002A681A432A602A68002A39D0800606D5BF
:10327000880604D5616E002901D020468847286859
:1032800021688968490602D4282108422DD02046A9
:1032900001F0A0FC21688868400622D5EFF3108079
:1032A000012282F310888B68402293438B6080F365
:1032B0001088206F002814D066494163206FFFF703
:1032C000CBF800280CD0206F416B08E000E012E042
:1032D000850610D58D060ED5616E9DE02046884787
:1032E000F8BD2046FFF771FFF8BD2046FFF76DFFE0
:1032F00000202860F8BD256E012D7DD1C5067BD547
:10330000CD0679D5102616622268906825464006BB
:103310004035002845DA216F086840680004000C39
:10332000E8D02F8B8742E5D968838869202833D07D
:10333000EFF31080012181F3108811683701B94340
:10334000116080F31088EFF31080012181F3108861
:1033500021688A68520852008A6080F31088EFF36F
:103360001080012181F3108821688A684027BA43C0
:103370008A6080F31088E36700202066EFF31080F6
:10338000012181F3108821680A68B2430A6080F342
:103390001088206FFFF740F8288B698B401A81B2A4
:1033A00031E0288B698B401A81B2688B0028A1D04C
:1033B00000299FD0EFF31080012585F31088156850
:1033C000FF272137BD43156080F31088EFF310808D
:1033D000012282F31088226895686D086D0095605F
:1033E00080F31088E367002020666066EFF31080AA
:1033F000012282F3108800E009E022681368B343D9
:10340000136080F310882046FFF791FEF8BD050693
:1034100006D50D0604D5A16E002900D05EE7F8BDE3
:103420004006FCD54806FAD52046EFF3108101246A
:1034300084F3108814684025AC43146081F310882D
:1034400083670021816600F06DFAF8BD0F08000067
:1034500020010004714A000810B5040003D0A06FD9
:10346000002802D007E0012010BD00217420015582
:10347000204600F027F82420A0672068016849084A
:1034800049000160204601F0E5FB0128ECD0606AAC
:10349000002802D0204601F053FA2068416801223A
:1034A000D202914341602068816808229143816083
:1034B00020680168012211430160204601F0A6FA4C
:1034C00010BD0000F0B587B0044614216846FDF732
:1034D000B1F8504F2368504802220321002580266E
:1034E000BB4245D1876953031F43876187691F40EA
:1034F0000597476953041F43476140691840059089
:10350000C0206B4625C322C369464448FFF778F8BC
:103510004348444F21C73D60BD60FD607E60B001FF
:103520003D6178613F48083FFFF70AF8002801D065
:10353000FEF7F2FE27677C623A4F39484437143869
:1035400038601020391D61C13D617D61BD61384623
:10355000FD61FEF7F5FF002801D0FEF7DDFEE7660E
:10356000002203211B207C62FFF7A6F91B204CE000
:103570002D4FBB424BD1C76901235B041F43C76179
:10358000C7691F40059747691F4347614069039119
:10359000184005900C206B4625C30120049009209B
:1035A0006946C006FFF72CF81D481E4F28308837A3
:1035B00021C73D60BD60FD603D6138467E607D6134
:1035C0000838083FFEF7BCFF002801D0FEF7A4FE34
:1035D00027677C62134F1248CC37143038601020B4
:1035E000391D61C13D617D61BD613846FD61FEF7F8
:1035F000A7FF002801D0FEF78FFEE7660022032117
:103600001C207C62FFF758F91C20FFF749F907B02E
:10361000F0BD0000003801400010024000040048E6
:10362000300002408C04002000440040FFB50446F6
:10363000C06F85B017460E46202870D1002E0AD0E4
:10364000002F08D0A168C001814207D1206900285D
:1036500004D1F00702D0012009B0F0BD204660304F
:103660000090007D01285AD00098012101750020AA
:10367000802108512221E1672066FFF79FF8254647
:10368000403502902F836F830120A1680003FF2241
:10369000814204D12369002B09D1224A07E0002985
:1036A00001D0002203E02369002B00D07F22AA83EF
:1036B00092B20192814202D12069002808D0374697
:1036C00000260099002008750198C0B2039018E008
:1036D0000027F6E708980090002220212046029B50
:1036E00001F0AAFB002801D00320B5E72068002FD5
:1036F0000ED0818C0398014039707F1C688B401E6E
:103700006883688B0028E5D12020E0670020A3E7CC
:10371000808C019908403080B61CEFE7FFE702205B
:103720009AE70000FF01000070B5C36F202B2BD17A
:1037300000290BD0002A09D0012483682403A34266
:1037400006D10369002B03D1CB0701D0012070BD46
:10375000034660331C7D012C16D001241C75002308
:103760000366046863681B020BD5EFF31083012521
:1037700085F3108825680126B6063543256083F356
:10378000108801F001FB70BD022070BD70477047CA
:10379000FFB50446806F83B017460D4620285ED1E2
:1037A000002D0AD0002F08D0A168C001814207D1A6
:1037B0002069002804D1E80702D0012007B0F0BD3D
:1037C000204660300090007D012848D000980121FB
:1037D00001750020802108512120A067FEF7EEFF2F
:1037E000264640360190378277820120A168000387
:1037F000814202D12069002805D02F46002500997A
:103800000020087511E00027F9E7002280212046FA
:1038100001F012FB002815D1002F15D0216838784F
:1038200008857F1C708A401E7082708A019B002868
:1038300006980090E9D100224021204601F0FCFAD0
:10384000002808D00320B9E728882168C005C00DEA
:103850000885AD1CE6E72020A0670020AEE7022027
:10386000ACE70000F8B50446806F202852D100294B
:103870000BD0002A09D00123A0681B03984206D16F
:103880002069002803D1C80701D00120F8BD2546D2
:103890006035287D01283DD0012028752046403024
:1038A000E164028242820026274680373E60212062
:1038B000A067E06E00281BD017498162E16E1748AF
:1038C000C862E16E16480863E06E13464663E06C1A
:1038D000216884460A4628326146E06EFEF75AFEA9
:1038E000002805D0102038602E752020A067CCE776
:1038F0002168402008622E75EFF31080012181F3CA
:10390000108821688A6880231A438A6080F31088AF
:103910000020F8BD0220F8BD814B0008CB4B000809
:10392000854A000870477047FEE7000010B501287F
:1039300006D000220121C9030248FEF738FF10BD5E
:103940000122F7E7000800480A4D0B4C01262868C1
:10395000C06B002809D00078002801D0012001E0C8
:10396000207870402070FFF7E1FF642001F096FBA3
:10397000EDE700000400002008000020F0B50D462F
:1039800034A30ECB85B00446406D6E460EC66A78F1
:1039900069460A702A784A70AA788A702A79CA70A9
:1039A0002A79521F8A7100284BD0002D49D02979DD
:1039B0000026052908D20221684601712979491E8D
:1039C00081710821017216E069460E73014640318B
:1039D0000E710E7329798769491F89B2012303AAE1
:1039E000B847002830D00521684601712979491F60
:1039F0008171017BC1710B20607700A8184A0621F4
:103A00000330FEF7C1FC014668468181017B4172AB
:103A1000417B8172627F6946A069FCF7A3FD627FEA
:103A2000A169206DFFF71EFF206D0068C169C943C1
:103A30004906FBD4002C04D0617FA069FCF7F8FD97
:103A40006677012005B0F0BD06A10C4802F099FB95
:103A50000020F7E700000000050000000000000063
:103A6000FFFF0000436F696C2072656164696E67D7
:103A7000206661696C6564210D0A00006006002003
:103A8000FEB5054604462035687902287CD9606D6C
:103A90000026009008E0206A3246835D3FA144483A
:103AA00002F06FFB761CF6B26879B042F3D8C0B270
:103AB000801E81B23F4A206AFEF766FC070A0002B8
:103AC0000743BBB26A793CA1394802F05AFB6068EF
:103AD000BAB2064650E0216A37790B78BB4248D12A
:103AE0006B79C9181E394B7F0F7F1902394349BAC8
:103AF00091423ED1A07C00280CD1207C401CC0B259
:103B000020742178884203D3FF202074012000E034
:103B10000020A074022028733079052834D20027B1
:103B2000206A7907C078490FC840C307DB0F01A896
:103B3000C3553A4628A11E4802F023FB7F1CFFB262
:103B4000082FEDD3009800281ED0012140300171CC
:103B50000173307901AAC000083881B200980823A7
:103B60008669B04700280FD120A1114802F009FB57
:103B70000AE003212973B61D002E05D02178062303
:103B800059434118B142A6D8002C05D06979206A62
:103B9000FCF74EFD00206871FEBD0000707262757A
:103BA000665B25645D203D20307825580D0A0000B5
:103BB00060060020FFFF00007278636F756E74204E
:103BC0003D2025642C6372633136203D20307825FA
:103BD000582E0D0A00000000776269745B25645D51
:103BE000203D2025642E0D0A00000000496E7075EE
:103BF0007420636F696C20777269746520666169EF
:103C00006C6564210D0A000070B50446006D0D4618
:103C10000068C169C943C90619D410210162002C8A
:103C200010D0206A00280DD0206DFFF781FA2046C1
:103C30002968203002794968511A4171216A206D42
:103C4000FFF772FDA06A002801D001F065FA70BD8F
:103C5000F8B5040077D0A068002874D0E068002888
:103C600071D025462035297B00260B0001F0ACF9E8
:103C700005048F0499998E00E16B2046884700283F
:103C800061D06663A07C002804D0A068FEF7B6FB74
:103C9000C1B200E0217C21742078814209D2062241
:103CA00051436068E26C4118204690470120287318
:103CB0000BE0287B022808D1A068FEF72FFB002824
:103CC00003D1217CA068FEF75AF9A07C002806D019
:103CD000217C2278914202D2617C491C6174A168E6
:103CE000627C0B689A4204D8096800294ED10028EA
:103CF0004CD06674E0680168002947D03A49FEF765
:103D00006AFB05460168A068FEF739F92968E06892
:103D100000F037FD2A4635A1374802F032FA37A1C4
:103D2000354802F02EFAE068C56808E00092E068C5
:103D300002682B4635A1304802F023FA6D682A68E4
:103D4000501CF3D100E021E038A12B4802F019FA11
:103D50003CA1294802F015FAA068C56808E0009067
:103D6000A06802682B463BA1234802F00AFA6D685E
:103D70002868411CF3D102F03DFF044602F034FFF5
:103D8000024623463BA11C4802F0FBF9F8BD606BDC
:103D9000401C6063216B8842F8D30420666328735B
:103DA000F8BD217CFEF7BAFA002803D1217CE06837
:103DB000FEF7E5F8A07C002806D0217CA06800F082
:103DC000E0FCA07C00280CD1207C401CC0B22074F8
:103DD0002178884203D3FF202074012000E00020D6
:103DE000A0742E73F8BD00003000002070203D202C
:103DF000307825702C0D0A00600600200D0A426CF8
:103E00006F634B5F4C6973743A0D0A00426E756DB7
:103E100073203D2025642C76616C75655B307825B8
:103E2000705D203D2025640D0A000000702D3E7855
:103E30004974656D56616C7565203D20305825309C
:103E4000580D0A000D0A52656164795F4C697374FC
:103E50003A0D0A00526E756D73203D2025642C7654
:103E6000616C75655B307825705D203D2025640DA3
:103E70000A0000004F532072656D61696E696E67BC
:103E80002068656170203D202564427974652C208E
:103E90004D696E692068656170203D202564427916
:103EA00074650D0A0000000000250446ED43294614
:103EB000A06A01F057F9002803D0626C20469047B1
:103EC000F5E7226C2046904702A10B4802F059F911
:103ED000EDE700004C6F726120726563656976657D
:103EE000642061207061636B6574206F662064617B
:103EF00074612E0D0A0000006006002008B50C4811
:103F00004169012211434161406903211040009041
:103F100000220A20FEF7D0FC0A20FEF7C1FC002296
:103F200003210B20FEF7C8FC0B20FEF7B9FC08BDEF
:103F300000100240F0B5A3B000240094684601943C
:103F400001F0B9F8354D01216861029402A803948B
:103F500001F0C1F8A8610494012104A8059401F0BE
:103F6000BAF8E8612E4800F03DF900F0F3F82D4D65
:103F70001027286800280ED0006D006801683943BA
:103F80000160286838210A5C416B006DFFF7CCFBAB
:103F900028682030447600F0B3F8234E30680028BB
:103FA0000ED0006D0068016839430160306824213B
:103FB0000A5C016A006DFFF7B7FB3068203044717E
:103FC0001C221A4906A8FCF781F9154906A801F038
:103FD000FBF8124C154960601C221C310DA8FCF73F
:103FE00075F90DA8296801F0EFF81049A0601C22AE
:103FF000383114A8FCF76AF914A8316801F0E4F824
:104000000A49E0601C2254311BA8FCF75FF900212B
:104010001BA801F0D9F8206123B0F0BD08000020F2
:10402000600600200400002028000020947500088D
:10403000F0B587B014216846FCF7FCFA2C484269B9
:104040000121C9040A43426142690A40059242695A
:10405000C9000A43426142690A4005924269491116
:104060000A43426142690A400592426949000A4393
:10407000426140691F4F0840CE1005900122314631
:104080003846FEF794FB012208211B48FEF78FFB00
:104090000320400300250124009069460195029405
:1040A0003846FEF7ADFA0194694638460096039506
:1040B0000294FEF7A5FA1148009069460195029412
:1040C0000D48FEF79DFA20030090092069460195EE
:1040D0000294C006FEF794FA082000900194694605
:1040E000039502940448FEF78BFA07B0F0BD000078
:1040F00000100240000800480004004807130000B8
:1041000000B50F4A97B00020411C062358431152B6
:10411000801881700171C8B20F28F5D3582209495F
:104120006846FCF7D3F80848694600680A900748D3
:10413000006815900648FEF711F817B000BD0000A2
:10414000E405002018760008240000200400002068
:104150002800002010B596B0FEF7EAF80407240FF7
:10416000FEF7E6F8024623460EA1194802F009F8C8
:104170000F2C00D9102468460470402108A801744F
:104180000176144869460068109013480F90134850
:104190001490134812901048C01CFDF72DFF16B064
:1041A00010BD0000426F6172642069642069732051
:1041B0003078253032782C20536C61766520696424
:1041C000206973203078253032782E0D0A000000E7
:1041D0006006002020000020010000208403002051
:1041E000F400002010B5064981660649416606497B
:1041F000C166064901672022054901F0FDFD10BD99
:10420000754F0008554F000859680008716800088C
:10421000D406002010B50C480A490160E12149028A
:10422000416000218160C16001618161C1610C2236
:10423000016242614162FFF70FF9002801D0FEF7E9
:104240006BF810BD003801408403002010B50C4805
:104250000A490160E1214902416000218160C16099
:1042600001618161C1610C22016242614162FFF71B
:10427000F3F8002801D0FEF74FF810BD00440040CD
:1042800008040020FFB5044617A205CA83B00090B9
:1042900001922278684602700A0A8270C170002674
:1042A000067159081D464171857127462037397CB2
:1042B000E06AFCF7BDF97E7407226946E06AFCF704
:1042C00051F9787C2A46C01DC0B27874E16A08189A
:1042D0000599FCF747F9787C401978742269002128
:1042E0002046904707B0F0BD0046000000000000E7
:1042F000C06B002806D00122054B022903D01129EA
:1043000000D11A70704719780029FBD002707047ED
:1043100000000020F8B5054640300679022E01D293
:10432000202700E040270024B94211D2BB420FD21F
:10433000007B0F46203700280CD0A86C002E12D02E
:10434000C01911461A46FCF707F9002800D00124CD
:104350002046F8BD1046002E02D0A96CC919F1E71D
:10436000AA6C5118EEE74018EBE7000070B5044660
:1043700025462035697E0020022905D9891E89B28B
:104380002A4A606BFEF700F8060A00020643B3B241
:104390006A7E27A12E4801F0F4FE606B2278017836
:1043A00091423CD1697E40181E38417F027F08024D
:1043B000104340BAB1B2884231D126A1244801F05D
:1043C000E0FE002607E0835D324627A1204801F089
:1043D000D8FE761CF6B2687EB042606BF3D84078A7
:1043E000052811D004DC012807D0022817D104E0E9
:1043F0000F2809D0112812D10AE0E1692046884728
:10440000606B6268417808E0216A2046884706E0D0
:10441000616A204688476268112120469047697E7C
:10442000606BFCF705F90020687670BDFFFF0000A7
:104430007278636F756E74203D2025642C637263FF
:104440003136203D20307825582E0D0A000000001E
:104450006006002044617461207265636569766559
:1044600064210D0A0000000070726275665B2564AD
:104470005D203D20307825580D0A000038B50546EE
:1044800020350446002913D1697C0F4AE06AFDF704
:104490007BFF014668460180697CE06A41186846F6
:1044A00000780870684640784870687C801C6874A2
:1044B0006A7CE16A206DFFF7D5F9206D0068C1695B
:1044C000C9434906FBD438BDFFFF000070B5044660
:1044D000006D0D460068C169C943C90619D4102191
:1044E0000162002C10D0606B00280DD0206DFEF70B
:1044F0001FFE204629682030027E4968511A417605
:10450000616B206DFFF710F9206C002801D000F0DE
:1045100003FE70BDFEB5416B04464879097900027F
:10452000084340BAC7B2F808790700D00121401803
:104530000190384601F080F8009000286ED039468E
:10454000FCF776F825462035297CE06AFCF770F800
:1045500000266E74616BE06A0A78027049784170D7
:10456000687C0199801CC0B2431CE26A6B741154D0
:10457000616B4878012801D0012200E0002220462A
:10458000403002710673C87889780002084341BA46
:10459000A6693B462046009AB047002632E000203C
:1045A000F1008C461DE0009A515CC907C90F08D084
:1045B000E36A6A7C9E469B5C81401943734699542A
:1045C0000BE0E26A02926B7C9E46D25C0B4611467F
:1045D00083409943029A7346D154401CC0B20828C4
:1045E00003D261460918B942DDD3697CE06A3246DC
:1045F000435C0CA1104801F0C4FD687C401C761C93
:104600006874F6B201988642C9D36A7C0BA10A4845
:1046100001F0B7FD2269002120469047009802F082
:10462000CFF9FEBD70546275665B25645D203D2048
:10463000307825582E0D0A006006002070642D3E4B
:104640004D61737465722E5478436F756E74203D9E
:104650002025642E0D0A000070B50546044620355D
:10466000297CC06AFBF7E4FF00206874616BE06A94
:104670000A78027049784170687CE36A801CC0B295
:10468000411C012269741A54FDF752FE697C0246EE
:10469000481CE36A68745A542269002120469047F6
:1046A00070BD0000FEB504460021403001710121BB
:1046B0000173606B254641782035052941790279DF
:1046C00006D00802104340BAC7B20020E66A1DE0D7
:1046D00008021043FF2140BA0902884201D101209B
:1046E00000E0002069460871687E0127687401AE09
:1046F000384610E0C108626BC91D515C4207520F79
:10470000D140C907C90F3154401CC0B2B842F1D3DF
:10471000062068740020009032783B4610A11748AC
:1047200001F02FFD002E0CD0616B3246C8788978DD
:104730000002084341BAA0693B46844620466646CB
:10474000B047297CE06AFBF773FF6A7C616BE06A23
:10475000FBF708FF2269204600999047FEBD000044
:104760007064617461203D20307825582C206C6580
:104770006E3D2025642E0D0A00000000600600201A
:10478000FEE770B5FDF7CAFD04000BD02068401CA1
:1047900008D0204602F076F80546204602F010F9CF
:1047A000284670BD002070BD7047000010B5094C50
:1047B000002208212046FDF7FAFF074800F06EFCB2
:1047C000012208212046FDF7F2FF04A10D4801F067
:1047D000D8FC10BD00040048AC0D0000404C6F61D7
:1047E00072613A20466163746F72792072657365F5
:1047F0007420776173207375636365737366756C7A
:104800002E0D0A00600600200A2000F047FCFBE79E
:1048100010B5FBF733FD044602F0D2FC002803D0AC
:1048200001200349000748602046FBF72BFD10BD1F
:1048300000ED00E070B594B030216846FBF7FAFE59
:10484000002401250E94280413940F9409900D94CC
:104850001094009500010C941294022601950A9080
:10486000119408960B946846FEF78EF9002801D043
:1048700072B6FEE707200C900E9401210D960F945E
:104880000CA8FEF791F8002801D072B6FEE710A838
:1048900010951294FEF714F8002801D072B6FEE7C6
:1048A00014B070BD7047000010B50248FEF781FBE0
:1048B00010BD00009C050020F0B502681A4B1B4C8F
:1048C000984201D0A04203D17025AA434D682A43E3
:1048D000174D184E184F98420AD0A04208D0174CD6
:1048E000A04205D0A84203D0B04201D0B84205D1C1
:1048F0001446032212029443CA6822438024A2432E
:104900004C69224302608A68C2620A6882629842E5
:1049100005D0A84203D0B04201D0B84201D1096904
:10492000016301214161F0BD002C01400004004001
:104930000040014000440140004801400020004088
:1049400010B5818CC90707D001684A6801235B0450
:104950009A43836A1A434A60818C890707D50168A4
:104960004A6801231B049A43C36A1A434A60818C34
:10497000490707D501684A6801239B049A43036BE2
:104980001A434A60818C090707D501684A680123E8
:10499000DB039A43436B1A434A60818CC90607D5EF
:1049A0000268916801231B039943836B194391604B
:1049B000818C890607D501688A6801235B039A43C5
:1049C000C36B1A438A60818C490612D503685A6802
:1049D00001210905046C8A4322435A60026C8A4211
:1049E00007D10268516803235B059943436C19435F
:1049F0005160818C090607D501684A680123DB04F0
:104A0000806C9A4302434A6010BD0000F8B504462A
:104A1000002680300660FDF7D1FE0546206800685C
:104A2000124F000709D501212B46002249052046D7
:104A3000009700F001FA00280DD1206800684007B7
:104A40000BD501212B46002289052046009700F056
:104A5000F3F9002801D00320F8BD2020A067E0670B
:104A60002666603426750020F8BD0000FFFFFF01B8
:104A700010B5406A0022014640314A834A82FEF75F
:104A8000A4FB10BD70B5446AA06FE56F216889680A
:104A900000260906002906DA212804D152200653EF
:104AA000204600F0C6F820688068400606D5222D12
:104AB00004D15A200653204600F08CF8204680305E
:104AC00001681022114301602046FEF77EFB70BD95
:104AD00010B501468969406A202938D000225A2140
:104AE0000A52EFF31081012282F3108802681368E2
:104AF000FF240134A343136081F31088EFF3108186
:104B0000012282F31088026893685B085B0093605F
:104B100081F31088EFF31081012282F3108802687C
:104B200093684024A343936081F310882021C167D8
:104B3000016E01290BD1EFF31081012282F310885D
:104B4000026813681024A343136081F31088016E78
:104B5000012902D0FEF71AFE10BD5821095AFEF7AE
:104B6000E6FA10BD10B5406A016E012902D0FEF7C9
:104B70000EFE10BD5821095A4908FEF7D8FA10BD9B
:104B800010B501468969406A20291BD000225221B4
:104B90000A52EFF31081012282F3108802689368B1
:104BA0008024A343936081F31088EFF310810122E6
:104BB00082F310880068026840231A43026081F380
:104BC000108810BDFEF7AEFE10BD10B5406AFEF7AE
:104BD000AAFE10BD10B5EFF31081012282F31088F8
:104BE00002681368FF242134A343136081F3108803
:104BF000EFF31081012282F31088026893685B084A
:104C00005B00936081F31088016E01290BD1EFF3F3
:104C10001081012282F31088026813681024A343D4
:104C2000136081F310882021C1670021016641666D
:104C300010BD10B5EFF31081012282F310880268D5
:104C40001368C024A343136081F310882021816777
:104C500010BD000070B5044680682169E269084310
:104C6000616900251143226808431168404B1940CF
:104C70000143116021684868032212039043E268EF
:104C800010434860A169206A084321688A680B23A1
:104C90001B029A4302438A6036492068884210D139
:104CA0003548006B8007800F0ED0012805D0022800
:104CB00005D003280AD1022109E0042107E00821D8
:104CC00005E02E49884201D1002100E01021012099
:104CD000E369C0032A4A2B4E834223D1002906D020
:104CE000022907D0042907D0082937D108E0FDF7A9
:104CF000FBFE03E0104603E0FDF706FF002831D07D
:104D0000616840004A088018FBF7DAFC80B201466F
:104D10001039B14222D81B49491C01400007400FFD
:104D200008431DE0002906D0022907D0042907D036
:104D3000082913D108E0FDF7D7FE03E0104603E091
:104D4000FDF7E2FE00280DD061684A081018FBF755
:104D5000B7FC80B201461039B14201D9012501E00A
:104D60002168C86000206066A066284670BD00000B
:104D7000F369FFFF0038014000100240004400408A
:104D800000127A00EFFF0000F8B50446416540309C
:104D900000262746028380373E602220E0672546B2
:104DA000206F603500281BD020498162216F204888
:104DB000C862216F1F480863206F13464663606D09
:104DC0002168844662462431206FFDF7E3FB00280A
:104DD00006D0102038602E752020E0670120F8BD35
:104DE0002E75EFF31080012181F3108821680A6885
:104DF000FF2301331A430A6080F31088EFF3108019
:104E0000012181F31088226893680B43936080F33B
:104E10001088EFF3108081F3108821688A6840239E
:104E20001A438A6080F310880020F8BDD14A000838
:104E3000654B0008854A0008FFB581B00546174656
:104E4000044660350A9E55E0701C53D0FDF7B6FC51
:104E50000499401AB04230D8002E2ED02068016844
:104E6000490747D5C069C043000543D401202168E4
:104E7000C0020862EFF31080012181F310882168DD
:104E80000B68FF22A13293430B6080F31088EFF38D
:104E90001080012181F3108821688A68520852002D
:104EA0008A6080F310882020A067E067803420604B
:104EB00000202875032005B0F0BDEFF3108001211C
:104EC00081F3108821680B68FF22A13293430B60A5
:104ED00080F31088EFF31080012181F3108821689E
:104EE0008A68520852008A6080F310882020A067E8
:104EF000E067DDE72068C1690298884304D000209C
:104F0000B842A1D00020D6E70120F9E710B5054846
:104F10000068002802D08268034990470348FEF7E2
:104F200055F910BD040000208C04002084030020EB
:104F300010B505480068002802D0826C03499047EC
:104F40000348FEF743F910BD280000201405002097
:104F50000804002010B50C460A4601460123044807
:104F6000FEF764FB002800D00024204610BD00009E
:104F70008403002010B50C460A460146044B054840
:104F8000FEF706FC002800D00024204610BD0000DB
:104F9000FFFF000084030020F8B5040C8BB2264606
:104FA00082B25E430D0C1046370C5843360480190C
:104FB0000021794116466E43370C36048019794139
:104FC00026466E438919F8BD30B47446641E2578B0
:104FD000641CAB4200D21D46635D5B00E31830BC2D
:104FE000184700004900CA020243100000D0042004
:104FF0004A0D01D001221043044A490D914201D1CA
:1050000002210843012800D105207047FF07000056
:105010008307FF22DB0E9A408907090E994000287A
:1050200008DB830809489B001B1818689043084355
:10503000186070470007000F0838830804489B0079
:105040001B18D86990430843D861704700E400E01A
:1050500000ED00E030380A2801D20120704700201E
:105060007047EFF30580002800D001207047FDF75E
:10507000B3FBFFF7DFFBFEF7DBFFFEF73FFFFFF7BA
:10508000E5F8FFF7C7F8FEF755FF00F00FF8FEE769
:1050900001460020842900D0C81C704710B50028A4
:1050A00000D1012001F0BAFC002010BD10B501F0C4
:1050B00025FD002010BD10B54168002903D0012056
:1050C00001F0D1FD10BD012001F0C2FD10BD812015
:1050D00070478120704738B54368002B09D00129FB
:1050E00009D10320002200901146012001F0E6FDC5
:1050F00038BD012901D0002038BD03220021012044
:1051000001F0BEFD040004D000231A46194601F048
:105110002BFE204638BD000038B50024054600941B
:10512000FFF79FFF00280FD06946284601F0A8FE30
:10513000012801D0FF2038BD009800280DD00120A3
:1051400007490007486008E000231A461946284628
:1051500001F00AFE012800D0FF24204638BD0000DF
:1051600000ED00E038B5054600200090002D11D07C
:105170000024481C10D0002900D00C46FFF771FF16
:10518000002814D06A460021284601F0B3FE012809
:1051900013D104E0802038BD0024E443EEE70098FA
:1051A00000280CD0012007490007486007E021468D
:1051B000284601F0DBFE012801D0FF2038BD002089
:1051C00038BD000000ED00E07FB50D4604464169A2
:1051D0000820205E002911D0A16900290ED0FFF718
:1051E00057FF6B46A269616907C32B462269216894
:1051F000606801F0B2FF039004B070BDFFF748FF94
:1052000003A901910090208A2B4682B22168606830
:1052100001F07AFF012801D00020EDE70398EBE7C9
:10522000F8B5134C0F46666905462068001D01F06D
:1052300029FB681C07D1002F05D021680D48091DE6
:1052400001F098FBF8BD2068751945602168B542EA
:1052500004D2A068091D01F075FBF8BD6068091D46
:1052600001F070FB206B8542F7D22563F8BD00008A
:105270009C000020D0070020F8B5054601F086FB11
:10528000294C2069401C20612068284F002803D049
:10529000E069002827D02CE025602069012828D16A
:1052A000002614207043C01901F03EFB761C072E27
:1052B000F7D31E488C3001F037FB1C48A03001F0BA
:1052C00033FB1A48B43001F02FFB1848C83001F006
:1052D0002BFB1648DC3001F027FB14488C30606053
:1052E0001430A06005E02068E96AC06A884200D8EE
:1052F0002560E06A401CE062E86AA169884200D942
:10530000A06114214843C019291D01F033FB01F0AD
:1053100049FBE069002806D02068E96AC06A884233
:1053200001D201F06FFBF8BD9C000020F4060020C4
:1053300010B5026C0C46002A0CD0C1688B18C360F3
:1053400041688B4201D2194601E00168C1602046E4
:10535000FBF708F910BDF8B5856B17460446002623
:10536000026C002A11D0002F19D0E068FBF7FAF880
:10537000E168206C091AE1602268914202D26168FA
:10538000081AE060022F17D019E02068002816D113
:10539000606801F073FF0646002060600FE0A068BF
:1053A000FBF7E0F8216CA0684018A06061688842B3
:1053B00005D32068A06002E0002D00D06D1E6D1C9A
:1053C000A5633046F8BD10B504464030007B002888
:1053D00005D0012806D0022807D072B6FEE7206B60
:1053E00001F0EEFA204601F0EBFA10BD15210E484F
:1053F0000902420705D0C01DC0080B4AC000821A2E
:10540000891A0A4A0023411809C20839C908C90083
:10541000183A11604B600B600B1A0AC093600120B0
:10542000C0075360D0607047E4070020E800002008
:105430000F4E104C3746C83F11E001F0A7FAF06854
:10544000C568281D01F01EFA2069401E2061E06831
:10545000401EE06001F0A6FA2846FFF7B4FFE068BE
:105460000028EAD138680128F9D901F0CBFAF6E72B
:10547000BC0700209C00002010B5002807D00021A8
:10548000416001600B460A46C16001F06DFC10BD31
:1054900010B503460298002906D00260C363016478
:1054A000012101F02BFC10BD0060F7E7FFB581B0D2
:1054B00097000C9C0E460A9DA5223946206BFBF7EF
:1054C00092F8206B3F1FC019C708FF00780701D072
:1054D00072B6FEE72218315C20321175315C00296A
:1054E00002D0401C1028F5D3002043210855072D79
:1054F00000D30625E5626564A064201D01F01FFA53
:105500002046183001F01BFA24610720401B64621A
:10551000A0613846049A019900F0FAF820600B98CF
:10552000002800D0046005B0F0BD000030B511497E
:1055300000E011460A688242FBD34B685C18844243
:1055400003D1406818184860084643681C18944204
:1055500009D1084C103C2468A24209D052689A181C
:1055600042600A6812680260814200D0086030BD63
:105570000460F9E7E800002010B5044601F006FADF
:10558000A06B002804D0002401F00CFA204610BDC6
:105590000124F9E7064841680968002905D04168F7
:1055A000C968C9684968016370470021C943FAE7BF
:1055B0009C00002003480068401C72B600D0FEE743
:1055C000FEE70000F0000020F8B5044601F0DEF927
:1055D000254640350526AE57274624370BE0606A3E
:1055E00000280AD0384601F0B9FE002801D001F0A9
:1055F00035FA761E76B2002EF1DC0027FF436F717C
:1056000001F0D0F901F0C2F90426AE57204610305F
:1056100000900BE0206900280AD0009801F09EFE5F
:10562000002801D001F01AFA761E76B2002EF1DCC5
:105630002F7101F0B7F9F8BDF8B50546002701F064
:1056400089FA2C4E3068002801D1FFF7CFFEF068B0
:10565000054212D1002D10D00835680708D0680720
:10566000400F0821081A4519680701D072B6FEE7F5
:10567000002D02D07068854202D901F0A1FE30E011
:105680001C48103001460C6801E020460C46616859
:10569000A94202D221680029F7D131688C42ECD0AE
:1056A00007682168016060680837411B102908D924
:1056B0006019420701D072B6FEE741606560FFF7EE
:1056C00035FF61687068401A7060B268904200D21D
:1056D000B060F0680143002003C401F071FE002FA8
:1056E00001D101F0EDF8780701D072B6FEE7384637
:1056F000F8BD0000D800002004490868002803D045
:105700000868826C521C8264086870479C00002004
:1057100010B50124031F24061C601B1F1960191FEC
:10572000024B0B60143940380A6010BDB5550008B3
:1057300010B5012100F04AF810BD0A78002A08D0FF
:105740004B781B071B0F082B03D003681B781A42EA
:1057500008D060300078C00702D14878C00601D573
:10576000002070470020C0437047000010B500F0D3
:1057700087FA002803D00249896B01F059F810BD5F
:1057800034000020F8B505468089E989401A04B242
:10579000202606E068460670AA6E01219047641E26
:1057A00024B2002CF6DC297B284600F079F8F8BDFD
:1057B00010B500F065FA002801D000F08BFB10BD99
:1057C00010B50021C94300F001F810BDF8B504463A
:1057D000481C04D00022E389002B02D003E0012200
:1057E000F9E7012916D0A089834201D14D1C11D0BF
:1057F0000025834201D1012901D0104612E05B1E31
:10580000401EE38180B2A08121690D540121204610
:1058100000F046F8F8BD2369461E5918435C401C49
:105820008B5500B2A389E1895B1A8342F3DCA0891E
:105830000826401EA081002A07D1E089401EE08191
:1058400068460670A26E01219047A18920694554DF
:105850000E25655F09E020696946405D0870A26E0B
:105860000121684690476D1C2DB2A089A842F2DC48
:10587000202069460870A26E012168469047A089E1
:10588000E189401A401C05B206E068460670A26E27
:10589000012190476D1E2DB2002DF6DCF8BD0000F1
:1058A00070B50C46054603E004A1284600F0C0FF91
:1058B0002146641EE4B20029F6D170BD082008001C
:1058C00010B50021C94300F024FA10BD10B50446FC
:1058D00000F006F80121204600F03CFF10BD00005A
:1058E000F8B504468089002822D021690026254683
:1058F0000E54603528781B4FC0071FD0204600F09B
:105900004CFA204600F0FEFBE681A681E08E0028DE
:105910000ED015A1204600F08BFF00232046A26D7B
:10592000616900F0BBFC010003D0204600F076FC6A
:10593000F8BD2046B96900F07BFFF8BD206881689A
:105940002069FAF779FE002806D0796B204600F02E
:105950006FFFA681E681F8BD2878012108432870F1
:105960003968F3E7340000200D0A00007FB50C46CB
:10597000054600F085F9060013D0022D11DB6168A1
:1059800000F0B9F80B4B06CB5B68039301920091D2
:105990000290231D6A1E6946304600F0F7F804B0F5
:1059A00070BD0548416D304600F042FF0020C04305
:1059B000F5E700007477000834000020411C0A78E5
:1059C00000205C2A01D01046704749786E290FD01C
:1059D00004DC3029F8D0622904D105E0722905D011
:1059E000742907D008467047082070470D2070477B
:1059F0000A20704709207047F8B5844600230078D4
:105A00000A2601221C461D462D2807D0002160468B
:105A1000081807780021302F04D01AE00022D24362
:105A20000121F4E74178782907D0582905D0622967
:105A300005D0422903D002210BE0032109E0012116
:105A400007E007782E2F04D14778002F01D00421DA
:105A500010E00778401C002FF3D1012908D002295B
:105A600003D0032906D1102603E00826012301E014
:105A7000022602236344501C02D000201B181EE0A3
:105A80000120FBE72E2805D00746303F092F03D819
:105A9000F8B20FE0012511E00746613F052F01D85C
:105AA000573804E00746413F052F02D83738C0B2C7
:105AB00000E00020744304190A2045435B1C187859
:105AC0000028DFD1042913D1002D11D01046FAF798
:105AD0007BFF06462846FAF77FFF05462046FAF781
