:020000040800F2
:10000000D81F00205D010008D1360008C900000893
:1000100000000000000000000000000000000000E0
:10002000000000000000000000000000FF36000893
:1000300000000000000000001B0100083537000828
:100040006F010008000000006F0100086F01000848
:100050006F0100086F0100086F010008910E000891
:10006000000000006F010008150E00082D0E0008AA
:100070006F010008E13700086F0100080000000070
:100080006F010008F137000800000000D1370008B8
:100090006F0100086F0100086F0100086F01000880
:1000A0006F0100086F0100086F010008553E00084D
:1000B000793E00080348854600F0ECFB0048004705
:1000C000894A0008D81F002004207146084202D047
:1000D000EFF3098001E0EFF308807146004A104712
:1000E00059490008084B19680868203080F30988CE
:1000F000022080F31488BFF36F8F3FBCAE4608BC6C
:1001000004BC62B61847000028010020EFF31080FD
:1001100072B6704780F310887047EFF309800E4B7A
:100120001A6820381060F0C044464D4656465F4677
:10013000F0C008B572B606F067FB62B60CBC116879
:1001400008681030F0C8A046A946B246BB4680F306
:1001500009882038F0C81847280100200448804743
:1001600004480047FEE7FEE7FEE7FEE7FEE7FEE79E
:10017000CD370008B500000830B50B460146002019
:100180002022012409E00D46D5409D4205D31D469D
:100190009540491B2546954040191546521E002D95
:1001A000F1DC30BD70B500242546002801DA0124B9
:1001B0004042002901DA01254942FFF7DDFFAC4248
:1001C00000D04042002C00D0494270BDF0B51FB4B1
:1001D0000646002082B005464024019100901BE0B5
:1001E000019922460F46304600F020F8049A059BFC
:1001F000801A994110D310461946224600F032F970
:10020000361A8F410197224601200021009F00F0FD
:1002100029F938184D4100902046641E0028DFDC83
:10022000019B00982946324607B0F0BD10B5202A40
:1002300004DB0846203AD040002110BD0B46D340D5
:10024000D0402024A21A91400843194610BD10B591
:1002500003461C460C43A40703D009E010C9121F33
:1002600010C3042AFAD203E00C781C70491C5B1CF2
:10027000521EF9D210BDD2B201E00270401C491EDC
:10028000FBD270470022F6E710B513460A46044633
:100290001946FFF7F0FF204610BD421E5378521C4E
:1002A000002BFBD10B781370491C521C002BF9D189
:1002B000704730B505462A460B4610781C78521C0C
:1002C0005B1C002801D0A042F7D0002C03D00028EE
:1002D00002D06D1CEFE7284630BD421C0178401C5F
:1002E0000029FBD1801A704710B5002200E0521C93
:1002F000835C8C5CA34201D1002BF8D1D8B2E1B26F
:10030000401A10BD30B505460020034600E05B1CD6
:10031000934205D2EC5CC85C201A01D1002CF6D1C6
:1003200030BD024670B54A40D30FDB0740002DD0E8
:100330004A002AD0010E140E000212020919400AC6
:10034000520A8418E50104465443000A120A2E0496
:100350005043A4194219200CC543AA18120C0125B8
:10036000AD03521C521912047F39240400D0521CD0
:10037000104301D44000491EC2B20C06C009201827
:10038000401C4008802A02D003E0002070BD4008D5
:100390004000002900DA0020184370BD70B5024605
:1003A0004A40D50F40004A00ED0740085208002897
:1003B00014D0002A12D0C40DD30D41020120C00573
:1003C0005202490A520AE41A091812187D3491425D
:1003D00001D3641C00E04900002C01DA002070BD4C
:1003E0000023914201D3891A0343400849000028A1
:1003F000F7D100290AD0914202D10121C90705E0B5
:10040000914201D2012101E00121C943E005C01858
:10041000401900F037F870BDC217C10F504010B539
:100420004018CA079623002100F034F810BD10B51B
:1004300000229623114600F02DF810BD4100400225
:100440000122400AD205090E80187F2901DA002016
:100450007047962903DC9622511AC8407047963996
:100460008840704710B5202A04DB0146203A9140AD
:10047000002010BD914020239C1A0346E3401943FD
:10048000904010BD002904DA401C490001D1400809
:100490004000704770B40024050C05D110240004FE
:1004A00002D1002921D01124050E01D10002083407
:1004B000050F01D10001241D850F01D18000A41C6E
:1004C000002801DB4000641C002908D020252E1BD9
:1004D0000D46F540A14000D0012129430843010603
:1004E0001B1B000ADB1D02D5002070BC7047DB051A
:1004F000181880180029F8DA401C4900F5D170BCA2
:100500004008400070470000F0B5074608465840D4
:1005100087B0C00F049048000E46590040084908B3
:10052000BC1A884105D2384631461E4617460B464E
:1005300002465800400810434CD0300D039040054F
:100540005900400D490D0590401A0290402872DA7A
:1005500018030121000B090508430190049800923B
:10056000002805D001995242002088410092019054
:10057000029840210A1A01990098FFF773FF054677
:100580000C466B4607CB00F097F9C0197141039AEE
:100590000E0D0023D71756401A467A40164344D012
:1005A000049A002A2DD0029A012A039A15DC12051A
:1005B000C01A914101263605001C7141D20F059EDB
:1005C000D2070093019202962A46234600F094F93E
:1005D00007B0F0BD38463146FAE71605224A0F4605
:1005E000B218C01AB74101210905001C4F4100187B
:1005F0007F41114618187941E20F10436D1964418B
:1006000013E0E2076D0815436408C2071443039A18
:1006100001261205C01A91413605001C7141CE0712
:10062000400830434908C01851412A46234600F08B
:1006300056F9CDE7FFE7049801224000C117121ACE
:1006400000238B4104983146C417381AA141EEE7C4
:1006500030B40124E407634030BC55E730B40124D2
:10066000E407614030BC4FE70000E0FFF0B51FB485
:1006700088B00B990998002448400999C00F490097
:1006800049080991C0070B990090490049080B914E
:1006900009990898A64608431CD00B990A98084364
:1006A00018D0099801244000420D4800410D0998D6
:1006B00024050003000B204309900B980003000B56
:1006C00020430B9050181C494018002201901446FA
:1006D000104605E0002001460DB0F0BD032801DA08
:1006E000034600E003239C46C11A0AAE0AE05F00FD
:1006F00008ADED5B4F00F75B7D430027AA187C41F6
:10070000491C5B1E6145F2DD410004AB5A522104D5
:10071000120C0A43240C401C0828DFDB01980290CD
:100720000099704601910090059B049A07990698DC
:1007300000F0E2F8D0E700000DFCFFFFF0B50C463A
:100740005C4085B0E40FE40703944C000026640885
:1007500059009446490802460296224321D0624637
:100760000A431ED06200570D4A000E032303550DA5
:10077000012402462C492405781B1B0B360B40181C
:1007800023432643614600901C46501AB44103D3CC
:100790000098401C009002E0921800985B410028ED
:1007A00003DA0020014605B0F0BD00200121090553
:1007B0000746864611E064461D46141BB54106D324
:1007C0006546521BB341744607430C43A646CD070A
:1007D00040084908284392185B4105460D43EAD179
:1007E0001046184313D060461946504071400843E4
:1007F00006D06046101AB34106D20122002306E05B
:1008000000220123DB0702E00122D24353100098AB
:1008100074460105381C6141029C039D0019694121
:1008200000F05DF8BFE70000FD0300004A00090387
:100830000123090B1B0519430A4B10B5520D9A42AF
:1008400002DA0020014610BD064B34339A4203DC25
:100850009A1AFFF7EBFC10BD034BD218FFF702FE0C
:1008600010BD0000FF030000CDFBFFFF10B5002905
:1008700004DB0124E40740428C412146002B04DBC9
:100880001C460123DB075242A341994200D190420A
:1008900010BD0000064C0125064E05E0E36807CCBC
:1008A0002B430C3C98471034B442F7D3FFF706FCB7
:1008B000B07E0008D07E000810B5202A06DBCB17DA
:1008C0000846203A1041C1170B4306E00B4613417E
:1008D000D0402024A21A91400843194610BD10B5FB
:1008E000002B08DA0024401C614192185B411A4336
:1008F00001D14008400010BDF0B51FB482B00546DC
:100900000C0003D0084603F057FB02E003F054FB51
:1009100020300246009021462846FFF7A3FD049BA5
:10092000059A04460F4618431143084314D018464D
:1009300010431BD0009840210A1A18460599FFF76A
:1009400075FC05460E46009A05990498FFF78AFD46
:10095000084305D0012004E02046394607B0F0BD29
:100960000020C11705430E432C43374300990E98CE
:100970006305401A7905E40A00220C43FD0A0A3097
:1009800002D500200146E9E70105101969410C9CD8
:100990000D9D00196941FFF7A2FFDFE770B58C18C4
:1009A0000578401C6B075B0F01D10378401C2A11AE
:1009B00006D10278401C03E006780E70401C491CEA
:1009C0005B1EF9D12B0705D40023521E0DD40B70EA
:1009D000491CFAE70378401CCB1A921C03E01D78EF
:1009E0000D70491C5B1C521EF9D5A142D8D30020C2
:1009F00070BD70B50D46064600F052FA00280BD1C6
:100A0000142004F033FB040007D005F0EAFD214672
:100A10003046256005F000FE70BD05F023FE70BD78
:100A2000F8B505461A486946046800200870174E54
:100A30001848012D04D98168304605F025FDF8BD20
:100A4000A9004158304605F01FFD002CF7D0114891
:100A50000121001F017027464037398B0022606D4D
:100A600000F09FFD002D6946304602D000F022FACA
:100A700001E000F011F8398B0122606D00F091FD6A
:100A800004490020091F0870F8BD0000000800207C
:100A9000080000203C000020F3B5444883B00468FF
:100AA000434802900020434F019068E003980121E1
:100AB000426E04989047002861D008255CE0172218
:100AC0002946029800F0C4FA0646A8003A583AA10E
:100AD000039805F077F93AA17268039805F072F966
:100AE000706800283AD0FFF7F8FB801C04F0BEFACB
:100AF000009000281BD07068FFF7EFFB421C716864
:100B00000098FFF7A4FB092D03D932A10098FFF745
:100B1000C4FB0098FFF7E1FBC2B26277A0690099BD
:100B2000FFF795FB636C627F2046A16998470098A8
:100B300005F098FD082D17D00A2D15D026A2FF2309
:100B4000F5332146039803F0CDF906468000395865
:100B5000039805F099FC062E21D107E001200190B1
:100B60001448803001681DE0B268E8E7162D16D001
:100B70006D1CEDB2172D02D2019800289FD0049869
:100B800000781B2892D1002C07D0254620356979A2
:100B9000206AFFF777FB0020687105B0F0BD0120E7
:100BA0000190F96F039805F06FFCE8E7080000205A
:100BB000F47100083C0000200D0A257300000000BD
:100BC0003E5B4D43552D3E4C3130315D3A25730D22
:100BD0000A0000000D0A00004F4B000000250446EB
:100BE000ED432946206C03F0D1FF0028F9D1002CF9
:100BF000F7D0E26820469047F3E70000F8B50D0013
:100C000004465AD0542004F031FA2060002801D163
:100C100005F028FD2E462036307C04F027FA070028
:100C20004CD0307E04F022FA0090002846D0317C6F
:100C30003846FFF727FB317E0098FFF723FB21683A
:100C40002878087021681F48486021681E4888601D
:100C500021681E48C86021681D48086121681D4838
:100C6000486121681C48886121681C48C861216866
:100C70001B48086221681B4848622068C7622168D7
:100C80000020203148742168327C20310A742268A7
:100C9000009951632168327E20310A762168203123
:100CA00048762168A86C88642168E86BC86321686D
:100CB000286C08642168286D0865F8BD05F0D2FC31
:100CC000F8BD000051330008A5340008BD3300080A
:100CD00055340008E532000861330008ED3400089F
:100CE0002D360008E3350008F8B504460D466020AF
:100CF00004F0BCF92060002878D0002D76D0297847
:100D00000170216868684860216839484863216833
:100D10003848886321683848086321683748C862C2
:100D200021683748C8632168364808642168364816
:100D3000486421683548886421683548C8641420AF
:100D400004F094F921680028886002D005F03EFC88
:100D500001E005F087FC142004F088F921680028E0
:100D6000C86002D005F032FC01E005F07BFC206891
:100D7000002686742068467420680674287F04F074
:100D800075F921680028886103D0297FFFF77AFA76
:100D900001E005F067FC2F462037387904F066F94A
:100DA000216800280862216803D03979FFF76AFAC0
:100DB00002E0886905F056FC2168287F08772068E2
:100DC00046772068397920300171206820304671DB
:100DD0002168A86A88622168286D08652068AB6D63
:100DE0006A6D836542652168E86DC865F8BD0000DD
:100DF000192B0008972C000855110008013700082E
:100E00004F2C0008692A0008252C00083D2A0008FC
:100E1000F529000810B5034800F00FFA024800F069
:100E20000CFA10BD2C060020E805002010B5034880
:100E300000F003FA024800F000FA10BDB4060020EA
:100E40007006002010B504460068054940181421BA
:100E5000FFF792F9800020640248E06310BD0000B3
:100E6000F8FFFDBF0000024030B5056C0124AC4026
:100E7000C56B6C60046863604368102B036803D023
:100E800099600068C26030BD9A600068C16030BD82
:100E900010B50120C00300F0A1FA10BD72B6FEE744
:100EA000C06802E08A4204D040680268531CF9D14D
:100EB00000207047F3B58BB0402004F0D7F80190C4
:100EC00000287CD05248544F0068029051480025B9
:100ED00008900B980121426E0C9890470028F8D09A
:100EE0000C98007808286BD00D280ED01B2868D0ED
:100EF000019948556D1CADB2402D00D300250B98CB
:100F00000121826E0C989047E3E70198002141553A
:100F10000D4642A1019A0B9804F054FF082402E008
:100F20000C2C00D1162417222146089800F090F8C6
:100F30000646082C20D00A2C1ED03CA00990002E7A
:100F400037D07068FFF7C9F9801C04F08FF805905E
:100F500000282BD07068FFF7C0F9421C7168059813
:100F6000FFF775F9092C03D931A10598FFF795F919
:100F70000B2C03D0059805E0B068DFE72CA10198A1
:100F8000FFF78BF90646A0003A582AA10B9804F007
:100F900019FF324629A10B9804F014FF3046FFF7E1
:100FA0009CF982B202983146436C9847059805F047
:100FB00059FBFF23F533099A02990B9802E025E0CB
:100FC00015E020E002F08EFF0646800039580B98AD
:100FD00005F05AFA062E01D1162C03D1F96F0B98A1
:100FE00005F052FA641CE4B20D2C8DD298E7002D66
:100FF00006D001210B9804F06DF96D1EA8B200E037
:10100000002085B265E7019805F02CFB0DB0F0BD1E
:1010100008000020F47100083C0000200D0A496E11
:101020007075743A25730D0A000000004F4B0000E4
:101030000D0A00000D0A2573000000003E5B4D43C1
:10104000552D3E4C3130315D3A25730D0A000000BC
:1010500010B5002308E01C01045D8C4202D1190187
:10106000081810BD5B1C9BB29342F4D3002010BD46
:1010700070B50446E1200002814201D9002070BD14
:101080000846FFF7D4F901461248FFF787F90546ED
:10109000FFF7D4F9208228460F49FFF742F90646A8
:1010A0000E49FFF77BF9FFF7C9F9A08430460C49D8
:1010B000FFF774F9FFF7C2F9E08420852846094953
:1010C000FFF72FF90849FFF769F9FFF7B7F96085CE
:1010D000012070BD002474490000A0400000504170
:1010E000000050420000A8410000D04109480169B9
:1010F00089058A0F084909694904890F8900114344
:10110000026900695207520E0A43C004C00FC001B1
:1011100010437047000400480008004870B50446BA
:10112000104600230A4D0FE0227850400022641C34
:10113000C60702D04008684000E04008521C92B246
:10114000082AF5D35B1C9BB28B42EDD370BD000027
:1011500001A0000010B5012109200903C00600F01C
:101160001BFA002800D0012010BD00280ED0081E58
:101170000CD00068002808D048680A464068083249
:101180004860904201D14068486070470020704735
:10119000002104E0C207D20F5118C9B2400800284C
:1011A000F8D1022901D3012070470020704730B5E3
:1011B000014620314B780022022B04D004238363A4
:1011C0000A70012030BD03681C680E25AC431C600A
:1011D00003681C68640864001C600123056C1C46DD
:1011E000C06BAC4044604B700A70002030BD70B5DD
:1011F0000024014620314A78022A03D00421816369
:10120000012416E0026813680E25AB4313600268E0
:1012100013685B085B0013600122056C1346AB404A
:10122000C56B6B604A7000220A70416B002900D0C8
:101230008847204670BD806B7047F0B4C16B0D6865
:1012400001680C680422066C1346B3402B420DD093
:1012500063070BD50B689B0602D40B6893430B60A6
:10126000016C8A40C16B4A60C16A19E00227B7402D
:1012700002462F4001232032002F15D0A70713D597
:101280000C68A40604D40C680A25AC430C605370A7
:10129000036C02219940C36B596000211170816A6F
:1012A000002916D0F0BC08470827B7402F4210D0BD
:1012B00024070ED50C680E25AC430C60046C19464F
:1012C000A140C46B61608363537000211170016B96
:1012D000E6E7F0BC7047000070B5040021D00221A1
:1012E0002046203005464170226811680E48A368E8
:1012F0000140606826691843E36833431843636913
:101300001843A3691843E369184308431060204653
:10131000FFF798FD0021A16301206870297008463D
:1013200070BD012070BD00000FC0FFFFF8B504467E
:101330008C46203001780025012909D0012606704D
:1013400041780027012905D0077002252846F8BDFD
:101350000220F8BD02214170A76320680168490896
:101360004900016061462046FFF77EFDE06A0028E3
:101370002068016802D00E22114306E00A221143C0
:1013800001602068016804229143016020680168BF
:1013900031430160DAE7000010B501210E4CC903AA
:1013A000884217D1A07E002814D101202076A07693
:1013B0001920205600F0ACF96169002009684862E4
:1013C0006169A08C0968C8626169A08CC8606069A5
:1013D00000F0D8FD10BD0000B802002010B504498F
:1013E0004A69024202D04861FFF7D6FF10BD0000F3
:1013F00000040140F8B5002303240125BAE02E467D
:101400009E40B44632407CD00E79B607B60F012E0E
:1014100001D0022E17D186682746B6465E00B74037
:1014200000967646BE43B646CF68009EB7407646E5
:101430003743876046686746BE430F79FF06FF0F54
:101440009F40374347600E79F643B6070ED0C66813
:101450002746B4465E00B646B7406646BE43B4462D
:101460008F687646B74066463743C7600E79B60741
:10147000B60F022E14D1DE08B60036180096366A72
:101480005F07B446FE0E0F27B646B7406646BE431A
:10149000B4460F697646B74066463743009E3762CA
:1014A00006682746B4465E00B646B7406646BE4369
:1014B0000F79B446BF07BF0F7646B740664637433D
:1014C00007604E68B603B60F53D02D4FBE692E434A
:1014D000BE61BE699F08F607F60F2A4EBF00BE190F
:1014E0000096B6680F27B4469E07360FB646B7403B
:1014F0006646BE430927FF06B446B84202D100271C
:1015000010E036E0204FB84201D101270AE01F4F1A
:10151000B84201D1022705E01D4FB84201D103278F
:1015200000E005277646B74066463743009EB76021
:10153000184E36684F689643FF0300D51643154F83
:101540003E607E684F689643BF0300D51643114F37
:101550007E60BE684F689643FF0200D516430D4F6C
:10156000BE60FE684F689643BF0200D51643094A25
:10157000D6605B1C0A681646DE4000D03FE7F8BD27
:10158000001002400000014000040048000800482C
:10159000000C0048000401400069084000D0012010
:1015A0007047002A01D08161704781627047000056
:1015B00001488068704700001801002070B50400E1
:1015C0000FD021681548086021681548086003CCD1
:1015D00041602068083C21688860FFF7E9FF054604
:1015E0000CE0012070BDFFF7E3FF401B272805D961
:1015F0002068C068400701D0032070BD2068C06823
:101600004007F0D120680269E1688A4201D0016197
:1016100001E004490160002070BD0000CCCC000056
:1016200055550000AAAA0000006802490160002088
:1016300070470000AAAA0000024881680278891851
:10164000816070471801002010B50648016810221B
:1016500011430160032000F007F800F041F800207A
:1016600010BD00000020024000B5014687B00022F6
:101670000D2000F069F80D2000F05AF81348826937
:10168000C1140A43826180690840059004A9684634
:1016900000F056F900F070F90D49FEF76DFD0E49A6
:1016A0000C4A0A600D4A401ECA604860002008616A
:1016B0008860084600F013FC002802D0012007B023
:1016C00000BD054800F05EFCF9E700000010024094
:1016D00040420F00002C0140F8060020E703000004
:1016E00008B50A488169012211438161816911406D
:1016F0000091C26901040A43C261C0690022084026
:1017000003210090481F00F01FF808BD00100240A0
:10171000002809DBC106C90E012088400349086082
:10172000BFF34F8FBFF36F8F7047000080E100E081
:10173000002805DBC106C90E012088400149086068
:101740007047000000E100E010B502F071FC10BD30
:10175000F8B505460068354CC00352D5E06900264F
:10176000C00007D4E16920040143E161E16901405F
:10177000012600912E480168C90510D40168821520
:1017800011430160FFF714FF074604E0FFF710FF65
:10179000C01B642824D826480068C005F6D5206AF6
:1017A00003273F02384020D06968394081421CD06D
:1017B000206A226AB843012109040A432262226A8C
:1017C0008A4322622062C0070FD0FFF7F1FE00902B
:1017D00008E0FFF7EDFE0099411A1648814201D951
:1017E0000320F8BD206A8007F3D5206A6968B843F2
:1017F00008432062002E04D0E169012000078143E4
:10180000E1612878C00705D0206BA96880088000B6
:10181000084320632878800605D5206B1021884373
:10182000E968084320630020F8BD00000010024072
:101830000070004088130000F8B50F46060059D02C
:101840003A4D2868C007C00FB84209D2286840083E
:101850004000384328602868C007C00FB84249D10B
:101860003068334C81070CD5400704D560680721E8
:101870000902084360606068F0218843B16808434A
:1018800060603078C00726D0706801280ED02168CB
:1018900002280ED0890700292CDA6168890889009E
:1018A00001436160FFF784FE00900DE02168890329
:1018B000F1E78901EFE7FFF77BFE0099411A1D4828
:1018C000814201D90320F8BD60680C21084071688D
:1018D00089008842EFD12868C007C00FB8420BD9F1
:1018E000286840084000384328602868C007C00FB7
:1018F000B84201D00120F8BD3078400706D56068B5
:10190000072109028843F1680843606000F044F849
:101910006168094A0906090F515CC8400749086017
:101920000320FFF7A1FE0020F8BD000000200240C8
:101930000010024088130000847400082401002075
:1019400010B5072202600A4A53689B079B0F436049
:101950005368F02423408360526807231B021A4017
:10196000C26004480068C007C00F086010BD0000D6
:101970000010024000200240044805490068496800
:10198000044A4905490F515CC840704724010020B2
:10199000001002409474000810B514A30FCB88B057
:1019A0006C460FC415A30FCB0FC4184A51680C2006
:1019B0000B4603401648042B16D0082B14D18B027B
:1019C0001B0F6C46E45CD26A04AB1207120F9A5CE0
:1019D000C90305D500231946FEF7F8FB214601E0AF
:1019E00020460C4902F0FFFA08B010BD02030405BE
:1019F000060708090A0B0C0D0E0F10100102030454
:101A000005060708090A0B0C0D0E0F100010024006
:101A100000127A0000093D00FEB5040070D0207865
:101A2000DC4DC0074AD068680007800F012807D046
:101A300068680007800F022809D16868C00306D5CE
:101A4000286880033AD560680028E7D036E06168EE
:101A5000012914D001208004002901D0052914D0C7
:101A60002A68012109048A432A6029688143296080
:101A70006068002816D0FFF79BFD06460EE0286838
:101A80000121090408432860F2E72968014329601D
:101A9000F5E7FFF78DFD801B64286ED8286880036A
:101AA000F7D50BE0FFF784FD064604E0FFF780FD65
:101AB000801B6428F1D828688003F7D42078012699
:101AC000800700283CDA68680007800F07D0686844
:101AD0000007800F022809D16868C00306D428686F
:101AE000800716D5E06801280AD112E0E0680028D6
:101AF000286816D030432860FFF75AFD074605E0F6
:101B000043E1FFF755FDC01B0228C6D828688007AF
:101B1000F7D52868F82188432169C900084328605F
:101B20000EE0400840002860FFF742FD074604E051
:101B3000FFF73EFDC01B0228AFD828688007F7D406
:101B40002078000722D5E0690028686A0ED030436B
:101B50006862FFF72DFD074604E0FFF729FDC01B73
:101B600002289AD8686A8007F7D50FE0400840003D
:101B70006862FFF71DFD074605E09DE0FFF718FDD1
:101B8000C01B022889D8686A8007F7D42078042708
:101B90004007002860DA00200190E869C00008D4FE
:101BA000E969B8060143E961E96901400120009152
:101BB000019079480168C90511D401688215114363
:101BC0000160FFF7F5FC009005E0FFF7F1FC0099DC
:101BD000401A642870D870480068C005F5D5A06820
:101BE00001280AD0002801D0052810D0286A400812
:101BF00040002862286AB84301E0286A304328621E
:101C0000A068002812D0FFF7D3FC00900AE0286AF1
:101C100038432862F1E7FFF7CBFC0099411A5F488F
:101C2000814249D8286A8007F5D50DE0FFF7C0FC4E
:101C3000009006E0FFF7BCFC0099411A574881422A
:101C40003AD8286A8007F5D40198002804D0E969B9
:101C5000012000078143E9612078C00635D560691D
:101C600001280CD0401D686B23D038436863686B33
:101C7000400840006863FFF79BFC064622E0686B63
:101C800038436863686B30436863FFF791FC06462E
:101C900004E0FFF78DFC801B02285BD8686B80078F
:101CA000F7D5686BF8218843A169C90008436863C8
:101CB0000BE0B8436863F4E74CE0FFF779FC801B66
:101CC000022847D8686B8007F7D4206A00285ED0C6
:101CD00069680907890F022942D0012636060228C1
:101CE000286805D0B0432860FFF762FC044633E063
:101CF000B0432860FFF75CFC074604E0FFF758FCA0
:101D0000C01B022826D828688001F7D4E86AE16A57
:101D1000000900010843E862616AA06A0843696833
:101D20003D221204914308436860286830432860CC
:101D3000FFF73EFC044604E0FFF73AFC001B0228D4
:101D400008D828688001F7D521E0FFF731FC001B97
:101D5000022801D90320FEBD28688001F5D416E0D1
:101D60000128F8D06868E96A01221204636A024017
:101D70009A420AD10907E26A090F914205D10F215F
:101D800089040840A16A884201D00120FEBD0020DC
:101D9000FEBD0000001002400070004088130000EB
:101DA000FFB50446807E81B01F460E4600283CD118
:101DB000002E1DD0039800281AD0FFF7F9FB054626
:101DC000204620300090007B002814D001201C49C0
:101DD000C003486119202056FFF7AAFC0099002093
:101DE000087303990129617F21D9E28BB1541FE067
:101DF000012005B0F0BDFFF7DBFBA84204D2FFF7DE
:101E0000D7FB401B401E02E0FFF7D2FB401BB8424D
:101E100001D9012000E00020401E384205D10020F9
:101E2000E083607730700320E3E70220E1E7317060
:101E30006077E28B03998A4200D1E0830020D8E7E3
:101E400000040140FFB581B0044602981E461746C3
:101E500000280DD0002F0BD0FFF7AAFB05462781E5
:101E60000298E0606079002804D0022005B0F0BD3F
:101E70000120FBE7012060712071206800270068C5
:101E800047622168208A0968C8622168208AC86080
:101E9000206800F077F81AE004F0D4FF022800D0A0
:101EA00062B6FFF785FBA84204D2FFF781FB401B17
:101EB000401E02E0FFF77CFB401BB04201D901202D
:101EC00000E00020401E304201D10320CEE7A07C7C
:101ED0000028E1D0A7740020C8E77047704770B5AC
:101EE000040005D025462035687F002802D006E092
:101EF000012070BD00202877204600F015F8022050
:101F00006877211D206801F07BFC01204034A0711E
:101F1000A877E87720706070A070E0702071607121
:101F20006877002070BD000008B5134A01681348A7
:101F300091420DD1C26910210A43C261C0690022D9
:101F40000840009003211120FFF7FEFB11200FE055
:101F50000B4A91420ED1C26989150A43C261C06918
:101F600000220840009003211320FFF7EDFB13200F
:101F7000FFF7DEFB08BD000000100040001002402B
:101F800000200040014620314A7F012A01D0012073
:101F9000704702224A770268D36801210B43D3605D
:101FA0000068094A904205D0084A904202D0084A87
:101FB000904204D182685207520F062A02D002686A
:101FC0000A43026000207047002C014000040040DA
:101FD000004001400168CA6852085200CA600168A6
:101FE0000A6A084B1A4207D10A6A9B101A4203D1A7
:101FF0000A68520852000A6001212030417700200F
:102000007047000011110000704770B50446006869
:1020100001690025C9438907002915DBC168C94347
:10202000890711D4E91E01610120207720688069A9
:102030008007204602D0FFF7E7FF04E000F096F8A3
:10204000204600F094F8257720680169C9434907C4
:1020500017D4C168C943490713D40421C943016196
:1020600002202077206880698005800F204602D0FA
:10207000FFF7CAFF04E000F079F8204600F077F897
:10208000257720680169C943090716D4C168C94387
:10209000090712D40821C943016104202077206870
:1020A000C0698007204602D0FFF7AEFF04E000F0D1
:1020B0005DF8204600F05BF8257720680169C94388
:1020C000C90617D4C168C943C90613D41021C9432E
:1020D0000161082020772068C0698005800F2046B4
:1020E00002D0FFF791FF04E000F040F8204600F036
:1020F0003EF8257720680169C943C90708D1C1683E
:10210000C943C90704D1891E0161204600F030F897
:1021100020680169C943090609D4C168C943090691
:1021200005D48021C94301612046FFF7D6FE20680F
:102130000169C943490609D4C168C943490605D4A0
:102140004021C9430161204600F018F92068016967
:10215000C943890609D4C168C943890605D4202129
:10216000C94301612046FFF7B9FE70BD7047704753
:10217000F8B501687C487B4C814202D1FFF75CFADC
:10218000F8BD784F794A7A482037002591424AD1E4
:1021900021790029F4D0627901218903012A15D01F
:1021A000022A1AD0032AEBD0042AE9D10122FFF730
:1021B000F8F9A5712089401E0004000C208122D06E
:1021C00001206071E068401CE060F8BD0022FFF76C
:1021D000E8F902206071A571F8BDE268A379127870
:1021E000DA40D207D20FFFF7DCF9A079401CC0B269
:1021F000A0710828F0D3387C002801D0032000E02B
:1022000004206071F8BD657125710126267620686D
:10221000FFF7E0FE20680068456219202056FFF7AE
:1022200087FAA674F8BD534A9142FBD1217E00295A
:10223000F8D0A27E0121C9034F4E012A27D0022ADD
:102240004DD0032A7FD0042AECD1FFF7A5F93178CD
:10225000C007C00F49000843C0B23070217F491C3D
:10226000C9B22177032970D3FEF792FF00280BD063
:10227000E08B401CE083A5766069FFF7ABFE6069E8
:10228000006845620120387325773570F8BDFFF787
:1022900083F93178C007C00F49000843C0B23070DD
:1022A000217F491CC9B2217703294ED3FEF770FF65
:1022B000002804D00420A07635702577F8BD0220D0
:1022C000A076207F6169400000190968808CC8628F
:1022D000207F616940000019808CC860ECE7FFF73F
:1022E0005BF93178C007C00F49000843C0B23070B5
:1022F000217F491CC9B22177032926D3FEF748FF65
:10230000E17E8840617F08436077E07E072808D33C
:10231000E576387C002801D0032000E00420A07678
:1023200001E0401CE076207F6169400000190968E7
:10233000808CC862207F616940000019808CC86071
:10234000A2E700E001E0A576F8BD48006169001948
:102350000968808CC862207F616940000019808C08
:10236000C860F8BDB8020020002C014000100040F9
:10237000000400480020004014000020704770470F
:10238000F8B50446806FE66F21688A682546120614
:1023900010278035002A1BDA212819D1EFF310808D
:1023A000012282F310888A6880239A438A6080F32E
:1023B0001088E06E002808D0FEF7F9FE002804D04F
:1023C000E06EFEF738FF202824D0204601F0D5FB30
:1023D0002168886840061BD5222E19D1EFF31080A2
:1023E000012282F310888A6840239A438A6080F32E
:1023F0001088206F002808D0FEF7D9FE002804D0EE
:10240000206FFEF718FF202804D0204601F086FB3D
:102410000020F8BD2F600320F8BD7047F8B50268B2
:102420000446D069116896689C4B05461D402023E0
:10243000002D75D0F7079A4DFF0FBC460D402F4376
:102440006DD02546C7078035002F06D0CF0504D5AF
:10245000012717622A683A432A60820708D5F207E3
:1024600006D0276802223A622A6804273A432A6083
:10247000420708D5F20706D02668042232622A688D
:10248000022632432A6002070AD50A461A406646E7
:10249000324305D02668082232622E6816432E6029
:1024A000020508D54A0106D501222668D202326209
:1024B0002A681A432A602A68002A39D0800606D57D
:1024C000880604D5616E002901D020468847286817
:1024D00021688968490602D4282108422DD0204667
:1024E00001F01CFB21688868400622D5EFF31080BC
:1024F000012282F310888B68402293438B6080F323
:102500001088206F002814D066494163206FFEF7C1
:102510006EFE00280CD0206F416B08E000E012E056
:10252000850610D58D060ED5616E9DE02046884744
:10253000F8BD2046FFF771FFF8BD2046FFF76DFF9D
:1025400000202860F8BD256E012D7DD1C5067BD504
:10255000CD0679D510261662226890682546400679
:102560004035002845DA216F086840680004000CF7
:10257000E8D02F8B8742E5D968838869202833D03B
:10258000EFF31080012181F3108811683701B943FE
:10259000116080F31088EFF31080012181F310881F
:1025A00021688A68520852008A6080F31088EFF32D
:1025B0001080012181F3108821688A684027BA437E
:1025C0008A6080F31088E36700202066EFF31080B4
:1025D000012181F3108821680A68B2430A6080F300
:1025E0001088206FFEF7E3FD288B698B401A81B2BB
:1025F00031E0288B698B401A81B2688B0028A1D00A
:1026000000299FD0EFF31080012585F3108815680D
:10261000FF272137BD43156080F31088EFF310804A
:10262000012282F31088226895686D086D0095601C
:1026300080F31088E367002020666066EFF3108067
:10264000012282F3108800E009E022681368B34396
:10265000136080F310882046FFF791FEF8BD050651
:1026600006D50D0604D5A16E002900D05EE7F8BDA1
:102670004006FCD54806FAD52046EFF31081012428
:1026800084F3108814684025AC43146081F31088EB
:1026900083670021816600F083F9F8BD0F08000010
:1026A00020010004B939000810B5040003D0A06F60
:1026B000002802D007E0012010BD00217420015540
:1026C000204600F027F82420A06720680168490808
:1026D00049000160204601F061FA0128ECD0606AEF
:1026E000002802D0204601F0CFF82068416801227E
:1026F000D202914341602068816808229143816041
:1027000020680168012211430160204601F022F98E
:1027100010BD0000F0B587B0044614216846FDF7EF
:10272000B1FD4F4E23684F48022203210025802728
:10273000B34244D1866953031E43866186691E40B5
:102740000596466953041E4346614069184005904A
:10275000C0206B4625C322C369464348FEF74AFEA4
:102760004248434E21C63560B560F56035617760FB
:1027700075613F48083EFEF7AFFD002801D0FEF727
:102780008DFB266774623A4E384844361438306000
:102790001020311DA1C135617561B5613046F5610B
:1027A000FEF79AFD002801D0FEF778FBE6660022CE
:1027B00003211B207462FEF7C7FF1B204CE02D4E47
:1027C000B3424BD1C66901235B041E43C661C6698F
:1027D0001E40059646691E434661406903911840B4
:1027E00005900C206B4625C3012004900920694602
:1027F000C006FEF7FFFD1D481D4E2830883621C655
:102800003560B560F56035613046776075610838D0
:10281000083EFEF761FD002801D0FEF73FFB26676A
:102820007462134E1148CC36143030601020311DC4
:10283000A1C135617561B5613046F561FEF74CFDAA
:10284000002801D0FEF72AFBE666002203211C20A7
:102850007462FEF779FF1C20FEF76AFF07B0F0BD37
:1028600000380140001002400004004830000240DF
:10287000E80500200044004070B5C36F202B2BD129
:1028800000290BD0002A09D0012483682403A34225
:1028900006D10369002B03D1CB0701D0012070BD05
:1028A000034660331C7D012C16D001241C750023C7
:1028B0000366046863681B020BD5EFF310830125E0
:1028C00085F3108825680126B6063543256083F315
:1028D000108801F0FDF970BD022070BD704770478F
:1028E000F8B50446806F202852D100290BD0002A69
:1028F00009D00123A0681B03984206D12069002853
:1029000003D1C80701D00120F8BD25466035287DD8
:1029100001283DD00120287520464030E164028224
:1029200042820026274680373E602120A067E06E65
:1029300000281BD017498162E16E1748C862E16E1A
:1029400016480863E06E13464663E06C21688446CF
:102950000A4628326146E06EFEF7E8FC002805D002
:10296000102038602E752020A067CCE72168402019
:1029700008622E75EFF31080012181F31088216821
:102980008A6880231A438A6080F310880020F8BD8B
:102990000220F8BDC93A0008133B0008CD390008F1
:1029A000704770470F4D01260F4CF7030F48FEF795
:1029B0003BFE2868C06B00280ED00078002801D0AC
:1029C000012001E0207870402070012808D000220A
:1029D00039460748FEF7E5FD782002F074F8E5E790
:1029E0000122F5E704000020180000204004002028
:1029F00000080048F3B50400E06D81B0C56B1AD043
:102A00000299002917D00146012240310A7100269F
:102A10000E73217C8769C9000823074AB84700283C
:102A200009D0A36C0822044902989847002802D0D4
:102A3000002D00D02E70FEBD0C00002070B50446A5
:102A40000020002C0FD000290DD0002A0BD000232D
:102A500007E0E55CCE5CB54201D0CD5401205B1CA3
:102A6000DBB29342F5D370BD70B50446227C26A636
:102A700068CEC06D86B00193039602954D786B4683
:102A80001D710D78521C5D718D78D2B29D71DA7115
:102A9000002835D0002933D0052A04D2022119722A
:102AA0000821197313E0002369460B750146403174
:102AB0000B710B73521F91B28569012305AAA847B8
:102AC00000281ED0052168460172017DC1720B20CD
:102AD000607701A80F4A06210330FEF71FFB01466D
:102AE000684601800178417341788173627F01A952
:102AF000A069FDF7ACFB636C627F2046A169984733
:102B0000012006B070BD00000000000005000000BC
:102B100000000000FFFF0000FEB507460446203716
:102B20007879022873D9801E81B23D4AE56D206A0A
:102B3000FEF7F4FA226A11780091491ECEB2797933
:102B400051181E394A7F0B7F1102020A00021943F5
:102B5000024349BA90B2814254D12078B04218D988
:102B60003146A068FDF745FF3146E06800F0B1FD51
:102B70003046A96C7C30095C012905D0EA6B002144
:102B80001170AA6C012111540020F1006268C91D66
:102B90005054A07C00280CD1207C401CC0B2207472
:102BA0002178884203D3FF202074012000E0002018
:102BB000A074F60062680221301D115400980528A7
:102BC00025D200206946226A4307D2785B0FDA409B
:102BD000D207D20F0A54401CC0B20828F3D3002DEC
:102BE00015D0E26C20469047284601214030017103
:102BF00001733146202E12D8AE6908236A46284652
:102C0000B04704E00321F0006268001D1154002C5D
:102C100005D07979206AFDF735FB00207871FEBD7B
:102C2000FFFF000010B5040010D0206DFFF758FE24
:102C3000206D0068C169C9434906FBD4002C05D04A
:102C4000617FA069FDF71EFB0020607710BD70B5A5
:102C50000446006D0D460068C169C943C90619D410
:102C600010210162002C10D0206A00280DD0206DA8
:102C7000FFF786FB20462968203002794968511AFF
:102C80004171216A206DFFF7F7FDA06A002801D08D
:102C900001F056FF70BDF8B50400E66D65D0A06880
:102CA000002862D0E068009000285ED0606D0028A7
:102CB0005BD0217C6268C800031DD75C00253B0007
:102CC00001F0A9F90504540469695300216B2046F9
:102CD0008847002849D0207C6168C000801D0D54C1
:102CE000A07C00280CD02046A168FEF73EFA002800
:102CF00001D0007800E0FF202074607C401C6074EC
:102D000026464036318B0122606DFEF74AFC207C5E
:102D1000217888420BD26168C0000918226C2046D5
:102D20009047207C0121C0006268001D1154318B46
:102D30000022606DFEF735FCA068617C026891425C
:102D400005D80068002810D1A07C00280DD065743B
:102D50002046E168FEF709FA05460168A068FDF71C
:102D600048FE2968E06800F0B4FCF8BD801D115CE5
:102D7000491CCBB21354207C6168C000421D8A5CA0
:102D80009342F2D3801D0D54207C0421C000626860
:102D9000001D1154F8BD08462030C7B2002E02D0E5
:102DA000207881422CD80098FDF723FEA07C0028D3
:102DB00003D0217CA06800F08CFCB06C5C37C05D57
:102DC000002803D0F06B0570B06CC555207C61689D
:102DD000C000C01D0A5C521CD2B20A54032A0FD98B
:102DE000207C6168C000C01D0D54F06B0570207C14
:102DF000042805D2C000B16C5C300818056045603D
:102E0000A07C00280CD1207C401CC0B2207421780A
:102E1000884203D3FF202074012000E00020A0742A
:102E2000207C6168C000001D0D54F8BD094D0446AA
:102E30003C21A06A01F0AAFE0028287805D00028CD
:102E4000F6D1A16B20468847F2E70028F0D1616BEC
:102E5000F8E700003800002008B50C48416901225D
:102E600011434161406903211040009000220A2073
:102E7000FEF76AFC0A20FEF75BFC002203210B2010
:102E8000FEF762FC0B20FEF753FC08BD0010024069
:102E9000F0B5A3B0002400946846019401F020FE30
:102EA000354D01216861029402A8039401F028FEC7
:102EB000A8610494012104A8059401F021FEE861B1
:102EC0002E4800F071F900F03FF92D4D10272868C9
:102ED00000280ED0006D0068016839430160286841
:102EE00038210A5C416B006DFFF7C6FC2868203072
:102EF000447600F0FBF8234E306800280ED0006DB9
:102F00000068016839430160306824210A5C016A65
:102F1000006DFFF7B1FC3068203044711C221A4963
:102F200006A8FDF794F9154906A801F061FE124CB8
:102F3000154960601C221C310DA8FDF788F90DA809
:102F4000296801F055FE1049A0601C22383114A8F0
:102F5000FDF77DF914A8316801F04AFE0A49E060E6
:102F60001C2254311BA8FDF772F904491BA801F07B
:102F70003FFE206123B0F0BD1800002000080020B3
:102F8000040000200800002084710008F0B587B01C
:102F900014216846FDF776F9414842690121C904C8
:102FA0000A43426142690A4005924269C9000A43E4
:102FB000426142690A400592426949110A434261ED
:102FC00042690A400592426949000A4342614069E8
:102FD000344F0840CE100590012231463846FEF7A6
:102FE000E0FA092001220321C006FEF7DAFA0122E5
:102FF0002D492E48FEF7D5FA032040030025012471
:1030000000906946019502943846FEF7F3F9019461
:1030100069463846009603950294FEF7EBF90327BC
:10302000092001946946C006009703950294FEF7B3
:10303000E1F91F4800906946019502941B48FEF78C
:10304000D9F91C48009001946946039502941748E9
:10305000FEF7D0F9A003009001946946039702940B
:103060001248FEF7C7F92120000401906946009636
:1030700002940E48FEF7BEF920030090092069462D
:1030800001950294C006FEF7B5F90022032107203E
:10309000FEF75AFB0720FEF74BFB07B0F0BD000020
:1030A0000010024000080048084C000000040048DE
:1030B00007130000080C000010B50948074901601B
:1030C000042141600749C16007498160FEF776FA33
:1030D000002801D0FDF7E2FE10BD000000300040E6
:1030E00040040020FF0F0000E204000010B50021A2
:1030F000104B98B00A460324481CC9005852C918FE
:1031000088700A718A714C71CA71C1B21029F3D3E7
:10311000602209496846FDF79AF808486946006840
:103120000A900748006817900648FDF7DDFD18B0C3
:1031300010BD000038020020247100083400002077
:10314000040000200800002000B595B0FDF7CEFF78
:103150000007000F0F2800D910206946087048208A
:1031600008A9087408760C485C21006810900B4888
:103170000F900B4814900B481290FDF783F8094804
:103180005C215C30FDF77EF804486946001DFDF7C0
:1031900035FD15B000BD000030000020000000200B
:1031A000E00400208001002010B506498166064930
:1031B00041660649C166064901672022054902F0B9
:1031C000CBFB10BDC13E00089D3E0008B164000865
:1031D000C96400087408002010B54B21C9010948D2
:1031E000FDF746FF074A002120320648117481741A
:1031F0004171054B036011738176044941610721D8
:10320000417610BDB8020020500400209804002030
:1032100010B50A48084901602F21416000218160F2
:10322000074A0161C2608161FEF759FE002801D0A2
:10323000FDF734FE10BD000000200040980400207F
:10324000FFFF000010B50948074901602F214160C8
:103250000021074A8160C2608161FEF740FE0028BC
:1032600001D0FDF71BFE10BD0010004050040020EF
:10327000FFFF000010B50C480A490160E121490236
:10328000416000218160C16001618161C1610C22E6
:10329000016242614162FFF707FA002801D0FDF7A1
:1032A000FDFD10BD00380140E004002010B50C48C1
:1032B0000A490160E1214902416000218160C16049
:1032C00001618161C1610C22016242614162FFF7CB
:1032D000EBF9002801D0FDF7E1FD10BD00440040EE
:1032E00064050020FFB5044617A205CA83B000900C
:1032F00001922278684602700A0A8270C170002624
:10330000067159081D464171857127462037397C61
:10331000E06AFCF7B7FF7E7407226946E06AFCF7B3
:1033200096FF787C2A46C01DC0B27874E16A0818FE
:103330000599FCF78CFF787C40197874226900218C
:103340002046904707B0F0BD004600000000000096
:10335000C06B002803D0022901D101210170704700
:10336000F8B5074640373E790024002E19D0012ECB
:1033700017D00025A94212D2AB4210D83D7B0F4690
:103380005C37002D0FD0806C002E14D0C51911466B
:103390001A462846FCF75BFF002800D0012420468F
:1033A000F8BD5C25E6E7806C1546002E01D0C119FA
:1033B000EEE74118ECE74518E9E7000070B505466F
:1033C00004462035687E02283BD9297E884238D2BF
:1033D000801E81B21E4A606BFDF7A0FE616B2378F0
:1033E0000A789A422DD16A7E8A181E3A537F167F38
:1033F0001A02324353BA020A0002024390B28342D5
:103400001FD14878052811D004DC012807D00228F4
:1034100017D104E00F2809D0112812D10AE0E16980
:1034200020468847606B6268417808E0216A204640
:10343000884706E0616A2046884762681121204675
:103440009047297E606BFCF71DFF0020687670BDF9
:10345000FFFF000038B5054620350446002913D18A
:10346000697C0F4AE06AFDF759FE01466846018013
:10347000697CE06A411868460078087068464078C0
:103480004870687C801C68746A7CE16A206DFFF774
:1034900027FA206D0068C169C9434906FBD438BDCD
:1034A000FFFF000070B50446006D0D460068C1695D
:1034B000C943C90619D410210162002C10D0606BD9
:1034C00000280DD0206DFEF75BFF204629682030D4
:1034D000027E4968511A4176616B206DFFF7CCF985
:1034E000206C002801D001F02BFB70BDFEB5416BB4
:1034F0000446487909790002084340BAC6B2F00888
:10350000710700D0012140180190304601F0AEFD56
:103510000090002861D03146FCF7B4FE25462035E6
:10352000297CE06AFCF7AEFE00276F74616BE06AED
:103530000A78027049784170687C0199801CC0B299
:10354000431CE26A6B741154616B4878012801D006
:10355000012200E000222046403002710773C87843
:1035600089780002084341BAA76933462046009A89
:10357000B84700212AE00020CA0094461DE0009BC5
:103580009A5CD207D20F08D0E76A6B7CBE46FF5C1C
:1035900082403A437746FA540BE0E36A02936F7C29
:1035A000BE46DB5D17461A468740BA43029B774604
:1035B000DA55401CC0B2082803D262461218B24243
:1035C000DDD3687C401C491C6874C9B201988142F3
:1035D000D1D32269002120469047009803F042F899
:1035E000FEBD70B5054604462035297CC06AFCF74F
:1035F00049FE00206874616BE06A0A7802704978BD
:103600004170687CE36A801CC0B2411C012269746D
:103610001A54FDF76BFD697C0246481CE36A687426
:103620005A54226900212046904770BDF8B50446DF
:1036300000214030017101210173606B2546417802
:10364000203505294179027906D00802104340BA95
:10365000C3B20020E26A1DE008021043FF2140BA15
:103660000902884201D1012000E00020694608706B
:103670000123687E6A4668741E4610E0C108666BC6
:10368000C91D715C4607760FF140C907C90F115477
:10369000401CC0B29842F1D3062068740026002A6C
:1036A00008D0616BA769C87889780002084341BADD
:1036B0002046B847297CE06AFCF7E4FD6A7C616B30
:1036C000E06AFCF7C4FD2269314620469047F8BD08
:1036D000FEE770B50268002A0FD0FDF7E1FB040099
:1036E0000BD02068401C08D0204602F0F7FE0546AB
:1036F000204602F0B7FF284670BD002070BD70471D
:1037000010B5074C002208212046FDF74AFF054866
:1037100001F0D9F9012208212046FDF742FF10BD32
:1037200000040048AC0D00000446204602F0B6FD3F
:10373000FBE7000010B5FCF7E9FC044603F092FB40
:10374000002803D001200349000748602046FCF709
:10375000E1FC10BD00ED00E070B594B0302168468A
:10376000FCF790FD002401250F9409200E94009091
:103770001394280409900C940D9410940001119452
:103780001294019502260A90089607950B946846B4
:10379000FEF742F9002801D072B6FEE707200C9030
:1037A0000E9401210D960F940CA8FEF745F8002801
:1037B00001D072B6FEE710A810951294FDF7C8FF6D
:1037C000002801D072B6FEE714B070BD704700004B
:1037D00010B50248FEF719FC10BD00009804002047
:1037E00010B50248FEF711FC10BD0000F8060020DD
:1037F00010B50248FEF709FC10BD0000500400207F
:10380000F0B502681A4B1B4C984201D0A04203D17C
:103810007025AA434D682A43174D184E184F9842F9
:103820000AD0A04208D0174CA04205D0A84203D02D
:10383000B04201D0B84205D114460322120294438B
:10384000CA6822438024A2434C69224302608A68EA
:10385000C2620A688262984205D0A84203D0B04290
:1038600001D0B84201D10969016301214161F0BD74
:10387000002C014000040040004001400044014091
:10388000004801400020004010B5818CC90707D0D6
:1038900001684A6801235B049A43836A1A434A60B9
:1038A000818C890707D501684A6801231B049A4364
:1038B000C36A1A434A60818C490707D501684A6880
:1038C00001239B049A43036B1A434A60818C0907C6
:1038D00007D501684A680123DB039A43436B1A4307
:1038E0004A60818CC90607D50268916801231B03D1
:1038F0009943836B19439160818C890607D50168D0
:103900008A6801235B039A43C36B1A438A60818CE4
:10391000490612D503685A6801210905046C8A43D7
:1039200022435A60026C8A4207D10268516803231D
:103930005B059943436C19435160818C090607D597
:1039400001684A680123DB04806C9A4302434A60A1
:1039500010BD0000F8B50446002680300660FDF773
:1039600027FE054620680068124F000709D501218F
:103970002B46002249052046009700F001FA002856
:103980000DD12068006840070BD501212B4600228D
:1039900089052046009700F0F3F9002801D00320A4
:1039A000F8BD2020A067E0672666603426750020F9
:1039B000F8BD0000FFFFFF0110B5406A002201467C
:1039C00040314A834A82FEF728FD10BD70B5446A33
:1039D000A06FE56F2168896800260906002906DACC
:1039E000212804D152200653204600F0C6F8206852
:1039F0008068400606D5222D04D15A200653204661
:103A000000F08CF8204680300168102211430160DC
:103A10002046FEF702FD70BD10B501468969406A77
:103A2000202938D000225A210A52EFF310810122B6
:103A300082F3108802681368FF240134A3431360E3
:103A400081F31088EFF31081012282F3108802685D
:103A500093685B085B00936081F31088EFF310813B
:103A6000012282F31088026893684024A343936084
:103A700081F310882021C167016E01290BD1EFF37A
:103A80001081012282F31088026813681024A34376
:103A9000136081F31088016E012902D0FEF71EFF2A
:103AA00010BD5821095AFEF76AFC10BD10B5406AD6
:103AB000016E012902D0FEF712FF10BD5821095AEC
:103AC0004908FEF75CFC10BD10B501468969406AE3
:103AD00020291BD0002252210A52EFF3108101222B
:103AE00082F31088026893688024A343936081F373
:103AF0001088EFF31081012282F3108800680268B9
:103B000040231A43026081F3108810BDFEF748FF7E
:103B100010BD10B5406AFEF744FF10BD10B5EFF3BD
:103B20001081012282F3108802681368FF24213477
:103B3000A343136081F31088EFF31081012282F315
:103B40001088026893685B085B00936081F31088BB
:103B5000016E01290BD1EFF31081012282F310884D
:103B6000026813681024A343136081F31088202196
:103B7000C16700210166416610BD10B5EFF31081E9
:103B8000012282F3108802681368C024A3431360E3
:103B900081F310882021816710BD000070B50446B4
:103BA00080682169E2690843616900251143226840
:103BB00008431168404B194001431160216848686F
:103BC000032212039043E26810434860A169206A0F
:103BD000084321688A680B231B029A4302438A60C8
:103BE00036492068884210D13548006B8007800F25
:103BF0000ED0012805D0022805D003280AD10221C1
:103C000009E0042107E0082105E02E49884201D19E
:103C1000002100E010210120E369C0032A4A2B4E55
:103C2000834223D1002906D0022907D0042907D0D6
:103C3000082937D108E0FDF79FFE03E0104603E0B6
:103C4000FDF7AAFE002831D0616840004A088018BC
:103C5000FCF792FA80B201461039B14222D81B49D2
:103C6000491C01400007400F08431DE0002906D011
:103C7000022907D0042907D0082913D108E0FDF74D
:103C80007BFE03E0104603E0FDF786FE00280DD022
:103C900061684A081018FCF76FFA80B201461039C3
:103CA000B14201D9012501E02168C86000206066A9
:103CB000A066284670BD0000F369FFFF0038014090
:103CC000001002400044004000127A00EFFF0000A4
:103CD000F8B5044641654030002627460283803708
:103CE0003E602220E0672546206F603500281BD00B
:103CF00020498162216F2048C862216F1F480863F4
:103D0000206F13464663606D216884466246243105
:103D1000206FFDF70BFB002806D0102038602E75B1
:103D20002020E0670120F8BD2E75EFF310800121FF
:103D300081F3108821680A68FF2301331A430A605F
:103D400080F31088EFF31080012181F3108822683E
:103D500093680B43936080F31088EFF3108081F336
:103D6000108821688A6840231A438A6080F310888B
:103D70000020F8BD193A0008AD3A0008CD39000816
:103D8000FFB581B005461746044660350A9E55E0EA
:103D9000701C53D0FDF70CFC0499401AB04230D887
:103DA000002E2ED020680168490747D5C069C0435E
:103DB000000543D401202168C0020862EFF310809F
:103DC000012181F3108821680B68FF22A1329343FF
:103DD0000B6080F31088EFF31080012181F31088CD
:103DE00021688A68520852008A6080F31088202077
:103DF000A067E0678034206000202875032005B0AC
:103E0000F0BDEFF31080012181F3108821680B6869
:103E1000FF22A13293430B6080F31088EFF31080F0
:103E2000012181F3108821688A68520852008A6053
:103E300080F310882020A067E067DDE72068C16973
:103E40000298884304D00020B842A1D00020D6E7D1
:103E50000120F9E710B505480068002802D0826803
:103E6000034990470348FEF7D9FA10BD040000202B
:103E7000E8050020E004002010B50548006800288F
:103E800002D0C26B034990470348FEF7C7FA10BD42
:103E900008000020700600206405002010B50C46C4
:103EA0000A460146044B0548FDF77AFF002800D07A
:103EB0000024204610BD0000FFFF0000B8020020D3
:103EC00010B50C460A460146044B0548FDF7BAFFFB
:103ED000002800D00024204610BD0000FFFF000095
:103EE000B8020020FFB581B00D460527FDF760FB45
:103EF0002C460646203411E0FDF75AFBB04207D2AB
:103F0000FDF756FB801B0499401E884206D909E044
:103F1000FDF74EFB811B0498814203D8607900288D
:103F2000EAD002E06079002819D06279296A00207D
:103F30008854286A0399FCF7BCF9002801D00627A9
:103F400008E00CA12046FCF7B4F9002801D00427B2
:103F500000E0052708A12A6A019801F033FF002D2F
:103F600005D06179286AFCF78DF900206071384628
:103F700005B0F0BD455252003E5B4D43553C2D4CC3
:103F80003130315D3A25730D0A0000007CB51546CD
:103F9000024600201C4600290BD0491E00920191C8
:103FA000044B6A462146284600F02EF9009A00216B
:103FB00011707CBD414900082021020C01D0102164
:103FC0001046020A01D010460839020901D01046F5
:103FD000091F820801D01046891E420801D0881EA0
:103FE0007047081A7047F8B5040C8BB2264682B2A7
:103FF0005E430D0C1046370C5843360480190021DF
:10400000794116466E43370C3604801979412646AD
:104010006E438919F8BD30B47446641E2578641C5B
:10402000AB4200D21D46635D5B00E31830BC18470D
:104030008307FF22DB0E9A408907090E994000286A
:1040400008DB830809489B001B1818689043084345
:10405000186070470007000F0838830804489B0069
:104060001B18D86990430843D861704700E400E00A
:1040700000ED00E002E008C8121F08C1002AFAD1D2
:1040800070477047002001E001C1121F002AFBD1D8
:1040900070470000F0B51FB486B00998089A030D68
:1040A0000021024314D05148514A181850430514B6
:1040B0001198012810981AD0281A401C00264D4F3C
:1040C0004D49009601910490002812DA444211E013
:1040D0001198012449A3012801D11098C1430698E1
:1040E000119A84600360C26041600BB0F0BD404231
:1040F000E4E70446210500203F4A001C514103919A
:10410000029012E0E00707D032463B460199009842
:10411000FCF7ACFA0191009032463B461046194636
:10412000FCF7A4FA06460F466410002CEAD1049866
:10413000039B0028029A0999089806DAFCF796FA78
:10414000019B009AFCF792FA05E0FCF7F7FA019B55
:10415000009AFCF7F3FA04460E460022284BFCF7BF
:1041600085FB03D80020C043014607E00022254B11
:1041700020463146FCF7C8F9FCF758FB102409E04B
:10418000002C0ADB0A220023FCF720F8079B3032C0
:104190001A55641E02460A43F2D11122641C079B81
:1041A000121B1C19119B012B03D0012308430ED1B4
:1041B0000AE0084304D0112010900020119077E706
:1041C0001098151A6D1E0BE01098824202DD002334
:1041D0006D1C03E0824201DA00236D1E002BEED03D
:1041E000069811998260C16030C07EE701FCFFFF34
:1041F000104D0000000014400000F03F30000000AF
:104200000000F0430000E03FFFB597B006460025F0
:1042100018E2252877D100242746FD49049400E0C0
:104220000443761C32780120203A90400842F7D1AE
:1042300030782A280ED002223078014630390929F8
:1042400016D804990A235943303940181443761C70
:104250000490F1E7189802C804911890002904DA34
:104260000120400304434842049002200443761C8A
:1042700030782E2814D1042004437078761C2A2824
:1042800009D11898761C80C8189009E00A214F437C
:10429000303FC719761C3078014630390929F5D9E5
:1042A00030786C2810D006DC4C281AD068280ED044
:1042B0006A2817D104E0742813D07A2812D110E0AC
:1042C0000120400504430CE00121090501E0032120
:1042D00009050C437178814203D10120000524189F
:1042E000761C761C3078119066280BD013DC582889
:1042F0007DD009DC00287BD04528F6D04628F4D0B4
:1043000047281AD1A5E118E0632835D0642870D079
:10431000652812D19DE170286CD008DC6728F1D0A7
:1043200069287BD06E280DD06F2806D1BAE073289B
:104330002ED0752871D0782859D01A9A199990479B
:104340006D1C7EE16002400F022809D003280DD0C9
:104350000428189801680DD00D60001D189070E1B8
:104360001898EA1701680D604A60F6E71898016826
:104370000D80F2E70D70F0E718986A460178117227
:10438000001D18900020507202A80090012005E046
:10439000189802C8189000200091C04361070DD5FD
:1043A000002101E00199491C0191B94212DA8142D0
:1043B000F8DB009A515C0029F4D10BE0002101E008
:1043C0000199491C01918142FADB019A0099895CAB
:1043D0000029F5D1019904981A9B471A21463846BD
:1043E000199A00F097FA0199401945180BE04FE02F
:1043F0002CE113E04EE0009800990078491C0091F0
:104400001A9A199990470198401E0190401CF2D1C8
:10441000214638461A9B199A10E137E00A200021FC
:10442000009001916002410F022907D0189A01CA39
:104430001892C2179446032908D00AE01898C01DA4
:10444000C108C90005C91891944607E000B2C21717
:104450009446042902D140B2C1178C46002261461D
:10446000944506DA0A460021404291418C462D21AE
:1044700002E0210504D52B216A461173012103E0D6
:10448000E10701D02021F7E7029155E00A200AE078
:10449000102008E010200090002104200443019126
:1044A000082703E008200021019100906002410FDD
:1044B000022907D0189A01CA1892002294460329AB
:1044C00008D008E01898C01DC108C90005C9189196
:1044D000944603E080B2042900D1C0B200210291C9
:1044E000210729D51199702906D0009A1021019B26
:1044F0004A401A4305D00EE040216A46117301215B
:1045000008E06146014306D030216A4611731199D3
:10451000517302210291009A0821019B4A401A43DB
:104520000AD16146014301D1610705D530216A46B0
:10453000117301217F1E02911199582904D035A1D0
:104540000E910DA90D910DE037A1F9E76146019B90
:10455000009AFBF73BFE0E9B8C469B5C0D9A521E0D
:104560000D92137061460143F0D10D9805A9081A08
:1045700020300190600703D501200004844300E04F
:1045800001270198874201DD381A00E000200199D7
:1045900000904118029809180498401A0490E0030A
:1045A00006D421461A9B199A049800F0B3F94519CC
:1045B000002706E003A81A9AC05D199990476D1C60
:1045C0007F1C02988742F5DBE0030CD521461A9B3D
:1045D000199A049800F09EF9451904E01A9A3020BF
:1045E000199990476D1C0099481E00900029F5DC30
:1045F00008E00D980D990078491C0D911A9A1999A7
:1046000090476D1C0199481E01900029F1DC63E17F
:104610000928010030313233343536373839616298
:10462000636465660000000030313233343536375C
:1046300038394142434445460000000000F05AF931
:104640004519761C3078002800D0E2E528461BB0DA
:10465000F0BD600700D406271898C01DC108C90026
:1046600048680A680831C30FDB071891190001D0A8
:104670009CA108E0210501D59BA104E0E10701D040
:104680009AA100E09AA1430011985B081091652857
:104690000CD006DC452809D046281DD0472841D13A
:1046A00041E0662818D067283CD13CE00021112F5A
:1046B00001DB112000E0781C0191009008A911A8ED
:1046C000FFF7E8FC139905910021119A15927F1CC0
:1046D00012980197009150E00120C007039001203B
:1046E000019008A9009711A8FFF7D4FC139A149918
:1046F00005920022119B009212981593059A01923F
:10470000002901D0104602E0791C40180190381AA7
:1047100001D5019804E04042401E0090781C0190B1
:10472000C01B029043E0012F00DA01270021112F66
:1047300001DD112000E038460191009008A911A880
:10474000FFF7A8FC13990591119A00211298159270
:104750000091019721070CD40599B94201DB019919
:1047600000E00191012904DD159A491E515C3029B0
:1047700006D0B84201DA011D05DA0121029115E0E7
:104780000199491EEDE7002805DC009941180091C8
:104790000199091A03E0019A411C914200DD01913F
:1047A0000099401A401C02900120C0070390200786
:1047B00006D402990198814202DB0020C043029096
:1047C00000206946C87707AF012103980337C9075E
:1047D000884224D0022011902B20129003980028A8
:1047E0000CDA404203902D20129007E00A21039832
:1047F000FBF7C2FC30317F1E039039701199481EBF
:1048000011900029F2DC03980028EFD1791E12984C
:1048100008703078202108404530BF1E387006A847
:10482000C01BC01D039010980078002800D0012004
:10483000019941180298C01709180398091804989B
:10484000401A401E0490E00306D421461A9B199A90
:10485000049800F05FF8451910980078002803D0FC
:104860001A9A199990476D1CE00324D521461A9B8A
:10487000199A049800F04EF845191CE00098002899
:1048800007DB00990598884203DD1598405C19996B
:1048900001E0199930201A9A904700986D1C401C2D
:1048A00000900298401E0290002804D11A9A2E20EF
:1048B000199990476D1C0199481E01900029DDDC73
:1048C00005E038781A9A7F1C199990476D1C039956
:1048D000481E03900029F4DC21461A9B199A04987B
:1048E000ACE600002D0000002B00000020000000BE
:1048F00000000000F8B5044600251E46174688044F
:1049000004D405E039462020B0476D1C641EF9D55B
:104910002846F8BDFFB50446002581B01E46C803F1
:1049200001D5302700E02027880404D505E038466B
:104930000399B0476D1C641EF9D5284605B0F0BD3B
:104940004A68002A06D00A68531C0B601070486839
:10495000401E486070470000F3B585B001680391C0
:104960004168029181680191C16800911030F0C8DE
:1049700018A11E4801F026FA1DA11C48039A01F057
:1049800021FA1EA11948029A01F01CFA1EA117482B
:10499000019A01F017FA1FA11448009A01F012FAC7
:1049A00022461FA1114801F00DFA2A461FA10F4807
:1049B00001F008FA324622A10C4801F003FA3A4607
:1049C00024A10A4801F0FEF927A10848069A01F03F
:1049D000F9F9FEE75B48617264206661756C7420CA
:1049E00068616E646C65725D0A000000000800205A
:1049F0005230203D2025780A000000005231203D31
:104A00002025780A000000005232203D2025780A37
:104A1000000000005233203D2025780A00000000ED
:104A2000523132203D2025780A0000005374616322
:104A30006B6564204C52203D2025780A0000000060
:104A4000537461636B6564205043203D2025780AD0
:104A500000000000537461636B6564205053522062
:104A60003D2025780A00000043757272656E74203F
:104A70004C52203D2025780A00000000EFF305800D
:104A8000002800D001207047FCF7DEFDFEF764FE31
:104A9000FEF77CFAFEF7E0F9FEF708FCFEF7D2FB22
:104AA000FEF7B6FBFEF708FBFEF7E4FBFEF794FB10
:104AB000FEF7EEF900F00FF8FEE70146002084292A
:104AC00000D0C81C704710B5002800D1012001F0AB
:104AD000F7FD002010BD10B501F062FE002010BDF2
:104AE00010B54168002903D0012001F00EFF10BD70
:104AF000012001F0FFFE10BD81207047812070472A
:104B000038B54368002B09D0012909D103200022C0
:104B100000901146012001F023FF38BD012901D08A
:104B2000002038BD03220021012001F0FBFE04001B
:104B300004D000231A46194601F068FF204638BD0C
:104B400038B5002405460094FFF798FF00280FD0E1
:104B50006946284601F0E6FF012801D0FF2038BD54
:104B6000009800280DD0012007490007486008E0A0
:104B700000231A461946284601F048FF012800D0B4
:104B8000FF24204638BD000000ED00E038B50546A2
:104B900000200090002D11D00024481C10D00029C6
:104BA00000D00C46FFF76AFF002814D06A460021A7
:104BB000284601F0F1FF012813D104E0802038BD20
:104BC0000024E443EEE7009800280CD001200749B8
:104BD0000007486007E02146284602F019F801283E
:104BE00001D0FF2038BD002038BD000000ED00E0FE
:104BF0007FB50D46044641690820205E002911D08A
:104C0000A16900290ED0FFF758FF6B46A2696169C0
:104C100007C32B4622692168606802F0F0F8039010
:104C200004B070BDFFF749FF03A901910090208AED
:104C30002B4682B22168606802F0B8F8012801D0E2
:104C40000020EDE70398EBE7F8B5134C0F466669D3
:104C500005462068001D01F041FC681C07D1002FAB
:104C600005D021680D48091D01F0D6FCF8BD20686B
:104C7000751945602168B54204D2A068091D01F08C
:104C8000B3FCF8BD6068091D01F0AEFC206B8542E5
:104C9000F7D22563F8BD000028010020700900202C
:104CA000F8B5054601F0C4FC294C2069401C206180
:104CB0002068284F002803D0E069002827D02CE086
:104CC00025602069012828D1002614207043C019CE
:104CD00001F07CFC761C072EF7D31E488C3001F0C7
:104CE00075FC1C48A03001F071FC1A48B43001F08A
:104CF0006DFC1848C83001F069FC1648DC3001F042
:104D000065FC14488C3060601430A06005E02068B9
:104D1000E96AC06A884200D82560E06A401CE06207
:104D2000E86AA169884200D9A06114214843C019EA
:104D3000291D01F071FC01F087FCE069002806D014
:104D40002068E96AC06A884201D201F0ADFCF8BD72
:104D5000280100209408002010B5026C0C46002A9F
:104D60000CD0C1688B18C36041688B4201D21946D0
:104D700001E00168C1602046FBF769FA10BDF8B593
:104D8000856B174604460026026C002A11D0002FBE
:104D900019D0E068FBF75BFAE168206C091AE16062
:104DA0002268914202D26168081AE060022F17D08F
:104DB00019E02068002816D1606802F0B1F80646B4
:104DC000002060600FE0A068FBF741FA216CA0684A
:104DD0004018A0606168884205D32068A06002E0A6
:104DE000002D00D06D1E6D1CA5633046F8BD10B5BA
:104DF00004464030007C002805D0012806D0022857
:104E000007D072B6FEE7206B01F02CFC204601F0C3
:104E100029FC10BD0F480E49420705D0C01DC0082F
:104E20000C4AC000821A891A0B4A0023411809C291
:104E30000839C908C900183A11604B600B600B1A99
:104E40000AC093600120C0075360D0607047000023
:104E50005014000084090020740100200F4E104CF3
:104E60003746C83F11E001F0E3FBF068C568281D34
:104E700001F034FB2069401E2061E068401EE060C4
:104E800001F0E2FB2846FFF7B2FFE0680028EAD114
:104E900038680128F9D901F007FCF6E75C09002021
:104EA0002801002010B5002807D0002141600160D2
:104EB0000B460A46C16001F0A9FD10BD10B50346BE
:104EC0000298002906D00260C3630164012101F049
:104ED00067FD10BD0060F7E7FFB581B003980C9C3B
:104EE00087000E460A9DA5223946206BFBF7C3F9C1
:104EF000206B3F1FC019C708FF00780701D072B6AA
:104F0000FEE70398606400202218315C203211759E
:104F1000315C002902D0401C1028F5D30020432129
:104F20000855072D00D30625E562A564E064201D21
:104F300001F057FB2046183001F053FB2461072095
:104F4000401B6462A0613846049A019900F0FAF8A7
:104F500020600B98002800D0046005B0F0BD000070
:104F600030B5114900E011460A688242FBD34B6814
:104F70005C18844203D140681818486008464368AA
:104F80001C18944209D1084C103C2468A24209D054
:104F900052689A1842600A6812680260814200D022
:104FA000086030BD0460F9E77401002010B50446C4
:104FB00001F03EFBA06B002804D0002401F044FB6C
:104FC000204610BD0124F9E7064841680968002918
:104FD00005D04168C968C968496801637047002104
:104FE000C943FAE72801002003480068401C72B654
:104FF00000D0FEE7FEE700007C010020F8B5044683
:1050000001F016FB254640350526AE5727462437C6
:105010000BE0606A00280AD0384601F0F1FF002852
:1050200001D001F06DFB761E76B2002EF1DC002778
:10503000FF436F7101F008FB01F0FAFA0426AE5746
:105040002046103000900BE0206900280AD000981C
:1050500001F0D6FF002801D001F052FB761E76B297
:10506000002EF1DC2F7101F0EFFAF8BDF8B505461E
:10507000002701F0C1FB2C4E3068002801D1FFF75A
:10508000C9FEF068054212D1002D10D0083568071E
:1050900008D06807400F0821081A4519680701D091
:1050A00072B6FEE7002D02D07068854202D901F089
:1050B000D9FF30E01C48103001460C6801E0204662
:1050C0000C466168A94202D221680029F7D13168F3
:1050D0008C42ECD007682168016060680837411B8A
:1050E000102908D96019420701D072B6FEE7416065
:1050F0006560FFF735FF61687068401A7060B268DC
:10510000904200D2B060F0680143002003C401F077
:10511000A9FF002F01D101F0FFF9780701D072B685
:10512000FEE73846F8BD0000640100200449086825
:10513000002803D00868C26C521CC264086870471B
:105140002801002010B50124031F24061C601B1F2A
:105150001960191F024B0B60143940380A6010BDEA
:10516000E94F000810B5012100F04AF810BD0A7897
:10517000002A08D04B781B071B0F082B03D00368AD
:105180001B781A4208D060300078C00702D14878F6
:10519000C00601D5002070470020C04370470000C2
:1051A00010B500F087FA002803D00249896B01F09E
:1051B0006BF910BDC0000020F8B505468089E9896B
:1051C000401A04B2202606E068460670AA6E012145
:1051D0009047641E24B2002CF6DC297B284600F0A0
:1051E00079F8F8BD10B500F065FA002801D000F09C
:1051F00087FC10BD10B50021C94300F001F810BDB7
:10520000F8B50446481C04D00022E389002B02D0E4
:1052100003E00122F9E7012916D0A089834201D1D8
:105220004D1C11D00025834201D1012901D0104627
:1052300012E05B1E401EE38180B2A08121690D5403
:105240000121204600F046F8F8BD2369461E591892
:10525000435C401C8B5500B2A389E1895B1A8342F1
:10526000F3DCA0890826401EA081002A07D1E0892E
:10527000401EE08168460670A26E01219047A18918
:10528000206945540E25655F09E020696946405D47
:105290000870A26E0121684690476D1C2DB2A0894E
:1052A000A842F2DC202069460870A26E01216846FF
:1052B0009047A089E189401A401C05B206E0684683
:1052C0000670A26E012190476D1E2DB2002DF6DCF6
:1052D000F8BD000070B50C46054603E004A1284661
:1052E00001F0D2F82146641EE4B20029F6D170BD67
:1052F0000820080010B50021C94300F0BAFA10BD1B
:1053000010B5044600F006F80121204601F04EF8E1
:1053100010BD0000F8B504468089002822D021691C
:10532000002625460E54603528781B4FC0071FD035
:10533000204600F0E2FA204600F004FDE681A68156
:10534000E08E00280ED015A1204601F09DF8002324
:105350002046A26D616900F0BBFD010003D020462C
:1053600000F076FDF8BD2046B96901F08DF8F8BD72
:10537000206881682069FAF7B7FF002806D0796BAA
:10538000204601F081F8A681E681F8BD2878012148
:10539000084328703968F3E7C00000200D0A0000B8
:1053A0007FB50C46054600F085F9060013D0022DA6
:1053B00011DB616800F0B9F80B4B06CB5B68039317
:1053C000019200910290231D6A1E6946304600F04A
:1053D000F7F804B070BD0548416D304601F054F84F
:1053E0000020C043F5E7000074740008C0000020EE
:1053F000411C0A7800205C2A01D010467047497889
:105400006E290FD004DC3029F8D0622904D105E0E0
:10541000722905D0742907D00846704708207047C4
:105420000D2070470A20704709207047F8B5844660
:10543000002300780A2601221C461D462D2807D08D
:1054400000216046081807780021302F04D01AE0A8
:105450000022D2430121F4E74178782907D0582966
:1054600005D0622905D0422903D002210BE0032197
:1054700009E0012107E007782E2F04D14778002F9B
:1054800001D0042110E00778401C002FF3D101293E
:1054900008D0022903D0032906D1102603E00826EC
:1054A000012301E0022602236344501C02D00020A5
:1054B0001B181EE00120FBE72E2805D00746303FD1
:1054C000092F03D8F8B20FE0012511E00746613F2C
:1054D000052F01D8573804E00746413F052F02D871
:1054E0003738C0B200E00020744304190A20454355
:1054F0005B1C18780028DFD1042913D1002D11D0AE
:105500001046FAF789FF06462846FAF790FF054647
:105510002046FAF78CFF2946FAF740FF3146FAF7A2
:1055200000FFF8BD20465043F8BDF8B504460878A2
:10553000272809D02D2803D00246303A092A0AD854
:105540000846FFF773FFF8BD4A78002AF4D00846F2
:10555000FFF74EFFF8BD0026242807D00028F9D019
:1055600000270D460C46222811D01BE04A78002A5D
:10557000F6D000232046491CA26D00F0A9FC0100D2
:1055800003D0204600F0ACF8F8BD3046F8BD6C1CE6
:10559000254607E05C280BD022280FD0E8557F1C59
:1055A000BFB2641C20780028F4D1EE552846F8BD1F
:1055B000601EFFF71DFFE855641CF0E7EE55EEE7AF
:1055C000FFB58BB00C461546202103A8FAF75AFE0A
:1055D000A0786E1E0007000FB04201DD054600E016
:1055E0006D1E00270BE0B9000E9800910818416865
:1055F0000B98FFF79AFF009903AA50507F1CB742FF
:10560000F1DB2B00FEF707FD0805090D12171C231F
:105610002C35A06880470FB0F0BDA168039888477B
:10562000F9E7A268049903989047F4E703AB07CB26
:10563000A3689847EFE703AD0FCDA468A047EAE75A
:105640000798009003AD0FCDA468A047E3E7089941
:1056500007980191009003AD0FCDA468A047DAE749
:1056600007AB07CB6B4607C303AD0FCDA468A047BC
:10567000D1E70020C043CEE7C068704700B50021E5
:105680000B4B30225A54491CC9B20929FAD341782C
:105690000907090F012903D9072901D9082901D8C8
:1056A000406800BD4068024900F02CFE004800BD83
:1056B000540700200949002082008A58002A06D099
:1056C00060321278920702D5800008587047401C5B
:1056D00000B20528F0DB00207047000040070020E2
:1056E00010B54A7800201207120F921E1300FEF721
:1056F00092FC0604070B0E0E10068868006810BDA9
:1057000089680020085E10BD8868007810BD886830
:1057100010BD88684168002902D00068884710BD24
:10572000002010BDF3B583B00446049800287DD056
:10573000E16E2046884720688068002814D0FAF778
:10574000CCFD002810D0FBF733FF00280CD0FBF76E
:105750002FFF6168401A3C49884205D920466030D5
:105760000178490849000170A06B18250027010441
:10577000090E03D00025FF27FF430AE00102090EAE
:1057800002D00825314F04E0000E02D01025FF277B
:105790003F06A06D0190002620464030029038E080
:1057A000019831010818009040780007000F09287F
:1057B0002CD120460099FFF7DAFC002826D100986A
:1057C000A16B406802463A408A421FD1FF231A4625
:1057D000AA401040049AAA40904217D111430020D9
:1057E000A1630490002D06D000982946406808392E
:1057F0008B4018420AD101983101081881680029AC
:1058000001D0204688470020A0630EE0761C029855
:1058100036B2808BB042C3DC0498002805D000204B
:10582000A0632046049900F083FA00E009E0FBF74A
:10583000BFFE002802D0FBF7BBFE6060216F204650
:10584000884705B0F0BD0000E09304000000FFFFB2
:1058500010B50C460346FFF72DFF002805D0012B9D
:1058600004D002DD616800F077FD10BD00F040F962
:1058700010BD70B50446002640340546002913DDEE
:105880001423E35E581EA082218A608A814201D9D6
:105890000A4600E00246524293420FDC814200D9A0
:1058A00008464042A08209E0002906DAA08A401C8E
:1058B00000B2A082002801DDA68270BD2846FFF755
:1058C0007BFC1420205E002814D0618A0818052172
:1058D000401DFAF767FC88004019C16B286900F089
:1058E00027FCA8810028E8D0E8812846296900F033
:1058F000CBFD70BDAE81EE8170BD70B50446002653
:1059000040340546A682208A00280BD0608A296987
:10591000002800D1052080004019806BFAF7E4FCD4
:10592000002817D0608A296980004019C06B00F0F8
:10593000FFFB002802D0608A401C6082208A401C45
:1059400080B22082052801D905202082608A05289E
:1059500000D3668270BD000070B500258581C581C9
:10596000044605600E46603001780123194301703A
:10597000062110462661FAF7FFFB2146A08640313A
:105980008D820D824D820020421CA38E80005343E5
:105990009B190019C36310B20528F5DB1148124AA0
:1059A000A065101A0003000C8883104900208200B3
:1059B0008A58002A12D0401C00B20528F7DB0023C9
:1059C0000BA12046A26D00F083FA0146204600F0AC
:1059D000B5FA0121204600F0E9FC70BD80000C50B2
:1059E000EDE70000D07E000820800008400700207E
:1059F0004C484300F8B50446A28E8089521E90425E
:105A00000DDB2E484168204600F03EFD0121204676
:105A100000F0CCFC2046216900F036FDF8BDE2899B
:105A2000002382420FD1421C2569A2812954A289F8
:105A300020698354E089401CE08168460170A26EB1
:105A400001219047F8BD8242FCD2801A00B206E0E4
:105A5000E58922695519421EAE5C465510B20028F0
:105A6000F6DCE0892569421CE2812954A08921697C
:105A7000401C80B2A0810B54E089401E05B209E0B1
:105A800020696946405D0870A26E01216846904712
:105A90006D1C2DB2A089A842F2DCE18980B2401AC7
:105AA00005B2082606E068460670A26E01219047FE
:105AB0006D1E2DB2002DF6DCF8BD0000C0000020E8
:105AC00010B5FFF7F7FD002801D000F0B9F810BDC0
:105AD00038B50446C089002809D0082069460870F6
