:020000040800F2
:10000000F01F0020E9020008C54C00081940000854
:1000100000000000000000000000000000000000E0
:10002000000000000000000000000000ED4C00088F
:1000300000000000000000006F020008254D0008CD
:10004000FB02000800000000FB020008FB020008A1
:10005000FB020008FB020008FB020008DD24000888
:1000600000000000FB020008612400087924000859
:10007000FB020008D14D0008FB0200080000000050
:10008000FB020008E14D000800000000C14D00081F
:10009000FB020008FB020008FB020008FB0200084C
:1000A000FB020008FB020008FB02000845540008A0
:1000B0006954000800F002F800F0AFF80CA030C856
:1000C000083824182D18A246671EAB4654465D46D4
:1000D000AC4201D100F0A1F87E460F3E0FCCB646EF
:1000E0000126334200D0FB1AA246AB4633431847E1
:1000F000008C0000208C0000002300240025002636
:10010000103A01D378C1FBD8520700D330C100D5D3
:100110000B60704710B56E2902D100F023FD10BDB1
:10012000702902D100F065FE10BD662902D107F0EA
:1001300057FE10BD652902D107F052FE10BD672998
:1001400002D107F04DFE10BD612902D107F050FE2B
:1001500010BD03681B0A01D380231943692902D10A
:1001600000F0CAFC10BD642902D100F0C5FC10BD2E
:10017000752902D100F0C0FC10BD6F2902D100F03A
:10018000E3FD10BD782902D100F020FE10BDE92961
:1001900002D100F07FFD10BDE42902D100F07AFD0C
:1001A00010BDF52902D100F075FD10BDEF2902D177
:1001B00000F0D6FD10BDF82902D100F015FE10BDEB
:1001C0000368DB0901D380231943632902D101F0BD
:1001D000FAFA10BD732902D101F0FDFA10BDE3292E
:1001E00002D101F007FB10BDF32902D101F00AFB97
:1001F00010BD002010BD1FB501F064FB04000020FD
:10020000002107F07FFD401C60600020002107F006
:1002100063FDE0601FBD10B510BD01F02BFB114662
:10022000FFF7E9FF05F017FA01F0C0FE03B4FFF78E
:10023000F2FF03BC01F0C6FE084B196808682030C5
:1002400080F30988022080F31488BFF36F8F3FBCCE
:10025000AE4608BC04BC62B6184700002801002066
:10026000EFF3108072B6704780F310887047EFF399
:1002700009800E4B1A6820381060F0C044464D4685
:1002800056465F46F0C008B572B607F0A1F862B6F0
:100290000CBC116808681030F0C8A046A946B246E8
:1002A000BB4680F309882038F0C818472801002091
:1002B00070B505460C46164602E00FCC0FC5103E41
:1002C000102EFAD2082E02D303CC03C5083E042E0A
:1002D00007D301CC01C5361F03E021782970641CC7
:1002E0006D1C761EF9D270BD07488047074800474D
:1002F000FEE7FEE7FEE7FEE7FEE7FEE70448054906
:10030000034A054B70470000BD4D0008B5000008CA
:10031000F01D0020F01F0020F01D0020FEB5054656
:1003200010460C46184373D0AE468C460020AD1ADA
:1003300001469C4167D36646002701243D46B61A14
:100340009D4102D313463A462124654676462F0442
:10035000360C3E432D0CB61A9D4104D3150C1B04DC
:100360002B4312041034654676462F06360A3E4368
:100370002D0AB61A9D4104D3150E1B022B431202FF
:100380000834654676462F0736093E432D09B61ACE
:100390009D4104D3150F1B012B431201241D6546FB
:1003A0007646AF07B6083E43AD08B61A9D4104D362
:1003B000950F9B002B439200A41C65467646EF07E1
:1003C00076083E436D08B61A9D411AD392185B41D8
:1003D000641C16E00018764665464941B71A9D41EF
:1003E0000191009009D36046B11A98418E46844627
:1003F000009801990025401C6941DD0752082A43F5
:100400005B08641EE6D57246634603B0F0BDFFE7A5
:1004100000200146C046C0462A462346F5E70000B4
:100420007CB51D4616460C00009001D00019401EF8
:10043000084B7B442A4669460190304600F0ABFBEE
:10044000002C054603D06946002000F0B7FB284683
:100450007CBD00009107000030B505460B462A46DA
:100460001C781078521C5B1C002801D0A042F7D0E9
:10047000002C03D0002802D06D1CEFE7284630BDC9
:1004800030B5441C03E00178401C00290DD08107E1
:10049000F9D10B4BDD0104C8D11A91432940FAD0A0
:1004A000001B0A0603D0C01E30BD001B30BD0A046D
:1004B00001D0801E30BD0902FCD0401E30BD0000BE
:1004C000010101010346F0B50B439B072DD1244DDB
:1004D000EF01042A29D308C810C95E1B9E43121FCE
:1004E0003E4017D0D8B2E1B2401A3106014310D1D4
:1004F00098B2A1B2401A310401430AD11802210274
:10050000000A090A401A3102014302D1180E210ED5
:10051000401AF0BDA342DCD018BA21BA884201D9F2
:100520000120F0BD0020C043F0BD002A01D1002011
:10053000F0BD03780C78401C491C002B0DD0A34261
:100540000BD1521E09D003780C78401C491C002B9B
:1005500003D0A34201D1521EEBD1181BF0BD000005
:1005600001010101421E5378521C002BFBD10B7874
:10057000491C1370521C002BF9D1704710B504466A
:1005800000F002F8204610BDF8B5042A2CD38307EA
:1005900012D00B78491C0370401C521E83070BD0ED
:1005A0000B78491C0370401C521E830704D00B7843
:1005B000491C0370401C521E8B079B0F05D0C91AA3
:1005C000DF002023DE1B08C90AE0FFF771FEF8BD3B
:1005D0001D4608C9FD401C46B4402C4310C0121FE4
:1005E000042AF5D2F308C91A521EF0D40B78491C1C
:1005F0000370401C521EEAD40B78491C0370401C47
:10060000012AE4D409780170F8BDD2B210B5130202
:100610009A1813049A1800F00EF810BD01E004C0F7
:10062000091F0429FBD28B0701D50280801CC90752
:1006300000D00270704700290BD0C30702D00270AF
:10064000401C491E022904D3830702D50280801C66
:10065000891EE3E70022EEE70022DFE7024670B5DD
:100660000A4392072AD11E4DEE0104C808C9541B43
:100670009443344017D0D0B2D9B2401A2106014376
:1006800010D190B299B2401A210401430AD110024C
:100690001902000A090A401A2102014302D1100E70
:1006A000190E401A70BD9A42DFD010BA19BA8842AA
:1006B00001D9012070BD0020C04370BD02780B78C5
:1006C000401C491C002A09D09A4207D102780B78B5
:1006D000401C491C002A01D09A42EFD0D01A70BDAC
:1006E00001010101002203098B422CD3030A8B4232
:1006F00011D300239C464EE003460B433CD400221A
:1007000043088B4231D303098B421CD3030A8B422B
:1007100001D394463FE0C3098B4201D3CB01C01AF9
:10072000524183098B4201D38B01C01A52414309C4
:100730008B4201D34B01C01A524103098B4201D3B2
:100740000B01C01A5241C3088B4201D3CB00C01A1F
:10075000524183088B4201D38B00C01A5241430897
:100760008B4201D34B00C01A5241411A00D20146BC
:100770005241104670475DE0CA0F00D04942031055
:1007800000D34042534000229C4603098B422DD3A4
:10079000030A8B4212D3FC22890112BA030A8B424C
:1007A0000CD3890192118B4208D3890192118B429B
:1007B00004D389013AD0921100E08909C3098B4220
:1007C00001D3CB01C01A524183098B4201D38B0163
:1007D000C01A524143098B4201D34B01C01A524106
:1007E00003098B4201D30B01C01A5241C3088B424B
:1007F00001D3CB00C01A524183088B4201D38B0036
:10080000C01A5241D9D243088B4201D34B00C01ABF
:100810005241411A00D20146634652415B101046D4
:1008200001D34042002B00D54942704763465B101C
:1008300000D3404201B50020C046C04602BD70470B
:1008400070477047F0B5FF252D04C609C209FF2780
:1008500004462E400137CB093E4348402A402B40F6
:100860000746002A6BD0002B69D0AA4267D0AB4262
:1008700065D0002800DA32460125ED0529432C43D6
:1008800009022002090AD21A4B0C7F24E31A434CB6
:10089000000A7C44E35C7D242404121914145B00D8
:1008A000A218884201D3521C00E0400049420C4685
:1008B0005C4324115C43DB016415E318040A5C43C8
:1008C000C502200D0C4644436419250A5D432303E9
:1008D000EC0C0D46654300030019EB184C42A34293
:1008E00001D35B18401CD4052018002B07D05B00F7
:1008F000C91804D3401C002901D1400840003F2101
:1009000089048A4209D3002A08DC1106090F04D0A1
:10091000032149074018C00FC007F0BD0122410064
:10092000120689187F2252069142F6D20521490704
:10093000C84201D59010F0BDFF20C005F0BD002FCA
:1009400000DA32461648AA4207D2AB4205D2190253
:10095000090E17D0F80FC007F0BDFF2563002D0664
:10096000AB42F9D84900A942F6D8AB4201D1A9421D
:10097000F2D0A94201D1002101E061004908D0056F
:100980000843F0BD1102090EFBD0FF200243D00541
:10099000F0BD0A460146104654E700000A790000FF
:1009A0000000C07F0102C21504D00123DB071943F8
:1009B000002A0ADB9E239A1A02D40846D0407047C8
:1009C000FF2241001206914201D900207047C01752
:1009D000C04370471F22030C02D10F2200041CD019
:1009E000030E01D10002083A030F01D10001121FCA
:1009F000830F01D18000921E002801DB4000521EAF
:100A0000D2055118021251181922904004D3491CE2
:100A1000002801D14908490008467047C10FC9079D
:100A200000D04042012292071143D3E701218907F8
:100A3000D0E770B5044685690068C10601D5302647
:100A400000E02026C00707D070BD62683046A1686C
:100A50009047206A401C20626D1EF6D570BD70B5AF
:100A6000044685690078C00707D170BD6268A16837
:100A700020209047206A401C20626D1EF6D570BD74
:100A800009684A0501D540B27047C905FCD500B2D6
:100A9000704709684A0501D5C0B27047C905FCD541
:100AA00080B2704770B50C460546012A05D02878FB
:100AB000800600D5EA69002302E0012305E05B1C03
:100AC000934202D2E05C0028F9D1A869E618C01A66
:100AD000A861286AC01828622846FFF7AAFF04E028
:100AE0006A682078A968641C9047B442F8D3284605
:100AF000FFF7B5FF70BD0000F7B500257529106838
:100B0000009914A611D0FFF7BBFF002802DA40427B
:100B100011A608E0009909688A0701D50FA602E02E
:100B2000490704D50EA6012501E0FFF7B2FF009F9B
:100B30000024243704E000F089FE30313955641C6C
:100B40000028F8D12B4632462146009800F05FFA83
:100B5000FEBD0000000000002D0000002B00000082
:100B60002000000011680268006A530501D5087072
:100B700009E0D30501D5088005E0130602D5C217A8
:100B800005C100E0086001207047000001694A1CAF
:100B900002610878704700B58FB00291002105917D
:100BA000054901937944039111460490684600F089
:100BB0002DF90FB000BD0000E5FFFFFF0A681070BF
:100BC000521C0A6070470CC908399A4202D2531C61
:100BD0000B60107070470000F7B50446154686B0EC
:100BE0002B487844002703C83E460090019111E04D
:100BF00007986A467100415A02A800F007FE411C9E
:100C000007D02178890603D5E269391891420ED8B8
:100C10003F18761C2078800602D5E069B84206DDD0
:100C2000AE42E5DB07987100405A0028E0D1A06988
:100C3000C01BA0612046FFF7FCFE154878445A38D7
:100C400003C800900020019116E041006A46079811
:100C5000415A02A800F0DAFD0590401C0AD0002598
:100C600005E0626802A8A168405D90476D1C059888
:100C70008542F6D30498401CB0420490E5DB206A1C
:100C8000C01920622046FFF7EAFE09B0F0BD00005F
:100C9000FA750000F7B5D21D0025D20815A6D200BE
:100CA000F52905CA11D0002A05DA002140429141F8
:100CB00011A60A4608E0009909688B0701D50FA61E
:100CC00002E0490701D50EA601251146009F002428
:100CD000243704E000F05EF930323A55641C0246D5
:100CE0000A43F7D12B4632462146009800F08FF98F
:100CF000FEBD0000000000002D0000002B000000E1
:100D00002000000070B504460021243408E0550797
:100D1000D2086D0F303565545D072A43DB08491C46
:100D200015461D43F3D10468002310A2250708D5FA
:100D3000A40601D4002904D0C46901230CA2641EB6
:100D4000C46100F064F970BD10B504462146106816
:100D5000FFF79FFE002302462046FFF7D3FF10BD9A
:100D6000D21DD108C9000CC9CCE70000000000006A
:100D700030000000F8B50F460188090502D5224C65
:100D80007C4402E0204C7C440E340546002124358E
:100D900008E016071209360FA65D6E541E0732438F
:100DA0001B09491C16461E43F3D122460478002332
:100DB000240705D5702F06D0002901D00223113257
:100DC00000F025F9F8BD01231032F9E770B50446AB
:100DD0000D4621461068FFF75CFE002302462946B7
:100DE0002046FFF7C7FF70BDD21DD308DB000CCB38
:100DF000C0E730B40368202412682343036008234B
:100E0000C36130BC0023B5E764740000F3B5044649
:100E1000002081B020622046E1688847002872D017
:100E2000252802D06268A168ABE0594F00267F44B4
:100E30002046E16888472028054608DB312D06D288
:100E4000781920380078002801D00643F0E7B00771
:100E500001D5042086430020E0610746A0612A2DC9
:100E60000AD0284604F0EAFB002827D0B800001971
:100E7000303D0090856119E00298BA00121902C84D
:100E8000916102902046E1688847012F054617D1FD
:100E9000E06900281FDA202086431CE000980A2120
:100EA0008069484300994019303888612046E168DC
:100EB0008847054604F0C2FB0028EFD1012F0AD075
:100EC0002E2D08D12046E16888470546202006439C
:100ED0007F1C022FC3DBA069002803DA4042A06117
:100EE00001200643F00701D0102086436C2D0BD063
:100EF000682D09D04C2D3CD06A2D38D0742D38D0B7
:100F00007A2D36D016E040E0E1682F46204688472B
:100F1000B842054609D16C2F29D001208002E16832
:100F2000064320468847054604E06C2F1DD0FF206D
:100F300001300643002D28D028464138192803D80F
:100F40000120C00206432035204626602946029A29
:100F50001646FFF7DFF8002810D001280BD0F61D49
:100F6000F008C0000830029055E74020E1E78020FB
:100F7000D5E70020D3E7361D02964CE76268284685
:100F8000A1689047206A401C44E7206AFEBD00002B
:100F9000DE7300000B4670B50246890780080843DF
:100FA00019469D08141AA94125090807054308098F
:100FB0002C194841250A01060D43010A2C1941410B
:100FC000200C0D0428430D0C00194D41002140193F
:100FD0004D41C00869070843E908840F8D00254387
:100FE000840024184D4124196D41121BAB4107E0C8
:100FF0000925ED432C11521963410024401C614125
:101000001C460A250026551BB441F1D270BDFFB520
:1010100004460D4681B0243000902168880604D52E
:101020001022E0699143216000E00120A84201DD27
:10103000471B00E000270498A1697A191018081AC4
:10104000A0612078C00602D42046FFF7F2FC0026FB
:1010500008E003986268A168805D9047206A401CA0
:10106000761C206204988642F3DB2078C0060AD5FD
:101070002046FFF7DEFC06E06268A168302090475A
:10108000206A401C206238467F1E0028F4DC07E0FE
:1010900000986268A168405D9047206A401C206209
:1010A00028466D1E0028F3DC2046FFF7D8FC207888
:1010B000000602D5022005B0F0BD0120FBE70000CC
:1010C0007047FFB50C461E468FB003CA08900991C1
:1010D0004F007D0D00D16D1E002108460020C04646
:1010E0000321099A89050840002A03DA8200801842
:1010F00040080840800D01280A9002DD0020C0430E
:101100000A90089807430DD0F048F1492818484341
:101110000714189800281DD07542291E1DDD0A9855
:1011200042421BE01898012802D00020302104E040
:101130000020F24305E02154401CB042FBDB304666
:101140000022189B002121540F998B600A6048608F
:1011500013B0F0BDBD1B6D1CDFE70A9A002900DA51
:1011600069420BA800F0F6FB0BAB07CB03AB07C340
:101170000899099800F05AFC6B4607C30146D54808
:101180000918002D00910BDDD24903980A9A4942B3
:101190004018002303A90390684600F0B7FE08E05A
:1011A00003990A9A0023081803A90390684600F0DF
:1011B00057FE6B4607C30004000C03D00020C04359
:1011C000410800E01046189A002A03D0002200923D
:1011D00015461EE0751E05D4FFF7DCFE3032625561
:1011E0006D1EF9D501220843079602D000227F1C0C
:1011F00004E02078302801D100227F1E002A0697C3
:1012000087D01EE0112D07DAFFF7C4FE3032625599
:101210006D1C02460A43F5D1084303D0009800280C
:1012200019D00EE00021681E05E0235C625C635467
:101230002254401E491C8142F7DBA81B401E079523
:101240000690079A18990020A0540F98079B069AB9
:1012500081600CC07CE711260020189059E7D21D50
:10126000F0B50D460446D10893B0C90003C90C90EF
:101270000D9104F0ABF902460D98C00F01D02D205E
:1012800007E02068810701D52B2002E04007C00F4E
:101290004001032A0F9001D0072A05DB03462946A7
:1012A000204600F013FB0EE12078800601D5E769A7
:1012B00000E006272846652D04D0662814D0672D47
:1012C00069D12DE00020112F009001DB112300E0F7
:1012D0007B1C0CAA03A910A8FFF7F3FE11990026A6
:1012E00010987D1C0E9142E001203B460CAAC007DD
:1012F0000B900120009003A910A8FFF7E2FE119DBA
:1013000012981099002600280E9501D1781C0D180E
:10131000781B02D446427D1C761EE81B00903AE002
:10132000012F00DA01270020112F009001DD112389
:1013300000E03B460CAA03A910A8FFF7C2FE1199D2
:101340003D46109800260E91217809070BD40E997E
:10135000A94200DA0D4603A9012D04DD4A19203AFD
:10136000D27F302A06D0B84201DA011D04DA012109
:1013700000910FE06D1EEFE7002802DC86192D1AA0
:1013800003E0411CA94200DD0D46801B401C00907B
:101390000120C0070B902078000705D40098A842D0
:1013A00002DB0020C043009069460020C8720B9801
:1013B000012102AF0337C907884225D002201090CF
:1013C0002B2011900B9800280BDA40420B902D2017
:1013D000119006E00B9800F039FA30317F1E0B9027
:1013E00039701099481E00291090F3DC0B980028E2
:1013F000F0D111987F1E38702088000501D5452056
:1014000000E065207F1E387001A8C01BC01D0B9036
:101410000F98002800D0012041190098C017091822
:101420000B980818A169081A401EA0612078C00610
:1014300002D42046FFF7FDFA0F98002805D0626815
:10144000A1689047206A401C20622078C00625D5FC
:101450002046FFF7EEFA21E0002E07DB0E98B0429F
:1014600004DD03A86268805DA16802E06268A1688B
:1014700030209047206A761C401C20620098401E55
:10148000002800900AD100F01DFAC0686268016867
:10149000405CA1689047206A401C206228466D1E6F
:1014A0000028D9DC07E062683878A1687F1C904783
:1014B000206A401C20620B99481E00290B90F2DC28
:1014C0002046FFF7CCFA032042E6000001FCFFFFB4
:1014D000104D0000E1DFFFFFD21DF0B504460D46C0
:1014E000D0088DB0C000466807683146384604F021
:1014F0006DF80246F00F01D02D2307E02068810728
:1015000001D52B2302E04007C00F43016846002BA2
:10151000037001D0012000E00020032A0A9001D0CE
:10152000072A04DB2946204600F0D0F92DE1207877
:10153000800601D40D2500E0E5697000400D0D2DF9
:1015400001904BDA300D00210B9008460020C04678
:10155000032189050840002E05DA82008018C20F99
:101560001018401008408015012801DD0020C043FC
:10157000A9000023182906D39C460A460123183ADD
:101580001B07D34003E001221205CA4094460C31E8
:10159000202902D33A46203900E032468A4000280A
:1015A00002DD002A06D119E0002817D10121C90760
:1015B0008A4213D3194663467F185E41002806D13C
:1015C0000120C007824202D1084687439E430B9800
:1015D000310D814202D00198401C01902088000505
:1015E00002D57149794402E06F49794419396B4653
:1015F0000A9830221A540A980A7C401C1A54401C3B
:101600000A900198002801DC302000E03120187297
:10161000019A0120002A02D0644BD21804E0720023
:101620003A4302D0614A521C0192002D02DC22781A
:10163000120703D56A462E205072022000228646E9
:1016400094460CE032033601120F6D1E8B5C02AA29
:1016500013546246521C401C9446052A01DA002DA0
:10166000F0DC002202AE08E03B0F3F01CB5C521CD5
:101670006D1E3354401C082A01DA002DF4DC236867
:101680009A0601D511E0401E704504DD3218203A5B
:10169000D27F302AF7D0002807DD3218203AD27FD7
:1016A0002E2A02D11A0700D4401E002D03DD3E224F
:1016B0003254401C6D1E497C31540199401C002954
:1016C00006DA2D21471C315401984042019003E075
:1016D0002B21471C315401987D21C900884206DB2B
:1016E000FFF70AF83030F0557F1C019101E06428C3
:1016F00008DB01986421FEF7FFFF3030F0557F1CB6
:10170000019101E00A2806DB01980A21FEF7F4FFA7
:101710003030F0557F1C01980A21FEF7EDFF303183
:10172000F1550A98A1697F1C7A191018081AA0614E
:101730002078C00602D42046FFF77BF9216A6E4666
:101740000A980818206204E062683078A168761C64
:1017500090470A98401E0A90401CF5D12078C00698
:1017600002D52046FFF765F902AE09E03078761C15
:101770003E280DD06268A1689047206A401C206214
:101780007F1EF3D22046FFF76AF90DB00320F0BDAB
:10179000206A4019206203E06268A1683020904707
:1017A0006D1EEDD3F8E700004C6C000001FCFFFF5C
:1017B00010B54369002B02D0C046C04601E0FFF7D8
:1017C00071F9012010BD1278014624310A700022FF
:1017D0004A700122ECE711680022D243E8E710B515
:1017E0004369002B02D0C046C04601E0FFF7F4F980
:1017F000012010BD12880146243182840022C28457
:101800000122ECE711680022D243E8E770B51646E2
:101810000C46054600F04EF80368FF200230C05C1D
:10182000012807D0FF2C0ED8185D00280BD001200E
:101830002C7070BDFF333246214608331868C31838
:101840002846984770BD0020C04370BD01468008FF
:10185000081A02091018020A1018020C1018C00801
:10186000820012185200891A01E0401C0A390A2924
:10187000FBD27047754600F0A1FBAE4605006946F5
:101880005346C008C000854618B020B5FEF736FDA7
:1018900060BC00274908B6460026C0C5C0C5C0C503
:1018A000C0C5C0C5C0C5C0C5C0C5403D49008D4606
:1018B0007047000010B500F005F8001D10BD00BF16
:1018C0004564000000487047B01D0020F8B51F4671
:1018D000044601230068DB02032601461840072A5C
:1018E00005DB002801D017A506E017A504E00028B5
:1018F00001D016A500E016A5102081432160A06943
:10190000C01E002FA06101D0401EA0612046FFF73D
:1019100090F8002F09D038466268A1689047206A85
:10192000401C2062C01C206206E0206AFAE7626860
:101930002878A1686D1C9047761EF8D22046FFF7E4
:101940008EF8F8BD4E414E006E616E00494E460065
:10195000696E6600F7B516468AB0334878446C461F
:1019600003467C33C06F5A689B680DC42E48784488
:10197000763003AC0DC80DC43720C00108183721DC
:101980001B30FEF7B9FE05460C46803D1B3C02D5D8
:101990006442012000E000200027099010E0E007E9
:1019A0000CD00C2020497843794432464C394118F8
:1019B0006846012300F054FA6B4607C364107F1C8D
:1019C000002CECD1184F7F442E3F16E0E80712D0D0
:1019D0002001C0190EC80691089307920068F042D2
:1019E00001D1981908903246012306A903A800F0F6
:1019F00037FA03AB07C36D10641C002DE6D10998BC
:101A0000002806D032466946012303A800F07EFA7A
:101A100005E001233246694603A800F021FA0A9B3B
:101A200007C30DB0F0BD0000E868000003464000A9
:101A30000A4610B5400D0BD00121C9070F24A4029E
:101A400000191C0364082143540D2143D20207E00E
:101A500000210120F2E7D40F490021435200401E2B
:101A60000029F8DADB0FDB07184310BDFFB50D4680
:101A7000144685B04868516803F082FD00910190DA
:101A8000A868A16803F07CFD02910390A8686168D2
:101A900003F076FD029A12188242029201D20120CE
:101AA00000E00020019A0B18D2180028019202D001
:101AB0008A4202D903E08A4201D2012000E00020DC
:101AC0000099081800906868A16803F059FD029A0F
:101AD00012188242029201D2012000E00020019AF5
:101AE0000B18D2180028019202D08A4202D903E0D2
:101AF0008A4201D2012000E00020009908180090DD
:101B00002868216840004900400849084018FA49FF
:101B1000471814E001994000C90F0843009001984C
:101B200002994000C90F08430190029803994000B0
:101B3000C90F08430290039840007F1E039000984D
:101B40000028E7DA0898002801D0EC4E00E00026D3
:101B5000B74201DA012000E00020002804902AD0DA
:101B6000F71BF806C00E15D0029B2021091A039A14
:101B70008B401A430392029A019BC2408B401A4346
:101B80000292019A009BC2408B4000991A43019235
:101B9000C14000917B110DD06F460320C11A03D5BF
:101BA00000218200B95003E08A008100BA587A50BF
:101BB000401EF3D5374603980299002800D0012033
:101BC000014308980291002808460CD0002800D054
:101BD00001200199019A490508430121D20AC9024D
:101BE000D202019200E001210E9B0122D207012BBB
:101BF00002D0002B03D013E0002807D120E0904250
:101C000004D890420CD1019B0B4209D0019B59187A
:101C1000019105D10099491C009101D17F1C0092CE
:101C200000280DD0102108460020C0460498002846
:101C300006D00F98002803D0082108460020C0468F
:101C400028682168019B009A4840C10F0598C90780
:101C500039430EC009B0F0BDFFB587B0099A0898A6
:101C600008995368926840688968964600220393F1
:101C700017469446089A12685300099A5B0812683E
:101C8000520052089A1A9E4BD4180A9A002A01D080
:101C9000352200E0402206920022012315460492DC
:101CA000DB07059324E0002D05D175460346039E0E
:101CB0004D1BB34109D375466646039B491B049DE2
:101CC0009841059B7519AC465F4163463B4308D07C
:101CD000059B049EDD0776082E435B08049605935A
:101CE00001E0521E641EC50FED0749184041521C09
:101CF000069B9A42D7DB002D04D17546039A6B1AD6
:101D0000824101D203200CE0039A0B466B40424013
:101D1000134303D0014303D0012002E0022000E07E
:101D20000020614601910021009702910A99002943
:101D300005D0614640020143704B019102E08007EB
:101D4000002302909C4201DA012000E000200700FD
:101D50003AD01A1BD006C00E15D0029D2021019C3E
:101D6000091AC5408C402543029C8C4000D00124B8
:101D70002543019C0295009DC4408D4000992C4351
:101D80000194C140009154111DD06D4602210022E2
:101D900002290CD10320001B07E0002804DB860089
:101DA000AE59002E00D00122401C0328F5DB081B91
:101DB00002D588002A5004E08000285810438A0089
:101DC000A850491EE3D51C460A98002802980CD05A
:101DD000002800D001200199019A490508430121FA
:101DE000D20AC902D202019200E00121109B012215
:101DF000D207012B02D0002B03D013E0002807D11B
:101E00001FE0904204D890420CD1019B0B4209D0B4
:101E1000019B5918019105D10099491C009101D1EC
:101E2000641C009200280CD0102108460020C046F7
:101E3000002F06D01198002803D008210846002062
:101E4000C04608980999019A009B006809684840B3
:101E5000C10F0798C907214382600AC00BB0F0BDCB
:101E600000B585B0019300920A460146002302A8FE
:101E7000FFF7FCFD02A807C805B000BDFFB50A4684
:101E80001F4685B00799019301230091014602A8DE
:101E9000FFF7ECFD02990398049ECA0F4900D20790
:101EA00000920F22490892028C1A0021002800DBC0
:101EB0000C46450013486D08844214D3079A002A43
:101EC00004DA441E0026104DF64302E004460D4697
:101ED0000E46102108460020C046002F03D00421E2
:101EE00008460020C0462005E90A08430099084337
:101EF0006905F20A1143ADE602C0FFFF013C000094
:101F0000FF3F0000FF070000FFFFFF7F00B585B027
:101F1000019300920A460146002302A8FFF79CFEA7
:101F200002A807C8A8E7FFB50A461F4685B007996B
:101F3000019301230091014602A8FFF78DFE02994B
:101F40000398049ECA0F4900D20700920F22490845
:101F500092028C1A0021002800DB0C464500114833
:101F60006D08844214D3079A002A04DA441E00261E
:101F70000D4DF64302E004460D460E46102108467C
:101F80000020C046002F03D0042108460020C04690
:101F90002005E90A0843009908436905F20A11433C
:101FA00058E60000FF070000FFFFFF7F10B5044662
:101FB000C046C0462046FEF739F910BD00487047BC
:101FC000901D002001491820ABBEFEE7260002004C
:101FD000704770B58C180578401C6B075B0F01D1FA
:101FE0000378401C2A1106D10278401C03E00678D1
:101FF000401C0E70491C5B1EF9D12B0705D4002331
:10200000521E0DD40B70491CFAE70378401CCB1A02
:10201000921C03E01D780D70491C5B1C521EF9D503
:10202000A142D8D3002070BD70B506460D461420DD
:1020300003F000FE040007D005F0B7F82146304653
:10204000256005F0CDF870BD05F0F0F870BD00001A
:10205000F8B505461A486946046800200870174E0E
:102060001848012D04D98168304604F0F1FFF8BD0D
:10207000A9004158304604F0EBFF002CF7D011487E
:102080000121001F017027464037B98D0022A06E44
:1020900000F0BFFD002D6946304602D000F030FA56
:1020A00001E000F011F8B98D0122A06E00F0B1FD41
:1020B00004490020091F0870F8BD000070070020C7
:1020C000080000203C000020F3B5464885B00468B5
:1020D000454803900020454F01906CE00598012190
:1020E000426E06989047002865D0082560E01722C8
:1020F0002946039800F0D2FA0646A8003A583CA1B7
:10210000059804F043FC3CA17268059804F03EFC7D
:10211000706800283ED0FEF7B3F9801C03F08AFDFA
:10212000009000281FD07068FEF7AAF9421C716861
:102130000098FEF729FA092D03D934A10098FEF77B
:1021400011FA0098FEF79CF9C2B2204620300290A6
:102150004271206A0099FEF717FA0298A36D42793E
:102160002046216A9847009805F060F8082D17D09E
:102170000A2D15D026A2FF23F5332146059803F03A
:10218000A9F9064680003958059804F061FF062E2B
:1021900021D107E0012001901448803001681DE042
:1021A000B268E8E7162D16D06D1CEDB2172D02D2DD
:1021B000019800289BD0069800781B288ED1002C0F
:1021C00007D025462035697BA06AFEF743FA002038
:1021D000687307B0F0BD01200190F96F059804F015
:1021E00037FFE8E708000020F87E00083C000020E8
:1021F0000D0A2573000000003E5B4D43552D3E4CFB
:102200003130315D3A25730D0A0000000D0A0000DF
:102210004F4B000000250446ED432946206C03F097
:102220009DFA0028F9D1002CF7D0E26820469047AB
:10223000F3E70000F8B50D0004465AD0542003F02F
:10224000F9FC2060002801D104F0F0FF2E46203672
:10225000307C03F0EFFC07004CD0307E03F0EAFC4A
:102260000090002846D0317C3846FEF7F3F9317EE5
:102270000098FEF7EFF921682878087021681F4858
:10228000486021681E48886021681E48C86021682F
:102290001D48086121681D48486121681C48886103
:1022A00021681C48C86121681B48086221681B48D6
:1022B00048622068C7622168002020314874216884
:1022C000327C20310A742268009951632168327E81
:1022D00020310A762168203148762168A86C88640C
:1022E0002168E86BC8632168286C08642168286D40
:1022F0000865F8BD04F09AFFF8BD000039490008F0
:10230000994A0008B5490008494A0008CD48000824
:102310005D490008E14A0008214C0008D74B00083D
:10232000F8B504460D46742003F084FC20600028B4
:102330007ED0002D7CD029780170216868684860C3
:1023400021683E48886421683D48C86421683D484A
:10235000486421683C48086421683C480865216855
:102360003B48486521683B48886521683A48C8650C
:1023700021683A480866142003F05CFC21680028B4
:10238000886002D004F006FF01E004F04FFF142043
:1023900003F050FC21680028C86002D004F0FAFE67
:1023A00001E004F043FF20680027877620682E466E
:1023B0004776206820360776307903F03BFC2168A9
:1023C0000028086203D03179FEF744F901E004F0F7
:1023D0002DFF307B03F02EFC2168002888622168E5
:1023E00003D0317BFEF736F902E0086A04F01EFFE5
:1023F00020683179203001712068203047712068D1
:10240000317B203001732068203047732168286BAE
:102410000863294634310EC9206834300EC0216863
:10242000686E48662068EB6EAA6EC366826600E03E
:1024300002E02168286F0867F8BD00009941000894
:10244000F3420008A1270008F14C0008AB42000845
:10245000E94000087D420008BD40000875400008C2
:1024600010B5034800F021FA024800F01EFA10BD32
:102470009C0500205805002010B5034800F015FA0F
:10248000024800F012FA10BD24060020E0050020EA
:1024900010B504460068054940181421FEF722F9DA
:1024A000800020640248E06310BD0000F8FFFDBF1B
:1024B0000000024030B5056C0124AC40C56B6C6077
:1024C000046863604368102B036803D09960006858
:1024D000C26030BD9A600068C16030BD10B5012097
:1024E000C00300F0B3FA10BD72B6FEE7C06802E0A8
:1024F0008A4204D040680268531CF9D1002070471A
:10250000F3B58BB0402003F095FB019000287CD000
:102510005248544F006802905148002508900B988B
:102520000121426E0C9890470028F8D00C98007852
:1025300008286BD00D280ED01B2868D0019948556B
:102540006D1CADB2402D00D300250B980121826E89
:102550000C989047E3E70198002141550D4642A1B0
:10256000019A0B9804F012FA082402E00C2C00D116
:10257000162417222146089800F090F80646082CE9
:1025800020D00A2C1ED03CA00990002E37D07068B5
:10259000FDF776FF801C03F04DFB059000282BD043
:1025A0007068FDF76DFF421C71680598FDF7ECFF40
:1025B000092C03D931A10598FDF7D4FF0B2C03D0CA
:1025C000059805E0B068DFE72CA10198FDF7CAFF88
:1025D0000646A0003A582AA10B9804F0D7F93246D3
:1025E00029A10B9804F0D2F93046FDF749FF82B2D9
:1025F00002983146836D9847059804F017FEFF2333
:10260000F533099A02990B9802E025E015E020E0E5
:1026100002F060FF0646800039580B9804F018FD60
:10262000062E01D1162C03D1F96F0B9804F010FD82
:10263000641CE4B20D2C8DD298E7002D06D0012148
:102640000B9803F02BFC6D1EA8B200E0002085B2B1
:1026500065E7019804F0EAFD0DB0F0BD0800002028
:10266000F87E00083C0000200D0A496E7075743A2F
:1026700025730D0A000000004F4B00000D0A0000FA
:102680000D0A2573000000003E5B4D43552D3E4C66
:102690003130315D3A25730D0A00000010B500237A
:1026A00008E01C01045D8C4202D11901081810BD1C
:1026B0005B1C9BB29342F4D3002010BD70B504465E
:1026C000E1200002814201D9002070BD0846FEF7DA
:1026D000ADF901461248FEF7B5F80546FEF762F976
:1026E000208228460F4905F023FB06460E49FEF7D7
:1026F000A9F8FEF757F9A08430460C49FEF7A2F876
:10270000FEF750F9E08420852846094905F010FBC2
:102710000849FEF797F8FEF745F96085012070BD7E
:10272000002474490000A0400000504100005042C5
:102730000000A8410000D0410948016989058A0FBD
:10274000084909694904890F890011430269006930
:102750005207520E0A43C004C00FC0011043704715
:10276000000400480008004870B5044610460023E5
:102770000A4D0FE0227850400022641CC60702D0A8
:102780004008684000E04008521C92B2082AF5D385
:102790005B1C9BB28B42EDD370BD000001A000001A
:1027A00010B5012109200903C00600F02DFA002808
:1027B00000D0012010BD030003D00868002804D118
:1027C00001E0002070471846083008604268106831
:1027D000401C00D1DA680A601046704700B50A460E
:1027E00000280BD0002A09D0014610311046FFF70F
:1027F000E2FF002802D00068411C00D1FF2000BD8C
:10280000002104E0C207D20F5118C9B240080028C5
:10281000F8D1022901D3012070470020704730B55C
:10282000014620314B780022022B04D0042383631D
:102830000A70012030BD03681C680E25AC431C6083
:1028400003681C68640864001C600123056C1C4656
:10285000C06BAC4044604B700A70002030BD70B556
:102860000024014620314A78022A03D004218163E2
:10287000012416E0026813680E25AB43136002685A
:1028800013685B085B0013600122056C1346AB40C4
:10289000C56B6B604A7000220A70416B002900D042
:1028A0008847204670BD806B7047F0B4C16B0D68DF
:1028B00001680C680422066C1346B3402B420DD00D
:1028C00063070BD50B689B0602D40B6893430B6020
:1028D000016C8A40C16B4A60C16A19E00227B740A7
:1028E00002462F4001232032002F15D0A70713D511
:1028F0000C68A40604D40C680A25AC430C60537021
:10290000036C02219940C36B596000211170816AE8
:10291000002916D0F0BC08470827B7402F4210D036
:1029200024070ED50C680E25AC430C60046C1946C8
:10293000A140C46B61608363537000211170016B0F
:10294000E6E7F0BC7047000070B5040021D002211A
:102950002046203005464170226811680E48A36861
:102960000140606826691843E3683343184363698C
:102970001843A3691843E3691843084310602046CD
:10298000FFF786FD0021A1630120687029700846C9
:1029900070BD012070BD00000FC0FFFFF8B50446F8
:1029A0008C46203001780025012909D001260670C7
:1029B00041780027012905D0077002252846F8BD77
:1029C0000220F8BD02214170A76320680168490810
:1029D0004900016061462046FFF76CFDE06A00286F
:1029E0002068016802D00E22114306E00A2211433A
:1029F0000160206801680422914301602068016839
:102A000031430160DAE7000010B501210E4CC90323
:102A1000884217D1A07E002814D101202076A0760C
:102A20001920205600F0ACF961690020096848625D
:102A30006169A08C0968C8626169A08CC86060691E
:102A400000F0D8FD10BD00002C02002010B5044994
:102A50004A69024202D04861FFF7D6FF10BD00006C
:102A600000040140F8B5002303240125BAE02E46F6
:102A70009E40B44632407CD00E79B607B60F012E88
:102A800001D0022E17D186682746B6465E00B740B1
:102A900000967646BE43B646CF68009EB74076465F
:102AA0003743876046686746BE430F79FF06FF0FCE
:102AB0009F40374347600E79F643B6070ED0C6688D
:102AC0002746B4465E00B646B7406646BE43B446A7
:102AD0008F687646B74066463743C7600E79B607BB
:102AE000B60F022E14D1DE08B60036180096366AEC
:102AF0005F07B446FE0E0F27B646B7406646BE4394
:102B0000B4460F697646B74066463743009E376243
:102B100006682746B4465E00B646B7406646BE43E2
:102B20000F79B446BF07BF0F7646B74066463743B6
:102B300007604E68B603B60F53D02D4FBE692E43C3
:102B4000BE61BE699F08F607F60F2A4EBF00BE1988
:102B50000096B6680F27B4469E07360FB646B740B4
:102B60006646BE430927FF06B446B84202D1002795
:102B700010E036E0204FB84201D101270AE01F4F94
:102B8000B84201D1022705E01D4FB84201D1032709
:102B900000E005277646B74066463743009EB7609B
:102BA000184E36684F689643FF0300D51643154FFD
:102BB0003E607E684F689643BF0300D51643114FB1
:102BC0007E60BE684F689643FF0200D516430D4FE6
:102BD000BE60FE684F689643BF0200D51643094A9F
:102BE000D6605B1C0A681646DE4000D03FE7F8BDA1
:102BF00000100240000001400004004800080048A6
:102C0000000C0048000401400069084000D0012089
:102C10007047002A01D081617047816270470000CF
:102C200001488068704700001801002070B504005A
:102C30000FD021681548086021681548086003CC4A
:102C400041602068083C21688860FFF7E9FF05467D
:102C50000CE0012070BDFFF7E3FF401B272805D9DA
:102C60002068C068400701D0032070BD2068C0689C
:102C70004007F0D120680269E1688A4201D0016111
:102C800001E004490160002070BD0000CCCC0000D0
:102C900055550000AAAA0000006802490160002002
:102CA00070470000AAAA00000248816802788918CB
:102CB000816070471801002010B506480168102295
:102CC00011430160032000F007F800F041F80020F4
:102CD00010BD00000020024000B5014687B0002270
:102CE0000D2000F069F80D2000F05AF813488269B1
:102CF000C1140A43826180690840059004A96846AE
:102D000000F056F900F070F90D49FDF7EBFC0E49A3
:102D10000C4A0A600D4A401ECA60486000200861E3
:102D20008860084600F013FC002802D0012007B09C
:102D300000BD054800F05EFCF9E70000001002400D
:102D400040420F00002C014068060020E70300000D
:102D500008B50A48816901221143816181691140E6
:102D60000091C26901040A43C261C069002208409F
:102D700003210090481F00F01FF808BD001002401A
:102D8000002809DBC106C90E0120884003490860FC
:102D9000BFF34F8FBFF36F8F7047000080E100E0FB
:102DA000002805DBC106C90E0120884001490860E2
:102DB0007047000000E100E010B502F01DFC10BDFE
:102DC000F8B505460068354CC00352D5E0690026C9
:102DD000C00007D4E16920040143E161E1690140D9
:102DE000012600912E480168C90510D4016882159A
:102DF00011430160FFF714FF074604E0FFF710FFDF
:102E0000C01B642824D826480068C005F6D5206A6F
:102E100003273F02384020D06968394081421CD0E6
:102E2000206A226AB843012109040A432262226A05
:102E30008A4322622062C0070FD0FFF7F1FE0090A4
:102E400008E0FFF7EDFE0099411A1648814201D9CA
:102E50000320F8BD206A8007F3D5206A6968B8436B
:102E600008432062002E04D0E1690120000781435D
:102E7000E1612878C00705D0206BA9688008800030
:102E8000084320632878800605D5206B10218843ED
:102E9000E968084320630020F8BD000000100240EC
:102EA0000070004088130000F8B50F46060059D0A6
:102EB0003A4D2868C007C00FB84209D228684008B8
:102EC0004000384328602868C007C00FB84249D185
:102ED0003068334C81070CD5400704D56068072162
:102EE0000902084360606068F0218843B1680843C4
:102EF00060603078C00726D0706801280ED0216845
:102F000002280ED0890700292CDA61688908890017
:102F100001436160FFF784FE00900DE021688903A2
:102F2000F1E78901EFE7FFF77BFE0099411A1D48A1
:102F3000814201D90320F8BD60680C210840716806
:102F400089008842EFD12868C007C00FB8420BD96A
:102F5000286840084000384328602868C007C00F30
:102F6000B84201D00120F8BD3078400706D560682E
:102F7000072109028843F1680843606000F044F8C3
:102F80006168094A0906090F515CC8400749086091
:102F90000320FFF7A1FE0020F8BD00000020024042
:102FA00000100240881300008881000824010020DE
:102FB00010B5072202600A4A53689B079B0F4360C3
:102FC0005368F02423408360526807231B021A4091
:102FD000C26004480068C007C00F086010BD000050
:102FE000001002400020024004480549006849687A
:102FF000044A4905490F515CC8407047240100202C
:10300000001002409881000810B514A30FCB88B0BF
:103010006C460FC415A30FCB0FC4184A51680C207F
:103020000B4603401648042B16D0082B14D18B02F4
:103030001B0F6C46E45CD26A04AB1207120F9A5C59
:10304000C90305D500231946FDF768F9214601E0BB
:1030500020460C4902F094FA08B010BD02030405A2
:10306000060708090A0B0C0D0E0F101001020304CD
:1030700005060708090A0B0C0D0E0F100010024080
:1030800000127A0000093D00FEB5040070D02078DF
:10309000DC4DC0074AD068680007800F012807D0C0
:1030A00068680007800F022809D16868C00306D548
:1030B000286880033AD560680028E7D036E0616868
:1030C000012914D001208004002901D0052914D041
:1030D0002A68012109048A432A60296881432960FA
:1030E0006068002816D0FFF79BFD06460EE02868B2
:1030F0000121090408432860F2E729680143296097
:10310000F5E7FFF78DFD801B64286ED828688003E3
:10311000F7D50BE0FFF784FD064604E0FFF780FDDE
:10312000801B6428F1D828688003F7D42078012612
:10313000800700283CDA68680007800F07D06868BD
:103140000007800F022809D16868C00306D42868E8
:10315000800716D5E06801280AD112E0E06800284F
:10316000286816D030432860FFF75AFD074605E06F
:1031700043E1FFF755FDC01B0228C6D82868800729
:10318000F7D52868F82188432169C90008432860D9
:103190000EE0400840002860FFF742FD074604E0CB
:1031A000FFF73EFDC01B0228AFD828688007F7D480
:1031B0002078000722D5E0690028686A0ED03043E5
:1031C0006862FFF72DFD074604E0FFF729FDC01BED
:1031D00002289AD8686A8007F7D50FE040084000B7
:1031E0006862FFF71DFD074605E09DE0FFF718FD4B
:1031F000C01B022889D8686A8007F7D42078042782
:103200004007002860DA00200190E869C00008D477
:10321000E969B8060143E961E969014001200091CB
:10322000019079480168C90511D4016882151143DC
:103230000160FFF7F5FC009005E0FFF7F1FC009955
:10324000401A642870D870480068C005F5D5A06899
:1032500001280AD0002801D0052810D0286A40088B
:1032600040002862286AB84301E0286A3043286297
:10327000A068002812D0FFF7D3FC00900AE0286A6B
:1032800038432862F1E7FFF7CBFC0099411A5F4809
:10329000814249D8286A8007F5D50DE0FFF7C0FCC8
:1032A000009006E0FFF7BCFC0099411A57488142A4
:1032B0003AD8286A8007F5D40198002804D0E96933
:1032C000012000078143E9612078C00635D5606997
:1032D00001280CD0401D686B23D038436863686BAD
:1032E000400840006863FFF79BFC064622E0686BDD
:1032F00038436863686B30436863FFF791FC0646A8
:1033000004E0FFF78DFC801B02285BD8686B800708
:10331000F7D5686BF8218843A169C9000843686341
:103320000BE0B8436863F4E74CE0FFF779FC801BDF
:10333000022847D8686B8007F7D4206A00285ED03F
:1033400069680907890F022942D00126360602283A
:10335000286805D0B0432860FFF762FC044633E0DC
:10336000B0432860FFF75CFC074604E0FFF758FC19
:10337000C01B022826D828688001F7D4E86AE16AD1
:10338000000900010843E862616AA06A08436968AD
:103390003D22120491430843686028683043286046
:1033A000FFF73EFC044604E0FFF73AFC001B02284E
:1033B00008D828688001F7D521E0FFF731FC001B11
:1033C000022801D90320FEBD28688001F5D416E04B
:1033D0000128F8D06868E96A01221204636A024091
:1033E0009A420AD10907E26A090F914205D10F21D9
:1033F00089040840A16A884201D00120FEBD002056
:10340000FEBD000000100240007000408813000064
:10341000FFB50446807E81B01F460E4600283CD191
:10342000002E1DD0039800281AD0FFF7F9FB05469F
:10343000204620300090007B002814D001201C4939
:10344000C003486119202056FFF7AAFC009900200C
:10345000087303990129617F21D9E28BB1541FE0E0
:10346000012005B0F0BDFFF7DBFBA84204D2FFF757
:10347000D7FB401B401E02E0FFF7D2FB401BB842C7
:1034800001D9012000E00020401E384205D1002073
:10349000E083607730700320E3E70220E1E73170DA
:1034A0006077E28B03998A4200D1E0830020D8E75D
:1034B00000040140FFB581B0044602981E4617463D
:1034C00000280DD0002F0BD0FFF7AAFB054627815F
:1034D0000298E0606079002804D0022005B0F0BDB9
:1034E0000120FBE70120607120712068002700683F
:1034F00047622168208A0968C8622168208AC860FA
:10350000206800F077F81AE004F080FA022800D072
:1035100062B6FFF785FBA84204D2FFF781FB401B90
:10352000401E02E0FFF77CFB401BB04201D90120A6
:1035300000E00020401E304201D10320CEE7A07CF5
:103540000028E1D0A7740020C8E77047704770B525
:10355000040005D025462035687F002802D006E00B
:10356000012070BD00202877204600F015F80220C9
:103570006877211D206801F03BFC01204034A071D8
:10358000A877E87720706070A070E070207160719B
:103590006877002070BD000008B5134A0168134821
:1035A00091420DD1C26910210A43C261C069002253
:1035B0000840009003211120FFF7FEFB11200FE0CF
:1035C0000B4A91420ED1C26989150A43C261C06992
:1035D00000220840009003211320FFF7EDFB132089
:1035E000FFF7DEFB08BD00000010004000100240A5
:1035F00000200040014620314A7F012A01D00120ED
:10360000704702224A770268D36801210B43D360D6
:103610000068094A904205D0084A904202D0084A00
:10362000904204D182685207520F062A02D00268E3
:103630000A43026000207047002C01400004004053
:10364000004001400168CA6852085200CA6001681F
:103650000A6A084B1A4207D10A6A9B101A4203D120
:103660000A68520852000A60012120304177002088
:103670007047000011110000704770B504460068E3
:1036800001690025C9438907002915DBC168C943C1
:10369000890711D4E91E0161012020772068806923
:1036A0008007204602D0FFF7E7FF04E000F096F81D
:1036B000204600F094F8257720680169C94349073E
:1036C00017D4C168C943490713D40421C943016110
:1036D00002202077206880698005800F204602D074
:1036E000FFF7CAFF04E000F079F8204600F077F811
:1036F000257720680169C943090716D4C168C94301
:10370000090712D40821C9430161042020772068E9
:10371000C0698007204602D0FFF7AEFF04E000F04A
:103720005DF8204600F05BF8257720680169C94301
:10373000C90617D4C168C943C90613D41021C943A7
:103740000161082020772068C0698005800F20462D
:1037500002D0FFF791FF04E000F040F8204600F0AF
:103760003EF8257720680169C943C90708D1C168B7
:10377000C943C90704D1891E0161204600F030F811
:1037800020680169C943090609D4C168C94309060B
:1037900005D48021C94301612046FFF7D6FE206889
:1037A0000169C943490609D4C168C943490605D41A
:1037B0004021C9430161204600F018F920680169E1
:1037C000C943890609D4C168C943890605D42021A3
:1037D000C94301612046FFF7B9FE70BD70477047CD
:1037E000F8B501687C487B4C814202D1FFF75CFA56
:1037F000F8BD784F794A7A482037002591424AD15E
:1038000021790029F4D0627901218903012A15D098
:10381000022A1AD0032AEBD0042AE9D10122FFF7A9
:10382000F8F9A5712089401E0004000C208122D0E7
:1038300001206071E068401CE060F8BD0022FFF7E5
:10384000E8F902206071A571F8BDE268A3791278E9
:10385000DA40D207D20FFFF7DCF9A079401CC0B2E2
:10386000A0710828F0D3387C002801D0032000E0A4
:1038700004206071F8BD65712571012626762068E7
:10388000FFF7E0FE20680068456219202056FFF728
:1038900087FAA674F8BD534A9142FBD1217E0029D4
:1038A000F8D0A27E0121C9034F4E012A27D0022A57
:1038B0004DD0032A7FD0042AECD1FFF7A5F9317847
:1038C000C007C00F49000843C0B23070217F491CB7
:1038D000C9B22177032970D3FEF792FF00280BD0DD
:1038E000E08B401CE083A5766069FFF7ABFE606962
:1038F000006845620120387325773570F8BDFFF701
:1039000083F93178C007C00F49000843C0B2307056
:10391000217F491CC9B2217703294ED3FEF770FFDE
:10392000002804D00420A07635702577F8BD022049
:10393000A076207F6169400000190968808CC86208
:10394000207F616940000019808CC860ECE7FFF7B8
:103950005BF93178C007C00F49000843C0B230702E
:10396000217F491CC9B22177032926D3FEF748FFDE
:10397000E17E8840617F08436077E07E072808D3B6
:10398000E576387C002801D0032000E00420A076F2
:1039900001E0401CE076207F616940000019096861
:1039A000808CC862207F616940000019808CC860EB
:1039B000A2E700E001E0A576F8BD480061690019C2
:1039C0000968808CC862207F616940000019808C82
:1039D000C860F8BD2C020020002C014000100040FF
:1039E0000004004800200040140000207047704789
:1039F000F8B50446806FE66F21688A68254612068E
:103A000010278035002A1BDA212819D1EFF3108006
:103A1000012282F310888A6880239A438A6080F3A7
:103A20001088E06E002808D0FEF7F9FE002804D0C8
:103A3000E06EFEF738FF202824D0204601F095FBE9
:103A40002168886840061BD5222E19D1EFF310801B
:103A5000012282F310888A6840239A438A6080F3A7
:103A60001088206F002808D0FEF7D9FE002804D067
:103A7000206FFEF718FF202804D0204601F046FBF7
:103A80000020F8BD2F600320F8BD7047F8B502682C
:103A90000446D069116896689C4B05461D4020235A
:103AA000002D75D0F7079A4DFF0FBC460D402F43F0
:103AB0006DD02546C7078035002F06D0CF0504D529
:103AC000012717622A683A432A60820708D5F2075D
:103AD00006D0276802223A622A6804273A432A60FD
:103AE000420708D5F20706D02668042232622A6807
:103AF000022632432A6002070AD50A461A40664661
:103B0000324305D02668082232622E6816432E60A2
:103B1000020508D54A0106D501222668D202326282
:103B20002A681A432A602A68002A39D0800606D5F6
:103B3000880604D5616E002901D020468847286890
:103B400021688968490602D4282108422DD02046E0
:103B500001F0DCFA21688868400622D5EFF3108076
:103B6000012282F310888B68402293438B6080F39C
:103B70001088206F002814D066494163206FFEF73B
:103B80006EFE00280CD0206F416B08E000E012E0D0
:103B9000850610D58D060ED5616E9DE020468847BE
:103BA000F8BD2046FFF771FFF8BD2046FFF76DFF17
:103BB00000202860F8BD256E012D7DD1C5067BD57E
:103BC000CD0679D5102616622268906825464006F3
:103BD0004035002845DA216F086840680004000C71
:103BE000E8D02F8B8742E5D968838869202833D0B5
:103BF000EFF31080012181F3108811683701B94378
:103C0000116080F31088EFF31080012181F3108898
:103C100021688A68520852008A6080F31088EFF3A6
:103C20001080012181F3108821688A684027BA43F7
:103C30008A6080F31088E36700202066EFF310802D
:103C4000012181F3108821680A68B2430A6080F379
:103C50001088206FFEF7E3FD288B698B401A81B234
:103C600031E0288B698B401A81B2688B0028A1D083
:103C700000299FD0EFF31080012585F31088156887
:103C8000FF272137BD43156080F31088EFF31080C4
:103C9000012282F31088226895686D086D00956096
:103CA00080F31088E367002020666066EFF31080E1
:103CB000012282F3108800E009E022681368B34310
:103CC000136080F310882046FFF791FEF8BD0506CB
:103CD00006D50D0604D5A16E002900D05EE7F8BD1B
:103CE0004006FCD54806FAD52046EFF310810124A2
:103CF00084F3108814684025AC43146081F3108865
:103D000083670021816600F085F9F8BD0F08000087
:103D100020010004A94F000810B5040003D0A06FD3
:103D2000002802D007E0012010BD002174200155B9
:103D3000204600F027F82420A06720680168490881
:103D400049000160204601F021FA0128ECD0606AA8
:103D5000002802D0204601F08FF820684168012237
:103D6000D2029143416020688168082291438160BA
:103D700020680168012211430160204601F0E2F849
:103D800010BD0000F0B587B0044614216846FCF76A
:103D900063FC504F236850480222032100258026EF
:103DA000BB4245D1876953031F43876187691F4021
:103DB0000597476953041F434761406918400590C0
:103DC000C0206B4625C322C369464448FEF74AFE1D
:103DD0004348444F21C73D60BD60FD607E60B00137
:103DE0003D6178613F48083FFEF7AEFD002801D0F5
:103DF000FEF77AFB27677C623A4F3948443714381C
:103E000038601020391D61C13D617D61BD6138465A
:103E1000FD61FEF799FD002801D0FEF765FBE7661E
:103E2000002203211B207C62FEF7C6FF1B204CE012
:103E30002D4FBB424BD1C76901235B041F43C761B0
:103E4000C7691F40059747691F4347614069039150
:103E5000184005900C206B4625C3012004900920D2
:103E60006946C006FEF7FEFD1D481E4F2830883704
:103E700021C73D60BD60FD603D6138467E607D616B
:103E80000838083FFEF760FD002801D0FEF72CFB44
:103E900027677C62134F1248CC37143038601020EB
:103EA000391D61C13D617D61BD613846FD61FEF72F
:103EB0004BFD002801D0FEF717FBE7660022032127
:103EC0001C207C62FEF778FF1C20FEF769FF07B01C
:103ED000F0BD00000038014000100240000400481E
:103EE00030000240580500200044004070B5C36F08
:103EF000202B2BD100290BD0002A09D00124836864
:103F00002403A34206D10369002B03D1CB0701D0C0
:103F1000012070BD034660331C7D012C16D00124A6
:103F20001C7500230366046863681B020BD5EFF35E
:103F30001083012585F3108825680126B6063543D0
:103F4000256083F3108801F0BBF970BD022070BDBD
:103F500070477047F8B50446806F202852D1002979
:103F60000BD0002A09D00123A0681B03984206D178
:103F70002069002803D1C80701D00120F8BD2546DB
:103F80006035287D01283DD001202875204640302D
:103F9000E164028242820026274680373E6021206B
:103FA000A067E06E00281BD017498162E16E1748B8
:103FB000C862E16E16480863E06E13464663E06C23
:103FC000216884460A4628326146E06EFEF7E6FC28
:103FD000002805D0102038602E752020A067CCE77F
:103FE0002168402008622E75EFF31080012181F3D3
:103FF000108821688A6880231A438A6080F31088B9
:104000000020F8BD0220F8BDB95000080351000897
:10401000BD4F000870477047FEE7000010B501284B
:1040200006D000220121C9030248FEF7F2FD10BDAF
:104030000122F7E7000800480B4D0C4C01260C4804
:10404000FEF72AFE2868C06B002809D000780028F7
:1040500001D0012001E0207870402070FFF7DEFFE2
:10406000782001F017FBEAE7040000201800002088
:10407000B0030020F3B50400206F81B0C56B1AD0E7
:104080000299002917D00146012240310A71002609
:104090000E73217E8769C9000823074AB8470028A4
:1040A00009D0E36D0822044902989847002802D0FD
:1040B000002D00D02E70FEBD0C00002070B504460F
:1040C0000020002C0FD000290DD0002A0BD0002397
:1040D00007E0E55CCE5CB54201D0CD5401205B1C0D
:1040E000DBB29342F5D370BD7FB527A504462CCD36
:1040F000006F6E462CC64B786A4613700B7853706F
:104100008B7893700B79D37000283AD0002938D07F
:104110000A79052A05D20221684601710821017237
:1041200014E000236A46137302464032137113737E
:1041300009798569491F89B2012303AAA847002884
:1041400020D0052168460171017BC17125460B21F4
:104150002035697100A80F4A06210330FEF704FBE1
:10416000014668468181017B4172417B81726A7997
:104170006946206AFCF708FAA36D6A792046216A2D
:104180009847012004B070BD000000000500000049
:1041900000000000FFFF0000FEB505460446203584
:1041A000687B02285FD9801E81B2334A266FA06ADD
:1041B000FEF7DAFA217E4A1CD7B2A26A1378BB4214
:1041C0004FD16B7BD2181E3A537F127F1B021343D1
:1041D000020A000202435BBA90B2834241D1FF2936
:1041E00008D2A068FEF782F9002803D1217EA068DA
:1041F000FDF71AFFA07E00280CD1207E401CC0B223
:1042000020762178884203D3FF202076012000E029
:104210000020A07602202875052F24D200206A46AF
:10422000A16A4307C9785B0FD940C907C90F115468
:10423000401CC0B20828F3D3002E14D0226E694669
:104240002046904730460121403001710173207EA5
:10425000C10020290FD8B76908236A463046B847FD
:1042600001E003202875002C05D0697BA06AFCF7CB
:10427000F1F900206873FEBDFFFF000070B5040077
:1042800012D0606EFFF766FE606E0068C169C943B8
:104290004906FBD4002C07D0254620356979206AD1
:1042A000FCF7D8F90020687170BD70B50446406E07
:1042B0000D460068C169C943C90619D410210162BD
:1042C000002C10D0A06A00280DD0606EFFF790FB84
:1042D000204629682030027B4968511A4173A16A3F
:1042E000606EFFF703FE206B002801D001F010FA8A
:1042F00070BDF8B5040066D0A068002863D0E068FF
:10430000002860D0A16E00295DD025462035297D8A
:1043100000260B0001F04CF90504580462625700B6
:10432000616C2046884700284DD0E663A07E0028B7
:1043300005D02046A168FEF751FAC0B200E0207E09
:10434000207627464037B98D0122A06EFEF761FC2A
:10435000207E2178884208D2062250436168626D2F
:1043600009182046904701202875B98D0022A06EBB
:10437000FEF74FFCA17E002906D0207E22789042D5
:1043800002D2607E401C6076A068627E03689A421A
:1043900004D80068002816D1002914D06676E06899
:1043A000016800290FD021461431FEF704FA0500F8
:1043B00009D02968481C06D0A068FDF735FE296899
:1043C000E06800F080FCF8BDE06B401CE063A16B8E
:1043D0008842F8D30420E6632875F8BD217EFEF7F5
:1043E00085F8002805D1217EFF2902D0E068FDF77D
:1043F0001BFEA07E002809D0A0680168002912D009
:10440000217E00F060FCA07E00280CD1207E401CA4
:10441000C0B220762178884203D3FF202076012085
:1044200000E00020A0762E75F8BD0000094D04467E
:104430003221206B01F092F90028287805D000285D
:10444000F6D1E16C20468847F2E70028F0D1A16C54
:10445000F8E700003800002008B50C484169012247
:1044600011434161406903211040009000220A205D
:10447000FEF7A2FC0A20FEF793FC002203210B208A
:10448000FEF79AFC0B20FEF78BFC08BD00100240E3
:10449000F0B5A3B0002400946846019401F007F938
:1044A000354D01216861029402A8039401F00FF9CF
:1044B000A8610494012104A8059401F008F9E861B9
:1044C0002E4800F065F900F03BF92D4D10272868C3
:1044D00000280ED0006D006801683943016028682B
:1044E00038210A5C416B006DFFF700FD2868203021
:1044F000447600F0FBF8234E306800280ED0406E62
:10450000006801683943016030682C210A5C816AC7
:10451000406EFFF7EBFC3068203044731C221A49D0
:1045200006A8FBF7C5FE154906A801F049F9124C8B
:10453000154960601C221C310DA8FBF7B9FE0DA8BF
:10454000296801F03DF91049A0601C22383114A8F7
:10455000FBF7AEFE14A8316801F032F90A49E060B9
:104560001C2254311BA8FBF7A3FE04491BA801F031
:1045700027F9206123B0F0BD18000020700700204B
:104580000400002008000020887E0008F0B587B0F5
:1045900014216846FCF760F8414842690121C904CA
:1045A0000A43426142690A4005924269C9000A43CE
:1045B000426142690A400592426949110A434261D7
:1045C00042690A400592426949000A4342614069D2
:1045D000344F0840CE100590012231463846FEF790
:1045E00018FB092001220321C006FEF712FB01225D
:1045F0002D492E48FEF70DFB032040030025012422
:1046000000906946019502943846FEF72BFA019412
:1046100069463846009603950294FEF723FA03276D
:10462000092001946946C006009703950294FEF79D
:1046300019FA1F4800906946019502941B48FEF73D
:1046400011FA1C480090019469460395029417489A
:10465000FEF708FAA00300900194694603970294BC
:104660001248FEF7FFF921200004019069460096E8
:1046700002940E48FEF7F6F92003009009206946DF
:1046800001950294C006FEF7EDF9002203210720F0
:10469000FEF792FB0720FEF783FB07B0F0BD00009A
:1046A0000010024000080048084C000000040048C8
:1046B00007130000080C000010B509480749016005
:1046C000042141600749C16007498160FEF7AEFAE5
:1046D000002801D0FDF708FF10BD000000300040A9
:1046E000B0030020FF0F0000E204000000B50F4AF5
:1046F0009DB00020411C0623584311528018817040
:104700000171C8B20F28F5D3742209496846FBF736
:10471000CFFD0848694600680C90074800681C9067
:104720000648FDF7FDFD1DB000BD0000D0010020D2
:10473000147E00083400002004000020080000203F
:1047400000B595B0FDF7F8FF0007000F0F2800D95E
:10475000102069460870402008A9087408760848A7
:1047600069460068109007480F9007481490074862
:1047700012900448C01CFDF75DFD15B000BD00009F
:1047800030000020010000205004002080010020A3
:1047900010B506498166064941660649C166064963
:1047A00001672022054901F0BBFE10BDB15400088D
:1047B0008D5400087970000891700008E40700200B
:1047C00010B54B21C9010948FDF778FF074A0021C0
:1047D00020320648117481744171054B03601173D6
:1047E0008176044941610721417610BD2C020020E9
:1047F000C00300200804002010B50A4808490160E1
:104800002F21416000218160074A0161C2608161FE
:10481000FEF79DFE002801D0FDF766FE10BD0000EA
:104820000020004008040020FFFF000010B50948E8
:10483000074901602F2141600021074A8160C26061
:104840008161FEF784FE002801D0FDF74DFE10BD0A
:1048500000100040C0030020FFFF000010B50C480E
:104860000A490160E1214902416000218160C16083
:1048700001618161C1610C22016242614162FFF705
:104880004BFA002801D0FDF72FFE10BD0038014083
:104890005004002010B50C480A490160E12149028A
:1048A000416000218160C16001618161C1610C22B0
:1048B000016242614162FFF72FFA002801D0FDF743
:1048C00013FE10BD00440040D4040020FFB5044690
:1048D00017A205CA83B00090019222786846027040
:1048E0000A0A8270C1700026067159081D4641717E
:1048F000857127462037397CE06AFBF7ABFE7E7472
:1049000007226946E06AFBF73FFE787C2A46C01D15
:10491000C0B27874E16A08180599FBF735FE787C17
:1049200040197874226900212046904707B0F0BDF5
:104930000046000000000000C06B002806D00122E5
:10494000054B022903D0112900D11A70704719783C
:104950000029FBD00270704700000020F8B5054622
:1049600040300679022E01D2282700E0502700248B
:10497000B94211D2BB420FD8007B0F46283700281E
:104980000CD0A86C002E12D0C01911461A46FBF7A5
:10499000F5FD002800D001242046F8BD1046002E69
:1049A00002D0A96CC919F1E7AA6C5118EEE74018BA
:1049B000EBE7000070B5044625462035697E0020EF
:1049C000022905D9891E89B21E4A606BFDF7CCFE0B
:1049D000616B23780A789A422DD16A7E8A181E3A32
:1049E000537F167F1A02324353BA020A000202436F
:1049F00090B283421FD14878052811D004DC0128E9
:104A000007D0022817D104E00F2809D0112812D1AD
:104A10000AE0E16920468847606B6268417808E0F7
:104A2000216A2046884706E0616A20468847626816
:104A3000112120469047697E606BFBF70BFE00203A
:104A4000687670BDFFFF000038B505462035044686
:104A5000002913D1697C0F4AE06AFDF785FE014603
:104A600068460180697CE06A4118684600780870F1
:104A7000684640784870687C801C68746A7CE16A8B
:104A8000206DFFF767FA206D0068C169C9434906C8
:104A9000FBD438BDFFFF000070B50446006D0D4625
:104AA0000068C169C943C90619D410210162002CEC
:104AB00010D0606B00280DD0206DFEF799FF2046C6
:104AC00029682030027E4968511A4176616B206D59
:104AD000FFF70CFA206C002801D000F019FE70BD21
:104AE000FEB5416B0446487909790002084340BA93
:104AF000C6B2F008710700D001214018019030467D
:104B000001F098F80090002861D03146FBF7A2FD33
:104B100025462035297CE06AFBF79CFD00276F7451
:104B2000616BE06A0A78027049784170687C01998B
:104B3000801CC0B2431CE26A6B741154616B4878EC
:104B4000012801D0012200E00022204640300271FD
:104B50000773C87889780002084341BAA7693346C9
:104B60002046009AB84700212AE00020CA00944657
:104B70001DE0009B9A5CD207D20F08D0E76A6B7CDD
:104B8000BE46FF5C82403A437746FA540BE0E36A44
:104B900002936F7CBE46DB5D17461A468740BA43D8
:104BA000029B7746DA55401CC0B2082803D2624601
:104BB0001218B242DDD3687C401C491C6874C9B22B
:104BC00001988142D1D32269002120469047009864
:104BD00002F02CFBFEBD70B5054604462035297C4D
:104BE000C06AFBF737FD00206874616BE06A0A78E1
:104BF000027049784170687CE36A801CC0B2411C35
:104C0000012269741A54FDF797FD697C0246481C1D
:104C1000E36A68745A54226900212046904770BDA7
:104C2000F8B5044600214030017101210173606B29
:104C300025464178203505294179027906D00802B8
:104C4000104340BAC3B20020E26A1DE008021043DC
:104C5000FF2140BA0902884201D1012000E0002072
:104C6000694608700123687E6A4668741E4610E033
:104C7000C108666BC91D715C4607760FF140C90714
:104C8000C90F1154401CC0B29842F1D30620687479
:104C90000026002A08D0616BA769C87889780002CD
:104CA000084341BA2046B847297CE06AFBF7D2FCAA
:104CB0006A7C616BE06AFBF767FC2269314620463B
:104CC0009047F8BDFEE770B5FDF710FC04000BD06F
:104CD0002068401C08D0204602F0E4F90546204632
:104CE00002F0A4FA284670BD002070BD7047000095
:104CF00010B5074C002208212046FDF78AFF054821
:104D000000F0C8FC012208212046FDF782FF10BDFB
:104D100000040048AC0D00000446204602F0A2F852
:104D2000FBE7000010B5FBF79BFA044602F07EFE9D
:104D3000002803D001200349000748602046FBF704
:104D400093FA10BD00ED00E070B594B030216846D4
:104D5000FBF782FC002401250F9409200E9400909B
:104D60001394280409900C940D941094000111944C
:104D70001294019502260A90089607950B946846AE
:104D8000FEF782F9002801D072B6FEE707200C90EA
:104D90000E9401210D960F940CA8FEF785F80028BB
:104DA00001D072B6FEE710A810951294FEF708F82D
:104DB000002801D072B6FEE714B070BD7047000045
:104DC00010B50248FEF759FC10BD00000804002091
:104DD00010B50248FEF751FC10BD00006806002027
:104DE00010B50248FEF749FC10BD0000C0030020CA
:104DF000F0B502681A4B1B4C984201D0A04203D177
:104E00007025AA434D682A43174D184E184F9842F3
:104E10000AD0A04208D0174CA04205D0A84203D027
:104E2000B04201D0B84205D1144603221202944385
:104E3000CA6822438024A2434C69224302608A68E4
:104E4000C2620A688262984205D0A84203D0B0428A
:104E500001D0B84201D10969016301214161F0BD6E
:104E6000002C01400004004000400140004401408B
:104E7000004801400020004010B5818CC90707D0D0
:104E800001684A6801235B049A43836A1A434A60B3
:104E9000818C890707D501684A6801231B049A435E
:104EA000C36A1A434A60818C490707D501684A687A
:104EB00001239B049A43036B1A434A60818C0907C0
:104EC00007D501684A680123DB039A43436B1A4301
:104ED0004A60818CC90607D50268916801231B03CB
:104EE0009943836B19439160818C890607D50168CA
:104EF0008A6801235B039A43C36B1A438A60818CDF
:104F0000490612D503685A6801210905046C8A43D1
:104F100022435A60026C8A4207D102685168032317
:104F20005B059943436C19435160818C090607D591
:104F300001684A680123DB04806C9A4302434A609B
:104F400010BD0000F8B50446002680300660FDF76D
:104F500067FE054620680068124F000709D5012149
:104F60002B46002249052046009700F001FA002850
:104F70000DD12068006840070BD501212B46002287
:104F800089052046009700F0F3F9002801D003209E
:104F9000F8BD2020A067E0672666603426750020F3
:104FA000F8BD0000FFFFFF0110B5406A0022014676
:104FB00040314A834A82FEF768FD10BD70B5446AED
:104FC000A06FE56F2168896800260906002906DAC6
:104FD000212804D152200653204600F0C6F820684C
:104FE0008068400606D5222D04D15A20065320465B
:104FF00000F08CF8204680300168102211430160D7
:105000002046FEF742FD70BD10B501468969406A31
:10501000202938D000225A210A52EFF310810122B0
:1050200082F3108802681368FF240134A3431360DD
:1050300081F31088EFF31081012282F31088026857
:1050400093685B085B00936081F31088EFF3108135
:10505000012282F31088026893684024A34393607E
:1050600081F310882021C167016E01290BD1EFF374
:105070001081012282F31088026813681024A34370
:10508000136081F31088016E012902D0FEF760FFE2
:1050900010BD5821095AFEF7AAFC10BD10B5406A90
:1050A000016E012902D0FEF754FF10BD5821095AA4
:1050B0004908FEF79CFC10BD10B501468969406A9D
:1050C00020291BD0002252210A52EFF31081012225
:1050D00082F31088026893688024A343936081F36D
:1050E0001088EFF31081012282F3108800680268B3
:1050F00040231A43026081F3108810BDFEF78AFF37
:1051000010BD10B5406AFEF786FF10BD10B5EFF375
:105110001081012282F3108802681368FF24213471
:10512000A343136081F31088EFF31081012282F30F
:105130001088026893685B085B00936081F31088B5
:10514000016E01290BD1EFF31081012282F3108847
:10515000026813681024A343136081F31088202190
:10516000C16700210166416610BD10B5EFF31081E3
:10517000012282F3108802681368C024A3431360DD
:1051800081F310882021816710BD000070B50446AE
:1051900080682169E269084361690025114322683A
:1051A00008431168404B1940014311602168486869
:1051B000032212039043E26810434860A169206A09
:1051C000084321688A680B231B029A4302438A60C2
:1051D00036492068884210D13548006B8007800F1F
:1051E0000ED0012805D0022805D003280AD10221BB
:1051F00009E0042107E0082105E02E49884201D199
:10520000002100E010210120E369C0032A4A2B4E4F
:10521000834223D1002906D0022907D0042907D0D0
:10522000082937D108E0FDF7DFFE03E0104603E070
:10523000FDF7EAFE002831D0616840004A08801876
:10524000FBF750FA80B201461039B14222D81B490F
:10525000491C01400007400F08431DE0002906D00B
:10526000022907D0042907D0082913D108E0FDF747
:10527000BBFE03E0104603E0FDF7C6FE00280DD09C
:1052800061684A081018FBF72DFA80B20146103900
:10529000B14201D9012501E02168C86000206066A3
:1052A000A066284670BD0000F369FFFF003801408A
:1052B000001002400044004000127A00EFFF00009E
:1052C000F8B5044641654030002627460283803702
:1052D0003E602220E0672546206F603500281BD005
:1052E00020498162216F2048C862216F1F480863EE
:1052F000206F13464663606D216884466246243100
:10530000206FFDF74BFB002806D0102038602E756B
:105310002020E0670120F8BD2E75EFF310800121F9
:1053200081F3108821680A68FF2301331A430A6059
:1053300080F31088EFF31080012181F31088226838
:1053400093680B43936080F31088EFF3108081F330
:10535000108821688A6840231A438A6080F3108885
:105360000020F8BD095000089D500008BD4F0008FE
:10537000FFB581B005461746044660350A9E55E0E4
:10538000701C53D0FDF74CFC0499401AB04230D841
:10539000002E2ED020680168490747D5C069C04358
:1053A000000543D401202168C0020862EFF3108099
:1053B000012181F3108821680B68FF22A1329343F9
:1053C0000B6080F31088EFF31080012181F31088C7
:1053D00021688A68520852008A6080F31088202071
:1053E000A067E0678034206000202875032005B0A6
:1053F000F0BDEFF31080012181F3108821680B6864
:10540000FF22A13293430B6080F31088EFF31080EA
:10541000012181F3108821688A68520852008A604D
:1054200080F310882020A067E067DDE72068C1696D
:105430000298884304D00020B842A1D00020D6E7CB
:105440000120F9E710B505480068002802D08268FD
:10545000034990470348FEF719FB10BD04000020E4
:10546000580500205004002010B5054800680028A9
:1054700002D0026D034990470348FEF707FB10BDB9
:1054800008000020E0050020D404002010B50C46E0
:105490000A460146044B0548FDF7BAFF002800D034
:1054A0000024204610BD0000FFFF00002C02002059
:1054B00010B50C460A460146044B0548FDF7FAFFB5
:1054C000002800D00024204610BD0000FFFF00008F
:1054D0002C020020FFB581B00C460527FDF7A0FB8C
:1054E00025460646203511E0FDF79AFBB04207D26B
:1054F000FDF796FB801B0499401E884206D909E0FF
:10550000FDF78EFB811B0498814203D8687B00283D
:10551000EAD002E0687B00281AD06A7BA16A0020EA
:105520008854A06A0399FAF797FF002801D006274C
:1055300009E020460CA12830FAF78EFF002801D0A0
:10554000042700E0052709A1A26A019801F01EFACC
:10555000002C05D0697BA06AFBF77CF800206873FB
:10556000384605B0F0BD0000455252003E5B4D4349
:10557000553C2D4C3130315D3A25730D0A00000049
:10558000F8B5040C8BB2264682B25E430D0C104671
:10559000370C5843360480190021794116466E4372
:1055A000370C36048019794126466E438919F8BDB7
:1055B00030B47446641E2578641CAB4200D21D468C
:1055C000635D5B00E31830BC184700004900CA0265
:1055D0000243100000D004204A0D01D001221043E4
:1055E000044A490D914201D102210843012800D10A
:1055F00005207047FF0700008307FF22DB0E9A405B
:105600008907090E9940002808DB830809489B0098
:105610001B18186890430843186070470007000F74
:105620000838830804489B001B18D8699043084336
:10563000D861704700E400E000ED00E030380A284F
:1056400001D20120704700207047EFF30580002849
:1056500000D001207047FDF72FFBFFF775FBFEF729
:1056600095FFFEF7F9FEFFF715F9FFF7DFF8FFF7F3
:10567000C3F8FFF721F8FFF7F1F8FFF7A1F8FEF7FD
:1056800007FF00F00FF8FEE701460020842900D054
:10569000C81C704710B5002800D1012001F0F4FDAE
:1056A000002010BD10B501F05FFE002010BD10B548
:1056B0004168002903D0012001F00BFF10BD01203B
:1056C00001F0FCFE10BD812070478120704738B585
:1056D0004368002B09D0012909D103200022009042
:1056E0001146012001F020FF38BD012901D0002022
:1056F00038BD03220021012001F0F8FE040004D08F
:1057000000231A46194601F065FF204638BD000007
:1057100038B5002405460094FFF797FF00280FD006
:105720006946284601F0E2FF012801D0FF2038BD7C
:10573000009800280DD0012007490007486008E0C4
:1057400000231A461946284601F044FF012800D0DC
:10575000FF24204638BD000000ED00E038B50546C6
:1057600000200090002D11D00024481C10D00029EA
:1057700000D00C46FFF769FF002814D06A460021CC
:10578000284601F0EDFF012813D104E0802038BD48
:105790000024E443EEE7009800280CD001200749DC
:1057A0000007486007E02146284602F015F8012866
:1057B00001D0FF2038BD002038BD000000ED00E022
:1057C0007FB50D46044641690820205E002911D0AE
:1057D000A16900290ED0FFF757FF6B46A2696169E6
:1057E00007C32B4622692168606802F0ECF8039039
:1057F00004B070BDFFF748FF03A901910090208A13
:105800002B4682B22168606802F0B4F8012801D00A
:105810000020EDE70398EBE7F8B5134C0F466669F7
:1058200005462068001D01F03DFC681C07D1002FD3
:1058300005D021680D48091D01F0D2FCF8BD206893
:10584000751945602168B54204D2A068091D01F0B0
:10585000AFFCF8BD6068091D01F0AAFC206B854211
:10586000F7D22563F8BD000028010020E0080020E1
:10587000F8B5054601F0C0FC294C2069401C2061A8
:105880002068284F002803D0E069002827D02CE0AA
:1058900025602069012828D1002614207043C019F2
:1058A00001F078FC761C072EF7D31E488C3001F0EF
:1058B00071FC1C48A03001F06DFC1A48B43001F0B6
:1058C00069FC1848C83001F065FC1648DC3001F06E
:1058D00061FC14488C3060601430A06005E02068E2
:1058E000E96AC06A884200D82560E06A401CE0622C
:1058F000E86AA169884200D9A06114214843C0190F
:10590000291D01F06DFC01F083FCE069002806D040
:105910002068E96AC06A884201D201F0A9FCF8BD9A
:10592000280100200408002010B5026C0C46002A53
:105930000CD0C1688B18C36041688B4201D21946F4
:1059400001E00168C1602046FAF71EFE10BDF8B5FF
:10595000856B174604460026026C002A11D0002FE2
:1059600019D0E068FAF710FEE168206C091AE160CE
:105970002268914202D26168081AE060022F17D0B3
:1059800019E02068002816D1606802F0ADF80646DC
:10599000002060600FE0A068FAF7F6FD216CA068B7
:1059A0004018A0606168884205D32068A06002E0CA
:1059B000002D00D06D1E6D1CA5633046F8BD10B5DE
:1059C00004464030007B002805D0012806D002287C
:1059D00007D072B6FEE7206B01F028FC204601F0EC
:1059E00025FC10BD0F480E49420705D0C01DC00858
:1059F0000C4AC000821A891A0B4A0023411809C2B6
:105A00000839C908C900183A11604B600B600B1ABD
:105A10000AC093600120C0075360D0607047000047
:105A20009C140000F4080020740100200F4E104C5C
:105A30003746C83F11E001F0DFFBF068C568281D5C
:105A400001F030FB2069401E2061E068401EE060EC
:105A500001F0DEFB2846FFF7B2FFE0680028EAD13C
:105A600038680128F9D901F003FCF6E7CC080020DA
:105A70002801002010B5002807D0002141600160F6
:105A80000B460A46C16001F0A5FD10BD10B50346E6
:105A90000298002906D00260C3630164012101F06D
:105AA00063FD10BD0060F7E7FFB581B097000C9C67
:105AB0000E460A9DA5223946206BFAF7A6FD206BFB
:105AC0003F1FC019C708FF00780701D072B6FEE774
:105AD0002218315C20321175315C002902D0401C43
