:020000040802F0
:1000000050410424ED04020865C702089DB50208AA
:100010004DC70208772702087D150308000000007D
:100020000000000000000000000000002D04020895
:10003000913F02080000000089040208CDDB02089D
:100040000705020807050208070502080705020858
:10005000AD4602080705020889450208C74502089F
:10006000D1450208DB450208E5450208653602086D
:10007000753602088536020895360208A53602084C
:10008000B5360208C536020807050208070502084A
:10009000070502080705020807050208EF450208E0
:1000A00007050208070502080705020807050208F8
:1000B00007050208070502080705020807050208E8
:1000C00007050208070502080705020807050208D8
:1000D00007050208FDEB020815EC02082DEC0208EA
:1000E0009345020807050208000000000705020802
:1000F000070502080705020807050208D5360208A9
:100100000705020807050208070502080705020897
:1001100021E002083DE00208070502080705020881
:10012000E5360208F5360208070502080705020849
:100130000705020807050208070502080705020867
:1001400000000000000000000000000000000000AF
:100150000705020807050208070502080705020847
:100160000705020807050208070502080705020837
:10017000070502080705020807050208000000003D
:100180000705020807050208070502080705020817
:100190000705020807050208070502080705020807
:1001A00007050208070502080705020807050208F7
:1001B00007050208070502080705020807050208E7
:1001C00007050208070502080705020807050208D7
:1001D0000705020861C802080705020807050208AA
:1001E00007050208070502080705020807050208B7
:1001F00007050208070502080705020807050208A7
:100200000705020807050208070502080705020896
:100210000705020807050208E5DD020807050208D0
:10022000070502080705020807050208000000008C
:10023000070502080705020800000000070502087C
:100240000705020807050208070502080705020856
:100250000705020807050208070502080705020846
:100260000705020807050208070502080705020836
:10027000070502080705020807050208000000003C
:10028000070502080705020807050208000000002C
:10029000000000000705020800F002F800F0B6F8C0
:1002A0000AA090E8000C82448344AAF10107DA45D1
:1002B00001D100F0ABF8AFF2090EBAE80F0013F06D
:1002C000010F18BFFB1A43F00103184734930100D4
:1002D000549301000A444FF0000C10F8013B13F056
:1002E000070408BF10F8014B1D1108BF10F8015B8F
:1002F000641E05D010F8016B641E01F8016BF9D182
:1003000013F0080F1EBF10F8014BAD1C0C1B09D1D8
:100310006D1E58BF01F801CBFAD505E014F8016B4A
:1003200001F8016B6D1EF9D59142D6D370470000DC
:100330000023002400250026103A28BF78C1FBD8EE
:10034000520728BF30C148BF0B6070476E2900F0CC
:100350004D84702900F09785662918F04A82652936
:1003600018F04782672918F04482612918F0438207
:1003700003681B0A28BF41F08001692900F0FA8355
:10038000642900F0F783752900F0F4836F2900F0E9
:100390002485782900F06385E92900F0BF84E429E9
:1003A00000F0BC84F52900F0B984EF2900F0218524
:1003B000F82900F062850368DB0928BF41F080015D
:1003C000632901F08782732901F08C82E32901F00F
:1003D0009782F32901F09C82002070471FB518F026
:1003E00003FA9DE8030000F021FB01F0EBFA0400A2
:1003F0000020002118F0DAF9401C60600020002184
:1004000018F0BEF9E0601FBD10B510BD01F0ACFAE8
:100410001146FFF7E3FF12F019FC01F089FB03B46A
:10042000FFF7F2FF03BC01F0B9FB00002C4B196889
:100430000868B0E8F04F80F30988BFF36F8F4FF082
:10044000000080F311887047000000000848006831
:10045000006880F308884FF0000080F3148862B6CB
:1004600061B6BFF34F8FBFF36F8F00DF00BF00BFD8
:1004700008ED00E0DFF80C00016841F47001016054
:10048000704700BF88ED00E0EFF30980BFF36F8F86
:10049000134B1A681EF0100F08BF20ED108A20E9D8
:1004A000F04F106009B44FF0500080F31188BFF393
:1004B0004F8FBFF36F8F16F045FE4FF0000080F3B3
:1004C000118809BC19680868B0E8F04F1EF0100FD9
:1004D00008BFB0EC108A80F30988BFF36F8F7047B4
:1004E00048080024EFF30580704700000948804762
:1004F00009480047FEE7FEE7FEE7FEE7FEE7FEE706
:10050000FEE7FEE7FEE7FEE704480549054A064B1D
:1005100070470000DDDC020899020208503704240D
:1005200050410424503904245039042470B506463F
:1005300000F060FA056806F10B0020F00704B442F1
:100540009CBF002070BD2B466A68BAB11068A042FB
:1005500010D304F1080188423CBF5068586007D3AB
:100560005168101941601168091B016058601460DE
:10057000101D70BD13465268002AE7D12146284657
:1005800000F040FA0028DED170BD70B50446051FAA
:1005900000F030FA0068002C14BF446870BD002CD5
:1005A00018BFAC423CBF20466468F8D301680A1803
:1005B000AA4218BF456003D12A680546114401606C
:1005C00028684119A1421CBF6C6070BD61686960F8
:1005D00021680844286070BD53EA020C00F069806D
:1005E0002DE9F04B4FF00006002B1FBFB3FA83F547
:1005F00003FA05F424FA05F65E4012BF1643B2FA78
:1006000082F502FA05F4C5F120051EBF22FA05FCA9
:1006100044EA0C04203556EA044C4FEA144418BF4F
:10062000641C4FF000084FF00009904271EB030C7E
:1006300039D3002919BFB1FA81F701FA07F6B0FAE8
:1006400080F700FA07F6C7F120071EBF20FA07FC63
:1006500046EA0C062037B6FBF4FCA7EB0507103F73
:1006600007F01F0BCBF120060CFA0BFB2CFA06F659
:1006700044BFB3460026202FA4BF5E464FF0000BB8
:100680005BEA060C08BF4FF0010B19EB0B09ABFB43
:10069000027C48EB0608C01B06FB02CC0BFB03CC1C
:1006A00071EB0C01C1E70B46024641464846BDE8E6
:1006B000F08B13B54FF000004FF00001AFF3008056
:1006C000BDE81C40704700007CB51D4616460C0076
:1006D000009001D02044401E074B7B442A466946C7
:1006E0000190304600F09BFA05461CB10020694697
:1006F00000F0A8FA28467CBD7105000030B505461B
:100700000B462A4613F8014B12F8010B08B1A04220
:10071000F8D01CB1002802D06D1CF1E7284630BD8E
:1007200010B5431C02E010F8011B71B18107FAD12A
:100730004FF0013202C88C1A8C4314EAC211F9D06E
:10074000C01A0A0603D0C01E10BDC01A10BD0A048C
:1007500001D0801E10BD0902FCD0401E10BD40EA31
:10076000010370B59B072ED14FF00136042A2AD31E
:1007700008C810C99D1B9D43121F15EAC61517D046
:10078000D8B2E1B2401A50EA056110D198B2A1B2D4
:10079000401A50EA05410AD123F07F4024F07F41FE
:1007A000401A50EA052102D1180EA0EB146070BD6A
:1007B000A342DBD018BA21BA884201D9012070BD0A
:1007C0004FF0FF3070BD0AB9002070BD10F8013B3A
:1007D00011F8014B63B1A3420AD1521E08D010F8A0
:1007E000013B11F8014B1BB1A34201D1521EEDD1C7
:1007F000181B70BD032A40F2308010F0030C00F08B
:10080000158011F8013BBCF1020F624498BF11F84A
:1008100001CB00F8013B38BF11F8013BA2F1040203
:1008200098BF00F801CB38BF00F8013B11F003037B
:1008300000F02580083AC0F0088051F8043B083ADF
:1008400051F804CBA0E80810F5E7121D5CBF51F881
:10085000043B40F8043BAFF30080D20724BF11F8FB
:10086000013B11F801CB48BF11F8012B24BF00F860
:10087000013B00F801CB48BF00F8012B704710B5D1
:10088000203AC0F00B80B1E81850203AA0E8185088
:10089000B1E81850A0E81850BFF4F5AF5FEA027C49
:1008A00024BFB1E81850A0E8185044BF18C918C0B8
:1008B000BDE810405FEA827C24BF51F8043B40F859
:1008C000043B08BF7047D20728BF31F8023B48BF3E
:1008D00011F8012B28BF20F8023B48BF00F8012B7C
:1008E000704702F0FF0343EA032242EA024200F0AB
:1008F00002B84FF000020429C0F0128010F0030C7F
:1009000000F01B80CCF1040CBCF1020F18BF00F802
:10091000012BA8BF20F8022BA1EB0C0100F00DB8B1
:100920005FEAC17C24BF00F8012B00F8012B48BF0F
:1009300000F8012B70474FF0000200B513469446B3
:100940009646203922BFA0E80C50A0E80C50B1F127
:100950002001BFF4F7AF090728BFA0E80C5048BF3B
:100960000CC05DF804EB890028BF40F8042B08BFD9
:10097000704748BF20F8022B11F0804F18BF00F8D5
:10098000012B70474FF0013C50F8042B51F8043B09
:100990009A4215D1A2EB0C03934313EACC130BD16B
:1009A00050F8042B51F8043B9A4209D1A2EB0C03F6
:1009B000934313EACC13E7D04FF00000704700BF19
:1009C000D01A01BAB1FA81F101F0180122FA01F04E
:1009D000CB40C1F12001DBB2C0B2C01A2CFA01F346
:1009E000D11A914311EAC311E6D17047704770479D
:1009F0007047000000487047F43604247047704781
:100A00007047704738B504460A4600206946AFF380
:100A10000080002808BF38BD02460099204600F03B
:100A200009FB012038BD012000F096BFF8B5AFF3F7
:100A30000080054600200C46102000BF0646A8197D
:100A4000A0420DD9324669460020AFF3008007006E
:100A500008BF00F081FF0098A04218BF0546C419E6
:100A6000FFF7C8FF05600746F01D20F00700461994
:100A7000284600F00AF8B44208BFF8BDA21B314670
:100A80003868BDE8F84000F0D5BA00210160C0E93F
:100A9000011070471020704710B500F0C7FA0068C9
:100AA00010BD10B5044600F0C1FA046010BD70B569
:100AB000044685690068C10601D5302600E020267D
:100AC000C00707D070BDD4E9012130469047206AA5
:100AD000401C20626D1EF6D570BD70B50446856958
:100AE0000078C00707D170BDD4E9012120209047CC
:100AF000206A401C20626D1EF6D570BD09684A054B
:100B000001D540B27047C905FCD500B270470968ED
:100B10004A0501D5C0B27047C905FCD580B27047FF
:100B200070B50C460546012A05D02878800600D508
:100B3000EA69002302E0012305E05B1C934202D234
:100B4000E05C0028F9D1A869E618C01AA861286AF3
:100B5000184428622846FFF7AAFF04E0D5E90121DE
:100B600014F8010B9047B442F8D32846FFF7B5FFBD
:100B700070BD00002DE9F04106460024106875297B
:100B8000314616A510D0FFF7B9FF002802DA40421F
:100B900013A507E031688A0701D512A502E04907CD
:100BA00004D511A5012401E0FFF7B1FF00210A22BD
:100BB00006F1240709E0B0FBF2FCB0FBF2F302FB04
:100BC0001C00303078541846491C0028F3D12346C5
:100BD0002A463046BDE8F04100F08BBA0000000024
:100BE0002D0000002B0000002000000011680268AA
:100BF000006A530501D508700AE0D30501D50880C5
:100C000006E0130603D5C217C1E9000200E0086040
:100C10000120704701694A1C02610878704700B5DD
:100C20008FB0CDE901310021059105497944CDE925
:100C300003101146684600F031F90FB000BD000006
:100C4000E5FFFFFF0A6802F8010B0A607047D1E96F
:100C500000239A4202D2531C0B60107070470000B0
:100C60002DE9FF5F15468A460446DFF8AC80F8445C
:100C70000027D8E900103E46CDE9001010E03AF810
:100C800016106A4602A800F047FE411C07D02178E2
:100C9000890603D5E269391891420DD80744761CBC
:100CA0002078800602D5E069B84205DDAE42E6DB79
:100CB0003AF816000028E2D1A069C01BA0612046C6
:100CC000FFF7F5FED8E90010CDE90010002017E08D
:100CD0003AF818106A4602A800F01EFEB0F1FF3F75
:100CE00081460BD000250DF1080B05E0D4E9012168
:100CF0001BF8050090476D1C4D45F7D308F1010026
:100D0000B0428046E4DB206A384420622046FFF788
:100D1000E4FEBDE8FF9F00004E8201002DE9F04196
:100D20008046D21D22F007020025D2E90002F529F3
:100D300015A614D0011E72F1000106DA0023D0EBD3
:100D4000030063EB020211A608E0D8F800108B073D
:100D500001D50FA602E0490701D50EA601251146CF
:100D6000002408F1240704E000F07EF930323A55FF
:100D7000641C50EA0102F7D12B4632462146404618
:100D8000BDE8F04100F0B5B9000000002D00000002
:100D90002B0000002000000030B4002100F12404EA
:100DA00008E002F00705D208303542EA4372DB085A
:100DB0006554491C52EA0305F3D10468002310A2CC
:100DC000250707D5A40600D421B1C46901230DA2CB
:100DD000641EC46130BC00F08CB910B504462146D5
:100DE0001068FFF794FE02462046BDE8104000233D
:100DF000D2E7D21D22F00701D1E90023CCE70000A1
:100E00000000000030000000F0B40D460188090524
:100E100002D5214C7C4402E01F4C7C440E3400215E
:100E200000F1240608E002F00F071209E75D42EA2C
:100E300003721B097754491C52EA0307F3D1027865
:100E40000023120704D5702D06D009B102231134F6
:100E50002246F0BC00F04DB901231034F8E770B51C
:100E600004460D4621461068FFF751FE024629460A
:100E70002046BDE870400023C6E7D21D22F00703DC
:100E8000D3E90023C0E70368126843F0200303603E
:100E90000823C3610023B7E7B08001002DE9F05FAC
:100EA000894604464FF0000ADFF874B1FB44C0F8ED
:100EB00020A02046E1688847002874D0252806D065
:100EC000D4E901219047206A401C2062F1E7002606
:100ED0005F462046E16888472028054607DB312D1C
:100EE00005D2781910F8200C08B10643F1E7B007D5
:100EF00001D526F00406C4F81CA00027C4F818A0E9
:100F00002A2D09D0284611F085FE38B304EB870856
:100F1000303DC8F8185019E059F8041B204604EB7E
:100F200087029161E1688847012F054618D1E06981
:100F3000002820DA26F020061DE0D8F8180000EB83
:100F4000800005EB40003038C8F818002046E16802
:100F50008847054611F05EFE0028EED1012F0AD029
:100F60002E2D08D12046E16888477F1C0546022FB8
:100F700046F02006C4DBA069002803DA404246F0B0
:100F80000106A061F00701D026F010066C2D0BD0F1
:100F9000682D09D04C2D39D06A2D35D0742D35D01F
:100FA0007A2D33D016E038E0E1682F462046884796
:100FB000B842054609D16C2F26D04FF48060E16815
:100FC000064320468847054604E06C2F1AD04FF4AC
:100FD000807006430DB3A5F14100192802D82035D1
:100FE00046F400664A462946204626604E46FFF7EC
:100FF000ADF980B101280BD0F61D26F0070000F1F5
:10100000080956E74020E4E78020D8E70020D6E72B
:1010100006F104094DE7284652E7206ABDE8F09F33
:101020004080010000487047EC36042400487047B7
:10103000EC360424034640688C46002818BF8842DA
:101040003CBF03464068F8D318681844884207D06C
:101050000CF1030020F00700001D411A521A01464E
:10106000081D0A60FFF791BA30B5B0F10A024FEAE5
:10107000900E71F100034EEA817EB0EB0E0061EB41
:1010800091014FEA101E4EEA017E10EB0E0041EB7B
:1010900011114FEA102E4EEA016E10EB0E0041EBDB
:1010A00011214FEA104E4EEA014E10EB0E0041EBBB
:1010B0001141401841F100014FEAD00040EA41706F
:1010C0004FEAD10110EB80054FEA810444EA9074A5
:1010D00044EB01046D1944EB0404521BA3414FF08F
:1010E000000348BF0A3200D530BD401C41F1000169
:1010F00030BD2DE9F0470D4699469246044600F171
:1011000024080168880604D5E06921F010012160F7
:1011100000E00120A84201DD471B00E00027A16993
:101120007A1902EB0900081AA0612078C00602D4DF
:101130002046FFF7BCFC002608E0D4E901211AF89C
:1011400006009047206A401C761C20624E45F4DB66
:101150002078C0060AD52046FFF7A9FC06E0D4E9AE
:10116000012130209047206A401C2062381EA7F1E0
:101170000107F4DC07E0D4E9012118F805009047E5
:10118000206A401C2062281EA5F10105F3DC2046E0
:10119000FFF7A3FC2078000602D50220BDE8F08707
:1011A0000120FBE770472DE9FF4F0C461E464FF02C
:1011B000FF378BB0D2E90001DDF860800A908A46E3
:1011C000C1F30A5505B93D46002108464FF000001D
:1011D000BAF1000F00F4400005DA00EB80004FF494
:1011E000400101EA50004FEA9059B9F1010F00DDCA
:1011F000B9460A9850EA4A000ED044F61050A5F2BB
:10120000FF3545432F14B8F1000F1ED07542291E3B
:101210001EDDC9F100021CE0B8F1010F4FF0000023
:1012200001D0302103E0F24305E02154401CB042DC
:10123000FBDB30460022002121540B99C1F80880C5
:10124000C1E900200FB0BDE8F08FBD1B6D1CDEE7CB
:101250004A4600DA694206A800F0F8FB06AB93E8BC
:10126000070003AB83E8070050460A9900F0BCFC76
:101270008DE80700A0F500501F3800900398002D5E
:101280000ADD42F21F014A460844002303A90390E5
:10129000684600F025FF09E0A0F500504A461F38D7
:1012A000002303A90390684600F02FFF8DE8070094
:1012B0000004000C03D04FF0FF30410800E010465E
:1012C000B8F1000F03D00022009215461EE0751EF3
:1012D00005D4FFF7C9FE303262556D1EF9D5B3460D
:1012E0000122084302D000227F1C04E0207830282D
:1012F00001D100227F1E002A099784D01DE0112D04
:1013000007DAFFF7B1FE303262556D1C50EA010278
:10131000F5D1084302D00098C8B10EE00021681E44
:1013200005E0235C625C63542254401E491C8142E8
:10133000F7DBAB46A81B401E0990002004F80B0009
:101340000B98099AC0F80880C0E9002B7AE71126AB
:101350004FF0000857E72DE9F04F88460446D21DAC
:1013600022F0070191B0D1E90001CDE90A0110F0A6
:1013700055F902460B98C00F01D02D2007E02068D8
:10138000810701D52B2002E0202101EAC000032AB9
:10139000099001D0072A05DB03464146204600F0AC
:1013A00015FB0BE12078800601D5E06900E00620FE
:1013B000B8F1650F814606D0B8F1660F18D0B8F1C4
:1013C000670F70D131E00020B9F1110F009001DBFF
:1013D000112301E009F101030AAA01A90CA8FFF7F2
:1013E000E2FEDDE90C70002609F10105834647E0C5
:1013F00001204B4600904FF000470AAA01A90CA813
:10140000FFF7D1FEDDE90DB00C995D46002610B95D
:1014100009F101000D18B9EB050003D4C0F1FF3646
:1014200009F10105A5EB09002BE0B9F1010F01DA83
:101430004FF001090020B9F1110F0090484601DD7D
:10144000112300E003460AAA01A90CA8FFF7ABFE8E
:10145000DDE90C704D4600268346207800070AD44B
:10146000AB4500DA5D4601A8012D04DD411911F8F4
:10147000011C302907D04F4502DA17F1040F04DAB6
:10148000012082460FE06D1EEEE7002F02DCED1B0F
:101490003E4403E0781CA84200DD7D1CB81B00F12F
:1014A000010A4FF000472078000703D4AA4501DB6A
:1014B0004FF0FF3A0021B7F1004F0DF143088DF8CE
:1014C000431024D002202B23002F01DA7F422D234A
:1014D0000A21021EA0F1010000DC5FB197FBF1FCC4
:1014E00097FBF1F201FB1C7C17460CF1300C08F85D
:1014F00001CDEEE7A8F1010003702188090501D5AF
:10150000452100E06521A0F1010800F8011C0998BF
:101510000FA9A1EB0807FF1D00B10120411901EB44
:10152000EA70A1693844081A401EA0612078C006FC
:1015300002D42046FFF7BBFA099828B1D4E901216B
:101540009047206A401C20622078C00622D52046A1
:10155000FFF7ADFA1EE0002E04DBB34502DD01A863
:10156000805D00E03020D4E901219047206A401CD2
:101570002062761CAAF101005FEA000A0AD100F09D
:1015800021FAC0680168405CD4E901219047206AD3
:10159000401C2062281EA5F10105DCDC07E0D4E92F
:1015A000012118F8010B9047206A401C2062381E68
:1015B000A7F10107F3DC2046FFF78FFA032011B0F3
:1015C00041E600002DE9F04F04460D46D21D22F001
:1015D000070089B0D0E900974846394610F01EF858
:1015E0000246F80F01D02D2307E02068810701D5BE
:1015F0002B2302E0202101EAC0038DF820300BB13B
:10160000012000E00020032A824601D0072A04DBE3
:101610002946204600F0DAF93FE12078800601D41F
:101620000D2500E0E569C7F30A560D2D49DA0021C2
:101630004FEA175B08464FF00000002F00F440000F
:1016400007DA00EB80004FF4400100EBD07001EAB4
:1016500060008115012901DD4FF0FF3100224FEAC2
:10166000850CBCF1180F06D31346ACF118004FF0EF
:101670008052C24003E04FF4801323FA0CF30CF1C4
:101680000C0CBCF1200F04D3ACF1200C09FA0CF0C7
:1016900001E007FA0CF000294FF0004801DD18B90D
:1016A0000FE00ED140450CD319EB02095F4121B97F
:1016B000404502D19F4329EA0209BBEB175F00D0E6
:1016C000761C2088000502D57B48784402E07A48E1
:1016D0007844193808AA302302F80A30037C0AF14A
:1016E0000101002E0AF1020A53546A4602DC4FF04F
:1016F000300101E04FF031014FF001088DF800108A
:1017000002D0A6F2FF3603E059EA470100D06B4E43
:10171000002D02DC2178090704D54FF002082E21A4
:101720008DF80110C44600210BE0C7F303433F01CD
:10173000C35C491C6D1E02F80830052908F1010838
:1017400001DA002DF1DC00210CE000EB1973491CDB
:101750001B786D1E082902F808304FEA091908F1B4
:10176000010801DA002DF0DC21688B0602D516E0B5
:10177000A8F10108E04505DD02EB080313F8013C80
:10178000302BF5D0B8F1000F09DD02EB080313F898
:10179000013C2E2B03D1090701D4A8F10108002D2B
:1017A00005DD3E2102F808106D1E08F10108407C9D
:1017B000002E02F8080008F1010804DA2D20764214
:1017C00002F8080002E02B2002F808000A214FF47A
:1017D0007A70864208F101080BDB96FBF0F3303398
:1017E00002F8083096FBF0F308F1010800FB1366DD
:1017F00001E0642E0CDB642096FBF0F3303302F83A
:10180000083096FBF0F308F1010800FB136601E0D5
:101810000A2E06DB96FBF1F0303002F8080008F1E2
:10182000010896FBF1F001FB1060303002F808006F
:10183000A16908F1010808EB050202EB0A00081A89
:10184000A0612078C00602D42046FFF730F9216A53
:1018500008AE01EB0A00206204E0D4E9012116F889
:10186000010B9047BAF1010AF7D22078C00602D5E1
:101870002046FFF71CF96E4609E016F8010B3E28DA
:101880000FD0D4E901219047206A401C2062B8F1B2
:101890000108F2D22046FFF720F909B00320BDE885
:1018A000F08F206A2844206203E0D4E9012130202F
:1018B00090476D1EEBD3F8E75578010002FCFFFF5F
:1018C00010B5436913B1AFF3008001E0FFF728F9C9
:1018D000012010BD127800F124010A7000224A7024
:1018E0000122EDE711684FF0FF32E9E710B54369D7
:1018F00013B1AFF3008001E0FFF7B2F9012010BD92
:10190000128800F1240182840022C2840122EDE7C2
:1019100011684FF0FF32E9E770B516460C460546F0
:1019200000F048F8036893F80101012806D0FF2C65
:101930000FD8185D68B101202C7070BDD3F8070175
:101940003246214603F2071303442846BDE870409F
:1019500018474FF0FF3070BD10B500F0F7F8BDE844
:10196000104000F0EEB870477546FFF75BFBAE46DF
:1019700005006946534620F00700854618B020B59B
:10198000FEF7C2FDBDE820404FF000064FF0000713
:101990004FF000084FF0000B21F00701AC46ACE817
:1019A000C009ACE8C009ACE8C009ACE8C0098D4684
:1019B0007047000010B500F005F8001D10BD00BF15
:1019C000ED6D0100004870470C3704242DE9F0410B
:1019D0001F46044603260168072A01F4006004DB61
:1019E00008B116A505E016A503E008B115A500E0AD
:1019F00015A521F010002060A069C01EA0610FB1E4
:101A0000401EA0612046FFF752F84FB1D4E90121F2
:101A100038469047206A401C2062C01C206206E0C5
:101A2000206AFAE7D4E9012115F8010B9047761EE8
:101A3000F8D22046FFF751F8BDE8F0814E414E0044
:101A40006E616E00494E4600696E66002DE9F047F2
:101A5000814616468AB0354878440DC88DE80D0099
:101A600032487844801C03AC0DC884E80D0041F670
:101A70009B300844372190FBF1F290FBF1F5A5F182
:101A8000800501FB12041B3C02D56442012000E0EA
:101A90000020DFF898A080460027FA44AAF1BE0A89
:101AA0000EE0E0070AD03246684607EB4701012303
:101AB0000AEB810100F029FB8DE8070064107F1C10
:101AC000002CEED1194F7F44AE3F19E0E80715D046
:101AD00007EB04100DF1180A90E80E008AE80E00DA
:101AE000C068F04201D1981908903246012306A936
:101AF00003A800F00AFB03AB83E807006D10641C29
:101B0000002DE3D14FF0010332466946B8F1000FD2
:101B100003A802D000F0E4FA01E000F0F6FAC9E907
:101B20000001C9F808200AB0BDE8F0875875010027
:101B300010B50446AFF300802046BDE81040FEF724
:101B40006EBC002801D000F029B8704710B50128FC
:101B500005D0002103A000F027F8012010BD09A145
:101B6000F8E7000053494752544D454D3A204F7510
:101B700074206F662068656170206D656D6F727985
:101B8000000000003A2048656170206D656D6F723D
:101B90007920636F72727570746564000149182052
:101BA000ABBEFEE72600020070B505460C460A20D3
:101BB00000E06D1C00F011F835B128780028F8D14C
:101BC00002E0641C00F009F814B120780028F8D174
:101BD000BDE870400A20AFF3008008B569468DF873
:101BE00000000320ABBE08BD5FEA400C08BF91F0C7
:101BF000000F4FEA8C234FEAC12243EA51514FEACA
:101C00001C5018BF00F5F0404FEA300018BF41F0FB
:101C100000415FEA6C5C00F02980BCF1FF3F08BF27
:101C200040F080407047130C06BF12044FF0100CB8
:101C30004FF0000C130E04BF12020CF1080C130F2E
:101C400004BF12010CF1040C930F04BF92000CF1BD
:101C5000020CD30F04BF52000CF1010C11464FF0DF
:101C60000002A0F11F00A0EB0C00704711F0004F24
:101C700008BF704731F000413FF4D5AF0B0C06BFF1
:101C800009044FF0100C4FF0000C0B0E04BF0902BA
:101C90000CF1080C0B0F04BF09010CF1040C8B0FA5
:101CA00004BF89000CF1020CCB0F04BF49000CF1FA
:101CB000010CCCF12003A0EB0C0022FA03F302FA92
:101CC0000CF241EA030100F10100704720F07F4C63
:101CD00080EA030023F07F47ACEB070303F57C5356
:101CE00000F0004003F1FF032DE980494FEA154B56
:101CF00009B44FEA144325EA0B4E24EA03480FF2D5
:101D0000042606EB132749083E785FEA320203FBFC
:101D10000667C7F5000707FB06F64FEA54374FEA98
:101D2000D64606F1020607FB066CCCF1005C4FEAD2
:101D30001C472CEA074C07FB06F40CFB06F504EBEA
:101D400015464FEA961634BF00204FF000404FEA88
:101D5000D13706FB07FC4FEA1C4C0CFB0BF7D21BE0
:101D600003FB0CF761EB07010CFB0EF7B0EB074030
:101D700072EB17420CFB08F734BFA2EB0742B2EB41
:101D8000074261EB17414FEA0C444FEA910706FB0B
:101D900007FC4FEA1C4C0CFB0BF7B0EBC74072EB97
:101DA000573203FB0CF734BFA2EBC742B2EBC7427A
:101DB00061EB57310CFB0EF7B0EBC70072EB5772BB
:101DC0000CFB08F734BFA2EBC702B2EBC70261EB12
:101DD0005771039F4FEA816141EA921104EBCC04F1
:101DE0004FEAD1374FEA826206FB07FC42EA9012C3
:101DF0004FEA80604FEA1C4C0CFB0BF7D21B03FB35
:101E00000CF761EB07010CFB0EF7B0EB074072EB30
:101E100017420CFB08F734BFA2EB0742B2EB0742B4
:101E200061EB17414FEA8C554FEA910704EB9C2474
:101E300006FB07FC4FEA1C4C0CFB0BF7B0EBC74052
:101E400072EB573203FB0CF734BFA2EBC742B2EB85
:101E5000C74261EB57310CFB0EF7B0EBC70072EBDA
:101E600057720CFB08F734BFA2EBC702B2EBC702F4
:101E700061EB577115EB4C254FEA816141EA9211F4
:101E80004FEA82624FEAD13742EA901206FB07FC22
:101E900044F100044FEA80604FEA1C4C0CFB0BF746
:101EA000D21B03FB0CF761EB07010CFB0EF7B0EB49
:101EB000074072EB17420CFB08F734BFA2EB074256
:101EC000B2EB074261EB174115EB1C154FEA81316C
:101ED00041EA92414FEA823242EA90424FEA803030
:101EE0004FEA0C7644F1000448EA03434EEA0B48FB
:101EF0004FF0000EB2EB080C71EB030724BF6246F3
:101F000039464EEB0E0E4FF0000B0018524149417E
:101F10004BEB0B0BB2EB080C71EB03077BF1000BE7
:101F200024BF624639464EEB0E0E4FF0000B0018F0
:101F3000524149414BEB0B0BB2EB080C71EB030721
:101F40007BF1000B24BF624639464EEB0E0E51EA80
:101F5000020718BF46F0010616EB0E7655F1000297
:101F600054F1000103D5BDE88901BDE80088BDE852
:101F70008901BDE80048B619524141EB0101A3F1C6
:101F80000103704780807F7E7D7C7B7A79787776CD
:101F900076757473727171706F6E6E6D6C6C6B6A46
:101FA0006A696868676666656464636362616160E4
:101FB000605F5F5E5E5D5D5C5C5B5B5A5A59595861
:101FC00058575756565555555454535352525251CB
:101FD000515050504F4F4F4E4E4D4D4D4C4C4C4B21
:101FE0004B4B4A4A4A494949484848474747474668
:101FF00046464545454444444443434343424242A4
:1020000042414141002B9C4630D477002BD01CB577
:102010004FEA370703B44FF010004FF01001BAF148
:10202000000F06D0BCF1000FDCBF40F0080040F00C
:1020300008014FF000000FBCBDE810400BF1010B90
:10204000BBF1010F08BF5FEA170722BF12F10102BF
:1020500011F101014FF0004143F1000300F0004095
:1020600043EA00007047F9D35708D0E746EA06462E
:1020700013F1400F4FEA16461FDD13F1200FDFBFAB
:1020800016430A46002120335B42BED0C3F120072D
:1020900046EA064602FA07F74FEA164646EA0706F8
:1020A000C3F1200722FA03F201FA07F721FA03F13C
:1020B0004FF0000342EA0702A7E746EA020646EAB3
:1020C00006464FEA164646EA0106BCBF46EA064601
:1020D000360C4FF000034FF000024FF0000194E780
:1020E0002DE9804C9A46934670B491E8380007C8B1
:1020F00031EA400C48BF34EA430C03D5FFF7E6FD54
:10210000FFF780FFF0BCBDE8008C2DE9804C9A46BB
:10211000934670B491E8380007C810F0804F08BFAC
:1021200013F0804F03D100F005F8FFF76BFFF0BC10
:10213000BDE8008C20F07F4780EA030023F07F4C4D
:1021400007EB0C03A3F57C5300F00040A3F1FE0362
:1021500092F0000F00F0B38095F0000F00F0778050
:102160002DE901494FEA11404FEA144621EA00489F
:1021700000FB06FC24EA064708FB06F607FB08F806
:1021800000FB07F718EB06484CEB164C4FEA124BD6
:1021900018EB07484FEA15464CEB174022EA0B4E66
:1021A0000BFB06FC25EA06470EFB06F607FB0EFEB8
:1021B0000BFB07F71EEB064E4CEB164C4FF00006E0
:1021C0001EEB074E4CEB174B18EB0B0840F10000D1
:1021D00018EB0E0B58EB000840F100008F1A4FF07F
:1021E00000013CBFC943661B14BFB5EB040C0021C2
:1021F0003CBFC943F61B4FEA17444EEA8E0E27EA4E
:1022000004454FEA1C4704FB07622CEA074C05FB18
:1022100007F70CFB05F604FB0CFC16EB074642EB3C
:10222000174216EB0C4642EB1C421BEB060658EB22
:102230000202414146EA9E0601D5BDE80189B61970
:10224000524141EB0101A3F10103BDE801894FEACD
:1022500014454FEA114724EA054621EA074C05FBDD
:1022600007F406FB07F70CFB06F105FB0CFC11EB72
:10227000074144EB17444FEA124711EB0C4144EB82
:102280001C4422EA074C05FB07F206FB07F70CFB90
:1022900006F605FB0CFC16EB074642EB174216EB65
:1022A0000C4642EB1C456A1854F1000148BF7047C8
:1022B000B619524141EB0101A3F10103704795F0BA
:1022C000000F37D04FEA11424FEA144721EA024685
:1022D00024EA074C02FB07F106FB07F70CFB06F4A8
:1022E00002FB0CFC14EB074441EB17414FEA154786
:1022F00014EB0C4441EB1C4125EA074C02FB07F5AB
:1023000006FB07F70CFB06F602FB0CFC16EB074678
:1023100045EB174516EB0C4645EB1C42121951F1E3
:10232000000148BF7047B619524141EB0101A3F1CA
:10233000010370474FEA14454FEA114724EA054666
:1023400021EA074C05FB07F106FB07F70CFB06F239
:102350004FF0000605FB0CFC12EB074241EB174166
:1023600012EB0C4251EB1C4148BF7047921841EBF5
:102370000101A3F1010370472DE9F84F0446002C39
:102380006AD06068002867D02068002864D0E068C0
:10239000002861D0207A55285ED0002061684871FD
:1023A000637A217AD4E900020BF033FB002853D082
:1023B000278A3846FEF7BAF806464FF00008C146AD
:1023C000C246002540E0218A3046FEF792FA207A84
:1023D000102802D0E02815D113E04FF008094FF083
:1023E000200A4FF02008208A28B1228A3046E1686E
:1023F000FEF700FA04E03046FEF7C7F8BDE8F88FB4
:1024000005E004E0002080468246814600BF00BF10
:10241000CDF8008060680068425D1048006833466F
:102420001021D0F840C00D480068E047606800689F
:10243000415D002303220A48006815F0A3FD322005
:1024400011F0A5FE681C85B260684079A842BADC2C
:102450003046FEF79AF800BF00BFCFE740040024E3
:102460007807002410B511F08BFF09F02FFA0D4802
:10247000006878B10CA1174813F07CFE0948006889
:10248000816A08480068884706480068016B05486B
:10249000884703E010A10F4813F06CFE11F067FFAE
:1024A00010BD000004050024405375636365737319
:1024B0003A4174206F626A65637420616C6C6F636B
:1024C0006174696F6E207375636365656465642EFE
:1024D0000D0A0000740B0024404572726F723A417D
:1024E00074206F626A65637420616C6C6F636174E1
:1024F000696F6E206661696C6564210D0A000000D9
:102500002DE9F84F06460C46356A00274FF00109C1
:10251000002E6CD0002C6AD0002D68D063E02846D5
:1025200010F00DFC2068FEF7FBF81FFA80FA2389F3
:1025300021685246F06908F05DFF04F059FE8046BC
:102540001DE004F055FE40450CD204F051FEC8F1E8
:10255000FF310144B0680089814201D901200CE0BB
:1025600000200AE004F044FEA0EB0801B0680089F6
:10257000814201D9012000E0002000B103E0D5F83C
:1025800000010028DDD000BFD5F8000100281AD0D6
:102590000020D5F80011685428466168FEF7AEF8AF
:1025A00050B9781CC7B2606800902B4611A11E4834
:1025B000226813F0DFFD0DE02B461CA11A482268AB
:1025C00013F0D8FD12E0781CC7B22A4621A11648A4
:1025D00013F0D0FD032F05D34FF0000927A11248B7
:1025E00013F0C8FD00BFB9F1000F98D100BF4846F5
:1025F000BDE8F88F53656E643A2573526573706F4A
:102600006E736520696E737472756374696F6E3A68
:10261000257320616E64202573206D69736D61746C
:1026200063682E0D0A000000740B0024436F6D6D6B
:10263000616E643A257373656E74207375636365A8
:10264000737366756C6C792C5265636976653A258F
:10265000730000004174206D6F64756C6520646FB9
:102660006573206E6F7420726573706F6E64216481
:102670006174613A25732E0D0A00000040457272A4
:102680006F723A52657472616E736D697373696FBC
:102690006E206578636565647320746865206D617C
:1026A00078696D756D206E756D626572206F66203C
:1026B00074696D6573210D0A0000000070B5044651
:1026C000002C27D0A068002824D0E069002821D061
:1026D000A56816E029462046E26A904780B921792C
:1026E00001EB4101A06800EB8100A0F10C050AA1FB
:1026F000194813F03FFD29462046E26A904708E05A
:102700000C35217901EB4101A06800EB8100A84262
:10271000E0D800BF70BD0000404572726F723A4D44
:102720006F64756C6520636F6E666967757261743E
:10273000696F6E206661696C65642E4D6F64756C9F
:10274000652069732072657374617274696E672E97
:102750002E2E0D0A00000000740B002470B50646F2
:102760000C46154634B1206820B1A1882A4620685D
:1027700004F032FD70BD00BFFEE7000005462C46A8
:1027800000BF4FF0FF310948006811F08DFD0028AF
:10279000F7D1002CF5D002202074204609F0E4FF88
:1027A00003A10C4813F0E6FCEBE70000B40700249B
:1027B00034472072656365697665642061207061C5
:1027C000636B6574206F662064617461202E0D0A4E
:1027D00000000000740B00240346042B15D007DC16
:1027E0007BB1012B0ED0022B0DD0032B12D10BE0AD
:1027F000202B0BD0212B0AD0222B09D0232B09D13F
:1028000007E008E007E006E005E004E003E002E09E
:1028100001E000E000BF00BF0020704700207047CB
:1028200010B509480949086009484860084600226F
:10283000016808480CF075FC0448416805480CF034
:1028400061FC002010BD00008C2B00248027002498
:102850008C270024A422002470B505460C460649A6
:10286000206888600548006818B10448006811F0C5
:10287000F3FC002070BD000080270024BC0700246A
:1028800010B503460C460021084610BD2DE9F04F57
:10289000BBB005468A46E86A3A902E6B9AF800105B
:1028A000686B00EB01100078A0F58450C0B239903D
:1028B000002038903790686C007A08B9552007E0FE
:1028C000686C007A401E696CC97940EA01200001F9
:1028D000C4B2002036900290039004900590002727
:1028E000C02106A8FEF727F89AF80010686B00EBE5
:1028F00001100368B5A1BE48399A13F03BFCDDE92D
:10290000391002F050F90746CFB1F88820B1FA88A3
:10291000B8A1B74813F02EFCF8880012B97940EA44
:10292000012080B20190022301AA41F290012846C1
:10293000D5F808C0E0473220E969884700BF3A98D7
:1029400000287CD03A9880890028FAD0399810283D
:1029500075DA6FB9B3A0B8A1BAA340F2AD22CDE940
:102960000010BB49A24813F005FC3BB0BDE8F08F56
:10297000402C00D1E024302C3AD005DC4CB1102C96
:1029800017D0202C5FD124E0E02C40D0F02C5AD17D
:102990003EE0F8884FF6FF7101EA0018B06906AB17
:1029A00010224146D0F850C8E047369041F20E0957
:1029B0004AE0F8884FF6FF7101EA0018B06906ABEB
:1029C00010224146D0F860C8E04736904FF4815954
:1029D0003AE0F888C0044FEA1048B06906AB082214
:1029E0004146D0F840C8E047369041F205092BE057
:1029F000F888C0044FEA1048B06906AB0822414687
:102A0000D0F830C8E047369041F206091CE000BF1C
:102A1000F88880054FEA1048B06906AB402241466D
:102A2000D0F840C8E0473690042202EB5801B06964
:102A300016AB2022D0F830C8E047369000E0C3E063
:102A400041F2D00900E000BF00BF552C34D00CB9D2
:102A5000062010E0102C01D107200CE0202C01D121
:102A6000042008E0302C01D1052004E0F02C01DD29
:102A7000082000E00F20014628462A6990473220AE
:102A8000E96988470CB9062010E0102C01D1072015
:102A90000CE0202C01D1042008E0302C01D10520CD
:102AA00004E0F02C01DD082000E00F200246234660
:102AB00068A14F4813F05EFB3698012875D1302C81
:102AC00023D005DC4CB1102C08D0202C6BD11BE09E
:102AD000E02C38D0F02C66D136E000BF4FF0000B70
:102AE0000AE006A901EB8B000422002101F092FD0F
:102AF0000BF1010000F0FF0BBBF1080FF1DB06A8A2
:102B00003890202037904FE000BF00200CE0BDF847
:102B1000081006AA125C02F001028240114389B239
:102B2000ADF80810411CC8B20828F0DBBDF8080059
:102B30004FF6FF7101EA0020ADF8080002A83890B6
:102B40000220379030E000BF002023E0002111E098
:102B500002AA32F8102001EB00130DF1180C1CF83A
:102B6000033003F001038B401A4302AB23F810201B
:102B70004A1CD1B21029EBD302A931F81010091266
:102B800002AA12F8102041EA022102AA22F810102B
:102B9000411CC8B20828D9D302A838901020379019
:102BA00002E002E0FFE700BF03E032A1104813F0AB
:102BB000E1FA389840B1379830B1D5F808C04946A5
:102BC0002846DDE93732E04700BFCEE66361726434
:102BD0005F73697465203D2025642C2063617264F5
:102BE0005F61646472203D20307825782E0D0A00E4
:102BF000740B0024546865206E756D626572206FD9
:102C00006620626F61726473206F662063757272F2
:102C1000656E7420747970652069733A25642E0D91
:102C20000A0000002E2E5C4477696E5C5372635C70
:102C30006477696E2E63000031363A34343A3034AA
:102C400000000000417567203233203230323200FC
:102C5000CC8F030870616765203D2025642C2063BC
:102C60006172645F636F6465203D20307825782E43
:102C70000D0A00004572726F723A204D6F646275E2
:102C80007320726567697374657220726561642070
:102C90006661696C6564210D0A00000070B5034629
:102CA000002473B169B162B1002008E01D5C0E5CC4
:102CB000B54202D01D5C0D540124451CE8B290427F
:102CC000F4DB204670BD01464A69D2F800010128B4
:102CD00004D110780D2801D1012070470020FCE7B5
:102CE0002DE9F14F2DED068B92B04FF00009002039
:102CF0001190109000279FEDFB0AB0EE408A9FEDE7
:102D0000F90AF0EE408A189C00BF4FF0000A20211B
:102D100008A8FDF710FEF44909688869F2490968B6
:102D2000896923460E22D1F850580021A84707464A
:102D300027B9EEA1F64813F01DFA41E300200090F8
:102D4000E94909688869E849096889696B46022286
:102D5000D1F830582121A847074647B99DF80130DE
:102D60009DF80020EBA1EA4813F004FA15E325468C
:102D700004F11C080DF1040B96E1281BC0F3870633
:102D8000BAF1000F30D1052E2ED036B1304606EB09
:102D9000D0714910A6EB410131B395ED000AB5EEB3
:102DA000C00AF1EE10FA03D806EB4600801C1AE0C8
:102DB00095ED000AF1EE000AB4EEE00AF1EE10FA29
:102DC00003D206EB4600C01C0DE095ED000AF3EEC1
:102DD000050AB4EEE00AF1EE10FA03DD06EB460058
:102DE000001D00E00020824604F10C00854218D24C
:102DF00095ED000AF1EE000A30EE600AB3EE001A1B
:102E0000C0EE010A98ED000A98ED011A30EE411A61
:102E100098ED010A00EE810A85ED000A08F1080824
:102E200033E104F11000854214D195ED000AF1EE72
:102E3000000A30EE600AB3EE001AC0EE010A94ED0B
:102E4000070A94ED081A30EE411A94ED080A00EED4
:102E5000810A18E104F10C0085427CD1BFEE000A22
:102E60000EF024FCB0EE409AD4ED200AB0EE600AD9
:102E7000F0EE000A0FF0E4FA29EE000AF0EE000A84
:102E800080EE20AA95ED000AF1EE000A30EE600A0D
:102E9000B3EE001AC0EE010A94ED0D0A94ED0E1A7D
:102EA00030EE411A94ED0E0A00EE810AD4ED200AAC
:102EB00070EEC0AA95ED000AF1EE000A30EE600A4D
:102EC000B3EE001AC0EE010A94ED0D0A94ED0E1A4D
:102ED00030EE411A94ED0E0A00EE810AF0EE409AAF
:102EE000F0EE000A0FF0ACFAD5ED000AB1EE001AD0
:102EF00070EEC10AF3EE001A80EEA11AD4ED0D0AAD
:102F0000D4ED0E1A70EEE11AD4ED0E0A41EE210A4C
:102F100094ED201AF0EE001A21EE211A11EE200A8B
:102F2000B0EE409A0FF0B8FDF0EE4A9A4AEEC09A21
:102F3000D4ED200AB0EE600AF0EE000A0FF080FA3D
:102F4000B0EE40AA95ED000AF1EE000A30EE600AFC
:102F5000B3EE001A00E082E0C0EE010A94ED0D0A23
:102F600094ED0E1A30EE411A94ED0E0A00EE810A2D
:102F7000D4ED200A30EEC00AD4ED200A80EE201AEB
:102F8000B0EE419AB0EE490A0EF022FC4AEE409AA9
:102F900094ED210A69EE809ABFEE000A0EF086FBDE
:102FA000D4ED1F0A60EE200AB0EE081A80EE810A06
:102FB000D4ED200A60EE20AAD4ED200AB0EE600A1B
:102FC000F0EE080A0FF03CFAB0EE409AD4ED200A79
:102FD000B0EE600AF0EE000A0FF032FAF0EE080AE6
:102FE00060EE200A95ED000AB1EE001A30EE410ABB
:102FF000F3EE001A80EE211A94ED0D0AD4ED0E1AAC
:1030000070EE611A94ED0E0A01EE210AB0EE49AAA3
:1030100010EE80AA95ED000AF1EE000A30EE600A8B
:10302000B3EE001AC0EE010A94ED0D0A94ED0E1AEB
:1030300030EE411A94ED0E0A00EE810AD4ED200A1A
:1030400030EEC00AB0EE409AF0EE080A0FF0F8F940
:103050007AEE000AB0EE690A0AEEA00A13E095EDD6
:10306000000AF1EE000A30EE600AB3EE001AC0EE7C
:10307000010A94ED0F0A94ED101A30EE411A94ED06
:10308000100A00EE810A85ED000A95ED000ADFEDD9
:10309000150A80FE800A85ED000A95ED000A8BED89
:1030A000000A2D1D0BF1040B04F11C008542FFF4F6
:1030B00064AEC4F88CA09DF8000028B100218C20DB
:1030C000015194ED040A01E094ED000AB0EE408A4B
:1030D0009DF8010028B100218C20015194ED020AD5
:1030E00032E02FE000000000400400244661696CDB
:1030F000656420746F207265616420696E707574F8
:10310000207265676973746572210D0A0000000002
:10311000740B0024656E61626C655F736174655B3E
:10312000305D203D20307825642C656E61626C65D1
:103130005F736174655B315D203D20307825640DDF
:103140000A00000094ED010AF0EE408A00231A46BE
:1031500001A99E48006814F087FA01280FD09CA1AD
:10316000A64813F007F814F055F8054614F04CF88B
:1031700006462B463246A2A1A04812F0FBFF4FF0B4
:10318000000900251FE02946AA4A12689069A94A49
:1031900012689269D2F83C3810AA984707469DF801
:1031A0004000484400F0FF099DF84010281D08AA7F
:1031B000115437B94B4600229FA1904812F0DAFF14
:1031C000EBE0681CC5B20C2DDDD39A49096888690B
:1031D00098490968896911AAD1F82C3820219847A3
:1031E00007463FB99DF84430002298A1834812F069
:1031F000C1FFD2E09DF84400012807D198A17F4883
:1032000012F0B8FF00218C200151D9E094ED1D0A85
:10321000B4EEC80AF1EE10FA0BDA94ED030AD4ED1D
:103220001E0AB4EEE00AF1EE10FA02D98C20005921
:1032300020B1202108A8FDF77EFBAEE0B9F1000F18
:1032400055D094ED150AB4EEE80AF1EE10FA02D268
:1032500001208DF8230094ED130AB4EEC80AF1EEB4
:1032600010FA03D801208D4908700BE094ED140A80
:10327000B4EEC80AF1EE10FA03DB002087490870AB
:1032800000E000BF8548007818B101208DF82000CB
:1032900083E094ED150AB4EEE80AF1EE10FA05D8D1
:1032A00001208DF821008DF8230010E094ED160A1E
:1032B000B4EEE80AF1EE10FA09DB94ED120AB4EE6E
:1032C000C80AF1EE10FA02D201208DF820007348EE
:1032D000407818B100207149487000E000BF6F4885
:1032E000807818B100206D49887055E054E06B4833
:1032F000007818B100206949087000E000BF94ED23
:10330000170AB4EEE80AF1EE10FA09D294ED180AA1
:10331000B4EEC80AF1EE10FA02DD01208DF82000AB
:1033200094ED190AB4EEE80AF1EE10FA03D8012080
:103330005A4948700BE094ED1A0AB4EEE80AF1EE2F
:1033400010FA03DB00205549487000E000BF5348E5
:10335000407820B101208DF823008DF8240094EDF1
:103360001B0AB4EEC80AF1EE10FA03D801204B494B
:1033700088700BE094ED1C0AB4EEC80AF1EE10FA66
:1033800003DB00204549887000E000BF4348807897
:1033900010B101208DF8220000BF26490968886914
:1033A00024490968896908AB2022D1F838580021DE
:1033B000A84707461FB93AA1104812F0DBFE00BF2C
:1033C0004FF4487010F0E3FE9FE4000090070024E3
:1033D0004572726F723A204661696C656420746F41
:1033E0002073656E64207573657220706172616D03
:1033F0006574657273210D0A00000000740B0024CF
:103400004F532072656D61696E696E6720686561F2
:1034100070203D202564427974652C204D696E69C9
:103420002068656170203D202564427974650D0A2D
:103430000D0A000040040024494E5F445B25645D92
:10344000203D20307825640D0A0000004D6F646532
:103450005B25645D203D20307825640D0A00000066
:10346000404E6F74653A204D616E75616C206D6FD2
:10347000646520737461727475702C206175746F4B
:103480006D61746963206D616E6167656D656E74F1
:10349000206661696C757265210D0A00C007002401
:1034A0007772697465206661696C6564210D0A0034
:1034B00070B504460D4605B970BD342011F04EFEBE
:1034C0002060206810B9206813F00CFC2A7813A142
:1034D0001848236812F04EFE287821680870E869C1
:1034E0002168C861286A216808622068D5E901124C
:1034F000C0E90112206805F10C014EC90C304EC024
:103500000D48216808630D48216848620C4821680D
:1035100088620C482168C86200BFCDE741745B2512
:10352000645D5F68616E646C6572203D2030782553
:10353000700D0A00740B0024ED4B02085D27020891
:10354000BD260208012502082DE9F04104460D467A
:103550000DB9BDE8F081542011F000FE2060206814
:1035600018B9206813F0BEFBF3E7A88C11F0F6FD44
:1035700006461EB9304613F0B5FBEAE74821485D20
:1035800011F0ECFD07461FB9384613F0ABFBE0E73E
:10359000A98C3046FDF7ADF94820415D3846FDF76E
:1035A000A8F92A7820A12748236812F0E3FD28789B
:1035B0002168087024482168486024482168886090
:1035C00023482168C860234821680861224821688F
:1035D000486122482168886121482168C8612068C3
:1035E000066200212068C184A98C20688184686CEF
:1035F00000B96F64216801F13C00182205F13C011B
:10360000FDF73DF9696B20684163298F20680187C8
:10361000A86A21688862E96A2068C162296B20680B
:10362000016300BF95E700004477696E5B25645D28
:103630005F68616E646C6572203D20307825700D86
:103640000A000000740B0024DD440208254502082E
:103650009D44020899430208E1430208C140020860
:103660008F41030810B5024801F03EFF10BD000075
:103670007820002410B5024801F036FF10BD00008C
:10368000A81D002410B5024801F02EFF10BD000057
:103690006821002410B5024801F026FF10BD00008B
:1036A000E021002410B5024801F01EFF10BD00000B
:1036B000201E002410B5024801F016FF10BD0000C6
:1036C000F020002410B5024801F00EFF10BD0000EC
:1036D000981E002410B5024801F006FF10BD00003E
:1036E000101F002410B5024801F0FEFE10BD0000BE
:1036F000881F002410B5024801F0F6FE10BD00003E
:10370000002000240146374A0868904249D0354AD3
:1037100018320868904244D0324A303208689042E9
:103720003FD0304A4832086890423AD02D4A603241
:103730000868904235D02B4A78320868904230D0E1
:10374000284A9032086890422BD0264AA83208684E
:10375000904226D0244A0868904222D0224A183249
:10376000086890421DD0204A30320868904218D034
:103770001D4A48320868904213D01B4A60320868DC
:1037800090420ED0184A78320868904209D0164A02
:1037900090320868904204D0134AA83208689042D8
:1037A00001D1012000E00020B0B10A78103A1823BE
:1037B000B2FBF3F000F007020C4B9A5CCA650328D9
:1037C00005D90A686FF30902121D8A6503E00A68C9
:1037D0006FF309028A6503E0086820F0FF0088653E
:1037E000886D704710000240100402407C8C030872
:1037F00010B502682B4C0368A34222D0294C143424
:103800000368A3421DD0274C28340368A34218D074
:10381000244C3C340368A34213D0224C5034036838
:10382000A3420ED01F4C64340368A34209D01D4C40
:1038300078340368A34204D01A4C8C340368A34242
:1038400001D1012300E000238BB10378083B14244D
:10385000B3FBF4F1144B03EB81030366124B80338B
:10386000436601F01F040123A340836618E0037838
:10387000103B1824B3FBF4F10C4B9A4204D80B4BC9
:10388000A83B9A4200D30831094B03EB810303663E
:10389000074B8033436601F01F040123A340836676
:1038A00010BD00000854025800580258B8040240E5
:1038B000000802400179A9B3082940D8204B0268CA
:1038C0009A4222D01E4B143302689A421DD01C4BE0
:1038D000283302689A4218D0194B3C3302689A4246
:1038E00013D0174B503302689A420ED0144B6433F6
:1038F00002689A4209D0124B783302689A4204D087
:103900000F4B8C3302689A4201D1012200E0002261
:103910004AB14A1E0B4B03EB8202C266094A40328F
:10392000026708E00BE04A1E074B03EB8202C26607
:10393000054A403202674A1E01239340436770479D
:10394000085402580059025800090240014600205C
:103950008A69D2B98A6A32B1012A0DD0022A03D00B
:10396000032A10D10EE000BFCA6A02F08072B2F1E1
:10397000807F00D1012007E0CA6AB2F1C07F00D188
:10398000012001E000E000BF36E08A69B2F5005F87
:103990001BD18A6A32B1012A07D0022A03D0032A36
:1039A00011D10AE000BF01200EE0CA6A02F0807265
:1039B000B2F1807F00D1012006E0CA6AB2F1C07F77
:1039C00000D1012000E000BF16E08A6A32B1012A6E
:1039D00005D0022A04D0032A0CD103E000BF00BFA7
:1039E000012008E0CA6A02F08072B2F1807F00D143
:1039F000012000E000BF00BF7047000010B5044682
:103A000020680068C069C0F30010002873D010203F
:103A1000216809680862002C7BD0A068002878D053
:103A20006068002875D0206806F07AFE20690028BA
:103A30006AD0606800683A49884258D06068006877
:103A400037491831884252D06068006834493031B3
:103A500088424CD06068006831494831884246D07D
:103A6000606800682E496031884240D06068006814
:103A70002B49783188423AD06068006828499031F3
:103A8000884234D0606800682549A83188422ED029
:103A9000606800682349884229D06068006821492D
:103AA0001831884223D0606800681E49303188424E
:103AB0001DD0606800681B494831884217D0606893
:103AC000006818496031884211D060680068154963
:103AD000783188420BD06068006812499031884282
:103AE00005D0606800680F49A831884205D1606838
:103AF0000068406804E011E00BE06068006840681E
:103B0000217B081A21690860227BA168206807F0E0
:103B100035FC606910B1606910F09EFB10BD0000BB
:103B20001000024010040240F0B5856D846D984F7E
:103B30000668BE4270D0964F18370668BE426BD0FA
:103B4000934F30370668BE4266D0914F48370668BB
:103B5000BE4261D08E4F60370668BE425CD08C4F4B
:103B600078370668BE4257D0894F90370668BE4204
:103B700052D0874FA8370668BE424DD0854F0668A1
:103B8000BE4249D0834F18370668BE4244D0814FA9
:103B900030370668BE423FD07E4F48370668BE4287
:103BA0003AD07C4F60370668BE4235D0794F7837BF
:103BB0000668BE4230D0774F90370668BE422BD0A1
:103BC000744FA8370668BE4226D0734F0668BE42BF
:103BD00022D0714F14370668BE421DD06E4F283771
:103BE0000668BE4218D06C4F3C370668BE4213D000
:103BF000694F50370668BE420ED0674F643706687B
:103C0000BE4209D0644F78370668BE4204D0624F86
:103C10008C370668BE4201D1012600E000263EB185
:103C2000D0E919767E60C66E16B1D0E91C767E604A
:103C3000574F0668BE4249D0554F18370668BE42F6
:103C400044D0534F30370668BE423FD0504F4837BC
:103C50000668BE423AD04E4F60370668BE4235D045
:103C60004B4F78370668BE4230D0494F90370668D0
:103C7000BE422BD0464FA8370668BE4226D0454FDD
:103C80000668BE4222D0434F18370668BE421DD098
:103C9000404F30370668BE4218D03E4F483706685E
:103CA000BE4213D03B4F60370668BE420ED0394F3C
:103CB00078370668BE4209D0364F90370668BE4254
:103CC00004D0344FA8370668BE4201D1012600E077
:103CD0000026DEB190F85C6006F01F073F26BE406C
:103CE000AE600668366826F4802607683E6006687F
:103CF00073608668402E04D10668B2600668F16081
:103D000044E00668B1600668F2603FE0224F066852
:103D1000BE4222D0204F14370668BE421DD01E4F2F
:103D200028370668BE4218D01B4F3C370668BE4293
:103D300013D0194F50370668BE420ED0164F643765
:103D40000668BE4209D0144F78370668BE4204D0D8
:103D5000114F8C370668BE4201D1012600E00026D3
:103D6000A6B190F85C6006F01F070126BE406660B1
:103D7000066873608668402E04D10668B2600668E3
:103D8000F16003E00668B1600668F260F0BD000013
:103D90001000024010040240085402582DE9F0437C
:103DA0002DED028B81B007460C4616464FF00008F9
:103DB000C1460025002C7DD020880028FBD020881B
:103DC00001EE100AB8EE411BB0EE410B0DF09CFD68
:103DD000B0EE408BB0EE000B0DF096FD88EE001BB0
:103DE000BCEEC10B10EE100A00F0FF09012049499A
:103DF0000968087420884849098800EA0108B8F170
:103E0000000F0CD0002000904248006800234A4672
:103E10001121D0F840C03F480068E04748E0B88929
:103E2000002845D04946384600F0BDFE0546002D25
:103E30003ED0287930B1202811D0E0281CD0F028BD
:103E400028D11AE0102000902A7832480068002318
:103E50000421D0F840C02F480068E04727E0082040
:103E600000902A782B48006800230221D0F840C037
:103E700028480068E0471AE000BF402000902A78F8
:103E80002448006800230221D0F840C0214800687F
:103E9000E0470CE0002000901E48006800234A46DE
:103EA0001121D0F840C01B480068E04700BF00BFA8
:103EB000002300E023E0042249461848006814F07B
:103EC00061F8012809D1B8F1000F14D021881248F7
:103ED00000888843104908800DE03EB11049D6F8AB
:103EE0002001884202D117218C2081514A460DA120
:103EF000174812F03FF91E2010F049F905E022881A
:103F0000234614A1124812F035F901B0BDEC028B22
:103F1000BDE8F08340040024C4070024780700248F
:103F20003487A55A4572726F723A20496E74657271
:103F30007275707420536C6176652030782530324C
:103F400078204E6F20416E73776572210D0A000054
:103F5000740B00244572726F723A20496E76616C60
:103F6000696420696E7465727275707420736F7500
:103F70007263653A20307825782C207461626C6514
:103F80005F73697465203A307825700D0A2E000041
:103F9000704700002DE9FC5F0446002C7ED060686D
:103FA0000028FBD020680028F8D0E0680028F5D071
:103FB000207A55287DD0002061684871637A217A83
:103FC000D4E9000209F025FD002872D0606800796C
:103FD00001900198FCF7AAFA07464FF0000AD14673
:103FE000CB4600255EE0606801793846FCF781FC2D
:103FF000207A302802D0E0280ED106E04FF00109E7
:10400000E8064FEA106BCA460BE04FF00409680758
:104010004FEA106BCA4604E0002082468346814680
:1040200000BF00BFB9F1000F39D060684079A842E5
:1040300035DD002615E04FF000080DE008EBC60165
:104040005944E068405C00FA08F0B95D0843B8558F
:1040500008F101001FFA80F8B8F1080FEEDB701CC0
:1040600086B24E45E7DBCDF800A060680068425D8F
:10407000114800683B460F21D0F840C00E48006848
:10408000E04760680068415D002303220B48006838
:1040900013F078FF322010F07AF801E009E004E034
:1040A000681C85B2607AA8429DDC3846FCF76DFA40
:1040B00000BFBDE8FC9F00004004002478070024F6
:1040C000FEB504460E461546012E05D1606B00EB89
:1040D000051090ED020A04E0606B00EB051090ED16
:1040E000010A8DED020A002000900190012E0AD1F4
:1040F0009DED020AB7EEC00A53EC102B1BA1244819
:1041000012F038F80DE04FF48070ADF800009DED2E
:10411000020AB7EEC00A53EC102B1EA11C4812F085
:1041200029F80422002102A800F074FA606B00EB69
:104130000510008881B2042302AA2046A768B84768
:104140003220E16988471E212046226990473220AB
:10415000E16988470298CDF8020006236A4641F2D9
:10416000D6012046A768B847FEBD00004572726FB1
:10417000723A2042656C6F77206C6F776572206CA5
:10418000696D697420252E33662E0D0A000000002B
:10419000740B00244572726F723A2041626F76652B
:1041A000207570706572206C696D697420252E33DE
:1041B000662E0D0A000000002DE9FC4704460D465E
:1041C000606C8079022805D2606C017AC07941EA7E
:1041D00000200DE0606CC0790106606C007A41EA55
:1041E0000041606C407A41EA0020616C897A0843A2
:1041F00000EE100AB8EEC00AF2EE040A80EE201AB1
:104200008DED011AA66A06F11C07287800909DED35
:10421000010AB7EEC00A53EC102B4AA1504811F026
:10422000A9FF2978606B00EB011090ED020ADDED2B
:10423000010AB4EEE00AF1EE10FA2AD82978606B90
:1042400000EB011090ED010ADDED010AB4EEE00A89
:10425000F1EE10FA1DDB57B12978208F814206DA82
:104260009DED010A287807EB800080ED000A04220A
:10427000002101A800F0CEF92A78606B00EB021053
:10428000008881B2042301AA2046D4F808C0E04780
:104290002BE02978606B00EB011090ED020ADDED58
:1042A000010AB4EEE00AF1EE10FA01DD012000E0AF
:1042B00002208146B9F1010F06D12978606B00EB2D
:1042C000011090ED020A05E02978606B00EB011007
:1042D00090ED010A287807EB800080ED000A2A782B
:1042E00049462046A369984700BF1E490968886966
:1042F0001C490968896906F11C033A22D1F868C88B
:104300001021E0478046B8F1000F03D116A11448F0
:1043100011F030FF12F09EFC4FF6FF724FF48471E3
:1043200006F11C0000F06AFCC6F824014FF4867206
:1043300006F11C01174800F035FB12F0B5FCBDE892
:10434000FC87000064617461203D20252E33662CBB
:10435000202A7073697465203D2025642E0D0A00A3
:10436000740B002440040024506172616D65746513
:104370007220777269746520746F20686F6C642096
:104380007265676973746572206661696C65642122
:104390000D0A000000001E083EB504460D460DA2A1
:1043A00007CA8DE8070028128DF80800E8B28DF8DA
:1043B00009000021E184206A0099016001994160AF
:1043C000BDF808100181E08C0A30E0842046616865
:1043D00088473EBD5AA5098200845A0100000000AA
:1043E000F8B50446606C00785A284DD1606C40786E
:1043F000A52849D1606C4179007941EA0026E26C38
:104400001288521F91B2626CD01C4FF6FF7200F0FE
:10441000F5FB0546281240EA052085B2616CE06C88
:104420000068401E095C626CE06C0068801E105CD5
:1044300041EA0020A84226D1002000901DE09DF80E
:104440000010606B00EB01100068B04210D19DF8C5
:104450000010606B00EB0110C06840B19DF80010C7
:10446000606B00EB01106946C2682046904709E086
:104470009DF80000401CC0B20090208F9DF80010F5
:104480008842DCDC00BF00BFE26C1168606CFCF7A6
:1044900030FA0021E06C0160F8BD00007CB50446F4
:1044A0000D4616460BA103C9CDE9000128128DF86F
:1044B00004008DF805600021E184206A0099016004
:1044C000BDF804108180E08C801DE0842046616886
:1044D00088477CBD5AA506830000000038B5044615
:1044E000E28CD21E91B2226AD01C4FF6FF7200F00D
:1044F00085FB0090E08C216A0844BDF80010018023
:10450000E08C801CE084E28C216AE06B06F0DEFF28
:1045100000BFE06B0068C069C0F380100028F8D0CD
:1045200038BD00002DE9FC4104460E4617461D46E5
:1045300013A103C9CDE90001681DC0B28DF80200C6
:1045400030128DF80400F0B28DF805000021E184EE
:10455000206A00990160BDF804108180E08C801D04
:10456000E084E18C226A50182A463946FCF742F969
:10457000E08C2844E084204661688847BDE8FC81DF
:104580005AA500820000000010B5012002F00EFDC7
:1045900010BD10B54FF4806002F008FD4FF40060CC
:1045A00002F004FD4FF4805002F000FD4FF4005083
:1045B00002F0FCFC4FF4804002F0F8FC4FF40040A5
:1045C00002F0F4FC10BD10B5022002F0EFFC10BDAB
:1045D00010B5042002F0EAFC10BD10B5082002F06E
:1045E000E5FC10BD10B5102002F0E0FC10BD10B5C8
:1045F000202002F0DBFC402002F0D8FC802002F0FA
:10460000D5FC4FF4807002F0D1FC4FF4007002F042
:10461000CDFC10BDF0B503460020002655088F18CC
:104620007F1EFCB20BE00F18DE5D271ADF5D01EB89
:10463000000C03F80C70271ADE55471CF8B2A8428C
:10464000F1DBF0BD72B600BFFEE7000010B501F06F
:1046500001037BB1134BDB6823F4E663114CE36089
:1046600042F0040343EA002343F08003E468234359
:104670000C4CE36001F00203022B12D10A4B1B68C1
:1046800023F4E663074CC4F80C3142F0040343EA18
:10469000002343F08003D4F80C412343014CC4F8B9
:1046A0000C3110BD002000520C21005210B502F058
:1046B000CBF910BD014600203C4A914203D2B1F132
:1046C000006F00D370E03A4A914204D2374A9142D7
:1046D00001D3012068E0374A914204D2344A914222
:1046E00001D3022060E0344A914204D2314A91421F
:1046F00001D3032058E0314A914204D22E4A91421C
:1047000001D3042050E02E4A914204D22B4A914218
:1047100001D3052048E02B4A914204D2284A914215
:1047200001D3062040E0B1F1016F04D2254A914245
:1047300001D3072038E0244A914204D2B1F1016F3D
:1047400001D3002030E0214A914204D21E4A914216
:1047500001D3012028E01E4A914204D21B4A914213
:1047600001D3022020E01B4A914204D2184A914210
:1047700001D3032018E0184A914204D2154A91420D
:1047800001D3042010E0154A914204D2124A91420A
:1047900001D3052008E0124A914204D20F4A914207
:1047A00001D3062000E00720704700000000020847
:1047B00000000408000006080000080800000A08BD
:1047C00000000C0800000E08000012080000140889
:1047D000000016080000180800001A0800001C0855
:1047E00000001E0801F00302032A1BD1234AD268ED
:1047F00022F03002214BDA60214A126822F03002A6
:10480000C3F80C211A46D2680243DA601A46D2F87D
:104810000C210243C3F80C211A46926942F010029F
:104820009A6129E001F0010272B1144AD26822F0C3
:104830003002124BDA601A46D2680243DA601A4636
:10484000D26842F08802DA6001F00202022A13D133
:104850000B4A126822F03002084BC3F80C211A46AA
:10486000D2F80C210243C3F80C211A46D2F80C21CD
:1048700042F08802C3F80C2170470000002000526B
:104880000C21005230B50346084603E053F8015BA3
:104890000570401C8C188442F8D8012030BD0000FF
:1048A0002DE9F04107460E460424002502F0A0FC45
:1048B0008046022E00D1344C0BE0781C48B102F047
:1048C00097FCA0EB0800B84200D817B90320BDE858
:1048D000F0812E482040A04208D12D480069204098
:1048E000A04201D101200DE000200BE02948006822
:1048F00024F00041084024F00041884201D1012009
:1049000000E000200028D8D1012E05D12048006900
:10491000214900EA010505E01E4800681F490840DA
:1049200040F0004525F0004090B11D4880692843C3
:104930001B49886115482840A84202D114484561A6
:1049400004E025F000401349091D08600120BEE77E
:10495000012E0AD10E48006900F48030B0F5803F86
:104960000FD130040A4948610BE00A48006800F49E
:104970008030B0F5803F04D14FF480300549091DE7
:1049800008600020A3E70000040000800F00EF1F74
:1049900000200052102100520000EE170000EE9798
:1049A000B83400242DE9F04387B004460E4617467C
:1049B0002046FFF77FFE814600200190B4F1006F92
:1049C00007D3B4F1026F04D81FB116B104F01F0071
:1049D00018B1002007B0BDE8F08372B602F0FAF912
:1049E00000200290CDF81090012005902020069024
:1049F0004FF48E0021494861B4F1016F11D20120BA
:104A0000039001A902A801F07FFF00B131E001206D
:104A100002900220039001A902A801F075FF50B195
:104A200027E0002002900220039001A902A801F0D3
:104A30006BFF00B11DE0B046254615E04246294611
:104A4000012002F031F940B92868D8F800108842F6
:104A500007D045F6A520019009E04AF25A5001908E
:104A600005E008F120082035E019A842E6D800BF8B
:104A700000BF02F0F5F862B60198ABE700200052E3
:104A800002460868B0B9D1E901031843CB6818435E
:104A90000B6918434B6918438B691843CB6918435A
:104AA0000B6A18434B6A184313686FF30E031843DD
:104AB000106019E0D1E9070318434B6A18431368E3
:104AC00023F4F84318431060D1E901031843CB687D
:104AD00018430B6918434B6918438B691843536893
:104AE0006FF30E03184350600020704730B5034643
:104AF000FAB90868401E4C68641E40EA04148868CD
:104B0000401E44EA0024C868401E44EA0034088A73
:104B1000401E44EA0044888A401E44EA0054087E4D
:104B2000401E44EA00609C6804F070442043986092
:104B300022E0C868401E0403888A401E44EA0050F0
:104B40009C680E4D2C40204398600868401E4C68BD
:104B5000641E40EA04148868401E44EA0024088A5F
:104B6000401E44EA0044087E401E44EA0060DC68BF
:104B700004F070442043D860002030BDFF0F0FFFC9
:104B800010B502460B46916805E00878984201D1BD
:104B9000012010BD08319489906800EBC400884260
:104BA000F3D80020F5E710B502460B46916805E002
:104BB0000878984201D1084610BD08319489906860
:104BC00000EBC4008842F3D80020F5E730B5024678
:104BD0000023906806E004790D79AC4201D15C1C99
:104BE000A3B208308842F6D3184630BD10B504464B
:104BF000206810B1206812F075F810BD70B503463A
:104C00001046002414E013F8015B684000250BE017
:104C100000F0010626B14AF2010686EA600600E0CD
:104C2000461030466E1CB5B2082DF1DB651CACB2E7
:104C30008C42E8DB70BD000070B50A480468001DB6
:104C40000568001D0668344454B108220649204610
:104C500006F01CFE042204491031284606F016FE18
:104C600070BD000000E8F11F060800242DE9F041A6
:104C7000044602F0BDFA804614B90120BDE8F08177
:104C800094F83500022808D08020606500BF00201D
:104C900084F8340000BF0120F0E7FE492068884214
:104CA00049D0FC4918312068884244D0F949303154
:104CB000206888423FD0F7494831206888423AD07E
:104CC000F44960312068884235D0F2497831206853
:104CD000884230D0EF499031206888422BD0ED498E
:104CE000A8312068884226D0EB492068884222D02B
:104CF000E9491831206888421DD0E74930312068E1
:104D0000884218D0E44948312068884213D0E249EB
:104D10006031206888420ED0DF49783120688842AF
:104D200009D0DD4990312068884204D0DA49A831A1
:104D30002068884201D1012000E0002068B120688D
:104D4000006820F01E00216808602068406920F09B
:104D5000800021684861256806E02068006820F02E
:104D60000E00216808602568CA492068884270D012
:104D7000C8491831206888426BD0C6493031206854
:104D8000884266D0C34948312068884261D0C14911
:104D90006031206888425CD0BE4978312068884202
:104DA00057D0BC4990312068884252D0B949A831C7
:104DB000206888424DD0B8492068884249D0B64919
:104DC00018312068884244D0B34930312068884285
:104DD0003FD0B1494831206888423AD0AE4960316D
:104DE0002068884235D0AC4978312068884230D07C
:104DF000A9499031206888422BD0A749A831206862
:104E0000884226D0A5492068884222D0A34914317F
:104E1000206888421DD0A14928312068884218D0D6
:104E20009E493C312068884213D09C49503120680B
:104E300088420ED0994964312068884209D0974948
:104E400078312068884204D094498C3120688842A7
:104E500001D1012000E0002028B1206E006820F47C
:104E60008070216E08608B492068884249D089494A
:104E700018312068884244D0864930312068884201
:104E80003FD084494831206888423AD08149603116
:104E90002068884235D07F4978312068884230D0F8
:104EA0007C499031206888422BD07A49A83120680B
:104EB000884226D078492068884222D07649183125
:104EC000206888421DD0744930312068884218D04B
:104ED000714948312068884213D06F496031206899
:104EE00088420ED06C4978312068884209D06A49DE
:104EF00090312068884204D06749A83120688842F0
:104F000006D12068006820F001002168086005E0F3
:104F10002068006820F001002168086011E002F0BC
:104F200067F9A0EB080005280BD920206065032055
:104F300084F8350000BF002084F8340000BF012051
:104F40009CE6286800F001000028E8D1514920685B
:104F5000884249D04F4918312068884244D04D4991
:104F60003031206888423FD04A4948312068884221
:104F70003AD0484960312068884235D04549783177
:104F80002068884230D043499031206888422BD035
:104F90004049A8312068884226D03F49206888428D
:104FA00022D03D491831206888421DD03A4930311D
:104FB0002068884218D0384948312068884213D088
:104FC00035496031206888420ED0334978312068F5
:104FD000884209D0304990312068884204D02E4957
:104FE000A8312068884201D1012000E0002040B1B2
:104FF000A66D94F85C0000F01F013F208840B0606F
:1050000007E0A76D94F85C0000F01F0101208840C4
:10501000786020492068884276D01E49183120687F
:10502000884271D01B493031206888426CD01949C0
:1050300048312068884267D016496031206888422C
:1050400062D014497831206888425DD0114990318E
:105050002068884258D00F49A8312068884253D030
:105060000D49206888424FD00B491831206888428A
:105070004AD0094930312068884245D00649483134
:105080002068884240D004496031206888423BD083
:10509000014905E010000240100402400854025883
:1050A0007831206888422FD02549206888422BD04B
:1050B000234918312068884226D022492068884236
:1050C00022D020491431206888421DD01D49283142
:1050D0002068884218D01B493C312068884213D090
:1050E00018495031206888420ED016496431206832
:1050F000884209D0134978312068884204D0114988
:105100008C312068884201D1012000E0002068B184
:10511000D4E919104860E06E40B1E06E006820F4F8
:105120008070E16E0860D4E91C104860012084F8AA
:10513000350000BF002084F8340000BF00BF9DE5AB
:10514000A00402400854025870B504460CB901206E
:1051500070BD94F83500022803D0802060650120DE
:10516000F6E7DC492068884249D0DA4918312068DE
:10517000884244D0D7493031206888423FD0D54951
:105180004831206888423AD0D2496031206888424C
:1051900035D0D04978312068884230D0CD4990311F
:1051A000206888422BD0CB49A8312068884226D07D
:1051B000C9492068884222D0C749183120688842EE
:1051C0001DD0C54930312068884218D0C2494831C5
:1051D0002068884213D0C0496031206888420ED0D0
:1051E000BD4978312068884209D0BB499031206898
:1051F000884204D0B849A8312068884201D10120F2
:1052000000E00020F0B3042084F83500B1492068A4
:1052100088424BD0AF4918312068884246D0AD490A
:1052200030312068884241D0AA49483120688842FC
:105230003CD0A84960312068884237D0A5497831F0
:105240002068884232D0A3499031206888422DD00E
:10525000A049A8312068884228D09F492068884208
:1052600024D09D491831206888421FD09A49303196
:10527000206888421AD0984948312068884215D061
:10528000954900E020E06031206888420ED09249C4
:1052900078312068884209D08F499031206888424F
:1052A00004D08D49A8312068884206D12068006862
:1052B00020F001002168086009E12068006820F002
:1052C00001002168086002E12068006820F00E00FB
:1052D000216808607F492068884249D07D4918319B
:1052E0002068884244D07B493031206888423FD0D2
:1052F00078494831206888423AD076496031206840
:10530000884235D0734978312068884230D071495D
:105310009031206888422BD06E49A831206888429D
:1053200026D06D492068884222D06B491831206808
:1053300088421DD0684930312068884218D06649BB
:1053400048312068884213D0634960312068884220
:105350000ED0614978312068884209D05E49903189
:105360002068884204D05C49A8312068884206D170
:105370002068006820F001002168086005E02068CE
:10538000006820F0010021680860524920688842C6
:1053900070D050491831206888426BD04D49303167
:1053A0002068884266D04B4948312068884261D0E5
:1053B00048496031206888425CD04649783120688D
:1053C000884257D0434990312068884252D04149A1
:1053D000A831206888424DD03F492068884249D092
:1053E0003D4918312068884244D03B49303120681B
:1053F00088423FD038494831206888423AD03649FF
:1054000060312068884235D033497831206888423D
:1054100030D031499031206888422BD02E49A831B4
:105420002068884226D02D492068884222D02B4906
:105430001431206888421DD02849283120688842CC
:1054400018D026493C312068884213D02349503176
:10545000206888420ED0214964312068884209D0F2
:105460001E4978312068884204D01C498C3120685C
:10547000884201D1012000E00020D8B1206E0068F0
:1054800020F48070216E0860A56D94F85C0000F037
:105490001F01012088406860D4E919104860E06E5F
:1054A00040B1E06E006820F48070E16E0860D4E9DD
:1054B0001C104860012084F8350000BF002084F8EB
:1054C000340000BF206D10B12046216D88470020B8
:1054D0003EE600001000024010040240085402584A
:1054E0000146486D704700002DE9F84F0446002042
:1054F0000090FE4800684FF41651B0FBF1FAA66D1B
:10550000D4F858803768D8F80090F9492068884264
:1055100049D0F74918312068884244D0F4493031E5
:10552000206888423FD0F2494831206888423AD00A
:10553000EF4960312068884235D0ED4978312068E4
:10554000884230D0EA499031206888422BD0E8491F
:10555000A8312068884226D0E6492068884222D0B7
:10556000E4491831206888421DD0E2493031206872
:10557000884218D0DF4948312068884213D0DD497D
:105580006031206888420ED0DA497831206888423C
:1055900009D0D84990312068884204D0D549A83133
:1055A0002068884201D1012000E0002000287DD041
:1055B00094F85C0000F01F01082088403840002863
:1055C00068D0CB492068884249D0C9491831206841
:1055D000884244D0C6493031206888423FD0C4490F
:1055E0004831206888423AD0C149603120688842F9
:1055F00035D0BF4978312068884230D0BC499031DD
:10560000206888422BD0BA49A8312068884226D029
:10561000B8492068884222D0B649183120688842AB
:105620001DD0B44930312068884218D0B149483182
:105630002068884213D0AF496031206888420ED07C
:10564000AC4978312068884209D0AA499031206855
:10565000884204D0A749A8312068884204D1206834
:10566000006800F0040003E02068006800F0080013
:1056700080B12068006820F004002168086094F878
:105680005C0000F01F0108208840B060606D40F0B1
:105690000100606594F85C0000F01F010120884063
:1056A0003840E8B392492068884200E0B7E24BD026
:1056B0008F4918312068884246D08D4930312068A2
:1056C000884241D08A494831206888423CD0884984
:1056D00060312068884237D0854978312068884217
:1056E00032D083499031206888422DD08049A8313A
:1056F0002068884228D07F492068884224D07D498C
:105700001831206888421FD07A4930312068884299
:105710001AD0784948312068884215D0754900E090
:1057200026E06031206888420ED0724978312068C6
:10573000884209D06F4990312068884204D06D4971
:10574000A8312068884204D12068406900F08000B8
:1057500002E020680068002050B194F85C0000F07E
:105760001F0101208840B060606D40F0020060655C
:1057700094F85C0000F01F01042088403840E8B332
:105780005B49206888424BD05949183120688842CB
:1057900046D0574930312068884241D05449483179
:1057A000206888423CD0524960312068884237D016
:1057B0004F4978312068884232D04D499031206875
:1057C00088422DD04A49A8312068884228D04949CA
:1057D0002068884224D047491831206888421FD069
:1057E00044493031206888421AD042494831206803
:1057F000884215D03F496031206800E024E08842AB
:105800000ED03C4978312068884209D0394990311E
:105810002068884204D03749A8312068884204D1E2
:105820002068006800F0020002E0206800680020A4
:1058300050B194F85C0000F01F0104208840B06073
:10584000606D40F00400606594F85C0000F01F019A
:10585000102088403840E8B325492068884251D05C
:1058600023491831206888424CD0214930312068C2
:10587000884247D01E4948312068884242D01C499E
:105880006031206888423DD01949783120688842CB
:1058900038D0174990312068884233D01449A83154
:1058A000206888422ED01349206888422AD01149A6
:1058B00018312068884225D00E493031206888424E
:1058C00020D00C494831206888421BD009496031FA
:1058D000206800E04DE0884214D006497831206805
:1058E00088420FD003499031206805E04008002429
:1058F0001000024010040240884203D0FE49206894
:10590000884204D12068006800F0080003E02068A5
:10591000006800F0040060B394F85C0000F01F0120
:1059200010208840B0602068006800F4802080B1BA
:105930002068006800F4002028B9206CC8B1204617
:10594000216C884715E0A06C98B12046A16C88476F
:105950000FE02068006800F4807028B920680068B3
:1059600020F0080021680860206C10B12046216CEE
:10597000884794F85C0000F01F01202088403840E0
:1059800000287DD0DD492068884249D0DB491831A4
:105990002068884244D0D9493031206888423FD0BD
:1059A000D6494831206888423AD0D44960312068CD
:1059B000884235D0D14978312068884230D0CF49EB
:1059C0009031206888422BD0CC49A8312068884289
:1059D00026D0C949A8392068884221D0C6499039C3
:1059E000206888421CD0C44978392068884217D082
:1059F000C14960392068884212D0BF4948392068BF
:105A000088420DD0BC4930392068884208D0BA4954
:105A100018392068884203D0B7492068884204D1E9
:105A20002068006800F0100003E02068006800F0C3
:105A3000020028B394F85C0000F01F012020884089
:105A4000B06094F8350004282DD12068006820F05B
:105A50001600216808602068406920F080002168F5
:105A60004861206C08B9A06C28B12068006820F05B
:105A700008002168086094F85C0000F01F0100E055
:105A80003FE03F208840B060012084F8350000BF2F
:105A9000002084F8340000BF206D10B12046216D35
:105AA0008847BDE8F88F2068006800F4802080B146
:105AB0002068006800F4002028B9606C08B3204614
:105AC000616C88471DE0E06BD8B12046E16B8847E8
:105AD00017E02068006800F4807068B920680068EA
