:020000040802F0
:10000000A03B0424E5040208B5BE020825AD0208A1
:100010009DBE0208EF220208710E030800000000D6
:10002000000000000000000000000000250402089D
:10003000AD380208000000008104020859D302080C
:10004000FF040208FF040208FF040208FF0402087C
:10005000293E0208FF040208053D0208433D02084C
:100060004D3D0208573D0208613D02087531020806
:100070008531020895310208A5310208B531020820
:10008000C5310208D5310208FF040208FF04020846
:10009000FF040208FF040208FF0402086B3D020887
:1000A000FF040208FF040208FF040208FF0402081C
:1000B000FF040208FF040208FF040208FF0402080C
:1000C000FF040208FF040208FF040208FF040208FC
:1000D000FF040208E9E4020801E5020819E5020844
:1000E0000F3D0208FF04020800000000FF040208A0
:1000F000FF040208FF040208FF040208E5310208B9
:10010000FF040208FF040208FF040208FF040208BB
:100110000DD9020829D90208FF040208FF040208C9
:10012000F531020805320208FF040208FF04020844
:10013000FF040208FF040208FF040208FF0402088B
:1001400000000000000000000000000000000000AF
:10015000FF040208FF040208FF040208FF0402086B
:10016000FF040208FF040208FF040208FF0402085B
:10017000FF040208FF040208FF0402080000000058
:10018000FF040208FF040208FF040208FF0402083B
:10019000FF040208FF040208FF040208FF0402082B
:1001A000FF040208FF040208FF040208FF0402081B
:1001B000FF040208FF040208FF040208FF0402080B
:1001C000FF040208FF040208FF040208FF040208FB
:1001D000FF040208B1BF0208FF040208FF0402087E
:1001E000FF040208FF040208FF040208FF040208DB
:1001F000FF040208FF040208FF040208FF040208CB
:10020000FF040208FF040208FF040208FF040208BA
:10021000FF040208FF04020871D50208FF04020867
:10022000FF040208FF040208FF04020800000000A7
:10023000FF040208FF04020800000000FF04020897
:10024000FF040208FF040208FF040208FF0402087A
:10025000FF040208FF040208FF040208FF0402086A
:10026000FF040208FF040208FF040208FF0402085A
:10027000FF040208FF040208FF0402080000000057
:10028000FF040208FF040208FF0402080000000047
:1002900000000000FF04020800F002F800F0B2F8CD
:1002A0000AA090E8000C82448344AAF10107DA45D1
:1002B00001D100F0A7F8AFF2090EBAE80F0013F071
:1002C000010F18BFFB1A43F001031847E08D01002E
:1002D000008E01000A444FF0000C10F8013B13F0AF
:1002E000070408BF10F8014B1D1108BF10F8015B8F
:1002F000641E05D010F8016B641E01F8016BF9D182
:1003000013F0080F1EBF10F8014BAD1C0C1B09D1D8
:100310006D1E58BF01F801CBFAD505E014F8016B4A
:1003200001F8016B6D1EF9D59142D6D370470000DC
:100330000023002400250026103A28BF78C1FBD8EE
:10034000520728BF30C148BF0B6070476E2900F0CC
:100350009F83702900F0E984662917F0DC876529FE
:1003600017F0D987672917F0D687612917F0D58745
:1003700003681B0A28BF41F08001692900F04C8303
:10038000642900F04983752900F046836F2900F045
:100390007684782900F0B584E92900F01184E429F5
:1003A00000F00E84F52900F00B84EF2900F073842F
:1003B000F82900F0B4840368DB0928BF41F080010C
:1003C000632901F0BB81732901F0C081E32901F0A9
:1003D000CB81F32901F0D081002070471FB517F0C1
:1003E00095FF01F01FFA04000020002117F070FFB4
:1003F000401C60600020002117F054FFE0601FBD2A
:1004000010B510BD01F0E0F91146FFF7E7FF12F05B
:1004100099F801F0BDFA03B4FFF7F2FF03BC01F055
:10042000C1FA00002C4B19680868B0E8F04F80F35F
:100430000988BFF36F8F4FF0000080F31188704779
:100440000000000008480068006880F308884FF04A
:10045000000080F3148862B661B6BFF34F8FBFF31C
:100460006F8F00DF00BF00BF08ED00E0DFF80C0079
:10047000016841F470010160704700BF88ED00E041
:10048000EFF30980BFF36F8F134B1A681EF0100F44
:1004900008BF20ED108A20E9F04F106009B44FF03A
:1004A000500080F31188BFF34F8FBFF36F8F16F0AA
:1004B0008DFB4FF0000080F3118809BC19680868B3
:1004C000B0E8F04F1EF0100F08BFB0EC108A80F3B8
:1004D0000988BFF36F8F704738080024EFF3058059
:1004E000704700000948804709480047FEE7FEE7DB
:1004F000FEE7FEE7FEE7FEE7FEE7FEE7FEE7FEE7D4
:1005000004480549054A064B7047000069D40208B3
:1005100099020208A0310424A03B0424A03304243F
:10052000A033042453EA020C00F069802DE9F04B5B
:100530004FF00006002B1FBFB3FA83F503FA05F452
:1005400024FA05F65E4012BF1643B2FA82F502FAAB
:1005500005F4C5F120051EBF22FA05FC44EA0C048F
:10056000203556EA044C4FEA144418BF641C4FF07F
:1005700000084FF00009904271EB030C39D30029B9
:1005800019BFB1FA81F701FA07F6B0FA80F700FA5D
:1005900007F6C7F120071EBF20FA07FC46EA0C0643
:1005A0002037B6FBF4FCA7EB0507103F07F01F0B45
:1005B000CBF120060CFA0BFB2CFA06F644BFB3462F
:1005C0000026202FA4BF5E464FF0000B5BEA060C0E
:1005D00008BF4FF0010B19EB0B09ABFB027C48EB9A
:1005E0000608C01B06FB02CC0BFB03CC71EB0C0115
:1005F000C1E70B46024641464846BDE8F08B13B5BD
:100600004FF000004FF00001AFF30080BDE81C4048
:10061000704700007CB51D4616460C00009001D0C6
:100620002044401E074B7B442A46694601903046D1
:1006300000F047FA05461CB10020694600F054FA64
:1006400028467CBDC904000030B505460B462A4645
:1006500013F8014B12F8010B08B1A042F8D01CB1FD
:10066000002802D06D1CF1E7284630BD10B5431CB0
:1006700002E010F8011B71B18107FAD14FF001328D
:1006800002C88C1A8C4314EAC211F9D0C01A0A06A7
:1006900003D0C01E10BDC01A10BD0A0401D0801EB8
:1006A00010BD0902FCD0401E10BD40EA010370B528
:1006B0009B072ED14FF00136042A2AD308C810C94F
:1006C0009D1B9D43121F15EAC61517D0D8B2E1B283
:1006D000401A50EA056110D198B2A1B2401A50EA0E
:1006E00005410AD123F07F4024F07F41401A50EAAF
:1006F000052102D1180EA0EB146070BDA342DBD01F
:1007000018BA21BA884201D9012070BD4FF0FF30DC
:1007100070BD0AB9002070BD10F8013B11F8014B03
:1007200063B1A3420AD1521E08D010F8013B11F860
:10073000014B1BB1A34201D1521EEDD1181B70BD5C
:10074000032A40F2308010F0030C00F0158011F8FD
:10075000013BBCF1020F624498BF11F801CB00F8D5
:10076000013B38BF11F8013BA2F1040298BF00F829
:1007700001CB38BF00F8013B11F0030300F02580E6
:10078000083AC0F0088051F8043B083A51F804CB0D
:10079000A0E80810F5E7121D5CBF51F8043B40F8D3
:1007A000043BAFF30080D20724BF11F8013B11F8DE
:1007B00001CB48BF11F8012B24BF00F8013B00F822
:1007C00001CB48BF00F8012B704710B5203AC0F0AC
:1007D0000B80B1E81850203AA0E81850B1E8185042
:1007E000A0E81850BFF4F5AF5FEA027C24BFB1E87F
:1007F0001850A0E8185044BF18C918C0BDE81040F0
:100800005FEA827C24BF51F8043B40F8043B08BFF8
:100810007047D20728BF31F8023B48BF11F8012BBF
:1008200028BF20F8023B48BF00F8012B704702F0B8
:10083000FF0343EA032242EA024200F002B84FF00B
:1008400000020429C0F0128010F0030C00F01B809D
:10085000CCF1040CBCF1020F18BF00F8012BA8BFAB
:1008600020F8022BA1EB0C0100F00DB85FEAC17C6F
:1008700024BF00F8012B00F8012B48BF00F8012B22
:1008800070474FF0000200B5134694469646203953
:1008900022BFA0E80C50A0E80C50B1F12001BFF439
:1008A000F7AF090728BFA0E80C5048BF0CC05DF89F
:1008B00004EB890028BF40F8042B08BF704748BFED
:1008C00020F8022B11F0804F18BF00F8012B704761
:1008D0004FF0013C50F8042B51F8043B9A4215D1DB
:1008E000A2EB0C03934313EACC130BD150F8042B67
:1008F00051F8043B9A4209D1A2EB0C03934313EA4B
:10090000CC13E7D04FF00000704700BFD01A01BAF7
:10091000B1FA81F101F0180122FA01F0CB40C1F1E6
:100920002001DBB2C0B2C01A2CFA01F3D11A9143F4
:1009300011EAC311E6D1704770477047704710B590
:1009400000F0C2FA006810BD10B5044600F0BCFA11
:10095000046010BD70B5044685690068C10601D504
:10096000302600E02026C00707D070BDD4E9012161
:1009700030469047206A401C20626D1EF6D570BD3F
:1009800070B5044685690078C00707D170BDD4E909
:10099000012120209047206A401C20626D1EF6D560
:1009A00070BD09684A0501D540B27047C905FCD53C
:1009B00000B2704709684A0501D5C0B27047C90541
:1009C000FCD580B2704770B50C460546012A05D0AB
:1009D0002878800600D5EA69002302E0012305E0BB
:1009E0005B1C934202D2E05C0028F9D1A869E618AA
:1009F000C01AA861286A184428622846FFF7AAFF8F
:100A000004E0D5E9012114F8010B9047B442F8D372
:100A10002846FFF7B5FF70BD2DE9F04106460024DA
:100A200010687529314616A510D0FFF7BAFF0028C7
:100A300002DA404213A507E031688A0701D512A502
:100A400002E0490704D511A5012401E0FFF7B2FF38
:100A500000210A2206F1240709E0B0FBF2FCB0FBFA
:100A6000F2F302FB1C00303078541846491C002871
:100A7000F3D123462A463046BDE8F04100F06DBA76
:100A8000000000002D0000002B00000020000000EE
:100A900011680268006A530501D508700AE0D305A1
:100AA00001D5088006E0130603D5C217C1E900028C
:100AB00000E008600120704701694A1C0261087863
:100AC000704700B58FB0CDE901310021059105498E
:100AD0007944CDE903101146684600F031F90FB0B2
:100AE00000BD0000E5FFFFFF0A6802F8010B0A6085
:100AF0007047D1E900239A4202D2531C0B60107058
:100B0000704700002DE9FF5F15468A460446DFF86E
:100B1000AC80F8440027D8E900103E46CDE900102B
:100B200010E03AF816106A4602A800F029FE411CAF
:100B300007D02178890603D5E269391891420DD88A
:100B40000744761C2078800602D5E069B84205DDAE
:100B5000AE42E6DB3AF816000028E2D1A069C01BDD
:100B6000A0612046FFF7F6FED8E90010CDE900109D
:100B7000002017E03AF818106A4602A800F000FEBC
:100B8000B0F1FF3F81460BD000250DF1080B05E0C9
:100B9000D4E901211BF8050090476D1C4D45F7D3A2
:100BA00008F10100B0428046E4DB206A384420624C
:100BB0002046FFF7E5FEBDE8FF9F0000627E0100D2
:100BC0002DE9F0418046D21D22F007020025D2E92E
:100BD0000002F52915A614D0011E72F1000106DAF3
:100BE0000023D0EB030063EB020211A608E0D8F863
:100BF00000108B0701D50FA602E0490701D50EA60C
:100C000001251146002408F1240704E000F060F9F2
:100C100030323A55641C50EA0102F7D12B46324675
:100C200021464046BDE8F04100F097B900000000C1
:100C30002D0000002B0000002000000030B4002137
:100C400000F1240408E002F00705D208303542EA3A
:100C50004372DB086554491C52EA0305F3D104686A
:100C6000002310A2250707D5A40600D421B1C4692A
:100C700001230DA2641EC46130BC00F06EB910B532
:100C8000044621461068FFF795FE02462046BDE85F
:100C900010400023D2E7D21D22F00701D1E9002342
:100CA000CCE700000000000030000000F0B40D466A
:100CB0000188090502D5214C7C4402E01F4C7C448C
:100CC0000E34002100F1240608E002F00F0712099B
:100CD000E75D42EA03721B097754491C52EA030795
:100CE000F3D102780023120704D5702D06D009B184
:100CF000022311342246F0BC00F02FB90123103436
:100D0000F8E770B504460D4621461068FFF752FE1D
:100D1000024629462046BDE870400023C6E7D21DA2
:100D200022F00703D3E90023C0E70368126843F009
:100D3000200303600823C3610023B7E7C47C0100DC
:100D40002DE9F05F894604464FF0000ADFF874B1E0
:100D5000FB44C0F820A02046E1688847002874D0F2
:100D6000252806D0D4E901219047206A401C206242
:100D7000F1E700265F462046E168884720280546BF
:100D800007DB312D05D2781910F8200C08B1064385
:100D9000F1E7B00701D526F00406C4F81CA000272F
:100DA000C4F818A02A2D09D0284611F0AFFB38B39B
:100DB00004EB8708303DC8F8185019E059F8041BB7
:100DC000204604EB87029161E1688847012F0546C0
:100DD00018D1E069002820DA26F020061DE0D8F8B6
:100DE000180000EB800005EB40003038C8F8180010
:100DF0002046E1688847054611F088FB0028EED1BF
:100E0000012F0AD02E2D08D12046E16888477F1C8B
:100E10000546022F46F02006C4DBA069002803DA4D
:100E2000404246F00106A061F00701D026F010060E
:100E30006C2D0BD0682D09D04C2D39D06A2D35D0B2
:100E4000742D35D07A2D33D016E038E0E1682F4686
:100E500020468847B842054609D16C2F26D04FF46A
:100E60008060E168064320468847054604E06C2F11
:100E70001AD04FF4807006430DB3A5F14100192834
:100E800002D8203546F400664A46294620462660A8
:100E90004E46FFF75BFA80B101280BD0F61D26F015
:100EA000070000F1080956E74020E4E78020D8E772
:100EB0000020D6E706F104094DE7284652E7206AEC
:100EC000BDE8F09F547C0100004870473C31042489
:100ED00030B5B0F10A024FEA900E71F100034EEA0C
:100EE000817EB0EB0E0061EB91014FEA101E4EEADD
:100EF000017E10EB0E0041EB11114FEA102E4EEA6D
:100F0000016E10EB0E0041EB11214FEA104E4EEA3C
:100F1000014E10EB0E0041EB1141401841F1000170
:100F20004FEAD00040EA41704FEAD10110EB800552
:100F30004FEA810444EA907444EB01046D1944EBD8
:100F40000404521BA3414FF0000348BF0A3200D5EE
:100F500030BD401C41F1000130BD2DE9F0470D4688
:100F600099469246044600F124080168880604D593
:100F7000E06921F01001216000E00120A84201DDBC
:100F8000471B00E00027A1697A1902EB0900081A43
:100F9000A0612078C00602D42046FFF7DBFC0026C3
:100FA00008E0D4E901211AF806009047206A401CA5
:100FB000761C20624E45F4DB2078C0060AD5204618
:100FC000FFF7C8FC06E0D4E9012130209047206AF1
:100FD000401C2062381EA7F10107F4DC07E0D4E9C9
:100FE000012118F805009047206A401C2062281E45
:100FF000A5F10105F3DC2046FFF7C2FC20780006CE
:1010000002D50220BDE8F0870120FBE770472DE9FB
:10101000FF4F0C461E464FF0FF378BB0D2E9000160
:10102000DDF860800A908A46C1F30A5505B93D464D
:10103000002108464FF00000BAF1000F00F4400014
:1010400005DA00EB80004FF4400101EA50004FEA5E
:101050009059B9F1010F00DDB9460A9850EA4A00EB
:101060000ED044F61050A5F2FF3545432F14B8F1C9
:10107000000F1ED07542291E1EDDC9F100021CE0C2
:10108000B8F1010F4FF0000001D0302103E0F2432E
:1010900005E02154401CB042FBDB30460022002119
:1010A00021540B99C1F80880C1E900200FB0BDE8B8
:1010B000F08FBD1B6D1CDEE74A4600DA694206A8C8
:1010C00000F0F4FB06AB93E8070003AB83E80700EE
:1010D00050460A9900F06DFC8DE80700A0F500501D
:1010E0001F3800900398002D0ADD42F21F014A4686
:1010F0000844002303A90390684600F0D6FE09E0E7
:10110000A0F500504A461F38002303A90390684603
:1011100000F0E0FE8DE807000004000C03D04FF063
:10112000FF30410800E01046B8F1000F03D0002264
:10113000009215461EE0751E05D4FFF7C9FE303239
:1011400062556D1EF9D5B3460122084302D0002234
:101150007F1C04E02078302801D100227F1E002A65
:10116000099784D01DE0112D07DAFFF7B1FE303268
:1011700062556D1C50EA0102F5D1084302D0009877
:10118000C8B10EE00021681E05E0235C625C635478
:101190002254401E491C8142F7DBAB46A81B401E6F
:1011A0000990002004F80B000B98099AC0F80880F9
:1011B000C0E9002B7AE711264FF0000857E72DE928
:1011C000F04F88460446D21D22F0070191B0D1E9C4
:1011D0000001CDE90A010FF09BFE02460B98C00FFB
:1011E00001D02D2007E02068810701D52B2002E0E7
:1011F000202101EAC000032A099001D0072A05DB5B
:1012000003464146204600F011FB0BE120788006A2
:1012100001D5E06900E00620B8F1650F814606D0EF
:10122000B8F1660F18D0B8F1670F70D131E0002027
:10123000B9F1110F009001DB112301E009F1010365
:101240000AAA01A90CA8FFF7E2FEDDE90C7000264E
:1012500009F10105834647E001204B4600904FF01D
:1012600000470AAA01A90CA8FFF7D1FEDDE90DB0DD
:101270000C995D46002610B909F101000D18B9EB73
:10128000050003D4C0F1FF3609F10105A5EB090003
:101290002BE0B9F1010F01DA4FF001090020B9F19B
:1012A000110F0090484601DD112300E003460AAA11
:1012B00001A90CA8FFF7ABFEDDE90C704D46002636
:1012C0008346207800070AD4AB4500DA5D4601A8C2
:1012D000012D04DD411911F8011C302907D04F45BB
:1012E00002DA17F1040F04DA012082460FE06D1EC6
:1012F000EEE7002F02DCED1B3E4403E0781CA84221
:1013000000DD7D1CB81B00F1010A4FF0004720787A
:10131000000703D4AA4501DB4FF0FF3A0021B7F1E3
:10132000004F0DF143088DF8431024D002202B23E9
:10133000002F01DA7F422D230A21021EA0F10100B5
:1013400000DC5FB197FBF1FC97FBF1F201FB1C7C29
:1013500017460CF1300C08F801CDEEE7A8F10100BA
:1013600003702188090501D5452100E06521A0F120
:10137000010800F8011C09980FA9A1EB0807FF1D3F
:1013800000B10120411901EBEA70A1693844081A43
:10139000401EA0612078C00602D42046FFF7DAFA8A
:1013A000099828B1D4E901219047206A401C2062A5
:1013B0002078C00622D52046FFF7CCFA1EE0002E8A
:1013C00004DBB34502DD01A8805D00E03020D4E9F4
:1013D00001219047206A401C2062761CAAF101007E
:1013E0005FEA000A0AD100F01DFAC0680168405C9B
:1013F000D4E901219047206A401C2062281EA5F1F3
:101400000105DCDC07E0D4E9012118F8010B904765
:10141000206A401C2062381EA7F10107F3DC204639
:10142000FFF7AEFA032011B041E600002DE9F04FBE
:1014300004460D46D21D22F0070089B0D0E900977E
:10144000484639460FF064FD0246F80F01D02D23BF
:1014500007E02068810701D52B2302E0202101EA63
:10146000C0038DF820300BB1012000E00020032ADA
:10147000824601D0072A04DB2946204600F0D6F92F
:101480003FE12078800601D40D2500E0E569C7F32F
:101490000A560D2D49DA00214FEA175B08464FF036
:1014A0000000002F00F4400007DA00EB80004FF44A
:1014B000400100EBD07001EA60008115012901DDD7
:1014C0004FF0FF3100224FEA850CBCF1180F06D314
:1014D0001346ACF118004FF08052C24003E04FF4C5
:1014E000801323FA0CF30CF10C0CBCF1200F04D385
:1014F000ACF1200C09FA0CF001E007FA0CF000291D
:101500004FF0004801DD18B90FE00ED140450CD373
:1015100019EB02095F4121B9404502D19F4329EAF5
:101520000209BBEB175F00D0761C2088000502D5AE
:101530007B48784402E07A487844193808AA302376
:1015400002F80A30037C0AF10101002E0AF1020AB6
:1015500053546A4602DC4FF0300101E04FF0310194
:101560004FF001088DF8001002D0A6F2FF3603E01C
:1015700059EA470100D06B4E002D02DC21780907A3
:1015800004D54FF002082E218DF80110C446002129
:101590000BE0C7F303433F01C35C491C6D1E02F817
:1015A0000830052908F1010801DA002DF1DC0021DD
:1015B0000CE000EB1973491C1B786D1E082902F81A
:1015C00008304FEA091908F1010801DA002DF0DCB2
:1015D00021688B0602D516E0A8F10108E04505DD7B
:1015E00002EB080313F8013C302BF5D0B8F1000FE3
:1015F00009DD02EB080313F8013C2E2B03D1090788
:1016000001D4A8F10108002D05DD3E2102F80810E3
:101610006D1E08F10108407C002E02F8080008F158
:10162000010804DA2D20764202F8080002E02B209F
:1016300002F808000A214FF47A70864208F1010886
:101640000BDB96FBF0F3303302F8083096FBF0F337
:1016500008F1010800FB136601E0642E0CDB642036
:1016600096FBF0F3303302F8083096FBF0F308F104
:10167000010800FB136601E00A2E06DB96FBF1F081
:10168000303002F8080008F1010896FBF1F001FB88
:101690001060303002F80800A16908F1010808EB79
:1016A000050202EB0A00081AA0612078C00602D4E5
:1016B0002046FFF74FF9216A08AE01EB0A002062CD
:1016C00004E0D4E9012116F8010B9047BAF1010AB0
:1016D000F7D22078C00602D52046FFF73BF96E46C8
:1016E00009E016F8010B3E280FD0D4E901219047FC
:1016F000206A401C2062B8F10108F2D22046FFF7B0
:101700003FF909B00320BDE8F08F206A2844206229
:1017100003E0D4E90121302090476D1EEBD3F8E7B8
:10172000A574010002FCFFFF10B5436913B1AFF3CC
:10173000008001E0FFF747F9012010BD127800F1A9
:1017400024010A7000224A700122EDE711684FF06F
:10175000FF32E9E710B5436913B1AFF3008001E050
:10176000FFF7D0F9012010BD128800F12401828416
:101770000022C2840122EDE711684FF0FF32E9E751
:1017800070B516460C46054600F044F8036893F819
:101790000101012806D0FF2C0FD8185D68B1012087
:1017A0002C7070BDD3F807013246214603F20713AF
:1017B00003442846BDE8704018474FF0FF3070BD25
:1017C000004870473C3104247546FFF7F9FFAE46E8
:1017D00005006946534620F00700854618B020B53D
:1017E000FEF78EFEBDE820404FF000064FF00007E8
:1017F0004FF000084FF0000B21F00701AC46ACE8B9
:10180000C009ACE8C009ACE8C009ACE8C0098D4625
:101810007047000010B500F005F8001D10BD00BFB6
:10182000B16A0100004870475C3104242DE9F041A1
:101830001F46044603260168072A01F4006004DB02
:1018400008B116A505E016A503E008B115A500E04E
:1018500015A521F010002060A069C01EA0610FB185
:10186000401EA0612046FFF775F84FB1D4E9012171
:1018700038469047206A401C2062C01C206206E067
:10188000206AFAE7D4E9012115F8010B9047761E8A
:10189000F8D22046FFF774F8BDE8F0814E414E00C3
:1018A0006E616E00494E4600696E66002DE9F04794
:1018B000814616468AB0354878440DC88DE80D003B
:1018C00032487844801C03AC0DC884E80D0041F612
:1018D0009B300844372190FBF1F290FBF1F5A5F124
:1018E000800501FB12041B3C02D56442012000E08C
:1018F0000020DFF898A080460027FA44AAF1BE0A2B
:101900000EE0E0070AD03246684607EB47010123A4
:101910000AEB810100F0DEFA8DE8070064107F1CFD
:10192000002CEED1194F7F44AE3F19E0E80715D0E7
:1019300007EB04100DF1180A90E80E008AE80E007B
:10194000C068F04201D1981908903246012306A9D7
:1019500003A800F0BFFA03AB83E807006D10641C16
:10196000002DE3D14FF0010332466946B8F1000F74
:1019700003A802D000F099FA01E000F0ABFAC9E93F
:101980000001C9F808200AB0BDE8F087B071010075
:1019900010B50446AFF300802046BDE81040FEF7C6
:1019A0003ABD000001491820ABBEFEE72600020048
:1019B00070475FEA400C08BF91F0000F4FEA8C239C
:1019C0004FEAC12243EA51514FEA1C5018BF00F5BB
:1019D000F0404FEA300018BF41F000415FEA6C5C14
:1019E00000F02980BCF1FF3F08BF40F08040704705
:1019F000130C06BF12044FF0100C4FF0000C130E26
:101A000004BF12020CF1080C130F04BF12010CF1F9
:101A1000040C930F04BF92000CF1020CD30F04BF0F
:101A200052000CF1010C11464FF00002A0F11F0012
:101A3000A0EB0C00704711F0004F08BF704731F069
:101A400000413FF4D5AF0B0C06BF09044FF0100C5A
:101A50004FF0000C0B0E04BF09020CF1080C0B0F29
:101A600004BF09010CF1040C8B0F04BF89000CF1B9
:101A7000020CCB0F04BF49000CF1010CCCF1200388
:101A8000A0EB0C0022FA03F302FA0CF241EA030184
:101A900000F10100704720F07F4C80EA030023F042
:101AA0007F47ACEB070303F57C5300F0004003F1E4
:101AB000FF032DE980494FEA154B09B44FEA14435F
:101AC00025EA0B4E24EA03480FF2042606EB1327FF
:101AD00049083E785FEA320203FB0667C7F5000754
:101AE00007FB06F64FEA54374FEAD64606F10206E0
:101AF00007FB066CCCF1005C4FEA1C472CEA074C54
:101B000007FB06F40CFB06F504EB15464FEA9616A8
:101B100034BF00204FF000404FEAD13706FB07FCEE
:101B20004FEA1C4C0CFB0BF7D21B03FB0CF761EBD1
:101B300007010CFB0EF7B0EB074072EB17420CFBF2
:101B400008F734BFA2EB0742B2EB074261EB174143
:101B50004FEA0C444FEA910706FB07FC4FEA1C4C86
:101B60000CFB0BF7B0EBC74072EB573203FB0CF7E3
:101B700034BFA2EBC742B2EBC74261EB57310CFB5B
:101B80000EF7B0EBC70072EB57720CFB08F734BFCF
:101B9000A2EBC702B2EBC70261EB5771039F4FEA9A
:101BA000816141EA921104EBCC044FEAD1374FEA4C
:101BB000826206FB07FC42EA90124FEA80604FEA1D
:101BC0001C4C0CFB0BF7D21B03FB0CF761EB070162
:101BD0000CFB0EF7B0EB074072EB17420CFB08F75B
:101BE00034BFA2EB0742B2EB074261EB17414FEA69
:101BF0008C554FEA910704EB9C2406FB07FC4FEA47
:101C00001C4C0CFB0BF7B0EBC74072EB573203FBDD
:101C10000CF734BFA2EBC742B2EBC74261EB5731BE
:101C20000CFB0EF7B0EBC70072EB57720CFB08F71A
:101C300034BFA2EBC702B2EBC70261EB577115EBE1
:101C40004C254FEA816141EA92114FEA82624FEAE4
:101C5000D13742EA901206FB07FC44F100044FEA38
:101C600080604FEA1C4C0CFB0BF7D21B03FB0CF7FC
:101C700061EB07010CFB0EF7B0EB074072EB17426C
:101C80000CFB08F734BFA2EB0742B2EB074261EB53
:101C9000174115EB1C154FEA813141EA92414FEA99
:101CA000823242EA90424FEA80304FEA0C7644F1A9
:101CB000000448EA03434EEA0B484FF0000EB2EB33
:101CC000080C71EB030724BF624639464EEB0E0E3B
:101CD0004FF0000B0018524149414BEB0B0BB2EB9C
:101CE000080C71EB03077BF1000B24BF62463946F9
:101CF0004EEB0E0E4FF0000B0018524149414BEBDA
:101D00000B0BB2EB080C71EB03077BF1000B24BF4C
:101D1000624639464EEB0E0E51EA020718BF46F0F6
:101D2000010616EB0E7655F1000254F1000103D5C1
:101D3000BDE88901BDE80088BDE88901BDE800482B
:101D4000B619524141EB0101A3F1010370478080B4
:101D50007F7E7D7C7B7A7978777676757473727105
:101D600071706F6E6E6D6C6C6B6A6A6968686766BD
:101D700066656464636362616160605F5F5E5E5D4F
:101D80005D5C5C5B5B5A5A595958585757565655C3
:101D900055555454535352525251515050504F4F25
:101DA0004F4E4E4D4D4D4C4C4C4B4B4B4A4A4A4975
:101DB00049494848484747474746464645454544B8
:101DC0004444444343434342424242414141002B45
:101DD0009C4630D477002BD01CB54FEA370703B4AC
:101DE0004FF010004FF01001BAF1000F06D0BCF117
:101DF000000FDCBF40F0080040F008014FF0000089
:101E00000FBCBDE810400BF1010BBBF1010F08BF87
:101E10005FEA170722BF12F1010211F101014FF031
:101E2000004143F1000300F0004043EA0000704726
:101E3000F9D35708D0E746EA064613F1400F4FEAB8
:101E400016461FDD13F1200FDFBF16430A4600219F
:101E500020335B42BED0C3F1200746EA064602FAB1
:101E600007F74FEA164646EA0706C3F1200722FAAB
:101E700003F201FA07F721FA03F14FF0000342EAF7
:101E80000702A7E746EA020646EA06464FEA164672
:101E900046EA0106BCBF46EA0646360C4FF0000390
:101EA0004FF000024FF0000194E72DE9804C9A4674
:101EB000934670B491E8380007C831EA400C48BF37
:101EC00034EA430C03D5FFF7E6FDFFF780FFF0BCD3
:101ED000BDE8008C2DE9804C9A46934670B491E899
:101EE000380007C810F0804F08BF13F0804F03D1AF
:101EF00000F005F8FFF76BFFF0BCBDE8008C20F0A8
:101F00007F4780EA030023F07F4C07EB0C03A3F527
:101F10007C5300F00040A3F1FE0392F0000F00F0AC
:101F2000B38095F0000F00F077802DE901494FEA6A
:101F300011404FEA144621EA004800FB06FC24EA5F
:101F4000064708FB06F607FB08F800FB07F718EB47
:101F500006484CEB164C4FEA124B18EB07484FEA79
:101F600015464CEB174022EA0B4E0BFB06FC25EA0C
:101F700006470EFB06F607FB0EFE0BFB07F71EEBF4
:101F8000064E4CEB164C4FF000061EEB074E4CEB8A
:101F9000174B18EB0B0840F1000018EB0E0B58EB39
:101FA000000840F100008F1A4FF000013CBFC94308
:101FB000661B14BFB5EB040C00213CBFC943F61BE4
:101FC0004FEA17444EEA8E0E27EA04454FEA1C47B3
:101FD00004FB07622CEA074C05FB07F70CFB05F630
:101FE00004FB0CFC16EB074642EB174216EB0C46C3
:101FF00042EB1C421BEB060658EB0202414146EA4B
:102000009E0601D5BDE80189B619524141EB010197
:10201000A3F10103BDE801894FEA14454FEA1147D6
:1020200024EA054621EA074C05FB07F406FB07F7FF
:102030000CFB06F105FB0CFC11EB074144EB1744CC
:102040004FEA124711EB0C4144EB1C4422EA074CC7
:1020500005FB07F206FB07F70CFB06F605FB0CFC7D
:1020600016EB074642EB174216EB0C4642EB1C45BB
:102070006A1854F1000148BF7047B619524141EB4C
:102080000101A3F10103704795F0000F37D04FEA2B
:1020900011424FEA144721EA024624EA074C02FBA8
:1020A00007F106FB07F70CFB06F402FB0CFC14EB34
:1020B000074441EB17414FEA154714EB0C4441EB41
:1020C0001C4125EA074C02FB07F506FB07F70CFB52
:1020D00006F602FB0CFC16EB074645EB174516EB24
:1020E0000C4645EB1C42121951F1000148BF7047E4
:1020F000B619524141EB0101A3F1010370474FEAC8
:1021000014454FEA114724EA054621EA074C05FB2E
:1021100007F106FB07F70CFB06F24FF0000605FB84
:102120000CFC12EB074241EB174112EB0C4251EB56
:102130001C4148BF7047921841EB0101A3F1010314
:10214000704700002DE9F04705460C4600274FF088
:102150000109002D4CD0002C4AD06068FEF786FAA9
:1021600000F0FF08404612F0A9FC0646002E3BD0C6
:10217000B8F1000F38D033E02068FEF777FA1FFA85
:1021800080FA238921685246E86908F0F7FCA968BB
:102190000B8942463146E86908F01EFC90B930468A
:1021A0002168FEF751FA40B9781CC7B2324612A135
:1021B0001C48236813F08DFC0AE01BA1194813F09A
:1021C00088FC10E0781CC7B21FA1164813F081FCF0
:1021D000032F05D34FF0000923A1124813F079FC17
:1021E000B9F1000FC8D100BF304614F0FDF900BFAF
:1021F0004846BDE8F0870000526573706F6E7365E6
:1022000020696E737472756374696F6E3A257320FA
:10221000616E64202573206D69736D617463682E2F
:102220000D0A0000640A0024436F6D6D616E642026
:1022300073656E74207375636365737366756C6C18
:10224000792E0D0A000000004174206D6F64756CDA
:102250006520646F6573206E6F7420726573706F94
:102260006E64210D0A00000052657472616E736D18
:10227000697373696F6E2065786365656473207434
:102280006865206D6178696D756D206E756D62652C
:1022900072206F662074696D6573210D0A0000005D
:1022A00070B50446ACB1A06898B1E06988B1A56882
:1022B00006E029462046A26A904700B908E00C359E
:1022C000217901EB4101A06800EB8100A842F0D820
:1022D00000BF70BD70B506460C46154634B1206887
:1022E00020B1A1882A46206804F03AFB70BD00BFE7
:1022F000FEE7000005462C4600BF4FF0FF310948BD
:10230000006811F01BFC0028F7D1002CF5D002204A
:102310002074204609F0D0FD03A10C4813F0D9FB2E
:10232000EBE700009C070024344720726563656971
:102330007665642061207061636B6574206F662030
:1023400064617461202E0D0A00000000640A0024FC
:102350000346042B15D007DC7BB1012B0ED0022BDA
:102360000DD0032B12D10BE0202B0BD0212B0AD048
:10237000222B09D0232B09D107E008E007E006E073
:1023800005E004E003E002E001E000E000BF00BF80
:10239000002070470020704710B5094809490860BF
:1023A0000948486008460022016808480CF033FBE1
:1023B0000448416805480CF01FFB002010BD0000D8
:1023C000DC250024D0210024DC210024F41C00247E
:1023D00070B505460C4606492068886005480068C7
:1023E00018B10448006811F081FB002070BD0000A6
:1023F000D0210024A407002410B503460C46002178
:10240000084610BD2DE9F04F93B005468A46A86AEC
:102410001290EF6A9AF80010286B00EB0110007818
:10242000A0F58450C0B21190002010900F90286C3D
:10243000007A08B9552007E0286C007A401E296C04
:10244000C97940EA01200001C4B200200E90039037
:1024500000269AF80010286B00EB0110036890A189
:102460009848119A13F035FBDDE9111001F059FF7E
:102470000646CEB1F08820B1F28893A1914813F0BE
:1024800028FBF0880012B17940EA012080B2029066
:10249000022302AA41F290012846D5F808C0E0477D
:1024A000322011F0BEFA00BF1298002872D01298A4
:1024B00080890028FAD0119810286BDA6EB98EA0A6
:1024C00092A195A340F2A522CDE9001095497D483F
:1024D00013F0FFFA13B0BDE8F08F302C3AD005DCD2
:1024E0004CB1102C17D0202C45D124E0E02C40D04A
:1024F000F02C40D13EE0F0884FF6FF7101EA001960
:10250000B86906AB10224946D0F850C8E0470E9093
:1025100041F20E0830E0F0884FF6FF7101EA001931
:10252000B86906AB10224946D0F860C8E0470E9063
:102530004FF4815820E0F088C0044FEA1049B86990
:1025400004AB08224946D0F840C8E0470E9041F25B
:10255000050811E0F088C0044FEA1049B86904ABDF
:1025600008224946D0F830C8E0470E9041F20608EC
:1025700002E000BF00BF00BF00BF552C35D00CB932
:10258000062011E0102C01D107200DE0202C02D1F3
:10259000042009E081E0C02C05DBF02C01DC0F20D9
:1025A00002E0082000E00520014628462A699047FD
:1025B000322011F036FA0CB9062010E0102C01D1AF
:1025C00007200CE0202C01D1042008E0C02C05DB02
:1025D000F02C01DC0F2002E0082000E0052002467C
:1025E000234651A1374813F074FA0E98012845D1BB
:1025F000302C23D005DC4CB1102C08D0202C3BD142
:102600001BE0E02C36D0F02C36D134E000BF4FF088
:10261000000B0AE006A901EB8B000422002101F067
:10262000B7FB0BF1010000F0FF0BBBF1080FF1DB72
:1026300006A8109020200F901FE000BF00200BE0A4
:1026400004A9095C01F001018140BDF80C2011438F
:1026500089B20391411CC8B20828F1DBBDF80C0017
:102660004FF6FF7101EA0020039003A810900220AA
:102670000F9002E000BF00BF00BF03E032A111488D
:1026800013F027FA109840B10F9830B1D5F808C070
:1026900041462846DDE90F32E04700BF1AE7000057
:1026A000636172645F73697465203D2025642C202A
:1026B000636172645F61646472203D2030782578C4
:1026C0002E0D0A00640A0024546865206E756D6240
:1026D0006572206F6620626F61726473206F66207E
:1026E00063757272656E7420747970652069733ACF
:1026F00025642E0D0A0000002E2E5C4477696E5C66
:102700005372635C6477696E2E63000031383A322D
:10271000363A3532000000004A756C2031312032E3
:1027200030323200848A030870616765203D2025BD
:10273000642C20636172645F636F6465203D2030A8
:102740007825782E0D0A00004572726F723A204D7E
:102750006F64627573207265676973746572207245
:10276000656164206661696C6564210D0A00000082
:1027700001464A69D2F80001012804D110780D28D9
:1027800001D1012070470020FCE770B5034600240A
:1027900073B169B162B1002008E01D5C0E5CB54206
:1027A00002D01D5C0D540124451CE8B29042F4DBBC
:1027B000204670BD2DED068B90B082464FF000088C
:1027C00000200F900E90814600269FEDF60AB0EE95
:1027D000408A9FEDF40AF0EE408A544600BF4FF065
:1027E0000008002002900A900B900C900D908DF83C
:1027F0002D0001208DF82E0000208DF82F000120E3
:102800008DF83000E84909688869E74909688969ED
:1028100023460E22D1F850580021A847064626B973
:10282000E2A1EB4813F055F969E300200190DE497D
:1028300009688869DC490968896901AB0222D1F815
:1028400030581121A847064646B99DF805309DF835
:102850000420E0A1DE4813F03CF93DE3254604F1F5
:102860001C0703A800908CE1281BC0F3870B02987B
:1028700030BB95ED000AB5EEC00AF1EE10FA03D8B0
:102880000BEB4B00801C1AE095ED000AF1EE000AFC
:10289000B4EEE00AF1EE10FA03D20BEB4B00C01CD1
:1028A0000DE095ED000AF3EE050AB4EEE00AF1EE54
:1028B00010FA03DD0BEB4B00001D00E0002002903E
:1028C00004F10C00854217D295ED000AF1EE000AE2
:1028D00030EE600AB3EE001AC0EE010A97ED000A6E
:1028E00097ED011A30EE411A97ED010A00EE810AC8
:1028F00085ED000A083733E104F11000854214D158
:1029000095ED000AF1EE000A30EE600AB3EE001A0F
:10291000C0EE010A94ED070A94ED081A30EE411A50
:1029200094ED080A00EE810A18E104F10C008542DA
:102930007ED1BFEE000A0EF033FBB0EE409AD4ED2C
:10294000200AB0EE600AF0EE000A0FF0F5F929EE69
:10295000000AF0EE000A80EE20AA95ED000AF1EEE2
:10296000000A30EE600AB3EE001AC0EE010A94EDE0
:102970000D0A94ED0E1A30EE411A94ED0E0A00EE97
:10298000810AD4ED200A70EEC0AA95ED000AF1EE9E
:10299000000A30EE600AB3EE001AC0EE010A94EDB0
:1029A0000D0A94ED0E1A30EE411A94ED0E0A00EE67
:1029B000810AF0EE409AF0EE000A0FF0BDF9D5ED75
:1029C000000AB1EE001A70EEC10AF3EE001A80EEB2
:1029D000A11AD4ED0D0AD4ED0E1A70EEE11AD4ED61
:1029E0000E0A41EE210A94ED201AF0EE001A21EEB3
:1029F000211A11EE200AB0EE409A0FF0C9FCF0EE59
:102A00004A9A4AEEC09AD4ED200AB0EE600AF0EE7F
:102A1000000A0FF091F9B0EE40AA95ED000AF1EE30
:102A2000000A30EE600AB3EE001AC0EE010A00E0C0
:102A300080E094ED0D0A94ED0E1A30EE411A94EDFB
:102A40000E0A00EE810AD4ED200A30EEC00AD4ED61
:102A5000200A80EE201AB0EE419AB0EE490A0EF03C
:102A600031FB4AEE409A94ED210A69EE809ABFEE5E
:102A7000000A0EF095FAD4ED1F0A60EE200AB0EEBF
:102A8000081A80EE810AD4ED200A60EE20AAD4ED67
:102A9000200AB0EE600AF0EE080A0FF04DF9B0EE31
:102AA000409AD4ED200AB0EE600AF0EE000A0FF072
:102AB00043F9F0EE080A60EE200A95ED000AB1EE47
:102AC000001A30EE410AF3EE001A80EE211A94ED5E
:102AD0000D0AD4ED0E1A70EE611A94ED0E0A01EE95
:102AE000210AB0EE49AA10EE80AA95ED000AF1EE97
:102AF000000A30EE600AB3EE001AC0EE010A94ED4F
:102B00000D0A94ED0E1A30EE411A94ED0E0A00EE05
:102B1000810AD4ED200A30EEC00AB0EE409AF0EE01
:102B2000080A0FF009F97AEE000AB0EE690A0AEE17
:102B3000A00A13E095ED000AF1EE000A30EE600AFB
:102B4000B3EE001AC0EE010A94ED0F0A94ED101ACC
:102B500030EE411A94ED100A00EE810A85ED000A6C
:102B600095ED000ADFED0F0A80FE800A85ED000A70
:102B700095ED000A009880ED000A2D1D0098001DBB
:102B8000009004F11C008542FFF46EAE8C21029887
:102B900008519DF80400A8B300218C20015194ED48
:102BA000040A32E000000000400400244661696C21
:102BB000656420746F207265616420696E7075743D
:102BC000207265676973746572210D0A0000000048
:102BD000640A0024656E61626C655F736174655B95
:102BE000305D203D20307825642C656E61626C6517
:102BF0005F736174655B315D203D20307825640D25
:102C00000A000000FFE794ED000AB0EE408A9DF84C
:102C1000050028B100218C20015194ED020A01E049
:102C200094ED010AF0EE408A0023022203A9B6487F
:102C3000006814F051FA012803D0B4A1BE4812F084
:102C400048FF4FF00009002527E02946BB4A1268DB
:102C50009069BA4A12689269D2F83C380EAA98472D
:102C600006469DF83800404400F0FF089DF8380003
:102C7000A840C0B240EA09099DF838302A46B0A100
:102C8000AD4812F026FF36B943460022B1A1AA484A
:102C900012F01FFF20E1681CC5B2032DD5D3A74950
:102CA00009688869A549096889690FAAD1F82C388B
:102CB0001021984706463EB99DF83C300022AAA153
:102CC0009D4812F006FF07E19DF83C00012807D15E
:102CD000AAA1994812F0FDFE00218C2001510EE1BD
:102CE00094ED1D0AB4EEC80AF1EE10FA0BDA94ED79
:102CF000030AD4ED1E0AB4EEE00AF1EE10FA02D98E
:102D00008C20005930B10520AB4988800021AA48A9
:102D10008171E1E0B8F1000F7FD094ED150AB4EEB7
:102D2000E80AF1EE10FA20D200BFA348808828B14B
:102D3000A1488088401EA0498880CDE000BF09F0EE
:102D4000030030B101208DF82D0000208DF82E00F9
:102D500000E000BF09F0040030B101208DF82F0021
:102D600000208DF8300000E000BF94ED130AB4EEAF
:102D7000C80AF1EE10FA03D80120904908700BE060
:102D800094ED140AB4EEC80AF1EE10FA03DB002049
:102D90008A49087000E000BF8848007818B1012017
:102DA0008DF8290098E094ED150AB4EEE80AF1EEEA
:102DB00010FA06D801208DF8280000217E48817184
:102DC0001AE094ED160AB4EEE80AF1EE10FA13DBFD
:102DD00094ED120AB4EEC80AF1EE10FA0CD276485D
:102DE000807900B105E0052073498880012172488F
:102DF000817101208DF829007048407820B10020B1
:102E00006E49487001E008E000BF6C48807818B156
:102E100000206A4988705EE05DE005216648818097
:102E2000002181716548007818B10020634908705D
:102E300000E000BF94ED170AB4EEE80AF1EE10FAD4
:102E400009D294ED180AB4EEC80AF1EE10FA02DDC8
:102E500001208DF8290094ED190AB4EEE80AF1EE8C
:102E600010FA03D80120554948700BE094ED1A0A76
:102E7000B4EEE80AF1EE10FA03DB00204F49487087
:102E800000E000BF4D48407840B101208DF82D0092
:102E900000208DF82E0001208DF82C0094ED1B0AE7
:102EA000B4EEC80AF1EE10FA03D801204349887045
:102EB0000BE094ED1C0AB4EEC80AF1EE10FA03DB45
:102EC00000203E49887000E000BF3C48807810B187
:102ED00001208DF82B0000BF18490968886917493F
:102EE000096889690AAB1022D1F838580021A8472F
:102EF00006461EB932A1104812F0EBFD00BF4FF498
:102F00007A7010F08EFD6AE4780700244572726FC3
:102F1000723A204661696C656420746F2073656E37
:102F200064207573657220706172616D657465727D
:102F300073210D0A00000000640A002440040024EC
:102F4000626974785B25645D203D20307825640DCE
:102F50000A000000494E5F445B25645D203D20303F
:102F60007825640D0A0000004D6F64655B25645D83
:102F7000203D20307825640D0A000000404E6F741B
:102F8000653A204D616E75616C206D6F64652073CC
:102F90007461727475702C206175746F6D617469E1
:102FA00063206D616E6167656D656E742066616931
:102FB0006C757265210D0A00A8070024B007002473
:102FC0007772697465206661696C6564210D0A0019
:102FD00070B504460D4605B970BD302011F06EFD88
:102FE0002060206810B9206813F0FEFA2A7812A138
:102FF0001748236812F06DFD287821680870E86989
:103000002168C8612068D5E90112C0E90112206871
:1030100005F10C014EC90C304EC00E482168C86243
:103020000D48216808620D48216848620C482168F3
:10303000886200BFD0E7000041745B25645D5F6873
:10304000616E646C6572203D20307825700D0A0039
:10305000640A002475430208D5220208A12202084E
:10306000452102082DE9F04104460D460DB9BDE8A1
:10307000F081502011F022FD2060206818B92068EE
:1030800013F0B2FAF3E7288C11F018FD06461EB9CA
:10309000304613F0A9FAEAE74421485D11F00EFD2D
:1030A00007461FB9384613F09FFAE0E7298C3046EF
:1030B000FDF7C5FB4420415D3846FDF7C0FB2A788B
:1030C0001EA12548236812F004FD287821680870A5
:1030D0002248216848602248216888602148216888
:1030E000C86021482168086120482168486120485B
:1030F000216888612068C661002120684184298C8C
:1031000020680184286C00B92F64216801F138001F
:10311000182205F13801FDF758FB296B206801637F
:10312000A98E20688186686A21684862A96A206839
:103130008162E96A2068C16200BF98E74477696EDE
:103140005B25645D5F68616E646C6572203D203054
:103150007825700D0A000000640A0024593C02081A
:10316000A13C0208193C0208513B0208993B0208A5
:10317000B138020810B5024801F07AFD10BD000018
:10318000C81A002410B5024801F072FD10BD0000FD
:10319000F817002410B5024801F06AFD10BD0000C8
:1031A000B81B002410B5024801F062FD10BD0000FC
:1031B000301C002410B5024801F05AFD10BD00007B
:1031C0007018002410B5024801F052FD10BD000037
:1031D000401B002410B5024801F04AFD10BD00005C
:1031E000E818002410B5024801F042FD10BD0000AF
:1031F0006019002410B5024801F03AFD10BD00002E
:10320000D819002410B5024801F032FD10BD0000AD
:10321000501A00240146374A0868904249D0354A7E
:1032200018320868904244D0324A303208689042DE
:103230003FD0304A4832086890423AD02D4A603236
:103240000868904235D02B4A78320868904230D0D6
:10325000284A9032086890422BD0264AA832086843
:10326000904226D0244A0868904222D0224A18323E
:10327000086890421DD0204A30320868904218D029
:103280001D4A48320868904213D01B4A60320868D1
:1032900090420ED0184A78320868904209D0164AF7
:1032A00090320868904204D0134AA83208689042CD
:1032B00001D1012000E00020B0B10A78103A1823B3
:1032C000B2FBF3F000F007020C4B9A5CCA650328CE
:1032D00005D90A686FF30902121D8A6503E00A68BE
:1032E0006FF309028A6503E0086820F0FF00886533
:1032F000886D7047100002401004024034870308B4
:1033000010B502682B4C0368A34222D0294C143418
:103310000368A3421DD0274C28340368A34218D069
:10332000244C3C340368A34213D0224C503403682D
:10333000A3420ED01F4C64340368A34209D01D4C35
:1033400078340368A34204D01A4C8C340368A34237
:1033500001D1012300E000238BB10378083B142442
:10336000B3FBF4F1144B03EB81030366124B803380
:10337000436601F01F040123A340836618E003782D
:10338000103B1824B3FBF4F10C4B9A4204D80B4BBE
:10339000A83B9A4200D30831094B03EB8103036633
:1033A000074B8033436601F01F040123A34083666B
:1033B00010BD00000854025800580258B8040240DA
:1033C000000802400179A9B3082940D8204B0268BF
:1033D0009A4222D01E4B143302689A421DD01C4BD5
:1033E000283302689A4218D0194B3C3302689A423B
:1033F00013D0174B503302689A420ED0144B6433EB
:1034000002689A4209D0124B783302689A4204D07B
:103410000F4B8C3302689A4201D1012200E0002256
:103420004AB14A1E0B4B03EB8202C266094A403284
:10343000026708E00BE04A1E074B03EB8202C266FC
:10344000054A403202674A1E012393404367704792
:103450000854025800590258000902400146002051
:103460008A69D2B98A6A32B1012A0DD0022A03D000
:10347000032A10D10EE000BFCA6A02F08072B2F1D6
:10348000807F00D1012007E0CA6AB2F1C07F00D17D
:10349000012001E000E000BF36E08A69B2F5005F7C
:1034A0001BD18A6A32B1012A07D0022A03D0032A2B
:1034B00011D10AE000BF01200EE0CA6A02F080725A
:1034C000B2F1807F00D1012006E0CA6AB2F1C07F6C
:1034D00000D1012000E000BF16E08A6A32B1012A63
:1034E00005D0022A04D0032A0CD103E000BF00BF9C
:1034F000012008E0CA6A02F08072B2F1807F00D138
:10350000012000E000BF00BF7047000010B5044676
:1035100020680068C069C0F30010002873D0102034
:10352000216809680862002C7BD0A068002878D048
:103530006068002875D0206806F0B6FC2069002875
:103540006AD0606800683A49884258D0606800686C
:1035500037491831884252D06068006834493031A8
:1035600088424CD06068006831494831884246D072
:10357000606800682E496031884240D06068006809
:103580002B49783188423AD06068006828499031E8
:10359000884234D0606800682549A83188422ED01E
:1035A000606800682349884229D060680068214922
:1035B0001831884223D0606800681E493031884243
:1035C0001DD0606800681B494831884217D0606888
:1035D000006818496031884211D060680068154958
:1035E000783188420BD06068006812499031884277
:1035F00005D0606800680F49A831884205D160682D
:103600000068406804E011E00BE060680068406812
:10361000217B081A21690860227BA168206807F0D5
:1036200071FA606910B1606910F060FA10BD0000B5
:103630001000024010040240F0B5856D846D984F73
:103640000668BE4270D0964F18370668BE426BD0EF
:10365000934F30370668BE4266D0914F48370668B0
:10366000BE4261D08E4F60370668BE425CD08C4F40
:1036700078370668BE4257D0894F90370668BE42F9
:1036800052D0874FA8370668BE424DD0854F066896
:10369000BE4249D0834F18370668BE4244D0814F9E
:1036A00030370668BE423FD07E4F48370668BE427C
:1036B0003AD07C4F60370668BE4235D0794F7837B4
:1036C0000668BE4230D0774F90370668BE422BD096
:1036D000744FA8370668BE4226D0734F0668BE42B4
:1036E00022D0714F14370668BE421DD06E4F283766
:1036F0000668BE4218D06C4F3C370668BE4213D0F5
:10370000694F50370668BE420ED0674F643706686F
:10371000BE4209D0644F78370668BE4204D0624F7B
:103720008C370668BE4201D1012600E000263EB17A
:10373000D0E919767E60C66E16B1D0E91C767E603F
:10374000574F0668BE4249D0554F18370668BE42EB
:1037500044D0534F30370668BE423FD0504F4837B1
:103760000668BE423AD04E4F60370668BE4235D03A
:103770004B4F78370668BE4230D0494F90370668C5
:10378000BE422BD0464FA8370668BE4226D0454FD2
:103790000668BE4222D0434F18370668BE421DD08D
:1037A000404F30370668BE4218D03E4F4837066853
:1037B000BE4213D03B4F60370668BE420ED0394F31
:1037C00078370668BE4209D0364F90370668BE4249
:1037D00004D0344FA8370668BE4201D1012600E06C
:1037E0000026DEB190F85C6006F01F073F26BE4061
:1037F000AE600668366826F4802607683E60066874
:1038000073608668402E04D10668B2600668F16075
:1038100044E00668B1600668F2603FE0224F066847
:10382000BE4222D0204F14370668BE421DD01E4F24
:1038300028370668BE4218D01B4F3C370668BE4288
:1038400013D0194F50370668BE420ED0164F64375A
:103850000668BE4209D0144F78370668BE4204D0CD
:10386000114F8C370668BE4201D1012600E00026C8
:10387000A6B190F85C6006F01F070126BE406660A6
:10388000066873608668402E04D10668B2600668D8
:10389000F16003E00668B1600668F260F0BD000008
:1038A0001000024010040240085402587047000003
:1038B000F8B504460E461546012E05D1206B00EBE7
:1038C000051090ED020A04E0206B00EB051090ED6E
:1038D000010A8DED000A012E0AD19DED000AB7EE16
:1038E000C00A53EC102B0FA1174812F0F2F809E0B0
:1038F0009DED000AB7EEC00A53EC102B13A112483D
:1039000012F0E7F804220021684600F041FA206B2B
:1039100000EB0510008881B204236A462046A768A0
:10392000B847F8BD4572726F723A2042656C6F7786
:10393000206C6F776572206C696D697420252E3359
:10394000662E0D0A00000000640A00244572726FA2
:10395000723A2041626F7665207570706572206CD6
:10396000696D697420252E33662E0D0A0000000053
:103970002DE9FC4704460D46206C8079022805D2CB
:10398000206C017AC07941EA00200DE0206CC079FA
:103990000106206C007A41EA0041206C407A41EA3D
:1039A0000020216C897A084300EE100AB8EEC00AA4
:1039B000F2EE040A80EE201A8DED011A666A06F115
:1039C0001C07287800909DED010AB7EEC00A53EC61
:1039D000102B4AA1504812F07CF82978206B00EB9C
:1039E000011090ED020ADDED010AB4EEE00AF1EEFD
:1039F00010FA2AD82978206B00EB011090ED010A0B
:103A0000DDED010AB4EEE00AF1EE10FA1DDB57B16C
:103A10002978A08E814206DA9DED010A287807EB0D
:103A2000800080ED000A0422002101A800F0B0F916
:103A30002A78206B00EB0210008881B2042301AACF
:103A40002046D4F808C0E0472BE02978206B00EB33
:103A5000011090ED020ADDED010AB4EEE00AF1EE8C
:103A600010FA01DD012000E002208146B9F1010FCA
:103A700006D12978206B00EB011090ED020A05E0D9
:103A80002978206B00EB011090ED010A287807EBF4
:103A9000800080ED000A2A7849462046A3699847AD
:103AA00000BF1E49096888691C490968896906F1CF
:103AB0001C033A22D1F868C80821E0478046B8F1D3
:103AC000000F03D116A1144812F003F812F044FDC0
:103AD0004FF6FF724FF4847106F11C0000F052FCA7
:103AE000C6F824014FF4867206F11C01174800F055
:103AF00017FB12F05BFDBDE8FC8700006461746198
:103B0000203D20252E33662C202A70736974652091
:103B10003D2025642E0D0A00640A00244004002480
:103B2000506172616D657465722077726974652089
:103B3000746F20686F6C6420726567697374657256
:103B4000206661696C6564210D0A000000001E0892
:103B50003EB504460D460DA207CA8DE8070028129F
:103B60008DF80800E8B28DF8090000216184E06951
:103B70000099016001994160BDF808100181608CD5
:103B80000A3060842046616888473EBD5AA5098294
:103B900000845A010000000038B50446206C00780B
:103BA0005A2830D1206C4078A5282CD1206C41793E
:103BB000007941EA0025002000901DE09DF80010EA
:103BC000206B00EB01100068A84210D19DF8001096
:103BD000206B00EB0110C06840B19DF80010206B15
:103BE00000EB01106946C2682046904709E09DF845
:103BF0000000401CC0B20090A08E9DF800108842CA
:103C0000DCDC00BF00BFA26C1168206CFCF717FE63
:103C10000021A06C016038BD7CB504460D461646F7
:103C20000BA103C9CDE9000128128DF804008DF81D
:103C3000056000216184E06900990160BDF804100D
:103C40008180608C801D60842046616888477CBDCF
:103C50005AA506830000000038B50446628CD21EC7
:103C600091B2E269D01C4FF6FF7200F08BFB00901E
:103C7000608CE1690844BDF800100180608C801CF4
:103C80006084628CE169A06B06F0E4FF00BFA06B6A
:103C90000068C069C0F380100028F8D038BD00006B
:103CA0002DE9FC4104460E4617461D4613A103C9E3
:103CB000CDE90001681DC0B28DF8020030128DF808
:103CC0000400F0B28DF8050000216184E0690099DC
:103CD0000160BDF804108180608C801D6084618C5F
:103CE000E26950182A463946FCF72AFD608C2844C0
:103CF0006084204661688847BDE8FC815AA500823F
:103D00000000000010B5012002F014FD10BD10B538
:103D10004FF4806002F00EFD4FF4006002F00AFDE7
:103D20004FF4805002F006FD4FF4005002F002FD07
:103D30004FF4804002F0FEFC4FF4004002F0FAFC29
:103D400010BD10B5022002F0F5FC10BD10B5042026
:103D500002F0F0FC10BD10B5082002F0EBFC10BD25
:103D600010B5102002F0E6FC10BD10B5202002F0C6
:103D7000E1FC402002F0DEFC802002F0DBFC4FF48E
:103D8000807002F0D7FC4FF4007002F0D3FC10BD3D
:103D9000F0B503460020002655088F187F1EFCB2A0
:103DA0000BE00F18DE5D271ADF5D01EB000C03F856
:103DB0000C70271ADE55471CF8B2A842F1DBF0BDA3
:103DC00072B600BFFEE7000010B501F001037BB141
:103DD000134BDB6823F4E663114CE36042F0040309
:103DE00043EA002343F08003E46823430C4CE36080
:103DF00001F00203022B12D10A4B1B6823F4E66385
:103E0000074CC4F80C3142F0040343EA002343F0AA
:103E10008003D4F80C412343014CC4F80C3110BD8D
:103E2000002000520C21005210B502F0D1F910BD53
:103E3000014600203C4A914203D2B1F1006F00D309
:103E400070E03A4A914204D2374A914201D30120AC
:103E500068E0374A914204D2344A914201D30220A9
:103E600060E0344A914204D2314A914201D30320A6
:103E700058E0314A914204D22E4A914201D30420A3
:103E800050E02E4A914204D22B4A914201D30520A0
:103E900048E02B4A914204D2284A914201D306209D
:103EA00040E0B1F1016F04D2254A914201D30720CD
:103EB00038E0244A914204D2B1F1016F01D30020CD
:103EC00030E0214A914204D21E4A914201D301209E
:103ED00028E01E4A914204D21B4A914201D302209B
:103EE00020E01B4A914204D2184A914201D3032098
:103EF00018E0184A914204D2154A914201D3042095
:103F000010E0154A914204D2124A914201D3052091
:103F100008E0124A914204D20F4A914201D306208E
:103F200000E00720704700000000020800000408BD
:103F3000000006080000080800000A0800000C083D
:103F400000000E0800001208000014080000160807
:103F50000000180800001A0800001C0800001E08D5
:103F600001F00302032A1BD1234AD26822F0300257
:103F7000214BDA60214A126822F03002C3F80C218A
:103F80001A46D2680243DA601A46D2F80C2102437C
:103F9000C3F80C211A46926942F010029A6129E096
:103FA00001F0010272B1144AD26822F03002124BC1
:103FB000DA601A46D2680243DA601A46D26842F0E2
:103FC0008802DA6001F00202022A13D10B4A126859
:103FD00022F03002084BC3F80C211A46D2F80C210B
:103FE0000243C3F80C211A46D2F80C2142F0880291
:103FF000C3F80C2170470000002000520C21005231
:1040000030B50346084603E053F8015B0570401CD9
:104010008C188442F8D8012030BD00002DE9F04111
:1040200007460E460424002502F0A6FC8046022E18
:1040300000D1344C0BE0781C48B102F09DFCA0EBA1
:104040000800B84200D817B90320BDE8F0812E4817
:104050002040A04208D12D4800692040A04201D153
:1040600001200DE000200BE02948006824F0004109
:10407000084024F00041884201D1012000E00020E6
:104080000028D8D1012E05D120480069214900EA35
:10409000010505E01E4800681F49084040F0004542
:1040A00025F0004090B11D48806928431B49886174
:1040B00015482840A84202D11448456104E025F083
:1040C00000401349091D08600120BEE7012E0AD1F6
:1040D0000E48006900F48030B0F5803F0FD1300405
:1040E0000A4948610BE00A48006800F48030B0F5E6
:1040F000803F04D14FF480300549091D086000203D
:10410000A3E70000040000800F00EF1F0020005212
:10411000102100520000EE170000EE97082F002437
:104120002DE9F04387B004460E4617462046FFF7B8
:104130007FFE814600200190B4F1006F07D3B4F1F7
:10414000026F04D81FB116B104F01F0018B100208F
:1041500007B0BDE8F08372B602F000FA00200290CA
:10416000CDF8109001200590202006904FF48E008D
:1041700021494861B4F1016F11D20120039001A9D6
:1041800002A801F085FF00B131E001200290022079
:10419000039001A902A801F07BFF50B127E00020A5
:1041A00002900220039001A902A801F071FF00B162
:1041B0001DE0B046254615E042462946012002F0A2
:1041C00037F940B92868D8F80010884207D045F67A
:1041D000A520019009E04AF25A50019005E008F14B
:1041E00020082035E019A842E6D800BF00BF02F041
:1041F000FBF862B60198ABE700200052024608685F
:10420000B0B9D1E901031843CB6818430B691843CF
:104210004B6918438B691843CB6918430B6A1843E1
:104220004B6A184313686FF30E031843106019E0CC
:10423000D1E9070318434B6A1843136823F4F84382
:1042400018431060D1E901031843CB6818430B6988
:1042500018434B6918438B69184353686FF30E0377
:10426000184350600020704730B50346FAB908681B
:10427000401E4C68641E40EA04148868401E44EAEC
:104280000024C868401E44EA0034088A401E44EAFC
:104290000044888A401E44EA0054087E401E44EAD6
:1042A00000609C6804F070442043986022E0C86875
:1042B000401E0403888A401E44EA00509C680E4D4C
:1042C0002C40204398600868401E4C68641E40EAF9
:1042D00004148868401E44EA0024088A401E44EA08
:1042E0000044087E401E44EA0060DC6804F070442C
:1042F0002043D860002030BDFF0F0FFF10B50246ED
:104300000B46916805E00878984201D1012010BD64
:1043100008319489906800EBC4008842F3D80020EB
:10432000F5E710B50246906804E003788B4200D1AF
:1043300010BD08309489936803EBC4038342F4D81A
:104340000020F5E770B502460023002490680DE0D8
:1043500005790E79B54208D114B90124034604E069
:1043600005781E78B54200DD034608308842EFD359
:10437000184670BD10B50446206810B1206812F0D0
:1043800033F910BD70B503461046002414E013F84D
:10439000015B684000250BE000F0010626B14AF2FF
:1043A000010686EA600600E0461030466E1CB5B293
:1043B000082DF1DB651CACB28C42E8DB70BD00005F
:1043C00070B50A480468001D0568001D066834447D
:1043D00054B108220649204606F0E2FD04220449B1
:1043E0001031284606F0DCFD70BD000000E8F11F2A
:1043F000F60700242DE9F041044602F0BDFA80469C
:1044000014B90120BDE8F08194F83500022808D0E5
:104410008020606500BF002084F8340000BF0120C8
:10442000F0E7FE492068884249D0FC4918312068ED
:10443000884244D0F9493031206888423FD0F7495A
:104440004831206888423AD0F44960312068884277
:1044500035D0F24978312068884230D0EF49903128
:10446000206888422BD0ED49A8312068884226D0A8
:10447000EB492068884222D0E949183120688842F7
:104480001DD0E74930312068884218D0E4494831CE
:104490002068884213D0E2496031206888420ED0FB
:1044A000DF4978312068884209D0DD4990312068A1
:1044B000884204D0DA49A8312068884201D101201D
:1044C00000E0002068B12068006820F01E0021682C
:1044D00008602068406920F08000216848612568F4
:1044E00006E02068006820F00E002168086025685A
:1044F000CA492068884270D0C8491831206888426B
:104500006BD0C64930312068884266D0C3494831F3
:104510002068884261D0C1496031206888425CD0FF
:10452000BE4978312068884257D0BC499031206814
:10453000884252D0B949A831206888424DD0B84944
:104540002068884249D0B64918312068884244D052
:10455000B3493031206888423FD0B14948312068A2
:1045600088423AD0AE4960312068884235D0AC49A3
:1045700078312068884230D0A9499031206888423B
:104580002BD0A749A8312068884226D0A5492068A9
:10459000884222D0A3491431206888421DD0A14905
:1045A00028312068884218D09E493C3120688842D2
:1045B00013D09C495031206888420ED0994964310B
:1045C0002068884209D0974978312068884204D011
:1045D00094498C312068884201D1012000E00020FC
:1045E00028B1206E006820F48070216E08608B492D
:1045F0002068884249D0894918312068884244D0CF
:1046000086493031206888423FD08449483120684B
:1046100088423AD0814960312068884235D07F494C
:1046200078312068884230D07C49903120688842B7
:104630002BD07A49A8312068884226D07849206852
:10464000884222D076491831206888421DD07449AA
:1046500030312068884218D071494831206888423A
:1046600013D06F496031206888420ED06C49783190
:104670002068884209D06A4990312068884204D075
:104680006749A8312068884206D12068006820F078
:1046900001002168086005E02068006820F0010042
:1046A0002168086011E002F067F9A0EB0800052816
:1046B0000BD920206065032084F8350000BF00205E
:1046C00084F8340000BF01209CE6286800F0010057
:1046D0000028E8D151492068884249D04F49183113
:1046E0002068884244D04D493031206888423FD00C
:1046F0004A494831206888423AD0484960312068A8
:10470000884235D0454978312068884230D04349C5
:104710009031206888422BD04049A83120688842D7
:1047200026D03F492068884222D03D491831206870
:1047300088421DD03A4930312068884218D0384923
:1047400048312068884213D035496031206888425A
:104750000ED0334978312068884209D030499031F1
:104760002068884204D02E49A8312068884201D1AF
:10477000012000E0002040B1A66D94F85C0000F03C
:104780001F013F208840B06007E0A76D94F85C00EF
:1047900000F01F010120884078602049206888428D
:1047A00076D01E4918312068884271D01B493031BB
:1047B000206888426CD0194948312068884267D007
:1047C000164960312068884262D0144978312068E7
:1047D00088425DD0114990312068884258D00F49F5
:1047E000A8312068884253D00D49206888424FD0B4
:1047F0000B491831206888424AD009493031206875
:10480000884245D0064948312068884240D0044952
:104810006031206888423BD0014905E01000024029
:1048200010040240085402587831206888422FD082
:104830002549206888422BD02349183120688842B6
:1048400026D022492068884222D02049143120688D
:1048500088421DD01D4928312068884218D01B4944
:104860003C312068884213D0184950312068884272
:104870000ED0164964312068884209D01349783136
:104880002068884204D011498C312068884201D1C7
:10489000012000E0002068B1D4E919104860E06E02
:1048A00040B1E06E006820F48070E16E0860D4E9E9
:1048B0001C104860012084F8350000BF002084F8F7
:1048C000340000BF00BF9DE5A00402400854025818
:1048D00070B504460CB9012070BD94F8350002286B
:1048E00003D0802060650120F6E7DC49206888421B
:1048F00049D0DA4918312068884244D0D74930314C
:10490000206888423FD0D5494831206888423AD053
:10491000D24960312068884235D0D049783120684A
:10492000884230D0CD499031206888422BD0CB4985
:10493000A8312068884226D0C9492068884222D000
:10494000C7491831206888421DD0C54930312068D8
:10495000884218D0C24948312068884213D0C049E3
:104960006031206888420ED0BD4978312068884285
:1049700009D0BB4990312068884204D0B849A83199
:104980002068884201D1012000E00020F0B304201B
:1049900084F83500B149206888424BD0AF491831BE
:1049A0002068884246D0AD4930312068884241D0E5
:1049B000AA494831206888423CD0A8496031206823
:1049C000884237D0A54978312068884232D0A3493F
:1049D0009031206888422DD0A049A83120688842B3
:1049E00028D09F492068884224D09D4918312068EA
:1049F00088421FD09A493031206888421AD098499D
:104A000048312068884215D0954900E020E06031A7
:104A1000206888420ED0924978312068884209D0B7
:104A20008F4990312068884204D08D49A831206890
:104A3000884206D12068006820F0010021680860E3
:104A400009E12068006820F001002168086002E1A7
:104A50002068006820F00E00216808607F49206807
:104A6000884249D07D4918312068884244D07B492A
:104A70003031206888423FD07849483120688842E8
:104A80003AD0764960312068884235D07349783110
:104A90002068884230D071499031206888422BD0FC
:104AA0006E49A8312068884226D06D492068884226
:104AB00022D06B491831206888421DD068493031B6
:104AC0002068884218D0664948312068884213D04F
:104AD00063496031206888420ED06149783120688E
:104AE000884209D05E4990312068884204D05C49F0
:104AF000A8312068884206D12068006820F00100B3
:104B00002168086005E02068006820F00100216845
:104B1000086052492068884270D050491831206896
:104B200088426BD04D4930312068884266D04B496D
:104B300048312068884261D0484960312068884205
:104B40005CD0464978312068884257D0434990313B
:104B50002068884252D04149A831206888424DD00F
:104B60003F492068884249D03D4918312068884231
:104B700044D03B493031206888423FD038494831E1
:104B8000206888423AD0364960312068884235D062
:104B9000334978312068884230D0314990312068DB
:104BA00088422BD02E49A8312068884226D02D4932
:104BB0002068884222D02B491431206888421DD0B9
:104BC000284928312068884218D026493C3120687D
:104BD000884213D023495031206888420ED02149A1
:104BE00064312068884209D01E49783120688842A3
:104BF00004D01C498C312068884201D1012000E09A
:104C00000020D8B1206E006820F48070216E08600A
:104C1000A56D94F85C0000F01F01012088406860D9
:104C2000D4E919104860E06E40B1E06E006820F4ED
:104C30008070E16E0860D4E91C104860012084F89F
:104C4000350000BF002084F8340000BF206D10B193
:104C50002046216D884700203EE6000010000240FB
:104C600010040240085402580146486D7047000085
:104C70002DE9F84F044600200090FE4800684FF4EC
:104C80001651B0FBF1FAA66DD4F858803768D8F801
:104C90000090F9492068884249D0F74918312068C6
:104CA000884244D0F4493031206888423FD0F249EC
:104CB0004831206888423AD0EF4960312068884204
:104CC00035D0ED4978312068884230D0EA499031BA
:104CD000206888422BD0E849A8312068884226D035
:104CE000E6492068884222D0E44918312068884289
:104CF0001DD0E24930312068884218D0DF49483160
:104D00002068884213D0DD496031206888420ED087
:104D1000DA4978312068884209D0D8499031206832
:104D2000884204D0D549A8312068884201D10120A9
:104D300000E0002000287DD094F85C0000F01F0106
:104D4000082088403840002868D0CB492068884235
:104D500049D0C94918312068884244D0C649303109
:104D6000206888423FD0C4494831206888423AD000
:104D7000C14960312068884235D0BF497831206808
:104D8000884230D0BC499031206888422BD0BA4943
:104D9000A8312068884226D0B8492068884222D0AD
:104DA000B6491831206888421DD0B4493031206896
:104DB000884218D0B14948312068884213D0AF49A1
:104DC0006031206888420ED0AC4978312068884232
:104DD00009D0AA4990312068884204D0A749A83157
:104DE0002068884204D12068006800F0040003E0D5
:104DF0002068006800F0080080B12068006820F09A
:104E000004002168086094F85C0000F01F0108208D
:104E10008840B060606D40F00100606594F85C000F
:104E200000F01F01012088403840E8B39249206813
:104E3000884200E0B7E24BD08F49183120688842A1
:104E400046D08D4930312068884241D08A49483166
:104E5000206888423CD0884960312068884237D039
:104E6000854978312068884232D083499031206862
:104E700088422DD08049A8312068884228D07F49B7
:104E80002068884224D07D491831206888421FD08C
:104E90007A493031206888421AD0784948312068F0
:104EA000884215D0754900E026E0603120688842CC
:104EB0000ED0724978312068884209D06F4990310C
:104EC0002068884204D06D49A8312068884204D106
:104ED0002068406900F0800002E02068006800203F
:104EE00050B194F85C0000F01F0101208840B060D0
:104EF000606D40F00200606594F85C0000F01F01F6
:104F0000042088403840E8B35B49206888424BD091
:104F1000594918312068884246D0574930312068B5
:104F2000884241D054494831206888423CD0524997
:104F300060312068884237D04F49783120688842F4
:104F400032D04D499031206888422DD04A49A8314D
:104F50002068884228D049492068884224D047499F
:104F60001831206888421FD0444930312068884277
:104F70001AD0424948312068884215D03F496031F3
:104F8000206800E024E088420ED03C497831206857
:104F9000884209D0394990312068884204D0374985
:104FA000A8312068884204D12068006800F002001F
:104FB00002E020680068002050B194F85C0000F026
:104FC0001F0104208840B060606D40F004006065FF
:104FD00094F85C0000F01F01102088403840E8B3CE
:104FE00025492068884251D02349183120688842D9
:104FF0004CD0214930312068884247D01E49483181
:105000002068884242D01C496031206888423DD0E7
:10501000194978312068884238D017499031206882
:10502000884233D01449A831206888422ED01349D1
:10503000206888422AD0114918312068884225D03A
:105040000E4930312068884220D00C494831206810
:1050500088421BD009496031206800E04DE0884259
:1050600014D006497831206888420FD00349903126
:10507000206805E0300800241000024010040240BF
:10508000884203D0FE492068884204D12068006825
:1050900000F0080003E02068006800F0040060B33E
:1050A00094F85C0000F01F0110208840B060206878
:1050B000006800F4802080B12068006800F40020BF
:1050C00028B9206CC8B12046216C884715E0A06C37
:1050D00098B12046A16C88470FE02068006800F472
:1050E000807028B92068006820F0080021680860F6
:1050F000206C10B12046216C884794F85C0000F0C9
:105100001F0120208840384000287DD0DD492068DC
:10511000884249D0DB4918312068884244D0D949B7
:105120003031206888423FD0D649483120688842D3
:105130003AD0D44960312068884235D0D14978319D
:105140002068884230D0CF499031206888422BD0E7
:10515000CC49A8312068884226D0C949A83920689E
:10516000884221D0C6499039206888421CD0C44961
:1051700078392068884217D0C14960392068884250
:1051800012D0BF494839206888420DD0BC49303917
:105190002068884208D0BA4918392068884203D06C
:1051A000B7492068884204D12068006800F01000E8
:1051B00003E02068006800F0020028B394F85C0067
:1051C00000F01F0120208840B06094F835000428CA
:1051D0002DD12068006820F0160021680860206842
:1051E000406920F0800021684861206C08B9A06CFB
:1051F00028B12068006820F008002168086094F851
:105200005C0000F01F0100E03FE03F208840B060FC
:10521000012084F8350000BF002084F8340000BF6E
:10522000206D10B12046216D8847BDE8F88F2068B9
:10523000006800F4802080B12068006800F400203D
:1052400028B9606C08B32046616C88471DE0E06BAC
:10525000D8B12046E16B884717E02068006800F469
:10526000807068B92068006820F01000216808602C
:10527000012084F8350000BF002084F8340000BF0E
:10528000E06B10B12046E16B8847606D00287AD052
:10529000606D00F00100E8B3042084F8350079491E
:1052A000206888424BD0774918312068884246D020
:1052B000744930312068884241D0724948312068B1
:1052C00088423CD06F4960312068884237D06D49B0
:1052D00078312068884232D06A499031206888420B
:1052E0002DD06849A8312068884228D06449A8395F
:1052F0002068884223D062499039206888421ED0B5
:105300005F4978392068884219D05D496039206842
:10531000884200E040E012D059494839206888426C
:105320000DD0574930392068884208D0544918397F
:105330002068884203D052492068884206D12068FC
:10534000006820F001002168086005E0206800681E
:1053500020F001002168086000BF0098401C009008
:10536000504500D905E02068006800F001000028E1
:10537000F3D100BF2068006800F0010020B10320D5
:1053800084F8350003E00DE0012084F8350000BF0B
:10539000002084F8340000BFE06C002802D02046D2
:1053A000E16C8847D9E138492068884222D03649E3
:1053B0001431206888421DD0334928312068884242
:1053C00018D031493C312068884213D02E495031E1
:1053D000206888420ED02C4964312068884209D068
:1053E000294978312068884204D027498C312068C7
:1053F000884201D1012000E000200028D2D020689E
:10540000056894F85C0000F01F010420884000EA61
:105410000900D8B305F00400C0B394F85C0000F0B4
:105420001F0104208840C8F8040005F4004080B142
:1054300005F4803030B9A06C0028B3D02046A16CB0
:1054400088478AE1206C0028ACD02046216C884730
:1054500083E105F02000E8BB0A492068884253D068
:1054600008491831206888424ED0064930312068FA
:10547000884249D0034948312068884244D006E038
:10548000B804024010000240085402584FE0B449EA
:1054900060312068884237D0B1497831206888422D
:1054A00032D0AF499031206888422DD0AC49A83124
:1054B0002068884228D0AB492068884224D0A94976
:1054C0001831206888421FD0A649303120688842B0
:1054D0001AD000E025E0A34948312068884213D063
:1054E000A0496031206888420ED09E4978312068FA
:1054F000884209D09B4990312068884204D099495C
:10550000A8312068884206D12068006820F0080091
:105510002168086005E02068006820F00400216828
:105520000860206C10B32046216C884715E194F880
:105530005C0000F01F010220884000EA0900E8B387
:1055400005F00200D0B394F85C0000F01F010220C7
:105550008840C8F8040005F4004070B105F48030BC
:1055600028B9606C10B12046616C8847F5E0E06BAB
:10557000F0B32046E16B8847EFE005F02000C0BBA8
:105580007749206888424ED0754918312068884292
:1055900049D0734930312068884244D0704948313D
:1055A000206888423FD06E496031206888423AD0F6
:1055B0006B4978312068884235D000E04EE0684978
:1055C0009031206888422ED06549A83120688842F1
:1055D00029D064492068884225D062491831206862
:1055E000884220D05F493031206888421BD001E0DA
:1055F0006EE02DE05B4948312068884213D059495C
:105600006031206888420ED056497831206888423F
:1056100009D0544990312068884204D05149A831BA
:105620002068884206D12068006820F014002168B4
:10563000086005E02068006820F00A002168086022
:10564000012084F8350000BF002084F8340000BF3A
:10565000E06BE8B32046E16B88477EE094F85C009D
:1056600000F01F010820884000EA090080B305F01F
:10567000080068B33A49206888424BD0384918314D
:105680002068884246D0364930312068884241D06F
:1056900033494831206888423CD031496031206824
:1056A000884237D02E4978312068884232D02C4940
:1056B0009031206888422DD02949A831206888423D
:1056C00028D028492068884224D02649183100E093
:1056D00043E0206888421DD022493031206888424A
:1056E00018D0204948312068884213D01D496031C4
:1056F000206888420ED01B4978312068884209D042
:10570000184990312068884204D01649A831206891
:10571000884206D12068006820F01C0021680860DB
:1057200005E02068006820F00E002168086094F809
:105730005C0000F01F0101208840C8F8040001202F
:10574000606584F8350000BF002084F8340000BF95
:10575000E06C10B12046E16C884700BF65E50000B1
:1057600010000240100402402DE9F041044601F00F
:1057700003F9804614B90120BDE8F081FE49206894
:10578000884249D0FC4918312068884244D0FA49FF
:105790003031206888423FD0F7494831206888423C
:1057A0003AD0F54960312068884235D0F2497831E5
:1057B0002068884230D0F0499031206888422BD050
:1057C000ED49A8312068884226D0EC4920688842FB
:1057D00022D0EA491831206888421DD0E74930318B
:1057E0002068884218D0E54948312068884213D0A3
:1057F000E2496031206888420ED0E0497831206863
:10580000884209D0DD4990312068884204D0DB49C4
:10581000A8312068884201D1012000E00020002842
:1058200073D0606A00B100BF022084F8350000BF69
:10583000002084F8340000BFCF492068884249D056
:10584000CD4918312068884244D0CB493031206896
:1058500088423FD0C8494831206888423AD0C6497A
:1058600060312068884235D0C34978312068884249
:1058700030D0C1499031206888422BD0BE49A83130
:105880002068884226D0BD492068884222D0BB4982
:105890001831206888421DD0B849303120688842CC
:1058A00018D0B64948312068884213D0B3496031D6
:1058B000206888420ED0B14978312068884209D0EA
:1058C000AE4990312068884204D0AC49A8312068A4
:1058D000884206D12068006820F001002168086035
:1058E00005E02068006820F00100216808600DE0F4
:1058F00001F042F8A0EB0800052807D920206065D8
:10590000032084F83500012036E76AE0206800684B
:1059100000F001000028EBD1206805689848054098
:10592000D4E9020108432169084361690843A16978
:105930000843E1690843216A08430543606A042873
:1059400003D1D4E90B01084305438E4800686FF387
:105950000F00B0F1005F1DD36068292802D3606892
:105960002E2811D960683F2802D3606842280BD9DD
:105970006068472802D36068482805D960684F28C6
:1059800004D36068522801D8012000E0002008B14B
:1059900045F48015206805602068456925F00705F5
:1059A000606A0543606A04280DD1A06A0543E06A75
:1059B00048B12046FDF752FD28B140206065012026
:1059C00084F83500D8E6206845612046FDF722FCC2
:1059D000064694F85C0000F01F013F208840B0604C
:1059E0009EE069492068884222D0674914312068C6
:1059F00088421DD0644928312068884218D0624905
:105A00003C312068884213D05F4950312068884279
:105A10000ED05D4964312068884209D05A497831F6
:105A20002068884204D058498C312068884201D1CE
:105A3000012000E00020E0B353492068884222D0D2
:105A400051491431206888421DD04F4928312068BF
:105A5000884218D04C493C312068884213D04A49CA
:105A60005031206888420ED047496431206888420E
:105A700009D0454978312068884204D042498C31A8
:105A80002068884201D1012000E0002000B100BF61
:105A9000022084F8350000BF002084F8340000BFE5
:105AA0002068056839480540A068402802D11021C7
:105AB00006E02EE0A068802801D1C10100E00021AD
:105AC000E06841EAD001206941EAD001606941EA19
:105AD000D001A06941EAD001E06941EAD001206A21
