:020000040800F2
:10000000680A0020C50000083D250008151F0008EB
:1000100000000000000000000000000000000000E0
:10002000000000000000000000000000B5260008ED
:1000300000000000000000003F250008B72600086F
:10004000D700000800000000D7000008D700000813
:10005000D7000008D7000008D7000008D700000824
:10006000000000006506000875060008D7000008BB
:10007000D700000839270008D7000008000000005A
:10008000D70000080000000000000000D7000008B2
:1000900000000000D7000008D7000008D7000008C3
:1000A00000000000D700000800000000492E0008F2
:1000B0000348854600F0BEF900480047F92F0008C4
:1000C000680A00200448804704480047FEE7FEE72E
:1000D000FEE7FEE7FEE7FEE737270008B10000086D
:1000E00030B50B46014600202022012409E00D46D0
:1000F000D5409D4205D31D469540491B2546954058
:1001000040191546521E002DF1DC30BDF0B51FB46C
:100110000646002082B005464024019100901BE075
:10012000019922460F46304600F020F8049A059BBC
:10013000801A994110D310461946224600F028F93A
:10014000361A8F410197224601200021009F00F0BE
:100150001FF938184D4100902046641E0028DFDC4E
:10016000019B00982946324607B0F0BD10B5202A01
:1001700004DB0846203AD040002110BD0B46D34096
:10018000D0402024A21A91400843194610BD10B552
:1001900003461C460C43A40703D009E010C9121FF4
:1001A00010C3042AFAD203E00C781C70491C5B1CB3
:1001B000521EF9D210BDD2B201E00270401C491E9D
:1001C000FBD270470022F6E710B513460A460446F4
:1001D0001946FFF7F0FF204610BDF8B502464A4029
:1001E000D40F42004B0052085B089A4202D20246EA
:1001F000084611464A0023D0C30D4A00DDB2120E54
:10020000AD1A202D35DA49020126490AF6058A1968
:10021000002C00D0524220214F1B1146B9402A41E8
:100220001018C20D9A4221D0002C17D0012D08DCE5
:10023000DA05801AD20F8019D207DBB200F0C0F8BD
:10024000F8BDDA05801A012340001B06C01880188B
:100250005A428018CA0F1043490007E04908C207F4
:100260001143DA05801A80194008801800F0A0F8C0
:10027000F8BD61000122511A001BF7E70122D207E5
:100280005140AAE70122D2075040A6E7024670B5C6
:100290004A40D30FDB0740002DD04A002AD0010E80
:1002A000140E000212020919400A520A8418E501CC
:1002B00004465443000A120A2E045043A41942195A
:1002C000200CC543AA18120C0125AD03521C52196B
:1002D00012047F39240400D0521C104301D4400082
:1002E000491EC2B20C06C0092018401C4008802AD2
:1002F00002D003E0002070BD40084000002900DA71
:100300000020184370BD70B502464A40D50F40002A
:100310004A00ED0740085208002814D0002A12D0E5
:10032000C40DD30D41020120C0055202490A520AF0
:10033000E41A091812187D34914201D3641C00E0BC
:100340004900002C01DA002070BD0023914201D346
:10035000891A0343400849000028F7D100290AD030
:10036000914202D10121C90705E0914201D2012148
:1003700001E00121C943E005C018401900F018F858
:1003800070BD10B500229623114600F019F810BD7B
:1003900010B5202A04DB0146203A9140002010BD10
:1003A000914020239C1A0346E3401943904010BD1E
:1003B000002904DA401C490001D140084000704780
:1003C00070B40024050C05D11024000402D10029CA
:1003D00021D01124050E01D100020834050F01D1EE
:1003E0000001241D850F01D18000A41C002801DB21
:1003F0004000641C002908D020252E1B0D46F54026
:10040000A14000D001212943084301061B1B000A1B
:10041000DB1D02D5002070BC7047DB051818801862
:100420000029F8DA401C4900F5D170BC40084000B2
:1004300070470000064C0125064E05E0E36807CC36
:100440002B430C3C98471034B442F7D3FFF734FEEB
:10045000203100084031000810B50146406A826B27
:1004600050231A420AD1816B012252021143816347
:100470000168CA681205920F05D020E0006B026B7C
:100480000846904710BD827E002A18D10A681207DC
:1004900015D58A6853070122002B09DB4B680C2411
:1004A000A3434B60816B130299431143816306E0C0
:1004B000816B202319438163C16B1143C16300F039
:1004C000D3F910BD10B5406A816B4022114381639E
:1004D000C16B04221143C16300F0C8F910BD10B50F
:1004E000406A00F0C2F910BDF8B504460020009043
:1004F000206881688907890F012905D10168C9072A
:1005000031D1C16809042ED48168184A10261140DF
:10051000012500291AD181682943816015481449B1
:100520000068FFF7DDFD00E0401E00900028FBD1D1
:1005300000F0C4FC074611E000F0C0FCC01B02281C
:100540000CD920680068C043C00707D0A06B3043B7
:10055000A063E06B2843E0630120F8BD20680068D9
:10056000C043C007E8D10020F8BD0000170000809C
:1005700040420F00A4000020F8B50D0004465AD0F8
:10058000502002F079FD2060002801D102F0D6FC55
:100590002E462036307C02F06FFD07004CD0307EB6
:1005A00002F06AFD0090002846D0317C3846FFF703
:1005B00009FE317E0098FFF705FE21682878087053
:1005C00021681F48486021681E48886021681E48CD
:1005D000C86021681D48086121681D48486121687C
:1005E0001C48886121681C48C86121681B48086252
:1005F00021681B4848622068C762216800202031BA
:1006000048742168327C20310A7422680099516351
:100610002168327E20310A762168203148762268AE
:10062000696C51642268E96BD1632168403148727A
:100630002168E86CC864F8BD02F080FCF8BD0000D9
:1006400035220008AD230008BD2200085D23000804
:10065000C921000865220008F1230008DD240008F4
:100660009324000810B5024800F09CFA10BD000069
:10067000D002002010B5034800F094FA024800F0C0
:1006800091FA10BDE00300202404002010B50446B8
:100690000068054940181421FFF722FD80002064FE
:1006A0000248E06310BD0000F8FFFDBF00000240FB
:1006B00030B5056C0124AC40C56B6C6004686360A8
:1006C0004368102B036803D099600068C26030BD96
:1006D0009A600068C16030BD72B6FEE70021094A29
:1006E000082801D90020704740008018054A803250
:1006F00002E00388591810309042FAD34803000CE6
:1007000070470000100200200EB5044A6B4607CA6D
:1007100007C3684601F014FF0EBD0000FC3000085E
:1007200070B50446104600230A4D0FE02278504071
:100730000022641CC60702D04008684000E0400860
:10074000521C92B2082AF5D35B1C9BB28B42EDD3AC
:1007500070BD000001A00000F8B50025044620345B
:100760000095227D012A39D00122227503689E68F6
:10077000760767D4384F4E68BE424DD09E6A0F78D8
:10078000BA4016439E620123C26A1B079A421FD0D9
:10079000012A1DD0022A1BD0032A19D0042A17D0FF
:1007A000052A15D0062A13D0072A11D002688B68B3
:1007B00056697607760FB3420AD05369DB08DB002F
:1007C0005361006842690B7A5B075B0F1A43426111
:1007D0000A68102A04D0112A02D038E00220F8BD9D
:1007E0001E488368102A07D00122920513438360B4
:1007F0000868102803D02AE00122D205F6E719483C
:1008000017490068FFF76CFC0A21484300E0401ECE
:1008100000900028FBD11AE0986A0E78B24090430D
:1008200098620968102901D0112910D10B488268FB
:10083000102904D0012189058A43826007E0012143
:10084000C905F9E7816B202211438163012500204E
:1008500020752846F8BD0000011000000027014067
:1008600040420F00A400002070477047704700000E
:10087000F8B500260446002805D0A06B2546203593
:10088000002802D007E00120F8BD0020E0632875B1
:10089000204600F0A9F8A06B1022C006002870DBEB
:1008A0002068816849076CD4A16B13019943022326
:1008B0001943A16381688907890F012905D101685E
:1008C000C9070FD1C16809040CD4C1681823994322
:1008D000A3681943C16020680169636889008908B9
:1008E000194301612068C1683D4B1940C160207EF9
:1008F000617E8003C9030843A17E4B031843A36AAA
:10090000012B02D001231B0300E000231843E368FE
:1009100018432369022B09D0002318432B79E57E65
:100920005B0018430123012D02D00AE00423F4E701
:10093000002927D0A16B20252943A163E16B19432E
:10094000E163E1690D46FF3DC23D02D0256A2943BE
:1009500008432168CD680543CD600125E16A2D0774
:10096000A94213D0012911D002290FD003290DD09B
:1009700004290BD0052909D0062907D0072905D05D
:1009800010E028E0012109040843DAE721684D69F5
:10099000ED08ED004D6121684D69A78D7F077F0F40
:1009A0003D434D612168C9680E4D2940814207D100
:1009B0000020E063A06B80088000401CA06308E07A
:1009C000A06B022188431043A063E06B1843E063EF
:1009D00001263046F8BDA06B1043A063F8E7000085
:1009E0001902FEFFE7FF3F8370B586B0054614216C
:1009F0006846FFF7E7FB1C492868884232D11B494B
:100A00008A69401502438A618A69024005924A69EF
:100A1000000202434A614969002601400591FF2016
:100A2000009003200190092069460296C00600F05C
:100A300067F90F480F4C41C4802026606060400079
:100A4000A0608000E060202020610320000360613E
:100A50000848083C00F0F4F8002801D0FFF73CFEFD
:100A60002C63656206B070BD002401400010024096
:100A700008000240D0020020F7B5044600680025B7
:100A8000806840073DD426462036307D01280AD0B4
:100A900001273775607E012807D02046FFF724FD27
:100AA000050002D02EE00220FEBDA06B16490840D2
:100AB000FF2101310843A0630020E0633075216B02
:100AC00012488862216B1248C862216B1148086382
:100AD00021681C2008602068416810221143416091
:100AE0002068C1683943C1602168206B4031029B96
:100AF000019A00F0CFF820688168042211438160D8
:100B000000E002252846FEBDFEF1FFFF5904000863
:100B1000DF040008C504000830B5014620314B78D9
:100B20000022022B04D0042383630A70012030BD0D
:100B300003681C680E25AC431C6003681C686408CD
:100B400064001C600123056C1C46C06BAC40446013
:100B50004B700A70002030BD70B500240146203172
:100B60004A78022A03D004218163012416E0026836
:100B700013680E25AB431360026813685B085B00C3
:100B800013600122056C1346AB40C56B6B604A7065
:100B900000220A70416B002900D08847204670BDB2
:100BA000806B7047F0B4C16B0D6801680C6804225B
:100BB000066C1346B3402B420DD063070BD50B6870
:100BC0009B0602D40B6893430B60016C8A40C16B97
:100BD0004A60C16A19E00227B74002462F4001234C
:100BE0002032002F15D0A70713D50C68A40604D413
:100BF0000C680A25AC430C605370036C02219940C9
:100C0000C36B596000211170816A002916D0F0BCB5
:100C100008470827B7402F4210D024070ED50C688C
:100C20000E25AC430C60046C1946A140C46B616096
:100C30008363537000211170016BE6E7F0BC7047CD
:100C400070B5040021D002212046203005464170B5
:100C5000226811680E48A36801406068266918433D
:100C6000E3683343184363691843A3691843E3698E
:100C70001843084310602046FFF708FD0021A163D8
:100C8000012068702970084670BD012070BD000009
:100C90000FC0FFFFF8B504468C46203001780025D0
:100CA000012909D00126067041780027012905D0C5
:100CB000077002252846F8BD0220F8BD02214170C8
:100CC000A763206801684908490001606146204621
:100CD000FFF7EEFCE06A00282068016802D00E22CF
:100CE000114306E00A2211430160206801680422D2
:100CF000914301602068016831430160DAE7000038
:100D0000F8B5002303240125BAE02E469E40B446E0
:100D100032407CD00E79B607B60F012E01D0022EDC
:100D200017D186682746B6465E00B74000967646DD
:100D3000BE43B646CF68009EB740764637438760CD
:100D400046686746BE430F79FF06FF0F9F40374353
:100D500047600E79F643B6070ED0C6682746B446FC
:100D60005E00B646B7406646BE43B4468F687646D8
:100D7000B74066463743C7600E79B607B60F022EF6
:100D800014D1DE08B60036180096366A5F07B446FE
:100D9000FE0E0F27B646B7406646BE43B4460F69FF
:100DA0007646B74066463743009E37620668274658
:100DB000B4465E00B646B7406646BE430F79B446B9
:100DC000BF07BF0F7646B7406646374307604E6899
:100DD000B603B60F53D02D4FBE692E43BE61BE6918
:100DE0009F08F607F60F2A4EBF00BE190096B66898
:100DF0000F27B4469E07360FB646B7406646BE4339
:100E00000927FF06B446B84202D1002710E036E0B9
:100E1000204FB84201D101270AE01F4FB84201D14B
:100E2000022705E01D4FB84201D1032700E0052746
:100E30007646B74066463743009EB760184E366820
:100E40004F689643FF0300D51643154F3E607E68FA
:100E50004F689643BF0300D51643114F7E60BE68AE
:100E60004F689643FF0200D516430D4FBE60FE68E3
:100E70004F689643BF0200D51643094AD6605B1CF3
:100E80000A681646DE4000D03FE7F8BD0010024079
:100E9000000001400004004800080048000C004821
:100EA000000401400069084000D001207047002A7A
:100EB00001D08161704781627047000001488068FD
:100EC0007047000098000020024881680278891865
:100ED000816070479800002010B506480168102214
:100EE00011430160002000F007F800F027F800200F
:100EF00010BD00000020024070B504460D4D7D205D
:100F00002978C000FFF7ECF801460B480068FFF7AE
:100F1000E7F800F043FB002809D1042C07D2002297
:100F20002146401E00F02AF800206C6070BD0120B0
:100F300070BD000098000020A400002008B50848FB
:100F40008169012211438161816911400091C26967
:100F500001040A43C261C0690840009008BD000056
:100F600000100240002805DBC106C90E01208840A0
:100F7000014908607047000000E100E010B501F091
:100F8000ABFF10BDF8B505460068354CC00352D51F
:100F9000E0690026C00007D4E16920040143E16153
:100FA000E1690140012600912E480168C90510D46D
:100FB0000168821511430160FFF780FF074604E0D6
:100FC000FFF77CFFC01B642824D826480068C005B2
:100FD000F6D5206A03273F02384020D0696839409F
:100FE00081421CD0206A226AB843012109040A43C5
:100FF0002262226A8A4322622062C0070FD0FFF772
:101000005DFF009008E0FFF759FF0099411A16486C
:10101000814201D90320F8BD206A8007F3D5206AF8
:101020006968B84308432062002E04D0E1690120BA
:1010300000078143E1612878C00705D0206BA968CB
:1010400080088000084320632878800605D5206B3F
:1010500010218843E968084320630020F8BD0000A0
:10106000001002400070004088130000F8B50F46E1
:10107000060059D03A4D2868C007C00FB84209D2BF
:10108000286840084000384328602868C007C00F1F
:10109000B84249D13068334C81070CD5400704D59C
:1010A000606807210902084360606068F021884396
:1010B000B168084360603078C00726D070680128A6
:1010C0000ED0216802280ED0890700292CDA616829
:1010D0008908890001436160FFF7F0FE00900DE090
:1010E00021688903F1E78901EFE7FFF7E7FE00993F
:1010F000411A1D48814201D90320F8BD60680C21C6
:101100000840716889008842EFD12868C007C00F85
:10111000B8420BD928684008400038432860286846
:10112000C007C00FB84201D00120F8BD3078400799
:1011300006D56068072109028843F16808436060AA
:1011400000F028F86168094A0906090F515CC84097
:10115000074908600020FFF7CFFE0020F8BD00001F
:1011600000200240001002408813000008310008EF
:10117000A40000200448054900684968044A49055C
:10118000490F515CC8407047A40000200010024085
:101190001831000810B514A30FCB88B06C460FC4EB
:1011A00015A30FCB0FC4184A51680C200B460340FF
:1011B0001648042B16D0082B14D18B021B0F6C463B
:1011C000E45CD26A04AB1207120F9A5CC90305D51E
:1011D00000231946FEF79AFF214601E020460C49FC
:1011E00001F062FE08B010BD0203040506070809FD
:1011F0000A0B0C0D0E0F1010010203040506070860
:10120000090A0B0C0D0E0F100010024000127A009C
:1012100000093D00FEB5040070D02078DC4DC00709
:101220004AD068680007800F012807D06868000767
:10123000800F022809D16868C00306D5286880039A
:101240003AD560680028E7D036E06168012914D0FB
:1012500001208004002901D0052914D02A68012129
:1012600009048A432A60296881432960606800284C
:1012700016D0FFF723FE06460EE028680121090478
:1012800008432860F2E7296801432960F5E7FFF782
:1012900015FE801B64286ED828688003F7D50BE004
:1012A000FFF70CFE064604E0FFF708FE801B6428EB
:1012B000F1D828688003F7D4207801268007002819
:1012C0003CDA68680007800F07D068680007800F65
:1012D000022809D16868C00306D42868800716D59B
:1012E000E06801280AD112E0E0680028286816D0DA
:1012F00030432860FFF7E2FD074605E043E1FFF7D2
:10130000DDFDC01B0228C6D828688007F7D52868ED
:10131000F82188432169C900084328600EE040088D
:1013200040002860FFF7CAFD074604E0FFF7C6FD4E
:10133000C01B0228AFD828688007F7D420780007A0
:1013400022D5E0690028686A0ED030436862FFF752
:10135000B5FD074604E0FFF7B1FDC01B02289AD88F
:10136000686A8007F7D50FE0400840006862FFF721
:10137000A5FD074605E09DE0FFF7A0FDC01B022884
:1013800089D8686A8007F7D42078042740070028A6
:1013900060DA00200190E869C00008D4E969B80665
:1013A0000143E961E9690140012000910190794818
:1013B0000168C90511D40168821511430160FFF766
:1013C0007DFD009005E0FFF779FD0099401A642843
:1013D00070D870480068C005F5D5A06801280AD00B
:1013E000002801D0052810D0286A40084000286253
:1013F000286AB84301E0286A30432862A0680028C0
:1014000012D0FFF75BFD00900AE0286A384328629B
:10141000F1E7FFF753FD0099411A5F48814249D82F
:10142000286A8007F5D50DE0FFF748FD009006E03B
:10143000FFF744FD0099411A574881423AD8286A7B
:101440008007F5D40198002804D0E969012000073D
:101450008143E9612078C00635D5606901280CD048
:10146000401D686B23D038436863686B40084000B8
:101470006863FFF723FD064622E0686B3843686324
:10148000686B30436863FFF719FD064604E0FFF719
:1014900015FD801B02285BD8686B8007F7D5686B49
:1014A000F8218843A169C900084368630BE0B84389
:1014B0006863F4E74CE0FFF701FD801B022847D882
:1014C000686B8007F7D4206A00285ED06968090736
:1014D000890F022942D0012636060228286805D045
:1014E000B0432860FFF7EAFC044633E0B0432860CD
:1014F000FFF7E4FC074604E0FFF7E0FCC01B02280E
:1015000026D828688001F7D4E86AE16A000900015A
:101510000843E862616AA06A084369683D221204D0
:10152000914308436860286830432860FFF7C6FC91
:10153000044604E0FFF7C2FC001B022808D8286814
:101540008001F7D521E0FFF7B9FC001B022801D983
:101550000320FEBD28688001F5D416E00128F8D0EC
:101560006868E96A01221204636A02409A420AD159
:101570000907E26A090F914205D10F218904084049
:10158000A16A884201D00120FEBD0020FEBD0000FE
:10159000001002400070004088130000094910B597
:1015A000401E884201D9012010BD074C6061032113
:1015B000081F01F091FC0020A0610720206100209D
:1015C00010BD0000FFFFFF0000E000E07047704723
:1015D000F0B502462032137F012B1BD0012616776F
:1015E0000223537705686B68AC687027BB430F68AC
:1015F0001F436F600068084B984202D0074B984227
:1016000004D1802349689C432143816056770020A0
:101610001077F0BD0220F0BD002C01400004004016
:1016200070B5040005D025462035687F002802D01B
:1016300006E0012070BD00202877204600F014F855
:1016400002206877211D206801F07EF801204034D7
:10165000A071A877E87720706070A070E0702071AA
:1016600060716877002070BD08B50068094988423C
:101670000FD109488269C1140A438261806900223E
:101680000840009011460D20FFF778FC0D20FFF771
:1016900069FC08BD002C01400010024001462031C9
:1016A0004A7F012A01D00120704702224A7702684E
:1016B000D36801210B43D3600068084A904202D0EE
:1016C000074A904204D182685207520F062A02D07C
:1016D00002680A430260002070470000002C0140AD
:1016E00000040040F8B5054604462035287F002652
:1016F000012817D001202877022068772268906897
:101700007727FF23B8431B0298439060086850284E
:1017100038D00EDC20284FD006DC00284CD0102812
:101720001ED149E00220F8BD302845D0402817D10D
:101730003AE060282ED0702819D001221203801AB6
:101740000FD090420CD1CB684A688968206801F0BC
:1017500037F820688168012292031143816000E01C
:10176000012601206877002028773046F8BDCB6835
:101770004A688968206801F023F82168886838433E
:101780008860EEE7CA684968206801F02CF85021AB
:10179000206806E0CA684968206801F035F86021D1
:1017A000206801F018F8DCE7CA684968206801F091
:1017B0001AF840212068F4E7226801461046F0E755
:1017C000704770B50446006801690025C943890760
:1017D000002915DBC168C943890711D4E91E0161DD
:1017E00001202077206880698007204602D0FFF71B
:1017F000E7FF04E000F096F8204600F094F8257723
:1018000020680169C943490717D4C168C94349071A
:1018100013D40421C9430161022020772068806924
:101820008005800F204602D0FFF7CAFF04E000F0D9
:1018300079F8204600F077F8257720680169C943D8
:10184000090716D4C168C943090712D40821C9433E
:101850000161042020772068C0698007204602D0FB
:10186000FFF7AEFF04E000F05DF8204600F05BF803
:10187000257720680169C943C90617D4C168C943DF
:10188000C90613D41021C9430161082020772068BC
:10189000C0698005800F204602D0FFF791FF04E069
:1018A00000F040F8204600F03EF8257720680169F6
:1018B000C943C90708D1C168C943C90704D1891EF2
:1018C0000161204600F030F820680169C94309062B
:1018D00009D4C168C943090605D48021C9430161FF
:1018E0002046FFF773FE20680169C943490609D401
:1018F000C168C943490605D44021C9430161204656
:1019000000F03CF820680169C943890609D4C16820
:10191000C943890605D42021C94301612046FFF748
:1019200056FE70BD7047704770B500681149884217
:101930001ED11149086800281AD00023006801242C
:101940000EE04279002A0AD0002808D00288521CF2
:1019500092B202804588AA4201D1047103800C3002
:101960000A680C26156812797243AA188242E8D8D0
:1019700070BD0000002C01409400002070477047AB
:10198000F8B50446806FE66F21688A68254612061E
:1019900010278035002A1BDA212819D1EFF3108097
:1019A000012282F310888A6880239A438A6080F338
:1019B0001088E06E002808D0FFF7AEF8002804D0A9
:1019C000E06EFFF7EDF8202824D0204601F0DBF888
:1019D0002168886840061BD5222E19D1EFF31080AC
:1019E000012282F310888A6840239A438A6080F338
:1019F0001088206F002808D0FFF78EF8002804D048
:101A0000206FFFF7CDF8202804D0204601F08CF895
:101A10000020F8BD2F600320F8BD7047F8B50268BC
:101A20000446D069116896689C4B05461D402023EA
:101A3000002D75D0F7079A4DFF0FBC460D402F4380
:101A40006DD02546C7078035002F06D0CF0504D5B9
:101A5000012717622A683A432A60820708D5F207ED
:101A600006D0276802223A622A6804273A432A608D
:101A7000420708D5F20706D02668042232622A6897
:101A8000022632432A6002070AD50A461A406646F1
:101A9000324305D02668082232622E6816432E6033
:101AA000020508D54A0106D501222668D202326213
:101AB0002A681A432A602A68002A39D0800606D587
:101AC000880604D5616E002901D020468847286821
:101AD00021688968490602D4282108422DD0204671
:101AE00001F022F821688868400622D5EFF31080C3
:101AF000012282F310888B68402293438B6080F32D
:101B00001088206F002814D066494163206FFFF7CA
:101B100023F800280CD0206F416B08E000E012E0B1
:101B2000850610D58D060ED5616E9DE0204688474E
:101B3000F8BD2046FFF771FFF8BD2046FFF76DFFA7
:101B400000202860F8BD256E012D7DD1C5067BD50E
:101B5000CD0679D510261662226890682546400683
:101B60004035002845DA216F086840680004000C01
:101B7000E8D02F8B8742E5D968838869202833D045
:101B8000EFF31080012181F3108811683701B94308
:101B9000116080F31088EFF31080012181F3108829
:101BA00021688A68520852008A6080F31088EFF337
:101BB0001080012181F3108821688A684027BA4388
:101BC0008A6080F31088E36700202066EFF31080BE
:101BD000012181F3108821680A68B2430A6080F30A
:101BE0001088206FFEF798FF288B698B401A81B20E
:101BF00031E0288B698B401A81B2688B0028A1D014
:101C000000299FD0EFF31080012585F31088156817
:101C1000FF272137BD43156080F31088EFF3108054
:101C2000012282F31088226895686D086D00956026
:101C300080F31088E367002020666066EFF3108071
:101C4000012282F3108800E009E022681368B343A0
:101C5000136080F310882046FFF791FEF8BD05065B
:101C600006D50D0604D5A16E002900D05EE7F8BDAB
:101C70004006FCD54806FAD52046EFF31081012432
:101C800084F3108814684025AC43146081F31088F5
:101C900083670021816600F03BF9F8BD0F08000062
:101CA00020010004C529000810B5040003D0A06F6E
:101CB000002802D007E0012010BD0021742001554A
:101CC000204600F027F82420A06720680168490812
:101CD00049000160204600F067FF0128ECD0606AEF
:101CE000002802D0204600F0D5FD2068416801227E
:101CF000D20291434160206881680822914381604B
:101D000020680168012211430160204600F028FE8E
:101D100010BD0000F0B587B0064614216846FEF7F6
:101D200051FA2D493068884254D12C4882690121EA
:101D300089030A43826182690A4005924269C900A7
:101D40000A43426140690024084005900320400294
:101D500000900220019003200390012004900920AC
:101D600002946946C006FEF7CBFF1E4D1C48286052
:101D700010208027291D91C12C616C610002AC618B
:101D8000E8612846FEF75CFF002801D0FEF7A4FCBE
:101D9000F5666E621248134D1430443511C52C603F
:101DA000AC60EC6001206F6040032C6168612846E4
:101DB0000838083DFEF744FF002801D0FEF78CFCF0
:101DC0003567002211461B206E62FFF7D7F81B20F3
:101DD000FFF7C8F807B0F0BD00380140001002401E
:101DE0001C000240E003002070B5C36F202B2BD1F4
:101DF00000290BD0002A09D0012483682403A342C0
:101E000006D10369002B03D1CB0701D0012070BD9F
:101E1000034660331C7D012C16D001241C75002361
:101E20000366046863681B020BD5EFF3108301257A
:101E300085F3108825680126B6063543256083F3AF
:101E4000108800F03FFF70BD022070BD70477047E2
:101E5000F8B50446806F202852D100290BD0002A03
:101E600009D00123A0681B03984206D120690028ED
:101E700003D1C80701D00120F8BD25466035287D73
:101E800001283DD00120287520464030E1640282BF
:101E900042820026274680373E602120A067E06E00
:101EA00000281BD017498162E16E1748C862E16EB5
:101EB00016480863E06E13464663E06C216884466A
:101EC0000A4628326146E06EFEF7E4FE002805D09F
:101ED000102038602E752020A067CCE721684020B4
:101EE00008622E75EFF31080012181F310882168BC
:101EF0008A6880231A438A6080F310880020F8BD26
:101F00000220F8BDD52A00081F2B0008D929000897
:101F100070477047FEE70000014600B505480129FB
:101F200000D000210268917102680121917300F0D4
:101F30009DFF00BD5C000020FEB5002437493848F5
:101F400000940194029412C001250426011D04602E
:101F500070C1047444748574C474FF21C2318461F7
:101F60004161014618310D7105620838FEF780FCA9
:101F7000002801D0FEF7B0FB01200003009401907F
:101F80000524694626480294FEF7E6FB002801D0A6
:101F9000FEF7A2FB694622480095FEF7DDFB00280C
:101FA00001D0FEF799FB0220009069461C48FEF71D
:101FB000D3FB002801D0FEF78FFB03200090694679
:101FC0001748FEF7C9FB002801D0FEF785FB6946DC
:101FD00013480096FEF7C0FB002801D0FEF77CFBFB
:101FE00069460F480094FEF7B7FB002801D0FEF7C2
:101FF00073FB0620009069460948FEF7ADFB0028F8
:1020000001D0FEF769FB0720009069460448FEF7FF
:10201000A3FB002801D0FEF75FFBFEBD00240140BA
:102020009002002008B50C4841690122114341612A
:10203000406910400022009011460920FEF79EFFE3
:102040000920FEF78FFF002211460A20FEF796FFB7
:102050000A20FEF787FF08BD0010024070B586B069
:1020600014216846FEF7AEF81A4842690121890535
:102070000A43426142690A400592426949110A4392
:10208000426142690A400592426949000A4342613D
:1020900040690325084009266D03F60605900122D4
:1020A00029463046FEF703FF02200090002001245D
:1020B0000190694602940848FEF722FE032003902F
:1020C00001946946009502943046FEF719FE06B069
:1020D00070BD0000001002400004004800B595B03B
:1020E000FEF712FB0007000F0F2800D910206946E9
:1020F0000870802008A90874087606480F900648E2
:1021000013900648119003486946C01CFEF734FA44
:1021100015B000BD450000205C03002090010020A8
:1021200010B586B0002400941848019402940394DA
:102130000494154905940160FF21E03184604160F9
:102140007D210461C9004461C16080218161FFF784
:1021500067FA002801D0FEF7BFFA012000030090C3
:1021600069460A48FFF7BEFA002801D0FEF7B4FA24
:10217000049404A905480594FFF72AFA002801D021
:10218000FEF7AAFA06B010BD002C0140140300208F
:1021900010B50C480A490160E12149024160002163
:1021A0008160C16001618161C1610C220162426193
:1021B0004162FFF779FD002801D0FEF78DFA10BDCE
:1021C000003801405C030020FFB5044617A205CA91
:1021D00083B0009001922278684602700A0A8270E9
:1021E000C1700026067159081D4641718571274648
:1021F0002037397CE06AFDF7E5FF7E7407226946E7
:10220000E06AFDF7C4FF787C2A46C01DC0B278742E
:10221000E16A08180599FDF7BAFF787C40197874CF
:10222000226900212046904707B0F0BD004600001B
:1022300000000000C06B002806D00122054B0429D5
:1022400003D0112900D11A70704719780029FBD0EA
:10225000027070474400002001484068C168084788
:1022600044000020F8B50D46014640310E789C46EA
:10227000022E01D2102700E020270024BD4211D2F7
:102280000B7A69000F464037002B0DD0406C022EB0
:1022900012D0C519114662462846FDF778FF00287E
:1022A00000D001242046F8BD406C1546022E01D016
:1022B000C119F0E74118EEE74518EBE7F8B5044619
:1022C000214640314A7A0020002A44D00026254683
:1022D0004E722035697E022905D9891E89B21E4AAF
:1022E000606BFEF71DFA616B23780A789A422DD154
:1022F0006A7E8A181E3A537F177F1A023A4353BAEE
:10230000020A0002024390B283421FD14878062895
:1023100011D004DC032807D0042817D104E01028CA
:1023200009D0112812D10AE0E16920468847606B84
:102330006268417808E0216A2046884706E0616AC1
:10234000204688476268112120469047697E606B6D
:10235000FDF738FF6E76F8BDFFFF000038B5054683
:1023600020350446002913D1697C0F4AE06AFEF744
:10237000D7F9014668460180697CE06A41186846E1
:1023800000780870684640784870687C801C6874E3
:102390006A7CE16AE06CFFF75BFDE06C0068C16994
:1023A000C9434906FBD438BDFFFF000070B50446A1
:1023B000C06C0D460068C169C943C90617D4102115
:1023C0000162002C10D0606B00280DD0E06CFFF78C
:1023D000D7FA204629682030027E4968511A417692
:1023E000616BE06CFFF700FD01204034607270BD4E
:1023F000F8B5416B0446487909790002084340BAB0
:102400004006060E304600F037FE009000283AD015
:102410003146FDF7D7FE25462035297CE06AFDF7D9
:10242000D1FE00216974626BE06A13780370527800
:102430004270687C801CC0B26874E26A1654687C82
:10244000401C6874626B5078032820D00223204619
:10245000403003700172D07891780002084341BA8D
:10246000A76933462046009AB847697CE06A32463D
:1024700040180099FDF78BFE687C8019687422690A
:10248000002120469047009800F058FDF8BD032336
:10249000DDE770B5054604462035297CC06AFDF7A6
:1024A00091FE00206874616BE06A0A7802704978D6
:1024B0004170687CE36A801CC0B2411C01226974CF
:1024C0001A54FEF721F9697C0246481CE36A6874D5
:1024D0005A54226900212046904770BDF8B5044641
:1024E00003214030017001210172606B2546417863
:1024F000203506291CD006218379C21D6974002667
:10250000002A07D0C17887780802384341BAA76902
:102510002046B847297CE06AFDF754FE6A7C616B6F
:10252000E06AFDF734FE2269314620469047F8BD47
:102530000223021D697E69740126E1E7FEE7704708
:10254000F8B500260446002836D02168002933D08B
:10255000096800208871216809688873206800F084
:1025600085FC2068012700688771206800688773F0
:10257000206800F07BFC00256068002818D02168E6
:10258000002009688873206800F070FC2189606869
:10259000FEF788FCA072C007C00F0721491B8840C6
:1025A0003043C6B2206800688773206800F05EFC84
:1025B0006D1CEDB2082DDFD33046F8BDF0B53748BD
:1025C00087B00568182236496846FDF7E0FD3548B2
:1025D000354F017800290DD1012101700024182008
:1025E0006043C01918226946FDF7D1FD641CA4B2EE
:1025F000082CF4D3202000F03FFD060049D0202114
:10260000FDF7E0FD00242046FEF768F8FDF7B9FE6F
:102610002449E700091DC959FDF738FE2149091D64
:1026200079184968FDF7D9FDA7002049F051884283
:1026300000DC002018211C4A61438A18F051014631
:10264000104600F0A5FC1849F051C031CA590146A6
:102650001046FDF713FE410015484908814206DB8C
:10266000E96B002008701048F159C030C151641C5A
:10267000A4B2082CC7D3002D0BD02846022140302D
:102680000170012101722023AC69324600212846E5
:10269000A047304600F052FC07B0F0BD48000020D3
:1026A000E430000800000020B0000020954B243FDB
:1026B000CDCCCC3C704710B5FEF706FC10BD70B514
:1026C00094B030216846FDF77DFD002401250F946C
:1026D00011200595109400900195102006900E94FD
:1026E0001394000309900D9400010C941294022697
:1026F0000A90119408960B946846FEF78BFD00280B
:1027000001D072B6FEE707200C900E9401210D96C1
:102710000F940CA8FEF7AAFC002801D072B6FEE7C1
:1027200010A810951294FEF72DFC002801D072B667
:10273000FEE714B070BD704710B50248FFF741F8CE
:1027400010BD00001403002070B50268174B184E2E
:10275000984201D0B04203D17024A2434C68224376
:10276000144C154D984208D0B04206D0134EB042DA
:1027700003D0A04201D0A84204D103263602B243BE
:10278000CE6832438026B2434E69324302608A6883
:10279000C2620A688262984203D0A04201D0A84275
:1027A00001D1096901630121416170BD002C014023
:1027B0000004004000440140004801400020004067
:1027C00030B58468FF252D021B021343AC430B4335
:1027D0002343836030BD826870239A430A430721F4
:1027E0000A438260704730B5036A046A6408640073
:1027F00004628469F025AC43120122430A24A343F6
:102800000B438261036230BD30B5036A1024A343D9
:1028100003628469036A0F252D031203AC4322432C
:10282000A024A343090119438261016230BD000065
:1028300010B509480068C06B00280CD0027801214F
:102840000648002A01D0017002E002784A40027076
:102850000078FFF761FB10BD4800002088000020D1
:1028600070B50B4D00262868046808E02079002820
:1028700004D0A068002801D0804726710C34286855
:102880000C220168007950430818A042EED870BDB0
:102890009400002010B5818CC90707D001684A68F0
:1028A00001235B049A43836A1A434A60818C890737
:1028B00007D501684A6801231B049A43C36A1A4377
:1028C0004A60818C490707D501684A6801239B0447
:1028D0009A43036B1A434A60818C090707D5016844
:1028E0004A680123DB039A43436B1A434A60818C95
:1028F000C90607D50268916801231B039943836BBE
:1029000019439160818C890607D501688A68012383
:102910005B039A43C36B1A438A60818C490612D5C4
:1029200003685A6801210905046C8A4322435A60EE
:10293000026C8A4207D10268516803235B05994300
:10294000436C19435160818C090607D501684A68B8
:102950000123DB04806C9A4302434A6010BD0000EF
:10296000F8B50446002680300660FEF7A7FA054653
:1029700020680068124F000709D501212B4600226C
:1029800049052046009700F0F5F900280DD1206890
:10299000006840070BD501212B46002289052046FF
:1029A000009700F0E7F9002801D00320F8BD2020AF
:1029B000A067E0672666603426750020F8BD000039
:1029C000FFFFFF0110B5406A0022014640314A83F3
:1029D0004A82FFF722F810BD70B5446AA06FE56F18
:1029E0002168896800260906002906DA212804D111
:1029F00052200653204600F0C6F820688068400642
:102A000006D5222D04D15A200653204600F08CF81A
:102A10002046803001681022114301602046FEF7F5
:102A2000FCFF70BD10B501468969406A202938D085
:102A300000225A210A52EFF31081012282F31088FA
:102A400002681368FF240134A343136081F31088E4
:102A5000EFF31081012282F31088026893685B080B
:102A60005B00936081F31088EFF31081012282F301
:102A70001088026893684024A343936081F3108810
:102A80002021C167016E01290BD1EFF310810122D2
:102A900082F31088026813681024A343136081F343
:102AA0001088016E012902D0FFF7D0F910BD58211E
:102AB000095AFEF764FF10BD10B5406A016E012986
:102AC00002D0FFF7C4F910BD5821095A4908FEF792
:102AD00056FF10BD10B501468969406A20291BD0F8
:102AE000002252210A52EFF31081012282F3108852
:102AF000026893688024A343936081F31088EFF306
:102B00001081012282F310880068026840231A4372
:102B1000026081F3108810BDFFF7FAF910BD10B5FF
:102B2000406AFFF7F6F910BD10B5EFF310810122EE
:102B300082F3108802681368FF242134A3431360D2
:102B400081F31088EFF31081012282F3108802686C
:102B500093685B085B00936081F31088016E012924
:102B60000BD1EFF31081012282F310880268136801
:102B70001024A343136081F310882021C167002132
:102B80000166416610BD10B5EFF31081012282F39A
:102B9000108802681368C024A343136081F310886F
:102BA0002021816710BD000070B50446806821694E
:102BB000E2690843616900251143084321680A68F6
:102BC0003C4B1A4002430A60216848680322120302
:102BD0009043E26810434860A169206A0843216875
:102BE0008A680B231B029A4302438A603248006BB7
:102BF0008007800F16D0012818D0022818D003288B
:102C000012D010210120E369C0032C4A2C4E8342CC
:102C10002BD100290ED002290FD004290FD008296A
:102C20003FD110E00021EDE70221EBE70421E9E7C5
:102C30000821E7E7FEF79EFA03E0104603E0FEF7FF
:102C4000A9FA002831D0616840004A088018FDF7D1
:102C500047FA80B201461039B14222D81849491CBE
:102C600001400007400F08431DE0002906D002295B
:102C700007D0042907D0082913D108E0FEF77AFA13
:102C800003E0104603E0FEF785FA00280DD06168E6
:102C90004A081018FDF724FA80B201461039B142F3
:102CA00001D9012501E02168C86000206066A066A6
:102CB000284670BDF369FFFF0010024000127A0041
:102CC000EFFF0000F8B50446416540300026274676
:102CD000028380373E602220E0672546206F603502
:102CE00000281BD020498162216F2048C862216FD3
:102CF0001F480863206F13464663606D2168844651
:102D000062462431206FFDF7C5FF002806D0102051
:102D100038602E752020E0670120F8BD2E75EFF396
:102D20001080012181F3108821680A68FF23013394
:102D30001A430A6080F31088EFF31080012181F3B9
:102D40001088226893680B43936080F31088EFF338
:102D5000108081F3108821688A6840231A438A60B2
:102D600080F310880020F8BD252A0008B92A000841
:102D7000D9290008FFB581B00546174604466035DD
:102D80000A9E55E0701C53D0FEF798F80499401A3B
:102D9000B04230D8002E2ED020680168490747D5B0
:102DA000C069C043000543D401202168C002086205
:102DB000EFF31080012181F3108821680B68FF2256
:102DC000A13293430B6080F31088EFF31080012150
:102DD00081F3108821688A68520852008A6080F363
:102DE00010882020A067E0678034206000202875CC
:102DF000032005B0F0BDEFF31080012181F31088AE
:102E000021680B68FF22A13293430B6080F3108886
:102E1000EFF31080012181F3108821688A6852083D
:102E200052008A6080F310882020A067E067DDE709
:102E30002068C1690298884304D00020B842A1D01C
:102E40000020D6E70120F9E710B505480068002802
:102E500002D08268034990470348FEF7DFFD10BDAA
:102E600048000020240400205C03002070B50168A5
:102E70000C680B46616905798AB2ED0019465D1947
:102E800007E08E79002E8E8801D0324300E0B243F5
:102E900008318D42F5D8002805D0002B03D0D0434F
:102EA00000041043A06170BDF8B5040C8BB2264637
:102EB00082B25E430D0C1046370C5843360480191D
:102EC0000021794116466E43370C3604801979414A
:102ED00026466E438919F8BD8307FF22DB0E9A4010
:102EE0008907090E9940002808DB830809489B00E0
:102EF0001B18186890430843186070470007000FBC
:102F00000838830804489B001B18D869904308437D
:102F1000D861704700E400E000ED00E002E008C87E
:102F2000121F08C1002AFAD170477047002001E043
:102F300001C1121F002AFBD17047000010B5002804
:102F400023D0124B0022001F196803E0814203D8EE
:102F50000A4649680029F9D1002A0AD01368841A60
:102F60009C4204D1006818181060104602E05060BE
:102F700000E01860002907D002680B1A934203D1C1
:102F80000B68D21802604968416010BDA80000209B
:102F9000F3B50446016981B00068FDF71EF9606071
:102FA00006466169FDF719F901463046FDF7ABF9B0
:102FB000E060A768054639460298FDF75FF92946A3
:102FC000FDF764F93946FDF708F90746A0607F2050
:102FD0002946C005FDF752F93146FDF757F9206043
:102FE0000448874201DDA068FEBD0020E060A060CB
:102FF000FEBD000077CC2B32FDF76EFFFFF75FFBC5
:10300000FFF72CF8FFF70EF8FFF7C2F8FFF788F884
:10301000FEF792FF402212491248FDF72DFD12489B
:10302000FEF73CFB124911480860FFF757F8114CB6
:103030002068002810D0C06C00680168102211437D
:103040000160206838210A5C416BC06CFEF7CCFE41
:103050002068002120304176FFF702FCFCE70000E9
:103060001002002090020020140300208C00002099
:103070009400002048000020F0B50B30C108C900C2
:10308000144F0026144A0FE003688B420BD38B4287
:1030900005D95C1A4318456830C3083B00E0436813
:1030A000136002C004E0021D10680028ECD1304615
:1030B000002803D13868002801D00020F0BD064A5E
:1030C00006481060064A121AD208D20044C00120F5
:1030D0003860D7E7AC000020A80000206C04002076
:1030E000680600200000003F000000000000000013
:1030F000000000000AD7A33B4C37893D5C0000204C
:103100000004004802000000000000000000000071
:10311000010203040607080900000000010203047D
:103120004031000800000020B00000001C2F000803
:10313000F0310008B0000020B80900002C2F000872
:1031400000000000A27D123CF83D0A3F5A82143C68
:103150009FBB0C3F27A4143CFDE10C3FCE98143CD0
:10316000A8EB0F3F9E8D143C2D49083F4709143CA6
:10317000BAD80C3F538D143CE6650D3F9A98143C29
:10318000BE110E3F000000000000000000000048DB
:103190000020000000000048004000004C0000201B
:1031A0000200000000000A000001000031280008B1
:1031B0000000010000010000592200080000140076
:1031C00000010000BD25000801000000640000208F
:1031D00003000000000000000100000004000000E7
:1031E0000000000000127A00000000000000000053
:04000005080000B13E
:00000001FF
