:020000040800F2
:10000000484C00200D03000815480008F142000884
:10001000BD4700080D220008B94D0008000000008F
:100020000000000000000000000000007502000851
:100030008323000800000000B90200086948000896
:1000400027030008270300082703000827030008E8
:1000500027030008270300082703000827030008D8
:10006000270300082703000827030008352300089A
:10007000412300084D230008270300082703000838
:1000800027030008270300082703000827030008A8
:10009000270300082703000827030008852300081A
:1000A0002703000819490008270300082703000850
:1000B00027030008254900083149000827030008E4
:1000C0002703000827030008270300082703000868
:1000D000270300082703000827030008594D0008DC
:1000E00027030008270300082703000800F002F890
:1000F00000F0B0F80AA090E8000C82448344AAF112
:100100000107DA4501D100F0A5F8AFF2090EBAE80F
:100110000F0013F0010F18BFFB1A43F0010318473B
:1001200064A5000084A500000A444FF0000C10F8FC
:10013000013B13F0070408BF10F8014B1D1108BF65
:1001400010F8015B641E05D010F8016B641E01F805
:10015000016BF9D113F0080F1EBF10F8014BAD1C55
:100160000C1B09D16D1E58BF01F801CBFAD505E073
:1001700014F8016B01F8016B6D1EF9D59142D6D3CD
:10018000704700000023002400250026103A28BFF5
:1001900078C1FBD8520728BF30C148BF0B607047F9
:1001A0006E2900F01D83702900F06784662909F02C
:1001B000D381652909F0D081672909F0CD816129B2
:1001C00009F0CC8103681B0A28BF41F0800169292E
:1001D00000F0CA82642900F0C782752900F0C48249
:1001E0006F2900F0F483782900F03384E92900F0C6
:1001F0008F83E42900F08C83F52900F08983EF29AF
:1002000000F0F183F82900F032840368DB0928BF8D
:1002100041F08001632901F03981732901F03E81A9
:10022000E32901F04981F32901F04E810020704754
:100230001FB501F09BF904000020002108F078FDB3
:10024000401C60600020002108F05CFDE0601FBDE4
:1002500010B510BD01F05CF91146FFF7E9FF04F09D
:1002600061FE01F039FA03B4FFF7F2FF03BC01F0BD
:100270003DFA0000224B19680868B0E8F00F80F3DF
:100280000988BFF36F8F4FF0000080F311884EF0A4
:100290000D0E70470000000006480068006880F3FB
:1002A000088862B661B6BFF34F8FBFF36F8F00DF70
:1002B00000BF00BF08ED00E0EFF30980BFF36F8FD0
:1002C0000F4B1A6820E9F00F106008B54FF050008E
:1002D00080F31188BFF34F8FBFF36F8F07F0F6FDE8
:1002E0004FF0000080F31188BDE8084019680868E5
:1002F000B0E8F00F80F30988BFF36F8F704700BF3D
:100300002C010020EFF3058070470000094880476A
:1003100009480047FEE7FEE7FEE7FEE7FEE7FEE7E7
:10032000FEE7FEE7FEE7FEE704480549034A054B02
:100330007047000015490008ED00000848440020FF
:10034000484C0020484400207CB51D4616460C0051
:10035000009001D02044401E074B7B442A4669464A
:100360000190304600F055FA05461CB10020694660
:1003700000F062FA28467CBDE504000030B5054671
:100380000B462A4613F8014B12F8010B08B1A042A4
:10039000F8D01CB1002802D06D1CF1E7284630BD12
:1003A00010B5431C02E010F8011B71B18107FAD1AE
:1003B0004FF0013202C88C1A8C4314EAC211F9D0F2
:1003C000C01A0A0603D0C01E10BDC01A10BD0A0410
:1003D00001D0801E10BD0902FCD0401E10BD40EAB5
:1003E000010370B59B072ED14FF00136042A2AD3A2
:1003F00008C810C99D1B9D43121F15EAC61517D0CA
:10040000D8B2E1B2401A50EA056110D198B2A1B257
:10041000401A50EA05410AD123F07F4024F07F4181
:10042000401A50EA052102D1180EA0EB146070BDED
:10043000A342DBD018BA21BA884201D9012070BD8D
:100440004FF0FF3070BD0AB9002070BD10F8013BBD
:1004500011F8014B63B1A3420AD1521E08D010F823
:10046000013B11F8014B1BB1A34201D1521EEDD14A
:10047000181B70BD421E12F8013F002BFBD111F872
:10048000013B002B02F8013BF9D17047032A40F2EF
:10049000308010F0030C00F0158011F8013BBCF126
:1004A000020F624498BF11F801CB00F8013B38BF3E
:1004B00011F8013BA2F1040298BF00F801CB38BF4C
:1004C00000F8013B11F0030300F02580083AC0F06A
:1004D000088051F8043B083A51F804CBA0E8081012
:1004E000F5E7121D5CBF51F8043B40F8043BAFF345
:1004F0000080D20724BF11F8013B11F801CB48BF9F
:1005000011F8012B24BF00F8013B00F801CB48BFD4
:1005100000F8012B704710B5203AC0F00B80B1E80D
:100520001850203AA0E81850B1E81850A0E8185028
:10053000BFF4F5AF5FEA027C24BFB1E81850A0E831
:10054000185044BF18C918C0BDE810405FEA827C4B
:1005500024BF51F8043B40F8043B08BF7047D20762
:1005600028BF31F8023B48BF11F8012B28BF20F803
:10057000023B48BF00F8012B704702F0FF0343EA3B
:10058000032242EA024200F002B84FF000020429BE
:10059000C0F0128010F0030C00F01B80CCF1040CB2
:1005A000BCF1020F18BF00F8012BA8BF20F8022BE6
:1005B000A1EB0C0100F00DB85FEAC17C24BF00F88C
:1005C000012B00F8012B48BF00F8012B70474FF0BA
:1005D000000200B5134694469646203922BFA0E893
:1005E0000C50A0E80C50B1F12001BFF4F7AF09079F
:1005F00028BFA0E80C5048BF0CC05DF804EB890090
:1006000028BF40F8042B08BF704748BF20F8022BD2
:1006100011F0804F18BF00F8012B70474FF0013CDC
:1006200050F8042B51F8043B9A4221D1A2EB0C0361
:10063000934313EACC1317D150F8042B51F8043B21
:100640009A4215D1A2EB0C03934313EACC130BD1BE
:1006500050F8042B51F8043B9A4209D1A2EB0C0349
:10066000934313EACC13DBD04FF00000704700BF78
:10067000D01A01BAB1FA81F101F0180122FA01F0A1
:10068000CB40C1F12001DBB2C0B2C01A2CFA01F399
:10069000D11A914311EAC311E6D1704770477047F0
:1006A000704770B5044685690068C10601D53026DB
:1006B00000E02026C00707D070BDD4E901213046F4
:1006C0009047206A401C20626D1EF6D570BD70B543
:1006D000044685690078C00707D170BDD4E90121BF
:1006E00020209047206A401C20626D1EF6D570BD08
:1006F00009684A0501D540B27047C905FCD500B26A
:10070000704709684A0501D5C0B27047C905FCD5D4
:1007100080B2704770B50C460546012A05D028788E
:10072000800600D5EA69002302E0012305E05B1C96
:10073000934202D2E05C0028F9D1A869E618C01AF9
:10074000A861286A184428622846FFF7AAFF04E037
:10075000D5E9012114F8010B9047B442F8D328469B
:10076000FFF7B5FF70BD00002DE9F04106460024FB
:1007700010687529314616A510D0FFF7B9FF00287B
:1007800002DA404213A507E031688A0701D512A5B5
:1007900002E0490704D511A5012401E0FFF7B1FFEC
:1007A00000210A2206F1240709E0B0FBF2FCB0FBAD
:1007B000F2F302FB1C00303078541846491C002824
:1007C000F3D123462A463046BDE8F04100F06DBA29
:1007D000000000002D0000002B00000020000000A1
:1007E00011680268006A530501D508700AE0D30554
:1007F00001D5088006E0130603D5C217C1E900023F
:1008000000E008600120704701694A1C0261087815
:10081000704700B58FB0CDE9013100210591054940
:100820007944CDE903101146684600F031F90FB064
:1008300000BD0000E5FFFFFF0A6802F8010B0A6037
:100840007047D1E900239A4202D2531C0B6010700A
:10085000704700002DE9FF5F15468A460446DFF821
:10086000AC80F8440027D8E900103E46CDE90010DE
:1008700010E03AF816106A4602A800F029FE411C62
:1008800007D02178890603D5E269391891420DD83D
:100890000744761C2078800602D5E069B84205DD61
:1008A000AE42E6DB3AF816000028E2D1A069C01B90
:1008B000A0612046FFF7F5FED8E90010CDE9001051
:1008C000002017E03AF818106A4602A800F000FE6F
:1008D000B0F1FF3F81460BD000250DF1080B05E07C
:1008E000D4E901211BF8050090476D1C4D45F7D355
:1008F00008F10100B0428046E4DB206A38442062FF
:100900002046FFF7E4FEBDE8FF9F00001A930000B9
:100910002DE9F0418046D21D22F007020025D2E9E0
:100920000002F52915A614D0011E72F1000106DAA5
:100930000023D0EB030063EB020211A608E0D8F815
:1009400000108B0701D50FA602E0490701D50EA6BE
:1009500001251146002408F1240704E000F060F9A5
:1009600030323A55641C50EA0102F7D12B46324628
:1009700021464046BDE8F04100F097B90000000074
:100980002D0000002B0000002000000030B40021EA
:1009900000F1240408E002F00705D208303542EAED
:1009A0004372DB086554491C52EA0305F3D104681D
:1009B000002310A2250707D5A40600D421B1C469DD
:1009C00001230DA2641EC46130BC00F06EB910B5E5
:1009D000044621461068FFF794FE02462046BDE813
:1009E00010400023D2E7D21D22F00701D1E90023F5
:1009F000CCE700000000000030000000F0B40D461D
:100A00000188090502D5214C7C4402E01F4C7C443E
:100A10000E34002100F1240608E002F00F0712094D
:100A2000E75D42EA03721B097754491C52EA030747
:100A3000F3D102780023120704D5702D06D009B136
:100A4000022311342246F0BC00F02FB901231034E8
:100A5000F8E770B504460D4621461068FFF751FED1
:100A6000024629462046BDE870400023C6E7D21D55
:100A700022F00703D3E90023C0E70368126843F0BC
:100A8000200303600823C3610023B7E77C910000C3
:100A90002DE9F05F894604464FF0000ADFF874B193
:100AA000FB44C0F820A02046E1688847002874D0A5
:100AB000252806D0D4E901219047206A401C2062F5
:100AC000F1E700265F462046E16888472028054672
:100AD00007DB312D05D2781910F8200C08B1064338
:100AE000F1E7B00701D526F00406C4F81CA00027E2
:100AF000C4F818A02A2D09D0284604F005FA38B306
:100B000004EB8708303DC8F8185019E059F8041B69
:100B1000204604EB87029161E1688847012F054672
:100B200018D1E069002820DA26F020061DE0D8F868
:100B3000180000EB800005EB40003038C8F81800C2
:100B40002046E1688847054604F0DEF90028EED12A
:100B5000012F0AD02E2D08D12046E16888477F1C3E
:100B60000546022F46F02006C4DBA069002803DA00
:100B7000404246F00106A061F00701D026F01006C1
:100B80006C2D0BD0682D09D04C2D39D06A2D35D065
:100B9000742D35D07A2D33D016E038E0E1682F4639
:100BA00020468847B842054609D16C2F26D04FF41D
:100BB0008060E168064320468847054604E06C2FC4
:100BC0001AD04FF4807006430DB3A5F141001928E7
:100BD00002D8203546F400664A462946204626605B
:100BE0004E46FFF7DDFA80B101280BD0F61D26F046
:100BF000070000F1080956E74020E4E78020D8E725
:100C00000020D6E706F104094DE7284652E7206A9E
:100C1000BDE8F09F0C91000000487047E4430020BD
:100C200030B5B0F10A024FEA900E71F100034EEABE
:100C3000817EB0EB0E0061EB91014FEA101E4EEA8F
:100C4000017E10EB0E0041EB11114FEA102E4EEA1F
:100C5000016E10EB0E0041EB11214FEA104E4EEAEF
:100C6000014E10EB0E0041EB1141401841F1000123
:100C70004FEAD00040EA41704FEAD10110EB800505
:100C80004FEA810444EA907444EB01046D1944EB8B
:100C90000404521BA3414FF0000348BF0A3200D5A1
:100CA00030BD401C41F1000130BD2DE9F0470D463B
:100CB00099469246044600F124080168880604D546
:100CC000E06921F01001216000E00120A84201DD6F
:100CD000471B00E00027A1697A1902EB0900081AF6
:100CE000A0612078C00602D42046FFF7DAFC002677
:100CF00008E0D4E901211AF806009047206A401C58
:100D0000761C20624E45F4DB2078C0060AD52046CA
:100D1000FFF7C7FC06E0D4E9012130209047206AA4
:100D2000401C2062381EA7F10107F4DC07E0D4E97B
:100D3000012118F805009047206A401C2062281EF7
:100D4000A5F10105F3DC2046FFF7C1FC2078000681
:100D500002D50220BDE8F0870120FBE770472DE9AE
:100D6000FF4F0C461E464FF0FF378BB0D2E9000113
:100D7000DDF860800A908A46C1F30A5505B93D4600
:100D8000002108464FF00000BAF1000F00F44000C7
:100D900005DA00EB80004FF4400101EA50004FEA11
:100DA0009059B9F1010F00DDB9460A9850EA4A009E
:100DB0000ED044F61050A5F2FF3545432F14B8F17C
:100DC000000F1ED07542291E1EDDC9F100021CE075
:100DD000B8F1010F4FF0000001D0302103E0F243E1
:100DE00005E02154401CB042FBDB304600220021CC
:100DF00021540B99C1F80880C1E900200FB0BDE86B
:100E0000F08FBD1B6D1CDEE74A4600DA694206A87A
:100E100000F0F0FB06AB93E8070003AB83E80700A4
:100E200050460A9900F069FC8DE80700A0F50050D3
:100E30001F3800900398002D0ADD42F21F014A4638
:100E40000844002303A90390684600F0D2FE09E09D
:100E5000A0F500504A461F38002303A903906846B6
:100E600000F0DCFE8DE807000004000C03D04FF01A
:100E7000FF30410800E01046B8F1000F03D0002217
:100E8000009215461EE0751E05D4FFF7C9FE3032EC
:100E900062556D1EF9D5B3460122084302D00022E7
:100EA0007F1C04E02078302801D100227F1E002A18
:100EB000099784D01DE0112D07DAFFF7B1FE30321B
:100EC00062556D1C50EA0102F5D1084302D000982A
:100ED000C8B10EE00021681E05E0235C625C63542B
:100EE0002254401E491C8142F7DBAB46A81B401E22
:100EF0000990002004F80B000B98099AC0F80880AC
:100F0000C0E9002B7AE711264FF0000857E72DE9DA
:100F1000F04F88460446D21D22F0070191B0D1E976
:100F20000001CDE90A0103F0CBFF02460B98C00F88
:100F300001D02D2007E02068810701D52B2002E099
:100F4000202101EAC000032A099001D0072A05DB0D
:100F500003464146204600F00DFB0BE12078800659
:100F600001D5E06900E00620B8F1650F814606D0A2
:100F7000B8F1660F18D0B8F1670F70D131E00020DA
:100F8000B9F1110F009001DB112301E009F1010318
:100F90000AAA01A90CA8FFF7E2FEDDE90C70002601
:100FA00009F10105834647E001204B4600904FF0D0
:100FB00000470AAA01A90CA8FFF7D1FEDDE90DB090
:100FC0000C995D46002610B909F101000D18B9EB26
:100FD000050003D4C0F1FF3609F10105A5EB0900B6
:100FE0002BE0B9F1010F01DA4FF001090020B9F14E
:100FF000110F0090484601DD112300E003460AAAC4
:1010000001A90CA8FFF7ABFEDDE90C704D460026E8
:101010008346207800070AD4AB4500DA5D4601A874
:10102000012D04DD411911F8011C302907D04F456D
:1010300002DA17F1040F04DA012082460FE06D1E78
:10104000EEE7002F02DCED1B3E4403E0781CA842D3
:1010500000DD7D1CB81B00F1010A4FF0004720782D
:10106000000703D4AA4501DB4FF0FF3A0021B7F196
:10107000004F0DF143088DF8431024D002202B239C
:10108000002F01DA7F422D230A21021EA0F1010068
:1010900000DC5FB197FBF1FC97FBF1F201FB1C7CDC
:1010A00017460CF1300C08F801CDEEE7A8F101006D
:1010B00003702188090501D5452100E06521A0F1D3
:1010C000010800F8011C09980FA9A1EB0807FF1DF2
:1010D00000B10120411901EBEA70A1693844081AF6
:1010E000401EA0612078C00602D42046FFF7D9FA3E
:1010F000099828B1D4E901219047206A401C206258
:101100002078C00622D52046FFF7CBFA1EE0002E3D
:1011100004DBB34502DD01A8805D00E03020D4E9A6
:1011200001219047206A401C2062761CAAF1010030
:101130005FEA000A0AD100F019FAC0680168405C51
:10114000D4E901219047206A401C2062281EA5F1A5
:101150000105DCDC07E0D4E9012118F8010B904718
:10116000206A401C2062381EA7F10107F3DC2046EC
:10117000FFF7ADFA032011B041E600002DE9F04F72
:1011800004460D46D21D22F0070089B0D0E9009731
:101190004846394603F094FE0246F80F01D02D234D
:1011A00007E02068810701D52B2302E0202101EA16
:1011B000C0038DF820300BB1012000E00020032A8D
:1011C000824601D0072A04DB2946204600F0D2F9E6
:1011D0003FE12078800601D40D2500E0E569C7F3E2
:1011E0000A560D2D49DA00214FEA175B08464FF0E9
:1011F0000000002F00F4400007DA00EB80004FF4FD
:10120000400100EBD07001EA60008115012901DD89
:101210004FF0FF3100224FEA850CBCF1180F06D3C6
:101220001346ACF118004FF08052C24003E04FF477
:10123000801323FA0CF30CF10C0CBCF1200F04D337
:10124000ACF1200C09FA0CF001E007FA0CF00029CF
:101250004FF0004801DD18B90FE00ED140450CD326
:1012600019EB02095F4121B9404502D19F4329EAA8
:101270000209BBEB175F00D0761C2088000502D561
:101280007B48784402E07A487844193808AA302329
:1012900002F80A30037C0AF10101002E0AF1020A69
:1012A00053546A4602DC4FF0300101E04FF0310147
:1012B0004FF001088DF8001002D0A6F2FF3603E0CF
:1012C00059EA470100D06B4E002D02DC2178090756
:1012D00004D54FF002082E218DF80110C4460021DC
:1012E0000BE0C7F303433F01C35C491C6D1E02F8CA
:1012F0000830052908F1010801DA002DF1DC002190
:101300000CE000EB1973491C1B786D1E082902F8CC
:1013100008304FEA091908F1010801DA002DF0DC64
:1013200021688B0602D516E0A8F10108E04505DD2D
:1013300002EB080313F8013C302BF5D0B8F1000F95
:1013400009DD02EB080313F8013C2E2B03D109073A
:1013500001D4A8F10108002D05DD3E2102F8081096
:101360006D1E08F10108407C002E02F8080008F10B
:10137000010804DA2D20764202F8080002E02B2052
:1013800002F808000A214FF47A70864208F1010839
:101390000BDB96FBF0F3303302F8083096FBF0F3EA
:1013A00008F1010800FB136601E0642E0CDB6420E9
:1013B00096FBF0F3303302F8083096FBF0F308F1B7
:1013C000010800FB136601E00A2E06DB96FBF1F034
:1013D000303002F8080008F1010896FBF1F001FB3B
:1013E0001060303002F80800A16908F1010808EB2C
:1013F000050202EB0A00081AA0612078C00602D498
:101400002046FFF74EF9216A08AE01EB0A00206280
:1014100004E0D4E9012116F8010B9047BAF1010A62
:10142000F7D22078C00602D52046FFF73AF96E467B
:1014300009E016F8010B3E280FD0D4E901219047AE
:10144000206A401C2062B8F10108F2D22046FFF762
:101450003EF909B00320BDE8F08F206A28442062DD
:1014600003E0D4E90121302090476D1EEBD3F8E76B
:101470004E89000002FCFFFF10B5436913B1AFF3C2
:10148000008001E0FFF746F9012010BD127800F15D
:1014900024010A7000224A700122EDE711684FF022
:1014A000FF32E9E710B5436913B1AFF3008001E003
:1014B000FFF7D0F9012010BD128800F124018284C9
:1014C0000022C2840122EDE711684FF0FF32E9E704
:1014D00070B516460C46054600F040F8036893F8D0
:1014E0000101012806D0FF2C0FD8185D68B101203A
:1014F0002C7070BDD3F807013246214603F2071362
:1015000003442846BDE8704018474FF0FF3070BDD7
:101510007546FFF781FBAE4605006946534620F04D
:101520000700854618B020B5FEF7FEFEBDE8204056
:101530004FF000064FF000074FF000084FF0000B8F
:1015400021F00701AC46ACE8C009ACE8C009ACE842
:10155000C009ACE8C0098D467047000010B500F026
:1015600005F8001D10BD00BFC97700000048704796
:10157000044400202DE9F0411F460446032601687B
:10158000072A01F4006004DB08B116A505E016A5E2
:1015900003E008B115A500E015A521F010002060BA
:1015A000A069C01EA0610FB1401EA0612046FFF7D8
:1015B00078F84FB1D4E9012138469047206A401CA1
:1015C0002062C01C206206E0206AFAE7D4E901210B
:1015D00015F8010B9047761EF8D22046FFF777F8F2
:1015E000BDE8F0814E414E006E616E00494E4600EE
:1015F000696E66002DE9F047814616468AB0354887
:1016000078440DC88DE80D0032487844801C03AC46
:101610000DC884E80D0041F69B300844372190FB4B
:10162000F1F290FBF1F5A5F1800501FB12041B3CE2
:1016300002D56442012000E00020DFF898A0804637
:101640000027FA44AAF1BE0A0EE0E0070AD03246AB
:10165000684607EB470101230AEB810100F0DEFA3F
:101660008DE8070064107F1C002CEED1194F7F44D9
:10167000AE3F19E0E80715D007EB04100DF1180A8A
:1016800090E80E008AE80E00C068F04201D1981977
:1016900008903246012306A903A800F0BFFA03AB65
:1016A00083E807006D10641C002DE3D14FF00103A7
:1016B00032466946B8F1000F03A802D000F099FA4B
:1016C00001E000F0ABFAC9E90001C9F808200AB04E
:1016D000BDE8F0876086000010B50446AFF30080D7
:1016E0002046BDE81040FEF7BEBD000001491820AD
:1016F000ABBEFEE72600020070475FEA400C08BF61
:1017000091F0000F4FEA8C234FEAC12243EA515176
:101710004FEA1C5018BF00F5F0404FEA300018BFE8
:1017200041F000415FEA6C5C00F02980BCF1FF3FB2
:1017300008BF40F080407047130C06BF12044FF002
:10174000100C4FF0000C130E04BF12020CF1080C29
:10175000130F04BF12010CF1040C930F04BF92008D
:101760000CF1020CD30F04BF52000CF1010C114616
:101770004FF00002A0F11F00A0EB0C00704711F029
:10178000004F08BF704731F000413FF4D5AF0B0C5C
:1017900006BF09044FF0100C4FF0000C0B0E04BFF5
:1017A00009020CF1080C0B0F04BF09010CF1040C29
:1017B0008B0F04BF89000CF1020CCB0F04BF490052
:1017C0000CF1010CCCF12003A0EB0C0022FA03F386
:1017D00002FA0CF241EA030100F10100704720F027
:1017E0007F4C80EA030023F07F47ACEB070303F54F
:1017F0007C5300F0004003F1FF032DE980494FEADC
:10180000154B09B44FEA144325EA0B4E24EA03486A
:101810000FF2042606EB132749083E785FEA3202EE
:1018200003FB0667C7F5000707FB06F64FEA5437C8
:101830004FEAD64606F1020607FB066CCCF1005CC7
:101840004FEA1C472CEA074C07FB06F40CFB06F595
:1018500004EB15464FEA961634BF00204FF00040C7
:101860004FEAD13706FB07FC4FEA1C4C0CFB0BF789
:10187000D21B03FB0CF761EB07010CFB0EF7B0EB7F
:10188000074072EB17420CFB08F734BFA2EB07428C
:10189000B2EB074261EB17414FEA0C444FEA910764
:1018A00006FB07FC4FEA1C4C0CFB0BF7B0EBC740E8
:1018B00072EB573203FB0CF734BFA2EBC742B2EB1B
:1018C000C74261EB57310CFB0EF7B0EBC70072EB70
:1018D00057720CFB08F734BFA2EBC702B2EBC7028A
:1018E00061EB5771039F4FEA816141EA921104EB6A
:1018F000CC044FEAD1374FEA826206FB07FC42EA8A
:1019000090124FEA80604FEA1C4C0CFB0BF7D21B85
:1019100003FB0CF761EB07010CFB0EF7B0EB074084
:1019200072EB17420CFB08F734BFA2EB0742B2EB95
:10193000074261EB17414FEA8C554FEA910704EBE0
:101940009C2406FB07FC4FEA1C4C0CFB0BF7B0EB8E
:10195000C74072EB573203FB0CF734BFA2EBC74210
:10196000B2EBC74261EB57310CFB0EF7B0EBC7008F
:1019700072EB57720CFB08F734BFA2EBC702B2EB55
:10198000C70261EB577115EB4C254FEA816141EAC3
:1019900092114FEA82624FEAD13742EA901206FB77
:1019A00007FC44F100044FEA80604FEA1C4C0CFB3A
:1019B0000BF7D21B03FB0CF761EB07010CFB0EF7D7
:1019C000B0EB074072EB17420CFB08F734BFA2EBF9
:1019D0000742B2EB074261EB174115EB1C154FEACA
:1019E000813141EA92414FEA823242EA90424FEA23
:1019F00080304FEA0C7644F1000448EA03434EEA93
:101A00000B484FF0000EB2EB080C71EB030724BF3C
:101A1000624639464EEB0E0E4FF0000B0018524155
:101A200049414BEB0B0BB2EB080C71EB03077BF15D
:101A3000000B24BF624639464EEB0E0E4FF0000BF2
:101A40000018524149414BEB0B0BB2EB080C71EB08
:101A500003077BF1000B24BF624639464EEB0E0EA6
:101A600051EA020718BF46F0010616EB0E7655F153
:101A7000000254F1000103D5BDE88901BDE80088EA
:101A8000BDE88901BDE80048B619524141EB0101AA
:101A9000A3F10103704780807F7E7D7C7B7A79781B
:101AA000777676757473727171706F6E6E6D6C6C23
:101AB0006B6A6A69686867666665646463636261C5
:101AC0006160605F5F5E5E5D5D5C5C5B5B5A5A5946
:101AD00059585857575656555555545453535252B2
:101AE0005251515050504F4F4F4E4E4D4D4D4C4C0A
:101AF0004C4B4B4B4A4A4A49494948484847474753
:101B0000474646464545454444444443434343428F
:101B1000424242414141002B9C4630D477002BD0B9
:101B20001CB54FEA370703B44FF010004FF0100117
:101B3000BAF1000F06D0BCF1000FDCBF40F0080086
:101B400040F008014FF000000FBCBDE810400BF161
:101B5000010BBBF1010F08BF5FEA170722BF12F1AB
:101B6000010211F101014FF0004143F1000300F0C7
:101B7000004043EA00007047F9D35708D0E746EA2F
:101B8000064613F1400F4FEA16461FDD13F1200FF2
:101B9000DFBF16430A46002120335B42BED0C3F1AB
:101BA000200746EA064602FA07F74FEA164646EAD3
:101BB0000706C3F1200722FA03F201FA07F721FA18
:101BC00003F14FF0000342EA0702A7E746EA0206E4
:101BD00046EA06464FEA164646EA0106BCBF46EA12
:101BE0000646360C4FF000034FF000024FF00001A4
:101BF00094E72DE9804C9A46934670B491E83800FA
:101C000007C831EA400C48BF34EA430C03D5FFF75C
:101C1000E6FDFFF780FFF0BCBDE8008C2DE9804CAD
:101C20009A46934670B491E8380007C810F0804F88
:101C300008BF13F0804F03D100F005F8FFF76BFFEA
:101C4000F0BCBDE8008C20F07F4780EA030023F061
:101C50007F4C07EB0C03A3F57C5300F00040A3F18D
:101C6000FE0392F0000F00F0B38095F0000F00F03B
:101C700077802DE901494FEA11404FEA144621EAE5
:101C8000004800FB06FC24EA064708FB06F607FBB3
:101C900008F800FB07F718EB06484CEB164C4FEA28
:101CA000124B18EB07484FEA15464CEB174022EA57
:101CB0000B4E0BFB06FC25EA06470EFB06F607FB60
:101CC0000EFE0BFB07F71EEB064E4CEB164C4FF0CF
:101CD00000061EEB074E4CEB174B18EB0B0840F1C0
:101CE000000018EB0E0B58EB000840F100008F1AB3
:101CF0004FF000013CBFC943661B14BFB5EB040C99
:101D000000213CBFC943F61B4FEA17444EEA8E0E32
:101D100027EA04454FEA1C4704FB07622CEA074CFC
:101D200005FB07F70CFB05F604FB0CFC16EB07465E
:101D300042EB174216EB0C4642EB1C421BEB06062D
:101D400058EB0202414146EA9E0601D5BDE80189F1
:101D5000B619524141EB0101A3F10103BDE801892C
:101D60004FEA14454FEA114724EA054621EA074C99
:101D700005FB07F406FB07F70CFB06F105FB0CFC63
:101D800011EB074144EB17444FEA124711EB0C41AA
:101D900044EB1C4422EA074C05FB07F206FB07F75D
:101DA0000CFB06F605FB0CFC16EB074642EB174254
:101DB00016EB0C4642EB1C456A1854F1000148BF73
:101DC0007047B619524141EB0101A3F1010370477D
:101DD00095F0000F37D04FEA11424FEA144721EA3D
:101DE000024624EA074C02FB07F106FB07F70CFB4F
:101DF00006F402FB0CFC14EB074441EB17414FEADD
:101E0000154714EB0C4441EB1C4125EA074C02FB3F
:101E100007F506FB07F70CFB06F602FB0CFC16EBBE
:101E2000074645EB174516EB0C4645EB1C421219CD
:101E300051F1000148BF7047B619524141EB010111
:101E4000A3F1010370474FEA14454FEA114724EA12
:101E5000054621EA074C05FB07F106FB07F70CFBDB
:101E600006F24FF0000605FB0CFC12EB074241EBBB
:101E7000174112EB0C4251EB1C4148BF70479218BE
:101E800041EB0101A3F101037047000070B5044666
:101E900000688168C943C90717D1816821F0010131
:101EA000816000F0B7FF05460AE000BF00F0B2FF16
:101EB000401B022804D920688068C043C00706D0B0
:101EC00020688068C043C007F0D0002070BDA06AC1
:101ED00040F01000A062E06A40F00100E0620120E2
:101EE00070BD10B50146406A826A12F0500F05D0ED
:101EF000006A026BBDE8104008461047816A41F451
:101F00000071816201688968C1F3424107290CD1DF
:101F1000017B51B9816A21F480718162816AC904AF
:101F200003D4816A41F00101816200F06BFB10BDB6
:101F300010B5406A816A41F040018162C16A41F096
:101F40000401C16200F060FB10BD10B5406A00F0F2
:101F50005AFB10BDF8B5002604460096006881685B
:101F6000C943C9072DD0816841F00101816016483D
:101F700016490068B0FBF1F000E0401E0090002818
:101F8000FBD100F047FF054616E000BF00F042FF1E
:101F9000401B022810D920688068C043C0070BD0BE
:101FA000A06A40F01000A062E06A40F00100E06228
:101FB00084F824600120F8BD20688068C043C00711
:101FC000E4D10020F8BD00002801002040420F00AD
:101FD0002DE9FF5F0F468246029938430843039973
:101FE000364E084303D008244FF4967B09E0F16F86
:101FF00004B05046BDE8F05F05F0F4BC0C2C00D1F5
:10200000162417222146029800F01EFA0546082CD5
:102010001FD00A2C1DD02AA08146A5B36868FEF700
:10202000BFF9801C04F09AFA5FEA000828D06868BB
:10203000FEF7B6F9421C40466968FEF727FA092CFC
:1020400003D920A14046FEF715FA0B2C03D04046D9
:1020500002E0A868E0E7039856F8242005461AA194
:10206000504605F055F92A4619A1504605F050F999
:102070002846FEF795F902467B6B29463846984775
:10208000404605F07BFD5B464A465046796902F0C2
:10209000CBFE0546504656F8251005F0A3FC062D4C
:1020A00001D1162C03D15046F16F05F09BFC641C46
:1020B000E4B20D2CA2D3BDE8FF9F00002C0000204D
:1020C0004F4B00000D0A00000D0A257300000000B0
:1020D0003E5B4D43552D3E4C3130325D3A25730DFC
:1020E0000A00000070B50A490E4D08480C6801212D
:1020F0002970084A08A32146FFF76AFF00202870CC
:102100006069BDE8704002F03FBF0000D8080020C1
:1021100018010020C896000841542B43483F0D0A7F
:1021200000000000280000202DE9F8430446144870
:102130004FF000088DF800800568104E1148012C02
:1021400005D98168304605F04DFCBDE8F88350F8AC
:102150002410304605F046FC0A4F01203F1F694617
:102160003870304614B100F013F901E000F050F877
:10217000686902F009FF87F80080E6E7D8080020C8
:10218000180100202C00002070B50400134811A194
:1021900005681ED02046FEF7F1F8002819D0E07936
:1021A0000D2802D1217A0A2908D0A179303901EB12
:1021B0008101D02202EB4101084401E0A0793038CE
:1021C000C2B22A70A379BDE8704005A10E4805F09F
:1021D0009FB870BD2B43483A000000001801002052
:1021E00040537563636573733A736C6176655F69B9
:1021F000643A5B25645D2C706275665B365D3A25DA
:10220000632E0D0A00000000D8080020FEE7000041
:102210002DE9F35F3B488A46DFF8ECB000273B4EE0
:10222000D0F8008061E000980121426E504690474E
:1022300000285AD0082456E017222146584600F0BC
:1022400003F9054656F8242031A1009805F060F8FE
:1022500031A16A68009805F05BF86868B0B3FEF7D2
:102260009FF8801C04F07AF95FEA000916D06868CC
:10227000FEF796F8421C48466968FEF707F9092CF4
:1022800003D92AA14846FEF7F5F84846FEF788F834
:102290000246D8F83430404649469847484605F04B
:1022A0006DFC082C17D00A2C15D021A24FF4967380
:1022B000D8F81410009802F0B7FD0546009856F8BB
:1022C000251005F08FFB062D15D106E0FFE701274D
:1022D000D6F8801011E0AA68E8E7162C0BD0641C31
:1022E000E4B2172C01D2002FA6D09AF800001B28C8
:1022F00099D1BDE8FC9FF16F0127009805F072FBB2
:10230000F3E7000018010020C89600082C00002008
:102310000D0A2573000000003E5B4D43552D3E4CD9
:102320003130325D3A25730D0A0000000D0A0000BD
:102330004F4B0000014800F035BB0000EC050020C9
:10234000014800F02FBB000068070020014800F0A2
:1023500029BB0000AC07002030B590F840500124A4
:10236000AC40C56B6C60046863604368102B036805
:1023700003D099600068C26030BD9A600068C16097
:1023800030BD70474FF4807000F03EBC72B6FEE77F
:102390002DE9F04706460F46402004F0DFF805001F
:1023A00041D04021FEF7F1F82048DFF88480D0F8D2
:1023B000009026E0726E0121384690470028F9D03F
:1023C000387808281FD00D280AD01B2826D0285579
:1023D000641CB26E04F03F04012138469047E9E7DF
:1023E000002028552A4613A1304604F091FF15A17C
:1023F0002846FEF73FF80346424649463046FFF777
:10240000E7FD0024D6E734B10121304604F0EAF9B3
:10241000641EE0B200E00020C4B2CBE72846BDE86D
:10242000F04705F0ABBBBDE8F087000018010020C5
:10243000C89600080D0A496E7075743A25730D0A26
:10244000000000000D0A000010B500230AE000BFE4
:1024500000EB031424788C4202D100EB031010BD72
:102460005B1C9BB29342F3D3002010BD70B50446B1
:10247000B1F5614F01D9002070BD084606F08CFF10
:102480000146134806F08EFE054606F04DFF2082F9
:102490002846104906F094FF06460F4906F082FED2
:1024A00006F042FFA08430460C4906F07BFE06F0A1
:1024B0003BFFE08420852846094906F081FF094951
:1024C00006F070FE06F030FF6085012070BD000050
:1024D000002474490000A040000050410000504218
:1024E0000000A8410000D041002104E000F00102FA
:1024F0001144C9B240080028F8D1022901D30120B3
:102500007047002070470000F8B50024009490F850
:1025100024202546012A12D0012280F824204A686E
:102520001F23072A0DD20668776B521E02EB820228
:1025300093409F430B6893401F43776319E0022049
:10254000F8BD06680D2A0AD2376BD21F02EB820251
:1025500093409F430B6893401F43376309E0F76A3A
:102560000D3A02EB820293409F430B6893401F4356
:10257000F7620A68072306680A2A0AD3F7680A3A44
:1025800002EB420293409F438B6893401F43F760E6
:1025900008E0376902EB420293409F438B68934007
:1025A0001F4337610A68102A01D0112A20D1124B2B
:1025B00002689A4217D193681B0219D4936843F4B6
:1025C000000393600968102912D10C490C4A09686C
:1025D000B1FBF2F101EB8101490000E0491E0091DD
:1025E0000029FBD104E0816A41F0200181620124CD
:1025F00080F824502046F8BD002401402801002026
:1026000040420F0070477047704700002DE9F041CD
:102610004FF0000704003D467ED0A06A002628B98E
:10262000E66284F82460204600F07EF82046FFF73A
:102630002DFCA16AC90600D420B1A06A40F01000A8
:10264000A06269E0A16A21F4885141F00201A1620F
:102650006268E169237B0A4347EA43010A43A168B0
:102660004FF48077B94209D0012907D05FF000010B
:1026700094F814C0BCF1010F02D00AE03946F7E724
:10268000F3B1A36A43F02003A362E36A43F00103BA
:10269000E3622368D3F804C02CF4694C4CEA010CC3
:1026A000C3F804C021688B68DFF870C003EA0C032C
:1026B00013438B60A168B9420BD0012909D00CE00B
:1026C000DFF85CC0A3690CEB43330B4343F40061B8
:1026D000DFE7218A0D05A5F580152168CB6A23F473
:1026E00070032B43CB62216889680E4B19409142DD
:1026F00008D1E662A16A21F0020141F00101A16264
:10270000BDE8F081A06A20F0020040F01000A06255
:10271000E06A40F00100E0620120F1E7FDF7E1FF2F
:1027200000E0FFFFFE0E1FFF70B586B000250646D5
:10273000009501950295039500681A4988422ED1AB
:102740001949886940F400708861886900F4007054
:102750000490886940F0040088618869694600F047
:102760000400049005200090032001900F4800F021
:1027700057FA104C0E48C4E900058020C4E9025005
:10278000800020618000C4E905054000E06120462A
:1027900000F0B2F908B1FFF7F9FD3462666206B0E5
:1027A00070BD0000002401400010024000080140FC
:1027B00008000240EC0500202DE9F0478946044658
:1027C0003B4900683B4F0E1D9046884201D0B842FD
:1027D00007D1306810F4702F03D001252846BDE8DA
:1027E000F08794F8240001280CD0012084F82400FC
:1027F0002046FFF7AFFB05004FF0000004D084F83F
:102800002400EBE70220EAE7A16A40F60162914367
:1028100041F48071A1622168B94218D1326812F482
:10282000702F14D0A16A41F48011A162316849056A
:1028300005D5A16A21F4005141F48051A162A16A39
:10284000C9040AD5E16A21F00601E16206E0A26A44
:1028500022F48012A2624968E9E7E06284F8240069
:10286000216A15488862216A1448C862216A14489E
:10287000086321686FF0020008602068816841F4F5
:1028800080718160216843464A464C31206A00F0DD
:1028900061F920688168C1F342410729816803D04A
:1028A00041F48011816099E741F4A001FAE700004A
:1028B0000024014000280140E31E00084B1F0008CF
:1028C000311F000810B590F821100022022905D010
:1028D0000421816380F82020012010BD01680B686D
:1028E00023F00E030B6001680B6823F001030B60FB
:1028F00090F84030C46B012101FA03F3636080F863
:10290000211080F82020104610BD000010B590F86E
:1029100021100024022903D00421816301243DE019
:1029200001680A6822F00E020A6001680A6822F053
:1029300001020A601A4A0168914201D1012121E095
:10294000174A1432914201D110211BE0144A283257
:10295000914201D1891515E0114A3C32914201D1D1
:1029600089140FE00E4A5032914202D14FF4803167
:1029700008E00B4A6432914202D14FF4801101E029
:102980004FF08071064A083A5160012180F8211009
:10299000002180F82010416B01B18847204610BD0E
:1029A000080002402DE9F05FC16B0C6801680B68FC
:1029B000D0F840C0042202FA0CF2494DDFF824A1FD
:1029C000494E4A4FDFF828B1DFF828E122422CD0E7
:1029D0005A072AD50A68920603D40A6822F004022C
:1029E0000A600168A94201D1042219E0514501D1D0
:1029F000402215E0B14202D14FF4806210E0B942AA
:102A000002D14FF480420BE0594502D14FF48022AD
:102A100006E0714502D14FF4800201E04FF0806280
:102A20002F4908394A60C16A3BE04FF0020808FAB2
:102A30000CF818EA040F4FF000094FF0010235D0EE
:102A40005FEA837832D50B689B0605D40B6823F0C8
:102A50000A030B6080F821200168A94201D10222FB
:102A600019E0514501D1202215E0B14202D14FF4C5
:102A7000007210E0B94202D14FF400520BE0594508
:102A800002D14FF4003206E0714502D14FF400123A
:102A900001E04FF00072124908394A6080F8209036
:102AA000816A00291AD0BDE8F05F0847082505FAB9
:102AB0000CF5254212D01B0710D50B6823F00E032E
:102AC0000B6090F84010C36B02FA01F15960826309
:102AD00080F8212080F82090016BE2E7BDE8F09FAC
:102AE000080002401C000240300002404400024046
:102AF000580002406C00024030B528B308C81349A2
:102B000014221944B1FBF2F18900C16310498163B9
:102B1000022141771A6843F6F0718A43D0E9001424
:102B20002143D0E902452C432143046921434469F0
:102B3000214384692143114319600021416301222B
:102B400042770177084630BD012030BDF8FFFDBF58
:102B50000000024070B5044690F8200000250128CE
:102B60000CD0012084F8200094F821600020012E70
:102B700006D084F820000225284670BD022070BDD2
:102B8000022684F82160A0632068066826F001060A
:102B900006602046FFF7E0FBE06A00282068016835
:102BA00002D041F00E0106E021F00401016020682E
:102BB000016841F00A0101602068016841F00101EB
:102BC0000160D9E710B50F4CB0F5807F19D1A07E18
:102BD000002816D101202076A07694F9190000F083
:102BE000CBF961690020096848626169A08C0968B5
:102BF000C8626169A08CC8606069BDE8104000F0DF
:102C0000D9BE10BDA0010020044910B50A680242D7
:102C100002D00860FFF7D6FF10BD00001404014089
:102C20002DE9F84FDFF8B891002409F1040A0AF100
:102C3000040B23460F270BF1040EC9E00125A54024
:102C40002A40AA427DD1674ED1F804C0ACEB0608F9
:102C5000B44532D014DCBCF1030F3AD009DCBCF12E
:102C6000000F2AD0BCF1010F1CD0BCF1020F31D1F2
:102C70001DE0BCF1110F17D0BCF1120F2AD119E0E1
:102C8000B8F5881F19D006DCB8F5803F15D0B8F527
:102C9000801F1FD111E0B8F5001F0ED0B8F5041F3A
:102CA00018D10AE0CB6815E0CB681B1D12E0CB6899
:102CB00008330FE0CB680C330CE08B682BB1012B91
:102CC0004FF0080303D0456104E0042302E00561EE
:102CD00000E00023FF2A01D8064601E000F10406C7
:102CE0004FEA840501D9A5F12005D6F8008007FA3E
:102CF00005FC28EA0C0803FA05F548EA0508C6F8B9
:102D000000804D68ED0062D5374DAE6946F0010692
:102D1000AE61AD6924F0030605F001050095334D61
:102D200006EB050CDCF80850A607360F07FA06F884
:102D300025EA0805DFF8B880404503D14FF00008C8
:102D400017E044E0DFF8AC80404502D14FF00108C5
:102D50000FE0DFF8A480404502D14FF0020808E000
:102D6000DFF89880404502D14FF0030801E04FF0B2
:102D7000040808FA06F848EA0508CCF808804D6807
:102D8000D9F80060ED034D4601D5164300E09643A7
:102D90002E604D68DAF80060AD03554601D5164344
:102DA00000E096432E604D68DBF80060ED025D4662
:102DB00001D5164300E096432E604D68DEF80060B2
:102DC000AD02754601D5164300E096432E60641CA3
:102DD0000D682A46E5407FF431AFBDE8F88F00006A
:102DE00000040140000011100010024000000140EA
:102DF00000080140000C0140001001400014014097
:102E00008068084000D0012070470AB10161704716
:102E10000904FBE701488068704700001C0100209E
:102E200070B5040011D021684CF6CC4008602168D0
:102E300045F255500860D4E9000141602168A0685E
:102E40008860FFF7E7FF05460DE0012070BD00BF79
:102E5000FFF7E0FF401B272805D92068C0688007DE
:102E600001D0032070BD2068C0688007F0D12168C0
:102E70004AF6AA200860002070BD00684AF6AA2120
:102E80000160002070470000024881680278114408
:102E9000816070471C010020074810B5016841F0AF
:102EA00010010160032000F0A5F8002000F006F8F2
:102EB00000F03EF8002010BD0020024000B50146A1
:102EC00087B00022192000F075F8192000F065F88D
:102ED0001348816941F400618161806905A900F4AA
:102EE00000600690684600F0A3F900F0D1F90D49A2
:102EF0000D4AB0FBF1F10D48491E0260416040F2FD
:102F0000E7320021C0E90321816000F0F3FC10B139
:102F1000012007B000BD054800F04CFDF9E70000B6
:102F20000010024040420F00002C0140F00700203A
:102F30000F4808B5816941F001018161816901F0A3
:102F400001010091C16941F08051C161C069002255
:102F500000F0805000900F21901E00F02BF80548E3
:102F6000416821F0E06141F00071416008BD00005E
:102F7000001002400000014000280DDB00F01F029D
:102F8000012191404009800000F1E020C0F880114B
:102F9000BFF34F8FBFF36F8F7047002809DB00F03E
:102FA0001F02012191404009800000F1E020C0F89B
:102FB00000117047F0B40E4B1B680C46C3F302239C
:102FC000C3F10705042D00D90425191D072901D2D5
:102FD000002300E0DB1E012606FA05F1491E214010
:102FE00099409E40761E16403143F0BC01F07CBFF4
:102FF0000CED00E0064900F0070208684FF6FF03F9
:10300000184040EA0220034A10430860704700005D
:103010000CED00E00000FA052DE9F84305460078C4
:10302000354CC00754D0E0690026C00008D4E069E0
:1030300040F08050E061E069012600F0805000908F
:103040002E480168C90512D40168804641F4807198
:103050000160FFF7DFFE074605E000BFFFF7DAFE7D
:10306000C01B642823D8D8F80000C005F6D5206A14
:1030700010F4407021D0A98801F4407181421CD025
:10308000206A1F49012220F440700A6000220A6071
:103090002062C00711D0FFF7BDFE074641F2883815
:1030A00008E000BFFFF7B6FEC11B414502D903206F
:1030B000BDE8F883206A8007F4D5206A696820F4A7
:1030C0004070084320621EB1E06920F08050E0614A
:1030D0002878800705D56068A96820F44040084337
:1030E00060602878C00605D56068E96820F4800033
:1030F000084360600020DBE70010024000700040E1
:10310000400442422DE9F0470F46050061D0434E8E
:10311000306800F00700B84209D2306820F007009C
:1031200038433060306800F00700B84251D1286859
:103130003B4C810712D5400703D5606840F4E0603E
:1031400060602878000703D5606840F460506060D4
:103150006068A96820F0F000084360602878C00724
:1031600028D06868012810D02168022810D089076B
:1031700000292EDA616821F0030101436160FFF745
:1031800049FE804641F288390DE021688903EFE766
:103190008901EDE7FFF73EFEA0EB0801494502D9A2
:1031A0000320BDE8F0876068696800F00C00B0EBB0
:1031B000810FEFD1306800F00700B8420BD93068BA
:1031C00020F0070038433060306800F00700B84254
:1031D00001D00120E5E72878400705D56068E96857
:1031E00020F4E060084360602878000706D5606836
:1031F000296920F4605040EAC100606000F058F88E
:103200006168084AC1F30311515CC840064908606F
:1032100006480068FFF752FE0020C2E70020024087
:1032200000100240689B00082801002020010020B7
:103230000F2202600C4A536803F003034360536893
:1032400003F0F0038360536803F4E063C3605268E3
:103250004FF4E06303EAD20202610448006800F020
:103260000700086070470000001002400020024084
:103270000448054900684968044AC1F30221515CC9
:10328000C84070472801002000100240789B0008C9
:103290000448054900684968044AC1F3C221515CE9
:1032A000C84070472801002000100240789B0008A9
:1032B00012A185B00FC98DE80F0014A0144A006850
:1032C00004905168134801F00C03042B10D0082B14
:1032D0000ED1C1F38343C9031DF803000AD5516819
:1032E00004AAC1F34041515C0A4A5043B0FBF1F0DB
:1032F00005B0704708494843FAE700000203040597
:10330000060708090A0B0C0D0E0F10100102000031
:103310000010024000127A0000093D002DE9F84F2C
:10332000040070D02078C04DC00749D06868C0F351
:103330008100012807D06868C0F38100022809D104
:103340006868C00306D52868800339D560680028FE
:10335000E7D035E06068B0F5803F0BD010B1B0F534
:10336000A02F11D0286820F480302860286820F42D
:10337000802002E0286840F480302860606890B1C6
:10338000FFF748FD06460AE0286840F480202860E0
:10339000F0E700BFFFF73EFD801B642873D8286864
:1033A0008003F7D50CE0FFF735FD064605E000BFCA
:1033B000FFF730FD801B6428F0D828688003F7D41D
:1033C00020789A4E80074FF001094FF0000839D558
:1033D000686810F00C0F07D06868C0F381000228FD
:1033E00009D16868C00306D42868800714D520690D
:1033F000012808D110E02069B0B1C6F80090FFF7AD
:1034000009FD074605E00AE1FFF704FDC01B02289D
:10341000C4D828688007F7D52868616920F0F800CB
:1034200040EAC10028600DE0C6F80080FFF7F2FC1A
:10343000074604E0FFF7EEFCC01B022823D82868EB
:103440008007F7D4207800072CD57948A169D9B135
:10345000C0F80090FFF7DEFC074604E0FFF7DAFC57
:10346000C01B02280FD8686A8007F7D571484FF44F
:10347000FA510068B0FBF1F0009000BF0098411EC7
:103480000091FAD20EE080E0C0F80080FFF7C2FCA5
:10349000074604E0FFF7BEFCC01B022875D8686A27
:1034A0008007F7D42078400760D5E8690027C0007E
:1034B00008D4E86940F08050E861E869012700F02D
:1034C000805000905C480168C90513D401688346A8
:1034D00041F480710160FFF79DFC824606E000BF69
:1034E000FFF798FCA0EB0A0064284ED8DBF8000038
:1034F000C005F5D5E06801280AD008B1052813D029
:10350000286A20F001002862286A20F0040002E006
:10351000286A40F001002862E06841F2883B98B1D7
:10352000FFF778FC82460BE0286A40F0040028622E
:10353000EEE700BFFFF76EFCA0EB0A0159455AD831
:10354000286A8007F6D50CE0FFF764FC824605E0A8
:10355000FFF760FCA0EB0A0159454CD8286A8007A8
:10356000F6D41FB1E86920F08050E861E06988B3C3
:103570006968C1F38101022944D00228C6F860803D
:1035800004D0FFF747FC044638E034E0FFF742FC84
:10359000074604E0FFF73EFCC01B02282BD8286832
:1035A0008001F7D4206AB0F5803F05D16868A16832
:1035B00020F4003008436860D4E9080108436968D2
:1035C00021F4741108436860C6F86090FFF722FC8C
:1035D000044606E025E000BFFFF71CFC001B0228A4
:1035E00009D828688001F7D51BE000BFFFF712FC5F
:1035F000001B022802D90320BDE8F88F286880014B
:10360000F4D40EE00128F7D06868226A00F4803113
:10361000914204D1616A00F47010884201D0012007
:10362000EAE70020E8E70000001002400000424204
:1036300080044242280100200070004070B5040060
:1036400009D0606A002540B125616561A56294F8E2
:10365000510040B10CE0012070BD6068B0F5827F80
:10366000F4D0E561F2E784F85050204600F040F8CD
:10367000022084F851002068016821F040010160B7
:10368000A088218900F4827001F404410843A189D3
:1036900001F400610843217C01F002010843217D0F
:1036A00001F001010843218B01F400710843217FDF
:1036B00001F03801084394F8201001F0800108431C
:1036C000218D01F40051084321680860A06904219C
:1036D00001EA1040216848602068C16921F4006156
:1036E000C1616565012084F85100002070BD0000B3
:1036F00000B585B00021009101910291039100680D
:10370000104988421BD11048C16941F48041C16110
:10371000C16901F480410491816941F0080181612E
:103720008069694600F0080004904FF43040009032
:1037300002200190032003900448FFF771FA05B0BE
:1037400000BD00000038004000100240000C0140A5
:103750002DE9F0471F4690460E4604001FD0A07E7C
:1037600080BBE6B1B8F1000F19D0FFF753FB054657
:1037700094F82C004FF00009A0B11E494FF480705E
:10378000086094F91900FFF708FC84F82C90617F19
:103790004846B8F1010F24D9E28BB15422E0012050
:1037A000BDE8F087FFF736FBA84204D2FFF732FBF3
:1037B000E943084402E0FFF72DFB401BB84202D961
:1037C000012001E00BE00020401E384207D1A4F8A0
:1037D0001E9084F81D9086F800900320E0E70220F8
:1037E000DEE731706077E28B424500D1E083002054
:1037F000D6E70000140401402DE9F0418846044654
:103800001E46174650EA08000BD057B1FFF702FBDF
:1038100027810546C4F80C80607920B10220BDE8FC
:10382000F0810120FBE701206071207120680027F2
:10383000006847622168208A0968C8622168208A76
:10384000C860206800F0B6F86FEA050815E000BF10
:10385000FFF7E0FAA84203D2FFF7DCFA404402E0A7
:10386000FFF7D8FA401BB04201D9012000E0002048
:10387000401E304201D10320D1E7A07C0028E7D0D0
:10388000A7740020CBE770477047000070B590F830
:103890003C20012A26D0012480F83C40022280F8F6
:1038A0003D2003685A689D6822F070060A6832431A
:1038B0005A600D4B02689A4208D0B2F1804F05D091
:1038C0000A4B9A4202D00A4B9A4204D1496825F029
:1038D00080031943916080F83D40002180F83C103E
:1038E000084670BD022070BD002C0140000400405D
:1038F0000008004010B5040003D094F83D0010B15A
:1039000007E0012010BD002084F83C00204600F0B4
:103910001FF8022084F83D00211D206801F00EF8F8
:10392000012084F8460084F83E0084F83F0084F8C3
:10393000400084F8410084F8420084F8430084F891
:10394000440084F8450084F83D00002010BD0000CC
:1039500008B5154A0168154891420ED1C16941F078
:103960000201C161C069002200F002000090042140
:103970001D20FFF71FFB1D2010E00D4A914211D1C1
:10398000C16941F00401C161C069002200F0040076
:10399000009003211E20FFF70DFB1E20BDE808400C
:1039A000FFF7FBBA08BD0000000400400010024011
:1039B0000008004090F83D10012901D00120704717
:1039C000022180F83D100168CA6842F00102CA6015
:1039D00000680B49884208D0B0F1804F05D00949F2
:1039E000884202D00849884204D1816801F0070169
:1039F000062903D0016841F00101016000207047F1
:103A0000002C014000040040000800400168CA6822
:103A100022F00102CA6001680A6A41F211131A42D7
:103A200007D10A6A9B101A4203D10A6822F00102E8
:103A30000A60012180F83D100020704770B50446EF
:103A400090F83C00012817D0012584F83C50022052
:103A500084F83D002068826822F0770222F47F42D9
:103A600082600868502830D00DDC20284DD005DC5D
:103A700098B310283BD148E0022070BD302844D0D4
:103A8000402834D139E0602828D0702806D0B0F51D
:103A9000805F2CD0B0F5005F29D10AE0CB68D1E976
:103AA0000121206800F080FF2068816841F07701E3
:103AB00009E0CB68D1E90121206800F075FF20689A
:103AC000816841F48041816011E0CA6849682068DA
:103AD00000F07CFF5021206807E016E0CA684968C2
:103AE000206800F084FF6021206800F067FF84F800
:103AF0003D50002084F83C0070BDCA6849682068C9
:103B000000F064FF40212068EFE72268014610467C
:103B1000EBE7704770B50446006801694FF0000597
:103B2000C943890715D4C168C943890711D4E91E5F
:103B3000016101202077206880698007204602D03B
:103B4000FFF7E7FF04E000F098F8204600F096F851
:103B5000257720680169C943490717D4C168C9435B
:103B6000490713D46FF00401016102202077206817
:103B7000806910F4407F204602D0FFF7CAFF04E0BE
:103B800000F07BF8204600F079F82577206801697D
:103B9000C943090716D4C168C943090712D46FF095
:103BA00008010161042020772068C0698007204651
:103BB00002D0FFF7AEFF04E000F05FF8204600F00F
:103BC0005DF8257720680169C943C90617D4C16823
:103BD000C943C90613D46FF0100101610820207792
:103BE0002068C06910F4407F204602D0FFF791FFA3
:103BF00004E000F042F8204600F040F82577206805
:103C00000169C943C90708D1C168C943C90704D1BB
:103C1000891E0161204600F033F820680169C9431C
:103C2000090609D4C168C943090605D46FF08001AB
:103C300001612046FFF727FE20680169C943490654
:103C400009D4C168C943490605D46FF04001016138
:103C5000204600F01BF920680169C94389060BD48E
:103C6000C168C943890607D46FF02001016120466D
:103C7000BDE87040FFF708BE70BD70477047000098
:103C80002DE9F04701687B48794C814203D1BDE8BA
:103C9000F047FFF7F9B8784A0127784800254FF038
:103CA00002094FF4807A91424BD12179002917D033
:103CB00062794115012A15D0022A1AD0032A0FD0A1
:103CC000042A0DD10122FFF7A0F8A5712089401E1A
:103CD0000004000C208122D06771E068401CE06085
:103CE000BDE8F0870022FFF790F884F80590A571F1
:103CF000F6E7E268A3791278DA4002F00102FFF7F2
:103D000084F8A079401CC0B2A0710828E8D394F8C8
:103D1000300008B1032000E004206071E0E7657125
:103D2000257127762068FFF771FE206800684562DC
:103D30005349C1F800A094F91900FFF72EF9A774B0
:103D4000CEE7504A9142CBD1217E0029C8D04E4EB9
:103D5000A17E96F80080012924D0022947D00329AA
:103D600077D00429BCD15146FFF74AF868F35F00C9
:103D7000C0B23070217F491CC9B2217703296AD3B0
:103D8000FEF7B2FB58B1E08B401CE083A57660697A
:103D9000FFF73CFE60690068456284F82C70257767
:103DA00035709DE75146FFF72BF868F35F00C0B20E
:103DB0003070217F491CC9B2217703294BD3FEF70C
:103DC00093FB20B10420A0763570257788E784F82E
:103DD0001A906169207F04EB40000968808CC862FA
:103DE000207F616904EB4000808CC860ECE751469D
:103DF000FFF706F868F35F00C0B23070217F491CFE
:103E0000C9B22177032926D3FEF76EFBE17E8840F5
:103E1000617F08436077E07E072808D3E57694F851
:103E2000300008B1032000E00420A07601E0401C2F
:103E3000E0766169207F04EB40000968808CC862ED
:103E4000207F616904EB4000808CC860A7E700E038
:103E500001E0A57644E704EB41006169808C0968C4
:103E6000C862207F616904EB4000808CC86037E73E
:103E7000A0010020002C0140000400400008014087
:103E80001404014000080040000000207047704703
:103E900010B504460068416994F83D20C1F3C01193
:103EA000212A0BD151B1416921F080014161606B40
:103EB00008B1FEF707FD204600F055FE2068416975
:103EC00094F83E20C1F38011222A0BD151B14169EF
:103ED00021F040014161A06B08B1FEF7F3FC2046E0
:103EE00000F029FE002010BD70470000F8B5026800
:103EF00004461068D168536910F00F0F4FF00005A9
:103F000053D003F0010601F4907737435FD0C20726
:103F100005D0CA0503D5226C42F001022264420793
:103F200005D5DA0703D0226C42F002022264820730
:103F300005D5DA0703D0226C42F00402226402079E
:103F400007D501F02002324303D0226C42F0080270
:103F50002264226C002A34D0800604D5880602D55B
:103F6000204600F009FE20684069216CC0F38010F3
:103F7000090700D430B3204600F0DDFD2068416918
:103F800049061BD5416921F040014161A06BA8B1F0
:103F900058494163A06BFEF7B9FC002811D0A06B13
:103FA000416B01B0BDE8F040084783060FD58B0692
:103FB0000DD52046BDE8F84000F0DEBD2046FFF7F5
:103FC00093FFF8BD2046FFF78FFF2564F8BD266BF1
:103FD0002023012E52D1C60650D5CE064ED51068EC
:103FE00050680090506940062AD5A16B0868406867
:103FF0000004000CEAD0A68D8642E7D9E0858869E6
:10400000202818D0D06820F48070D06020684169E2
:1040100021F0010141612068416921F040014161C5
:1040200084F83E3025632068C16821F01001C1602A
:10403000A06BFEF747FCA08DE18D401A81B219E01C
:10404000A08DE18D401A81B2E08D0028BED00029FC
:10405000BCD0D06820F49070D0602068426922F013
:104060000102426184F83E3025632068C26822F074
:104070001002C2602046FFF70AFFF8BD05062BD5E7
:104080000D0629D594F83D002128F6D1A068B0F599
:10409000805F01D12069B0B1206A411C2162216892
:1040A00000784860E08C401E0004000CE084E4D1FD
:1040B0002068C16821F08001C1602068C16841F0BA
:1040C0004001C160F8BD206A0088C0F3080050605C
:1040D000206A801C2062E5E74006F3D54806F1D54A
:1040E000D168204621F04001D16084F83D3000F0D5
:1040F000FDF8F8BD314A000870B5040004D094F80A
:104100003D00002510B106E0012070BD84F83C5050
:10411000204600F023F8242084F83D002068C16880
:1041200021F40051C160204600F082FD2068016941
:1041300021F4904101612068416921F02A01416127
:104140002068C16841F40051C1602564202084F8D2
:104150003D0084F83E00002070BD0000F0B585B041
:1041600000240646009401940294039400682E49AA
:10417000884256D12D48C16941F48021C161C1698D
:1041800001F480210491816941F008018161806915
:10419000274D00F0080004904FF48060009002204A
:1041A00001900320039069462846FEF739FDE81484
:1041B000CDE90004694628460294FEF731FD1E4D04
:1041C0001C48802701C5102091C5000245F8104900
:1041D0006C61C5E906401848FEF78EFC08B1FEF791
:1041E000D5F875636E62144D124844351430C5E934
:1041F0000004C5E902472C614FF400506C61C5E929
:1042000006402846FEF778FC08B1FEF7BFF8B56314
:104210000022052127206E62FEF7CCFE2720FEF744
:10422000BCFE05B0F0BD0000004800400010024098
:10423000000C01401C0002406807002090F83E304E
:10424000202B0ED159B152B190F83C30012B08D03F
:10425000012380F83C300023036300F045BD0120BA
:1042600070470220704770477047000070B50446E1
:1042700090F83D00202830D169B362B394F83C0037
:1042800001282AD0012084F83C002162A284E28423
:1042900000252564212084F83D00636B1048986256
:1042A000636B1048D862636B0F481863606B1346EA
:1042B00045632668606B321DFEF74CFC21686FF089
:1042C0004000086084F83C502068416941F080015A
:1042D0004161002070BD012070BD022070BD000052
:1042E000FF4A00082D4B0008414A000870477047FC
:1042F000FEE700000348FEF7C0FD642001F02CFC3F
:10430000F8E700003006002038B502000D484FF0F5
:104310000001009100680C46806904D0D0F8343266
:104320000A46984706E0D0F82C326A46214698475C
:10433000012806D100984FF40071C2B20248FEF77E
:1043400064FD38BD18010020000C0140094C0A4EE4
:104350004FF480552078294680F0010222703046C3
:10436000FEF753FD6078FFF7CFFF322001F0F4FB3A
:10437000F0E700000400002000080140FEB5002422
:1043800016480094019414490294016089158160D3
:10439000012606730475022505614FF4602144600F
:1043A000C161FEF733F908B1FDF7F0FF0620009474
:1043B000CDE9016069460948FEF7A6F808B1FDF7A6
:1043C000E5FF0095694605480195FEF79DF8002830
:1043D00001D0FDF7DBFFFEBD00240140BC0500203D
:1043E000114808B5416941F001014161406900226D
:1043F00000F00100009005210B20FEF7DBFD0B20F3
:10440000FEF7CBFD002205210C20FEF7D3FD0C208A
:10441000FEF7C3FD002205210D20FEF7CBFDBDE810
:1044200008400D20FEF7B9BD0010024030B5A3B022
:1044300000251C951CA81D9501F09AFB234C012119
:10444000E0611E951EA81F9501F09EFB2049206289
:104450000022D1E90001CDE92001012120A801F0CD
:1044600037FC1B49A0611C2208316846FCF753F851
:104470001849684601F002FC1549A0601C2224314D
:1044800007A8FCF748F8002107A801F0F7FB10493E
:10449000E0601C2240310EA8FCF73DF800210EA878
:1044A00001F0ECFB0A4920611C225C3115A8FCF7E5
:1044B00032F8002115A801F0E1FB60614FF47A7138
:1044C000A06901F025FC23B030BD000004000020ED
:1044D00050960008D80800202DE9F04786B0002645
:1044E0003E480096019602960396816941F01001BC
:1044F0008161816901F010010491816941F020011D
:104500008161816901F020010491816941F0040118
:104510008161816901F004010491816941F0080120
:1045200081618069DFF8B89000F0080004900122F2
:1045300041F202214846FEF768FCDFF8A8A00122FC
:1045400002215046FEF761FC4FF4007800224146FC
:104550005046FEF75AFC02250124CDE90054694675
:104560004846CDE90245FEF75BFBCDE900546946BC
:104570005046CDE90245FEF753FB200200901A4851
:10458000CDE9010469464846FEF74AFB4FF49050D6
:10459000CDE900040327CDE9024769464846FEF706
:1045A0003FFBB802CDE90006694602944846FEF793
:1045B00037FB01AACDF8008082E8B000694650467A
:1045C000FEF72EFB002203211720FEF7F3FC172035
:1045D000FEF7E3FC06B0BDE8F087000000100240E3
:1045E00000080140000C014000002110094810B5EE
:1045F000074901600421416040F2E2418160FEF719
:104600000FFC002803D0BDE81040FDF7BFBE10BD71
:104610000030004030060020104810B50E490160FF
:104620004FF48271416000214FF40062C0E9021230
:10463000D2010161C0E90512C1610162416281627A
:104640000A21C162FEF7FAFF002803D0BDE810403E
:10465000FDF79CBE10BD0000003800403C06002065
:1046600010B54FF416510948FDF700FF0748002127
:10467000074A80F8301081744171026080F82C1074
:104680008176044941611721417610BDA0010020C7
:1046900094060020DC06002010B586B000241748E0
:1046A00000940194029403940494134905940160C6
:1046B0004721C0E901144FF6FF71C0E9031484617A
:1046C000FFF718F908B1FDF761FE4FF48050009034
:1046D00069460A48FFF7B2F908B1FDF757FE04949E
:1046E00004A906480594FFF7D1F8002801D0FDF78A
:1046F0004DFE06B010BD00000004004094060020EE
:1047000010B586B0002417480094019402940394D5
:1047100004941349059401604721C0E901144FF640
:10472000FF71C0E903148461FFF7E4F808B1FDF7F5
:104730002DFE4FF48050009069460A48FFF77EF93D
:1047400008B1FDF723FE049404A906480594FFF779
:104750009DF8002801D0FDF719FE06B010BD00003D
:1047600000080040DC06002010B5124C10480C2157
:1047700020604FF4E13060600020A060E060C4E998
:104780000401A061E0612046FFF7B6FC08B1FDF727
:10479000FDFD2068C16841F01001C1600648FD229E
:1047A00000684169BDE810400248FFF747BD0000BE
:1047B000004800402407002018010020FEE7000008
:1047C000072060F307014FF4E132024B024800F08A
:1047D000F7BB00006D5D0008180100200A4C0B4F6C
:1047E0000B4E4FF0FF3800254146206A01F014FAC5
:1047F0000028F9D16570656038780028F4D13068F8
:104800006421C26A9047EFE70400002028000020DE
:1048100018010020FEE704461D20FEF7ADFB1E2018
:10482000FEF7AAFB1720FEF7A7FB002206211D209A
:10483000FEF7C0FB002207211E20FEF7BBFB002273
:1048400007211720FEF7B6FB1D20FEF7A6FB1E2052
:10485000FEF7A3FB1720FEF7A0FBFDF743FC204665
:1048600002F0C2FFFBE7000010B5502080F3118872
:10487000BFF34F8FBFF36F8F04F01CF818B10449DA
:104880004FF080500860002080F3118810BD0000B8
:1048900004ED00E030B593B028216846FBF797FEA1
:1048A00014210AA8FBF793FE00250F95092001218A
:1048B00010950090119512954FF480300491069157
:1048C000CDE901050224CDE907404FF4E01009903D
:1048D0006846FEF723FD08B172B6FEE70AA90F206D
:1048E00081E831004FF48060CDE90D0502210AA86E
:1048F000FEF708FC08B172B6FEE74FF400401190D5
:104900000F940FA8FEF788FB002801D072B6FEE7CF
:1049100013B030BD704700000148FFF7FBB800003E
:10492000F00700200148FFF7F5B8000094060020CA
:104930000148FFF7EFB80000DC060020F0B5026880
:10494000164B174C174D4FF08047984205D0B84290
:1049500003D0A04201D0A84203D122F070064A68D9
:104960003243984205D0B84203D0A04201D0A842B9
:1049700003D122F44074CA6822434C6922F08002B9
:10498000224302608A68C2620A688262984201D148
:104990000969016301214161F0BD0000002C014063
:1049A000000400400008004010B5846842EA032279
:1049B00024F47F440A432243826010BD826822F0BF
:1049C00070020A4342F007018160704710B5036A24
:1049D000046A24F001040462846924F0F00444EAC7
:1049E000021423F00A020A438461026210BD10B56A
:1049F000036A23F0100303628369046A23F470439B
:104A000043EA023224F0A00343EA01118261016209
:104A100010BD000005484168491C41600A2903D9BE
:104A20000021416001214170704700000400002016
:104A300010B5406A0021C185C184FFF755FA10BD49
:104A400070B5446A2068406994F83D10C0F3C01006
:104A50000025212904D118B1E584204600F083F80F
:104A60002068406994F83E10C0F38010222904D1D8
:104A700018B1E585204600F05EF8206C40F010008B
:104A800020642046FFF730FA70BD10B50146406A39
:104A90000968096889061BD40021C1850168CA68B4
:104AA00022F48072CA6001684A6922F001024A61F8
:104AB00001684A6922F040024A61202180F83E10D4
:104AC000016B012904D10168CA6822F01002CA6092
:104AD000016B012902D0FFF7C6FB10BD818DFFF7E6
:104AE000D6F910BD10B5406A016B012902D0FFF75D
:104AF000BBFB10BD818D4908FFF7C9F910BD10B58A
:104B00000146406A0968096889060CD40021C184FD
:104B100001684A6922F080024A610068C16841F078
:104B20004001C16010BDFFF7E1FB10BD10B5406A48
:104B3000FFF7DDFB10BD0168CA6822F49072CA60FD
:104B400001684A6922F001024A61016B012904D11E
:104B50000168CA6822F01002CA60202180F83E1065
:104B60000021016370470168CA6822F0C002CA6070
:104B7000202180F83D10704708B590F83E1022299A
:104B800001D0022008BD82684FF480539A4201D1BF
:104B9000016921B1816A9A421BD04AB10AE00268D8
:104BA000816A5268C2F308020A80816A891C08E09F
:104BB000026972B10268526802F07F020A70816A6B
:104BC000491C8162C18D491E0904090CC18503D0AD
:104BD00019E002685268F1E70168CA6822F0200211
:104BE000CA600168CA6822F48072CA6001684A69B2
:104BF00022F001024A61202180F83E10016B012958
:104C000003D0FFF730FB002008BD002101630168DD
:104C1000CA6822F01002CA6001680A68D20602D58A
:104C20000A6849680091818DFFF731F9EBE70000D0
:104C300070B5044600680169E26821F440511143EF
:104C400001612169A0680843616908432168CA6855
:104C500041F20C639A430243CA6020684169A26929
:104C600021F44071114341611E492068884202D1FC
:104C7000FEF70EFB01E0FEF7FBFA00EBC00101EBD3
:104C80000012606864218000B2FBF0F3B3FBF1F323
:104C90006FF018067343B2FBF0F5B2FBF0F605EBCC
:104CA0008305322303EB0515B5FBF1F5B6FBF1F6F1
:104CB00005F0F00505EB0615B2FBF0F6B2FBF0F0DF
:104CC000B0FBF1F06FF01802504306EB800003EBED
:104CD0000010B0FBF1F0216800F00F00284488605C
:104CE00070BD00000038014038B581628285002522
:104CF000134604460564222084F83E00A26B134844
:104D00009062A26B1248D062A26B12481063A06B33
:104D10000A4645632168A06B091DFDF71BFF20684B
:104D200001684168009184F83C50C16841F4807189
:104D3000C1602068416941F0010141612068416919
:104D400041F040014161002038BD00008B4A00085D
:104D5000E54A0008414A000838B513480068016870
:104D6000C943C9061AD40168406800900E48FFF78D
:104D70008FF80E48006840680D4CC0F1FD002168B6
:104D80004969C1F800010B48006808B100F01CFF38
:104D90002068FD2241690448FFF750FABDE8384019
:104DA0000148FFF7A3B8000024070020AC0700204B
:104DB0001801002024000020FEE70000054981665C
:104DC000054941660549C1660549016780220549D3
:104DD00002F062B8094E0008E94D00080D7A00089B
:104DE000257A00084C09002010B50C460A460146F9
:104DF0004FF6FF730348FEF7ABFC08B1002010BD6F
:104E0000204610BDA001002010B50C460A46014600
:104E10004FF6FF730348FEF7EFFC00B10024204675
:104E200010BD0000A00100202DE9F0471F4691466B
:104E30000C4682460526FDF7EDFF05466FEA05089C
:104E4000FDF7E8FFA84203D2FDF7E4FF404402E08B
:104E5000FDF7E0FF401BB842D4F8000102D800285B
:104E6000EED000E0D0B1D4F80011002060544946E3
:104E70002046FBF783FA08B1062607E00AA1204680
:104E8000FBF77CFA08B1042600E005262046FDF772
:104E90007BF9224605A1504602F03AFA204600F07E
:104EA00073F83046BDE8F087455252003E5B4D43F3
:104EB000553C2D4C3130325D3A25730D0A0000000F
:104EC000490050EAC12018BF04204A0D18BF40F025
:104ED000010040F2FF72B2EB515F08BF40F00200E8
:104EE000012808BF052070470907090E002804DBC8
:104EF00000F1E02080F80014704700F00F0000F18E
:104F0000E02080F8141D704730380A2801D20120B3
:104F1000704700207047EFF30580002800D0012083
:104F200070470000FDF7B8FFFFF7B4FCFFF7D4FAB5
:104F3000FFF756FAFFF718FCFFF720FAFFF76CFBB4
:104F4000FFF754FBFFF7A8FBFFF7DAFBFFF788FB3F
:104F50000748FFF733FFFFF733FC102205490648E7
:104F6000FDF72AFCFFF762FA00F0FDFDFEE7000006
:104F7000D80800207C050020BC0500200146002048
:104F8000842900D0C81C70470021C0F80011FD2101
:104F9000FBF71DBB70B5094DFF231A4605F580765A
:104FA00006E000BF10F8014B54402A5D5A40335DC3
:104FB000491EF7D242EA032070BD0000689900083C
:104FC0002DE9F04104460E4615461F46582001F0D3
:104FD000C5FA2060002858D0C76121682C480862B3
:104FE00021682C48486220680670284604F073F84F
:104FF0000D46064632462B460020274903F0B6FEF2
:1050000004F00CF8216832462B46C8600020234982
:1050100003F0ACFE04F002F82168886021680020EB
:10502000087421681E48886221681E48C862216889
:105030001D48086321681D48486321681C4888632F
:1050400021681C48C86321681B48086421681B4804
:10505000486421681A48886421681A48C86421682D
:10506000194808652168194848652068183000F01B
:105070005DF838B12068143000F02AF810B1012032
:10508000BDE8F081206802F079FD0020F8E700001B
:1050900031530008C3530008389C6C4176B08041FE
:1050A000895D0008AB5D0008995D0008CD570008D8
:1050B000C55300085D5500080D560008B956000894
:1050C00065570008A557000875540008ED540008FE
:1050D00010B504464FF4827001F040FA20601CB114
:1050E000FFF752FF012010BD204602F047FD0020CF
:1050F00010BD2DE9F041002604460F460E60D4E9AC
:105100008101354688420DD20C2001F027FA48B1C2
:105110000560456085603860D4F80402401C0126B3
:10512000C4F804023046BDE8F08100002DE9F84FD4
:10513000834600254FF41B7001F010FA040075D06F
:105140003D48C4F80C023D48C4F814023C48C4F879
:105150001C023C48C4F824023B48C4F810023B48F7
:10516000C4F818023A48C4F820023A48C4F82802A1
:105170003948C4F82C023948C4F830023848C4F819
:1051800034023848C4F838023748C4F83C0237487B
:10519000C4F840023648C4F844023648C4F848020D
:1051A0003548C4F84C023548C4F850023448C4F8B5
:1051B00054023448C4F858023348C4F85C023348F7
:1051C000C4F860023248C4F864023248C4F8680285
:1051D0000020C4F804024FF480702146C4F808028D
:1051E0000846FFF786FF050020D0DFF8ACA0D4F812
:1051F00000800027002604EBC71969462046FFF708
:1052000078FF050012D05AF8270081190098016034
:1052100009EB8601761C48600098C8F808008046B3
:10522000202EEAD37F1C042FE4D301252846CBF897
:105230000040BDE8F88F0000D15700081158000861
:10524000335900084F59000897590008F9590008C8
:10525000F95A00082D5B00083B5800085558000813
:10526000255A0008315A0008B3580008D1580008E0
:10527000895A00089D5A0008115900082159000850
:10528000D75A0008E75A000891580008A1580008AA
:10529000675A0008775A000808010020F0B5044654
:1052A0000020154E034600BF56F823508D420BD800
:1052B00005F120078F4207D904EBC3104D1B00EB0B
:1052C00085004068106001205B1C042BECD3002893
:1052D00007D123680BE01C688C4203D14FF001001A
:1052E0001360F0BD03D94FF000011160F0BD9B6861
:1052F000002BF0D1F0BD00000801002030B502689D
:105300000B68906801E00246806838B104681D6847
:10531000AC42F8D3AC4207D1002030BD936009689D
:1053200000208860012030BD986008689060F9E72F
:1053300070B545690446D5F80061032E02D20221FA
:10534000626A28E02846B11EFFF724FEA91931F849
:10535000021C884202D00321626A1BE0287821786F
:10536000884202D00421626A14E0687805281DD0C2
:1053700008DC012812D0022812D0032812D00428F9
:1053800006D111E0062813D00F2813D0102813D00F
:10539000626A05212046BDE870401047A16B0CE011
:1053A000E16B0AE0216C08E0616C06E0A16C04E0AE
:1053B000E16C02E0216D00E0616D2046BDE87040C7
:1053C000084770472DE9F0478046D8E9057478888A
:1053D00090FA90F9B88845BAAE00304601F0BEF8B0
:1053E00082463146FBF7F3F8D4F8306253462A463A
:1053F00049462046B04768074FEAD50000D0401C18
:10540000C4B2601D01F0AAF80646611DFBF7BDF8A5
:105410003878307078787070B470002112E0002015
:1054200072180AE01AF82330D77803F0010383409A
:105430001F43401CD770082803D200EBC103AB42C6
:10544000F0D3491CA142EAD3E11C3046FFF7A2FD8C
:105450003119C870000A0871D8F834304046621D0E
:1054600031469847504602F089FB3046BDE8F04788
:1054700002F084BB2DE9F04706460024D6E905502A
:105480008146688890FA90F8A88847BA0FE000BF74
:1054900005EBD40004F00701C079D9F83432C840D4
:1054A00000F0010208EB040148469847641CBC4226
:1054B000EED3082001F052F804460020206060601E
:1054C00028682060A888A08006212046FFF762FD9A
:1054D000A071000AE071736B08222146304698479C
:1054E0002046BDE8F04702F049BB00002DE9F04737
:1054F00006460024D6E905508146688890FA90F85F
:10550000A88847BA0CE000BF05EB4400D9F8643224
:10551000B0F8070008EB040142BA48469847641CFB
:10552000BC42F1D3082001F019F8044600202060A5
:10553000606028682060A888A08006212046FFF7C8
:1055400029FDA071000AE071736B082221463046E4
:1055500098472046BDE8F04702F010BB2DE9F04720
:105560008046D8E90574788890FA90F9B88845BAE9
:10557000AE00304600F0F2FF82463146FBF727F8D6
:10558000D4F8406253462A4649462046B047680749
:105590004FEAD50000D0401CC4B2601D00F0DEFF11
:1055A0000646611DFAF7F1FF387830707878707030
:1055B000B470002112E0002072180AE01AF82330BB
:1055C000D77803F0010383401F43401CD77008289D
:1055D00003D200EBC103AB42F0D3491CA142EAD392
:1055E000E11C3046FFF7D6FC3119C870000A08717B
:1055F000D8F834304046621D31469847504602F094
:10560000BDFA3046BDE8F04702F0B8BA2DE9F05FC8
:105610000646D6E90575788890FA90FBB88844BAB2
:1056200060008246D04600F099FF81464146FAF775
:10563000ACFFD5F860C24B46224659462846E047A3
:10564000012C03D92146484600F096F9052000EBCD
:105650004400804600F082FF05464146FAF795FF78
:10566000387828707878687085F802A0002009E002
:1056700039F810100A0A05EB4001CA7019F8102019
:105680000A71401CA042F3D3032000EB44012846DA
:10569000FFF780FC05EB44014246C870000A087120
:1056A000736B294630469847484602F067FA284609
:1056B000BDE8F05F02F062BA2DE9F05F0646D6E978
:1056C0000575788890FA90FBB88844BA60008246E5
:1056D000D04600F043FF81464146FAF756FFD5F821
:1056E00050C24B46224659462846E047012C03D972
:1056F0002146484600F040F9052000EB4400804672
:1057000000F02CFF05464146FAF73FFF3878287035
:105710007878687085F802A0002009E039F8101048
:105720000A0A05EB4001CA7019F810200A71401CE2
:10573000A042F3D3032000EB44012846FFF72AFCE4
:1057400005EB44014246C870000A0871736B294694
:1057500030469847484602F011FA2846BDE8F05F07
:1057600002F00CBA7FB5446905460020D4F8006108
:105770000090019002900390324621460DF1030003
:10578000FAF784FE6188A288A86949BA52BA02B1C0
:105790000122D0F8343298476B6BF21C69462846D8
:1057A00098477FBD70B54469054680696188A288C5
:1057B000D0F86432D4F8006149BA52BA98473246F8
:1057C000214628466B6BBDE87040184700F0CEBA02
:1057D000F8B5064614460D46084603F07CFC6FF00B
:1057E000030203F0EFFE03F049FC014605F00F054C
:1057F0006A463046FFF752FD012803D000202060A2
:105800000120F8BD00984068E84000F00100F6E78C
:105810002DE9F041804600201F4615460E460446FD
:1058200007E03A463F1DD8F80C32311940469847F8
:10583000641CAC42F5D3BDE8F08138B51446D0F80D
:105840001C326A46491C9847BDF8001001F001015E
:10585000216038BD2DE9F84300251E4617468846CD
:1058600081462C460FE000BF08EB0401D9F81C323A
:1058700048466A46491C98470543BDF80000641C29
:1058800000F0010001C6BC42EED32846BDE8F88313
:1058900030B449F641442144D0F81C3230BC18479A
:1058A00030B4D0F8244249F641452944A44630BCDE
:1058B000604738B5144642F21175D0F81C326A467A
:1058C00029449847BDF8001001F00101216038BD5E
:1058D0002DE9F84F00251E461746894682462C467C
:1058E00042F211780FE000BF09EB0401DAF81C3234
:1058F000414450466A4698470543BDF80000641C81
:1059000000F0010001C6BC42EED32846BDE8F88F86
:1059100030B447F231542144D0F81C3230BC18471F
:1059200030B4D0F8244247F231552944A44630BC63
:10593000604738B514466A46FFF7B0FC012803D02B
:1059400000202080012038BD00988088F9E72DE9EB
:10595000F041804600201F4615460E46044607E0EB
:105960003A46BF1CD8F81C32311940469847641C8F
:10597000AC42F5D3BDE8F08100EB410108E000BF87
:1059800030F8022B30F8023B20F8043C20F8022CBF
:105990008142F5D87047F8B5074614460E460846CA
:1059A00003F099FB6FF0030203F00CFE03F066FBBB
:1059B0000546014606F00F066A463846FFF76EFCBC
:1059C00004B10124012810D069463846FFF791FB45
:1059D000012809D10098B440056041682143416025
:1059E00069463846FFF78AFCF8BD0099B4404A681A
:1059F00022434A60F8BD00002DE9F04180460020B6
:105A00001E4615460F46044608E000BFD8F810327F
:105A100056F82420391940469847641CAC42F5D307
:105A2000BDE8F081D0F8203292B2491C184700003E
:105A30002DE9F04700251E461746884681462C462C
:105A40000CE000BF36F8040B08EB040182B2D9F871
:105A500020324846491C98470543641CBC42F1D398
:105A60002846BDE8F08730B449F641442144D0F8D7
:105A7000203230BC184730B4D0F8284249F64145AE
:105A80002944A44630BC604730B442F2117421442A
:105A9000D0F8203230BC92B2184700002DE9F04710
:105AA00000251E461746894682462C4642F211784A
:105AB0000CE000BF36F8040B09EB040182B2DAF8FF
:105AC00020324144504698470543641CBC42F1D300
:105AD0002846BDE8F08730B447F231542144D0F86D
