:020000040800F2
:1000000060080020C5000008112600083D1E0008F9
:1000100000000000000000000000000000000000E0
:100020000000000000000000000000009126000811
:1000300000000000000000001326000893260008BE
:10004000D700000800000000D7000008D700000813
:10005000D7000008D7000008D7000008D700000824
:1000600000000000D7000008DD070008D7000008E6
:10007000D70000082D270008D70000080000000066
:10008000D700000800000000000000000D27000855
:10009000000000001D270008D7000008D700000856
:1000A00000000000D7000008000000000D2E00082E
:1000B0000348854600F068FA004800477538000894
:1000C000600800200448804704480047FEE7FEE738
:1000D000FEE7FEE7FEE7FEE70B270008B100000899
:1000E00030B50B46014600202022012409E00D46D0
:1000F000D5409D4205D31D469540491B2546954058
:1001000040191546521E002DF1DC30BDF0B51FB46C
:100110000646002082B005464024019100901BE075
:10012000019922460F46304600F020F8049A059BBC
:10013000801A994110D310461946224600F04DF816
:10014000361A8F410197224601200021009F00F0BE
:1001500044F838184D4100902046641E0028DFDC2A
:10016000019B00982946324607B0F0BD10B5202A01
:1001700004DB0846203AD040002110BD0B46D34096
:10018000D0402024A21A91400843194610BD10B552
:1001900003461C460C43A40703D009E010C9121FF4
:1001A00010C3042AFAD203E00C781C70491C5B1CB3
:1001B000521EF9D210BDD2B201E00270401C491E9D
:1001C000FBD270470022F6E710B513460A460446F4
:1001D0001946FFF7F0FF204610BD10B5202A04DBBA
:1001E0000146203A9140002010BD914020239C1AE6
:1001F0000346E3401943904010BD0000F0B50746A8
:100200000846584087B0C00F049048000E46590079
:1002100040084908BC1A884105D2384631461E4676
:1002200017460B4602465800400810434CD0300D8C
:10023000039040055900400D490D0590401A029069
:10024000402872DA18030121000B090508430190C8
:1002500004980092002805D001995242002088415C
:1002600000920190029840210A1A01990098FFF724
:10027000B4FF05460C466B4607CB00F097F9C01952
:100280007141039A0E0D0023D71756401A467A4043
:10029000164344D0049A002A2DD0029A012A039AC8
:1002A00015DC1205C01A914101263605001C71416A
:1002B000D20F059ED2070093019202962A4623464A
:1002C00000F094F907B0F0BD38463146FAE716055C
:1002D000224A0F46B218C01AB74101210905001C75
:1002E0004F4100187F41114618187941E20F104321
:1002F0006D19644113E0E2076D0815436408C207F5
:100300001443039A01261205C01A91413605001CB8
:100310007141CE07400830434908C01851412A4670
:10032000234600F056F9CDE7FFE70498012240008C
:10033000C117121A00238B4104983146C417381A8A
:10034000A141EEE730B40124E407634030BC55E737
:1003500030B40124E407614030BC4FE70000E0FF07
:10036000F0B51FB488B00B9909980024484009994A
:10037000C00F490049080991C0070B990090490036
:1003800049080B9109990898A64608431CD00B9977
:100390000A98084318D0099801244000420D4800EB
:1003A000410D099824050003000B204309900B9888
:1003B0000003000B20430B9050181C4940180022EA
:1003C00001901446104605E0002001460DB0F0BD36
:1003D000032801DA034600E003239C46C11A0AAE53
:1003E0000AE05F0008ADED5B4F00F75B7D4300273F
:1003F000AA187C41491C5B1E6145F2DD410004AB3B
:100400005A522104120C0A43240C401C0828DFDB3A
:10041000019802900099704601910090059B049A02
:100420000799069800F0E2F8D0E700000DFCFFFF06
:10043000F0B50C465C4085B0E40FE40703944C0033
:100440000026640859009446490802460296224351
:1004500021D062460A431ED06200570D4A000E03A7
:100460002303550D012402462C492405781B1B0B40
:10047000360B401823432643614600901C46501A11
:10048000B44103D30098401C009002E092180098F9
:100490005B41002803DA0020014605B0F0BD0020D2
:1004A000012109050746864611E064461D46141BD6
:1004B000B54106D36546521BB341744607430C430E
:1004C000A646CD0740084908284392185B410546D7
:1004D0000D43EAD11046184313D0604619465040E8
:1004E0007140084306D06046101AB34106D201227B
:1004F000002306E000220123DB0702E00122D243B1
:100500005310009874460105381C6141029C039DFC
:100510000019694100F05DF8BFE70000FD0300002D
:100520004A0009030123090B1B0519430A4B10B5A7
:10053000520D9A4202DA0020014610BD064B3433B8
:100540009A4203DC9A1AFFF711FE10BD034BD21832
:10055000FFF743FE10BD0000FF030000CDFBFFFFCF
:1005600010B5002904DB0124E40740428C412146F8
:10057000002B04DB1C460123DB075242A3419942B6
:1005800000D1904210BD0000064C0125064E05E04A
:10059000E36807CC2B430C3C98471034B442F7D3A4
:1005A000FFF78AFD80390008A039000810B5202A1D
:1005B00006DBCB170846203A1041C1170B4306E073
:1005C0000B461341D0402024A21A914008431946FB
:1005D00010BD10B5002B08DA0024401C61419218B0
:1005E0005B411A4301D14008400010BDF0B51FB473
:1005F00082B005460C0003D0084602F04DFC02E034
:1006000002F04AFC20300246009021462846FFF7BF
:10061000E4FD049B059A04460F4618431143084322
:1006200014D0184610431BD0009840210A1A1846CF
:100630000599FFF79BFD05460E46009A059904981B
:10064000FFF7CBFD084305D0012004E020463946E2
:1006500007B0F0BD0020C11705430E432C433743BC
:1006600000990E986305401A7905E40A00220C43AC
:10067000FD0A0A3002D500200146E9E701051019FC
:1006800069410C9C0D9D00196941FFF7A2FFDFE74E
:10069000F8B50D00044659D0442003F029F9206034
:1006A000002801D103F0BCF82E462036307B03F041
:1006B0001FF907004BD0307D03F01AF90090002895
:1006C0004AD0317B3846FFF77DFD317D0098FFF73A
:1006D00079FD297824A0226800F0B2F821682878F2
:1006E0000870216827484860216827488860216889
:1006F0002648C86021682648086121682548486165
:1007000021682548886121682448C86121682448F7
:1007100008622068876221680020203148732168C0
:10072000327B20310A732268009911632168327D7F
:1007300020310A752168203148752268A96B9163C0
:100740002168203148772168286C0864F8BD15A01D
:1007500000F076F8384603E019A000F071F8009830
:1007600003F05EF8F8BD00004D6F646275735B25A1
:10077000645D5F68616E646C6572203D2030782531
:10078000700D0A0031230008E9210008E122000869
:10079000CD20000845210008752300083D250008EC
:1007A000E9240008705478627566204372656174AC
:1007B000696F6E206661696C6564210D0A00000036
:1007C000705278627566204372656174696F6E203D
:1007D0006661696C6564210D0A00000010B503486C
:1007E00000F0C2F8024800F0BFF810BD1C02002063
:1007F000D801002010B504460068054940181421AE
:10080000FFF76EFC800020640248E06310BD00002A
:10081000F8FFFDBF0000024030B5056C0124AC407C
:10082000C56B6C60046863604368102B036803D079
:1008300099600068C26030BD9A600068C16030BDD8
:100840000FB400B5C1B0FF2143AB02316846429AF4
:1008500002F00CFB82B2044B6946044801F022FA14
:1008600041B008BC04B01847FFFF0000540100204D
:1008700010B50449012208785040087001F0E0FAF0
:1008800010BD00003400002072B6FEE70EB5044A29
:100890006B4607CA07C3684601F0BCFE0EBD0000E8
:1008A0005C39000870B50446104600230A4D0FE07D
:1008B000227850400022641CC60702D040086840DD
:1008C00000E04008521C92B2082AF5D35B1C9BB290
:1008D0008B42EDD370BD000001A0000030B5014691
:1008E00020314B780022022B04D0042383630A704A
:1008F000012030BD03681C680E25AC431C600368F2
:100900001C68640864001C600123056C1C46C06BF5
:10091000AC4044604B700A70002030BD70B50024BC
:10092000014620314A78022A03D004218163012440
:1009300016E0026813680E25AB4313600268136863
:100940005B085B0013600122056C1346AB40C56B6E
:100950006B604A7000220A70416B002900D0884702
:10096000204670BD806B7047F0B4C16B0D680168A4
:100970000C680422066C1346B3402B420DD063076B
:100980000BD50B689B0602D40B6893430B60016C7C
:100990008A40C16B4A60C16A19E00227B74002462B
:1009A0002F4001232032002F15D0A70713D50C6844
:1009B000A40604D40C680A25AC430C605370036C85
:1009C00002219940C36B596000211170816A00298E
:1009D00016D0F0BC08470827B7402F4210D0240794
:1009E0000ED50C680E25AC430C60046C1946A14072
:1009F000C46B61608363537000211170016BE6E783
:100A0000F0BC704770B5040021D002212046203090
:100A100005464170226811680E48A368014060686D
:100A200026691843E3683343184363691843A3698D
:100A30001843E3691843084310602046FFF7DAFEC5
:100A40000021A163012068702970084670BD012053
:100A500070BD00000FC0FFFFF8B504468C46203083
:100A600001780025012909D0012606704178002768
:100A7000012905D0077002252846F8BD0220F8BDDF
:100A800002214170A763206801684908490001609C
:100A900061462046FFF7C0FEE06A00282068016832
:100AA00002D00E22114306E00A22114301602068A1
:100AB00001680422914301602068016831430160AC
:100AC000DAE7000070B5044600F0ECF80546601C5B
:100AD00002D004480078241800F0E4F8401BA0423B
:100AE000FAD370BD48000020F8B500230324012587
:100AF000BAE02E469E40B44632407CD00E79B6070E
:100B0000B60F012E01D0022E17D186682746B646B1
:100B10005E00B74000967646BE43B646CF68009E5C
:100B2000B74076463743876046686746BE430F79CD
:100B3000FF06FF0F9F40374347600E79F643B60725
:100B40000ED0C6682746B4465E00B646B740664635
:100B5000BE43B4468F687646B74066463743C760A3
:100B60000E79B607B60F022E14D1DE08B60036187D
:100B70000096366A5F07B446FE0E0F27B646B740AA
:100B80006646BE43B4460F697646B740664637436D
:100B9000009E376206682746B4465E00B646B740F8
:100BA0006646BE430F79B446BF07BF0F7646B740CF
:100BB0006646374307604E68B603B60F53D02D4FD5
:100BC000BE692E43BE61BE699F08F607F60F2A4E26
:100BD000BF00BE190096B6680F27B4469E07360FB1
:100BE000B646B7406646BE430927FF06B446B8423C
:100BF00002D1002710E036E0204FB84201D1012792
:100C00000AE01F4FB84201D1022705E01D4FB8424C
:100C100001D1032700E005277646B74066463743F3
:100C2000009EB760184E36684F689643FF0300D5A4
:100C30001643154F3E607E684F689643BF0300D54C
:100C40001643114F7E60BE684F689643FF0200D581
:100C500016430D4FBE60FE684F689643BF0200D535
:100C60001643094AD6605B1C0A681646DE4000D06F
:100C70003FE7F8BD001002400000014000040048BA
:100C800000080048000C00480004014000690840CA
:100C900000D001207047002A01D081617047816235
:100CA000704700000148806870470000480000203D
:100CB00008B506498A6901231A438A61896919407E
:100CC000009103490A6802430A6008BD001002400F
:100CD00000000140024881680278891881607047ED
:100CE0004800002010B50648016810221143016039
:100CF000002000F007F800F027F8002010BD0000E9
:100D00000020024070B504460D4D7D202978C000BA
:100D1000FFF7E6F901460B480068FFF7E1F900F03C
:100D200043FB002809D1042C07D200222146401E93
:100D300000F02AF800206C6070BD012070BD00003A
:100D4000480000204400002008B5084881690122BD
:100D500011438161816911400091C26901040A4314
:100D6000C261C0690840009008BD00000010024048
:100D7000002805DBC106C90E012088400149086032
:100D80007047000000E100E010B502F0B5F810BDBA
:100D9000F8B505460068354CC00352D5E069002619
:100DA000C00007D4E16920040143E161E169014029
:100DB000012600912E480168C90510D401688215EA
:100DC00011430160FFF76EFF074604E0FFF76AFF7B
:100DD000C01B642824D826480068C005F6D5206AC0
:100DE00003273F02384020D06968394081421CD037
:100DF000206A226AB843012109040A432262226A56
:100E00008A4322622062C0070FD0FFF74BFF009099
:100E100008E0FFF747FF0099411A1648814201D9BF
:100E20000320F8BD206A8007F3D5206A6968B843BB
:100E300008432062002E04D0E169012000078143AD
:100E4000E1612878C00705D0206BA9688008800080
:100E5000084320632878800605D5206B102188433D
:100E6000E968084320630020F8BD0000001002403C
:100E70000070004088130000F8B50F46060059D0F6
:100E80003A4D2868C007C00FB84209D22868400808
:100E90004000384328602868C007C00FB84249D1D5
:100EA0003068334C81070CD5400704D560680721B2
:100EB0000902084360606068F0218843B168084314
:100EC00060603078C00726D0706801280ED0216895
:100ED00002280ED0890700292CDA61688908890068
:100EE00001436160FFF7DEFE00900DE02168890399
:100EF000F1E78901EFE7FFF7D5FE0099411A1D4898
:100F0000814201D90320F8BD60680C210840716856
:100F100089008842EFD12868C007C00FB8420BD9BA
:100F2000286840084000384328602868C007C00F80
:100F3000B84201D00120F8BD3078400706D560687E
:100F4000072109028843F1680843606000F028F82F
:100F50006168094A0906090F515CC84007490860E1
:100F60000020FFF7CFFE0020F8BD00000020024067
:100F70000010024088130000683900084400002077
:100F80000448054900684968044A4905490F515C0D
:100F9000C840704744000020001002407839000823
:100FA00010B514A30FCB88B06C460FC415A30FCB9C
:100FB0000FC4184A51680C200B4603401648042BF6
:100FC00016D0082B14D18B021B0F6C46E45CD26A3E
:100FD00004AB1207120F9A5CC90305D5002319460A
:100FE000FFF794F8214601E020460C4901F06BFF21
:100FF00008B010BD02030405060708090A0B0C0D12
:101000000E0F10100102030405060708090A0B0C55
:101010000D0E0F100010024000127A0000093D0072
:10102000FEB5040070D02078DC4DC0074AD0686857
:101030000007800F012807D068680007800F02288A
:1010400009D16868C00306D5286880033AD560686E
:101050000028E7D036E06168012914D0012080041F
:10106000002901D0052914D02A68012109048A43E6
:101070002A602968814329606068002816D0FFF73C
:1010800011FE06460EE02868012109040843286085
:10109000F2E7296801432960F5E7FFF703FE801BAB
:1010A00064286ED828688003F7D50BE0FFF7FAFDB7
:1010B000064604E0FFF7F6FD801B6428F1D8286897
:1010C0008003F7D420780126800700283CDA68687E
:1010D0000007800F07D068680007800F022809D139
:1010E0006868C00306D42868800716D5E068012820
:1010F0000AD112E0E0680028286816D03043286042
:10110000FFF7D0FD074605E043E1FFF7CBFDC01B2D
:101110000228C6D828688007F7D52868F8218843B0
:101120002169C900084328600EE04008400028609B
:10113000FFF7B8FD074604E0FFF7B4FDC01B022827
:10114000AFD828688007F7D42078000722D5E06957
:101150000028686A0ED030436862FFF7A3FD074697
:1011600004E0FFF79FFDC01B02289AD8686A800739
:10117000F7D50FE0400840006862FFF793FD07468F
:1011800005E09DE0FFF78EFDC01B022889D8686A44
:101190008007F7D4207804274007002860DA002071
:1011A0000190E869C00008D4E969B8060143E96123
:1011B000E969014001200091019079480168C90561
:1011C00011D40168821511430160FFF76BFD009097
:1011D00005E0FFF767FD0099401A642870D8704851
:1011E0000068C005F5D5A06801280AD0002801D004
:1011F000052810D0286A400840002862286AB843B1
:1012000001E0286A30432862A068002812D0FFF766
:1012100049FD00900AE0286A38432862F1E7FFF7A9
:1012200041FD0099411A5F48814249D8286A8007E8
:10123000F5D50DE0FFF736FD009006E0FFF732FD33
:101240000099411A574881423AD8286A8007F5D454
:101250000198002804D0E969012000078143E96171
:101260002078C00635D5606901280CD0401D686B18
:1012700023D038436863686B400840006863FFF719
:1012800011FD064622E0686B38436863686B3043A3
:101290006863FFF707FD064604E0FFF703FD801BC8
:1012A00002285BD8686B8007F7D5686BF821884304
:1012B000A169C900084368630BE0B8436863F4E7B9
:1012C0004CE0FFF7EFFC801B022847D8686B8007D3
:1012D000F7D4206A00285ED069680907890F0229BF
:1012E00042D0012636060228286805D0B04328607F
:1012F000FFF7D8FC044633E0B0432860FFF7D2FC88
:10130000074604E0FFF7CEFCC01B022826D8286859
:101310008001F7D4E86AE16A000900010843E86245
:10132000616AA06A084369683D2212049143084338
:101330006860286830432860FFF7B4FC044604E086
:10134000FFF7B0FC001B022808D828688001F7D5F9
:1013500021E0FFF7A7FC001B022801D90320FEBDF6
:1013600028688001F5D416E00128F8D06868E96A99
:1013700001221204636A02409A420AD10907E26A12
:10138000090F914205D10F2189040840A16A8842C2
:1013900001D00120FEBD0020FEBD00000010024073
:1013A0000070004088130000094910B5401E8842B3
:1013B00001D9012010BD074C60610321081F01F015
:1013C0009BFD0020A06107202061002010BD0000CF
:1013D000FFFFFF0000E000E070477047F0B50246F5
:1013E0002032137F012B1BD001261677022353775F
:1013F00005686B68AC687027BB430F681F436F605C
:101400000068084B984202D0074B984204D18023D1
:1014100049689C4321438160567700201077F0BDD6
:101420000220F0BD002C01400004004070B5040013
:1014300005D025462035687F002802D006E001202F
:1014400070BD00202877204600F014F8022068774D
:10145000211D206801F072F901204034A071A877A5
:10146000E87720706070A070E0702071607168771C
:10147000002070BD08B51C4A01681C4891420DD17E
:101480008269C1140A438261806900220840009089
:1014900011460D20FFF778FC0D200FE0144A914211
:1014A0000FD1C26989150A43C261C0690022084090
:1014B000009001211320FFF767FC1320FFF758FC71
:1014C00008BD0C4A9142FBD18269012149040A43BB
:1014D0008261806900220840009001211520FFF7F9
:1014E00053FC1520EAE70000002C014000100240E8
:1014F0000020004000440140014620314A7F012A7B
:1015000001D00120704702224A770268D368012186
:101510000B43D3600068084A904202D0074A9042C9
:1015200004D182685207520F062A02D002680A4389
:101530000260002070470000002C014000040040C1
:10154000F8B5054604462035287F0026012817D027
:101550000120287702206877226890687727FF2388
:10156000B8431B02984390600868502838D00EDCBE
:1015700020284FD006DC00284CD010281ED149E08E
:101580000220F8BD302845D0402817D13AE0602825
:101590002ED0702819D001221203801A0FD0904249
:1015A0000CD1CB684A688968206801F003F920688B
:1015B0008168012292031143816000E0012601202D
:1015C0006877002028773046F8BDCB684A6889687C
:1015D000206801F0EFF82168886838438860EEE7FA
:1015E000CA684968206801F0F8F85021206806E0D0
:1015F000CA684968206801F001F96021206801F09B
:10160000E4F8DCE7CA684968206801F0E6F84021A0
:101610002068F4E7226801461046F0E7704770B58D
:101620000446006801690025C9438907002915DBC4
:10163000C168C943890711D4E91E016101202077DF
:10164000206880698007204602D0FFF7E7FF04E0AA
:1016500000F096F8204600F094F82577206801699C
:10166000C943490717D4C168C943490713D40421A2
:10167000C943016102202077206880698005800FBE
:10168000204602D0FFF7CAFF04E000F079F82046B8
:1016900000F077F8257720680169C943090716D457
:1016A000C168C943090712D40821C9430161042054
:1016B00020772068C0698007204602D0FFF7AEFF80
:1016C00004E000F05DF8204600F05BF82577206824
:1016D0000169C943C90617D4C168C943C90613D4EF
:1016E0001021C9430161082020772068C069800566
:1016F000800F204602D0FFF791FF04E000F040F891
:10170000204600F03EF8257720680169C943C907E3
:1017100008D1C168C943C90704D1891E01612046A7
:1017200000F030F820680169C943090609D4C1688E
:10173000C943090605D48021C94301612046FFF74A
:101740004BFE20680169C943490609D4C168C943F1
:10175000490605D44021C9430161204600F03CF808
:1017600020680169C943890609D4C168C94389064B
:1017700005D42021C94301612046FFF72EFE70BD2C
:101780007047704770B50068114988421ED11149F1
:10179000086800281AD00023006801240EE042796E
:1017A000002A0AD0002808D00288521C92B2028077
:1017B0004588AA4201D1047103800C300A680C26C6
:1017C000156812797243AA188242E8D870BD0000E9
:1017D000002C01404000002070477047F8B50446D7
:1017E000806FE66F21688A682546120610278035CB
:1017F000002A1BDA212819D1EFF31080012282F38D
:1018000010888A6880239A438A6080F31088E06E8B
:10181000002808D0FFF762F8002804D0E06EFFF738
:10182000A1F8202824D0204601F08FF9216888688B
:1018300040061BD5222E19D1EFF31080012282F32E
:1018400010888A6840239A438A6080F31088206F4A
:10185000002808D0FFF742F8002804D0206FFFF7D7
:1018600081F8202804D0204601F040F90020F8BD7E
:101870002F600320F8BD7047F8B502680446D069B0
:10188000116896689C4B05461D402023002D75D09D
:10189000F7079A4DFF0FBC460D402F436DD02546EC
:1018A000C7078035002F06D0CF0504D50127176262
:1018B0002A683A432A60820708D5F20706D02768CB
:1018C00002223A622A6804273A432A60420708D56E
:1018D000F20706D02668042232622A6802263243C2
:1018E0002A6002070AD50A461A406646324305D0E6
:1018F0002668082232622E6816432E60020508D53B
:101900004A0106D501222668D20232622A681A43A9
:101910002A602A68002A39D0800606D5880604D5B0
:10192000616E002901D020468847286821688968AF
:10193000490602D4282108422DD0204601F0D6F8CD
:1019400021688868400622D5EFF31080012282F3D7
:1019500010888B68402293438B6080F31088206F3F
:10196000002814D066494163206FFEF7D7FF002896
:101970000CD0206F416B08E000E012E0850610D526
:101980008D060ED5616E9DE020468847F8BD204645
:10199000FFF771FFF8BD2046FFF76DFF00202860BC
:1019A000F8BD256E012D7DD1C5067BD5CD0679D537
:1019B00010261662226890682546400640350028A9
:1019C00045DA216F086840680004000CE8D02F8BCE
:1019D0008742E5D968838869202833D0EFF31080E7
:1019E000012181F3108811683701B943116080F338
:1019F0001088EFF31080012181F3108821688A6834
:101A0000520852008A6080F31088EFF310800121A1
:101A100081F3108821688A684027BA438A6080F37E
:101A20001088E36700202066EFF31080012181F326
:101A3000108821680A68B2430A6080F31088206F1A
:101A4000FEF74CFF288B698B401A81B231E0288B5E
:101A5000698B401A81B2688B0028A1D000299FD0E1
:101A6000EFF31080012585F310881568FF272137D3
:101A7000BD43156080F31088EFF31080012282F3DC
:101A80001088226895686D086D00956080F3108855
:101A9000E367002020666066EFF31080012282F386
:101AA000108800E009E022681368B343136080F3F4
:101AB00010882046FFF791FEF8BD050606D50D06F5
:101AC00004D5A16E002900D05EE7F8BD4006FCD524
:101AD0004806FAD52046EFF31081012484F31088DC
:101AE00014684025AC43146081F31088836700219B
:101AF000816600F0A1F9F8BD0F0800002001000484
:101B00008929000810B5040003D0A06F002802D076
:101B100007E0012010BD002174200155204600F08F
:101B200027F82420A067206801684908490001605F
:101B3000204601F01BF80128ECD0606A002802D092
:101B4000204600F089FE206841680122D2029143BC
:101B500041602068816808229143816020680168A3
:101B6000012211430160204600F0DCFE10BD0000A0
:101B7000F0B587B0064614216846FEF723FB2B49D3
:101B80003068884250D12A488269012189030A437A
:101B9000826182690A4005924269C9000A43426132
:101BA00040690024084005900C200090022001901C
:101BB0000320039001200490092002946946C00686
:101BC000FEF792FF1B481C4D802711C52C60AC60AE
:101BD000EC606F6080142C6168611748083DFEF767
:101BE00011FF002801D0FEF74FFE35676E62124DDF
:101BF00010484435143828601020291D91C12C61EB
:101C00006C61AC612846EC61FEF7FCFE002801D057
:101C1000FEF73AFEF566002202211B206E62FFF7F6
:101C2000B3F81B20FFF7A4F807B0F0BD003801405F
:101C30000010024030000240D801002070B5C36F90
:101C4000202B2BD100290BD0002A09D00124836836
:101C50002403A34206D10369002B03D1CB0701D093
:101C6000012070BD034660331C7D012C16D0012479
:101C70001C7500230366046863681B020BD5EFF331
:101C80001083012585F3108825680126B6063543A3
:101C9000256083F3108800F0F7FF70BD022070BD4F
:101CA00070477047FFB50446806F83B017460D46F6
:101CB00020285ED1002D0AD0002F08D0A168C001D5
:101CC000814207D12069002804D1E80702D0012011
:101CD00007B0F0BD204660300090007D012848D05C
:101CE0000098012101750020802108512120A06762
:101CF000FEF7D8FF264640360190378277820120D2
:101D0000A1680003814202D12069002805D02F4636
:101D1000002500990020087511E00027F9E700224E
:101D20008021204601F008F8002815D1002F15D099
:101D30002168387808857F1C708A401E7082708AFE
:101D4000019B002806980090E9D1002240212046FE
:101D500000F0F2FF002808D00320B9E728882168A6
:101D6000C005C00D0885AD1CE6E72020A067002057
:101D7000AEE70220ACE70000F8B50446806F2028EB
:101D800052D100290BD0002A09D00123A0681B03DF
:101D9000984206D12069002803D1C80701D001204C
:101DA000F8BD25466035287D01283DD001202875E5
:101DB00020464030E1640282428200262746803776
:101DC0003E602120A067E06E00281BD01749816289
:101DD000E16E1748C862E16E16480863E06E13466C
:101DE0004663E06C216884460A4628326146E06E0C
:101DF000FEF732FE002805D0102038602E75202016
:101E0000A067CCE72168402008622E75EFF31080B0
:101E1000012181F3108821688A6880231A438A602F
:101E200080F310880020F8BD0220F8BD992A000830
:101E3000E32A00089D29000870477047FEE700006C
:101E4000014600B50548012900D0002102689171C2
:101E500002680121917300F0EBFF00BD100000202B
:101E600008B50848416901221143416140691040A9
:101E70000022009011460A20FEF786FF0A20FEF796
:101E800077FF08BD00100240F0B587B01421684606
:101E9000FEF798F9274948690126B605304348619D
:101EA0004869304005904A69701102434A614A69A5
:101EB000024005924A69400002434A614969092784
:101EC00001400591FF0601221B493846FEF7E3FE5B
:101ED00019480125B0380090032003900195029520
:101EE00069463846FEF700FEB020002400900195B8
:101EF0006946029503943846FEF7F6FD40200090AF
:101F00000194694602943846FEF7EEFD02206A46C7
:101F100031C269460948FEF7E7FDA8026A4631C2A8
:101F200069463846FEF7E0FD3046FEF7C1FE07B0D1
:101F3000F0BD000000100240B36200000004004841
:101F400010B592B0FEF7A2FC0407240FFEF79EFC2A
:101F5000014622460AA0FEF773FC0F2C00D910247C
:101F600068460470802108A8017301750F4810901D
:101F70000F480E9069460F48FEF78AFB12B010BD5D
:101F8000426F617264206964206973203078253063
:101F900032782C20736C6176652069642069732027
:101FA0003078253032782E0D0A00000054010020D0
:101FB0005C0000201800002010B50A4808490160A4
:101FC0002F21416000218160074A0161C260816167
:101FD000FFF72CFA002801D0FEF756FC10BD0000D8
:101FE00000200040C4000020FFFF000010B50A4898
:101FF000084901602F214160002181600161074A89
:102000004161C2608161FFF711FA002801D0FEF73B
:102010003BFC10BD004401400C010020FFFF00000C
:1020200010B586B0002400941848019402940394DB
:102030000494154905940160FF21E03184604160FA
:102040007D210461C9004461C16080218161FFF785
:10205000EDF9002801D0FEF717FC012000030090E5
:1020600069460A48FFF76CFA002801D0FEF70CFC1D
:10207000049404A905480594FFF7B0F9002801D09D
:10208000FEF702FC06B010BD002C01407C000020D1
:1020900010B50C480A4901600B494160002181607C
:1020A000C16001618161C1610C22016242614162D2
:1020B000FFF728FD002801D0FEF7E6FB10BD000069
:1020C0000038014054010020C0C62D00FFB5044671
:1020D00017A205CA83B00090019222786846027068
:1020E0000A0A8270C1700026067159081D464171A6
:1020F000857127462037397BA06AFEF763F87E7327
:1021000007226946A06AFEF742F8787B2A46C01D7E
:10211000C0B27873A16A08180599FEF738F8787B81
:1021200040197873E26800212046904707B0F0BD5F
:102130000046000000000000014800688168084770
:1021400018000020FFB507462037BE7D83B0022E61
:1021500001D2102400E020244B1EDBB20025A34254
:102160001CD2491E3C7FC9B21031002C19D0806BA3
:10217000002E1ED044181646307806990191009022
:102180002278334621460CA0FEF75AFB3146204602
:10219000069AFDF7FCFF002800D00125284607B06D
:1021A000F0BD806B1446002E01D04618E4E7C61837
:1021B000E2E7C418DFE7000070646573745B2570A4
:1021C0005D203D20307825582C2070736F755B257D
:1021D000705D3D20307825582C206C656E3D2025A3
:1021E000642E0D0A00000000F8B50446254620358F
:1021F000697F002000294CD000276F77697D022974
:1022000005D9891E89B2234A206BFEF74BFB060ACB
:1022100000020643B2B2697D1FA0FEF711FB206BDE
:102220002278017891422FD1697D40181E38417F74
:10223000027F0802104340BAB1B2884224D11EA0E6
:10224000FEF7FEFA002606E0825D31461FA0FEF78B
:10225000F7FA761CF6B2687DB042206BF4D840786D
:1022600005280CD004DC012807D002280CD104E09A
:102270000F2804D0112807D103E0A16902E0E16929
:1022800000E0216A20468847697D206BFDF79AFFB0
:102290006F75F8BDFFFF00007278636F756E742074
:1022A0003D2025642C6372633136203D2030782533
:1022B000582E0D0A000000004461746120726563AD
:1022C0006569766564210D0A000000007072627510
:1022D000665B25645D203D20307825580D0A00009E
:1022E00038B5054620350446002913D1697B0F4ACD
:1022F000A06AFEF7D7FA014668460180697BA06AAA
:102300004118684600780870684640784870687BD5
:10231000801C68736A7BA16A206CFFF72DFD206C1E
:102320000068C169C9434906FBD438BDFFFF0000FE
:1023300070B50446006C0E460068C169C943C90601
:1023400016D41021016225462035002C0ED0206BBA
:1023500000280BD0206CFFF741FA30682A7D4068D6
:10236000101A6875216B206CFFF768FC01206877F4
:1023700070BD0000F0B5016B044648790979000290
:10238000084340BAC7B2F80885B0790700D00121E8
:1023900040180290384601F0ABFA0090002871D046
:1023A0003946FDF70FFF25462035297BA06AFDF74A
:1023B00009FF00216973226BA06A137803705278B9
:1023C0004270687B029A801CC0B2461CA36A6E737E
:1023D0001A54206B4278012A01D0012200E0002229
:1023E000AA752977C17882780802104341BA6669D4
:1023F0003B462046009AB047002608E000983B463E
:10240000825D314622A0FEF71BFA761CF6B2BE4270
:10241000F4D300202AE00026C00003901DE00099BC
:10242000A36A085CC007C00F05D06A7BB040995C06
:102430000143995404E0697BB0405A5C82435A548A
:10244000697BA06A3346425C19A00199FEF7F8F94E
:10245000761CF6B2082E03D203988019B842DED358
:10246000687B401C68730198401CC0B202990190BF
:102470008842D0D3697B15A0FEF7E2F9E26800211B
:1024800020469047009801F0CBF905B0F0BD000060
:102490007072626974735B25645D203D203078251D
:1024A000582C206C656E3D2025642E0D0A0000001E
:1024B00070546275665B25645D203D203078255838
:1024C0002C206A3D2025642E0D0A000070642D3EEC
:1024D0004D61737465722E5478436F756E74203D30
:1024E0002025642E0D0A000070B50446006B40786C
:1024F000112821D125462035297BA06AFDF762FEEF
:1025000000206873216BA06A0A78027049784170D4
:10251000687BA36A801CC0B2411C012269731A54F3
:10252000FEF7B4F90246687BA36A411C69731A542A
:10253000E26800212046904770BD0000FEB50446C9
:10254000254600202035A87501202877206B41788A
:1025500002790529417906D00802104340BAC7B272
:102560000020A66A1DE008021043FF2140BA0902BC
:10257000884201D1012000E0002069460871687D91
:102580000127687301AE384610E0C108226BC91DEF
:10259000515C4207520FD140C907C90F3154401C4A
:1025A000C0B2B842F1D306206873002000903178A1
:1025B0003A4610A0FEF744F9002E0CD0216B3246AB
:1025C000C87889780002084341BA60693B4684466E
:1025D00020466646B047297BA06AFDF7F3FD6A7B7B
:1025E000216BA06AFDF7D3FDE26820460099904771
:1025F000FEBD00007064617461203D203078255874
:102600002C206C656E3D2025642E0D0A0000000014
:10261000FEE77047F8B500260446002836D021684A
:10262000002933D0096800208871216809688873FF
:10263000206800F0FDFB2068012700688771206892
:1026400000688773206800F0F3FB002560680028AD
:1026500018D02168002009688873206800F0E8FB22
:1026600021896068FEF712FBA072C007C00F072126
:10267000491B88403043C6B22068006887732068D1
:1026800000F0D6FB6D1CEDB2082DDFD33046F8BD4F
:10269000704710B5FEF71EFB10BD70B594B0302129
:1026A0006846FDF78FFD002401250E94280413943D
:1026B0000F9409900D941094009500010C941294BD
:1026C000022601950A90119408960B946846FEF72D
:1026D000A7FC002801D072B6FEE707200C900E94EC
:1026E00001210D960F940CA8FEF7C6FB002801D01F
:1026F00072B6FEE710A810951294FEF749FB002869
:1027000001D072B6FEE714B070BD704710B5024834
:10271000FEF785FF10BD0000C400002010B5024880
:10272000FEF77DFF10BD00000C01002010B502482F
:10273000FEF775FF10BD00007C00002070B5026838
:10274000174B184E984201D0B04203D17024A243D7
:102750004C682243144C154D984208D0B04206D024
:10276000134EB04203D0A04201D0A84204D10326A8
:102770003602B243CE6832438026B2434E693243BA
:1027800002608A68C2620A688262984203D0A042EC
:1027900001D0A84201D1096901630121416170BDE5
:1027A000002C01400004004000440140004801406A
:1027B0000020004030B58468FF252D021B02134322
:1027C000AC430B432343836030BD826870239A433C
:1027D0000A4307210A438260704730B5036A046ADE
:1027E0006408640004628469F025AC43120122434A
:1027F0000A24A3430B438261036230BD30B5036AF0
:102800001024A34303628469036A0F252D03120376
:10281000AC432243A024A34309011943826101620E
:1028200030BD000070B50B4D00262868046808E034
:102830002079002804D0A068002801D080472671A4
:102840000C3428680C220168007950430818A04213
:10285000EED870BD4000002010B5818CC90707D0AC
:1028600001684A6801235B049A43836A1A434A60F9
:10287000818C890707D501684A6801231B049A43A4
:10288000C36A1A434A60818C490707D501684A68C0
:1028900001239B049A43036B1A434A60818C090706
:1028A00007D501684A680123DB039A43436B1A4347
:1028B0004A60818CC90607D50268916801231B0311
:1028C0009943836B19439160818C890607D5016810
:1028D0008A6801235B039A43C36B1A438A60818C25
:1028E000490612D503685A6801210905046C8A4318
:1028F00022435A60026C8A4207D10268516803235E
:102900005B059943436C19435160818C090607D5D7
:1029100001684A680123DB04806C9A4302434A60E1
:1029200010BD0000F8B50446002680300660FEF7B2
:10293000B9F9054620680068124F000709D5012142
:102940002B46002249052046009700F0F5F90028A3
:102950000DD12068006840070BD501212B460022CD
:1029600089052046009700F0E7F9002801D00320F0
:10297000F8BD2020A067E067266660342675002039
:10298000F8BD0000FFFFFF0110B5406A00220146BC
:1029900040314A834A82FEF76EFF10BD70B5446A2B
:1029A000A06FE56F2168896800260906002906DA0C
:1029B000212804D152200653204600F0C6F8206892
:1029C0008068400606D5222D04D15A2006532046A1
:1029D00000F08CF82046803001681022114301601D
:1029E0002046FEF748FF70BD10B501468969406A70
:1029F000202938D000225A210A52EFF310810122F7
:102A000082F3108802681368FF240134A343136023
:102A100081F31088EFF31081012282F3108802689D
:102A200093685B085B00936081F31088EFF310817B
:102A3000012282F31088026893684024A3439360C4
:102A400081F310882021C167016E01290BD1EFF3BA
:102A50001081012282F31088026813681024A343B6
:102A6000136081F31088016E012902D0FFF718F975
:102A700010BD5821095AFEF7B0FE10BD10B5406ACE
:102A8000016E012902D0FFF70CF910BD5821095A37
:102A90004908FEF7A2FE10BD10B501468969406ADB
:102AA00020291BD0002252210A52EFF3108101226B
:102AB00082F31088026893688024A343936081F3B3
:102AC0001088EFF31081012282F3108800680268F9
:102AD00040231A43026081F3108810BDFFF7ACF960
:102AE00010BD10B5406AFFF7A8F910BD10B5EFF39F
:102AF0001081012282F3108802681368FF242134B8
:102B0000A343136081F31088EFF31081012282F355
:102B10001088026893685B085B00936081F31088FB
:102B2000016E01290BD1EFF31081012282F310888D
:102B3000026813681024A343136081F310882021D6
:102B4000C16700210166416610BD10B5EFF3108129
:102B5000012282F3108802681368C024A343136023
:102B600081F310882021816710BD000070B50446F4
:102B700080682169E26908436169002511430843BF
:102B800021680A683C4B1A4002430A602168486881
:102B9000032212039043E26810434860A169206A4F
:102BA000084321688A680B231B029A4302438A6008
:102BB0003248006B8007800F16D0012818D00228F9
:102BC00018D0032812D010210120E369C0032C4A39
:102BD0002C4E83422BD100290ED002290FD004297C
:102BE0000FD008293FD110E00021EDE70221EBE7EB
:102BF0000421E9E70821E7E7FEF7C2F903E0104600
:102C000003E0FEF7CDF9002831D0616840004A08A2
:102C10008018FDF765FA80B201461039B14222D81A
:102C20001849491C01400007400F08431DE00029D6
:102C300006D0022907D0042907D0082913D108E0BB
:102C4000FEF79EF903E0104603E0FEF7A9F900281D
:102C50000DD061684A081018FDF742FA80B20146AB
:102C60001039B14201D9012501E02168C860002076
:102C70006066A066284670BDF369FFFF0010024041
:102C800000127A00EFFF0000F8B5044641654030BD
:102C900000262746028380373E602220E0672546D3
:102CA000206F603500281BD020498162216F2048A9
:102CB000C862216F1F480863206F13464663606D2A
:102CC0002168844662462431206FFDF7C5FE002846
:102CD00006D0102038602E752020E0670120F8BD56
:102CE0002E75EFF31080012181F3108821680A68A6
:102CF000FF2301331A430A6080F31088EFF310803A
:102D0000012181F31088226893680B43936080F35C
:102D10001088EFF3108081F3108821688A684023BF
:102D20001A438A6080F310880020F8BDE929000862
:102D30007D2A00089D290008FFB581B00546174689
:102D4000044660350A9E55E0701C53D0FDF7AAFF7B
:102D50000499401AB04230D8002E2ED02068016865
:102D6000490747D5C069C043000543D40120216805
:102D7000C0020862EFF31080012181F310882168FE
:102D80000B68FF22A13293430B6080F31088EFF3AE
:102D90001080012181F3108821688A68520852004E
:102DA0008A6080F310882020A067E067803420606C
:102DB00000202875032005B0F0BDEFF3108001213D
:102DC00081F3108821680B68FF22A13293430B60C6
:102DD00080F31088EFF31080012181F310882168BF
:102DE0008A68520852008A6080F310882020A06709
:102DF000E067DDE72068C1690298884304D00020BD
:102E0000B842A1D00020D6E70120F9E710B5054867
:102E10000068002802D04268034990470348FEF743
:102E20002BFD10BD18000020D80100205401002007
:102E300070B501680C680B46A16905798AB2ED008E
:102E400019465D1907E08E79002E8E8801D0324335
:102E500000E0B24308318D42F5D8002805D0002BA0
:102E600003D0D04300041043A06170BD7CB515466B
:102E7000024600201C4600290BD0491E00920191F9
:102E8000044B6A462146284600F022F9009A0021A8
:102E900011707CBD093800082021020C01D01021DE
:102EA0001046020A01D010460839020901D0104626
:102EB000091F820801D01046891E420801D0881ED1
:102EC0007047081A7047F8B5040C8BB2264682B2D8
:102ED0005E430D0C1046370C584336048019002110
:102EE000794116466E43370C3604801979412646DF
:102EF0006E438919F8BD00008307FF22DB0E9A405C
:102F00008907090E9940002808DB830809489B00BF
:102F10001B18186890430843186070470007000F9B
:102F20000838830804489B001B18D869904308435D
:102F3000D861704700E400E000ED00E002E008C85E
:102F4000121F08C1002AFAD170477047002001E023
:102F500001C1121F002AFBD170470000F0B51FB459
:102F600086B00998089A030D0021024314D05148F5
:102F7000514A1818504305141198012810981AD076
:102F8000281A401C00264D4F4D490096019104908F
:102F9000002812DA444211E01198012449A30128C3
:102FA00001D11098C1430698119A84600360C260F1
:102FB00041600BB0F0BD4042E4E70446210500202B
:102FC0003F4A001C51410391029012E0E00707D0F4
:102FD00032463B4601990098FDF7C2F901910090F5
:102FE00032463B4610461946FDF7BAF906460F46EB
:102FF0006410002CEAD10498039B0028029A0999D6
:10300000089806DAFDF7ACF9019B009AFDF7A8F9DC
:1030100005E0FDF70DFA019B009AFDF709FA044659
:103020000E460022284BFDF79BFA03D80020C04330
:10303000014607E00022254B20463146FDF7DEF829
:10304000FDF76EFA102409E0002C0ADB0A220023A7
:10305000FDF75CF8079B30321A55641E02460A439E
:10306000F2D11122641C079B121B1C19119B012B0E
:1030700003D0012308430ED10AE0084304D01120F5
:1030800010900020119077E71098151A6D1E0BE034
:103090001098824202DD00236D1C03E0824201DAB7
:1030A00000236D1E002BEED0069811998260C1603E
:1030B00030C07EE701FCFFFF104D0000000014400F
:1030C0000000F03F300000000000F0430000E03F4F
:1030D000FFB597B00646002518E2252877D10024D1
:1030E0002746FD49049400E00443761C3278012011
:1030F000203A90400842F7D130782A280ED0022298
:10310000307801463039092916D804990A235943E1
:10311000303940181443761C0490F1E7189802C81F
:1031200004911890002904DA012040030443484226
:10313000049002200443761C30782E2814D10420F9
:1031400004437078761C2A2809D11898761C80C808
:10315000189009E00A214F43303FC719761C307898
:10316000014630390929F5D930786C2810D006DCB1
:103170004C281AD068280ED06A2817D104E0742889
:1031800013D07A2812D110E00120400504430CE04E
:103190000121090501E0032109050C4371788142F1
:1031A00003D1012000052418761C761C307811907C
:1031B00066280BD013DC58287DD009DC00287BD092
:1031C0004528F6D04628F4D047281AD1A5E118E0C2
:1031D000632835D0642870D0652812D19DE170280D
:1031E0006CD008DC6728F1D069287BD06E280DD020
:1031F0006F2806D1BAE073282ED0752871D07828B0
:1032000059D01A9A199990476D1C7EE16002400FBF
:10321000022809D003280DD00428189801680DD081
:103220000D60001D189070E11898EA1701680D6094
:103230004A60F6E7189801680D80F2E70D70F0E734
:1032400018986A4601781172001D1890002050727B
:1032500002A80090012005E0189802C818900020EC
:103260000091C04361070DD5002101E00199491C7F
:103270000191B94212DA8142F8DB009A515C0029CF
:10328000F4D10BE0002101E00199491C0191814238
:10329000FADB019A0099895C0029F5D1019904981B
:1032A0001A9B471A21463846199A00F097FA019955
:1032B000401945180BE04FE02CE113E04EE0009878
:1032C00000990078491C00911A9A19999047019821
:1032D000401E0190401CF2D1214638461A9B199A93
:1032E00010E137E00A200021009001916002410FB7
:1032F000022907D0189A01CA1892C21794460329C6
:1033000008D00AE01898C01DC108C90005C9189165
:10331000944607E000B2C2179446042902D140B295
:10332000C1178C4600226146944506DA0A46002100
:10333000404291418C462D2102E0210504D52B21EC
:103340006A461173012103E0E10701D02021F7E76C
:10335000029155E00A200AE0102008E010200090B9
:103360000021042004430191082703E008200021E4
:10337000019100906002410F022907D0189A01CAFA
:10338000189200229446032908D008E01898C01D1E
:10339000C108C90005C91891944603E080B2042908
:1033A00000D1C0B200210291210729D511997029BD
:1033B00006D0009A1021019B4A401A4305D00EE026
:1033C00040216A461173012108E06146014306D09D
:1033D00030216A4611731199517302210291009AAA
:1033E0000821019B4A401A430AD16146014301D199
:1033F000610705D530216A46117301217F1E0291B4
:103400001199582904D035A10E910DA90D910DE007
:1034100037A1F9E76146019B009AFCF777FE0E9B06
:103420008C469B5C0D9A521E0D92137061460143AF
:10343000F0D10D9805A9081A20300190600703D536
:1034400001200004844300E001270198874201DD48
:10345000381A00E0002001990090411802980918DC
:103460000498401A0490E00306D421461A9B199A46
:10347000049800F0B3F94519002706E003A81A9A4A
:10348000C05D199990476D1C7F1C02988742F5DB3F
:10349000E0030CD521461A9B199A049800F09EF976
:1034A000451904E01A9A3020199990476D1C00992B
:1034B000481E00900029F5DC08E00D980D99007871
:1034C000491C0D911A9A199990476D1C0199481E33
:1034D00001900029F1DC63E1092801003031323329
:1034E0003435363738396162636465660000000040
:1034F000303132333435363738394142434445462A
:103500000000000000F05AF94519761C30780028B8
:1035100000D0E2E528461BB0F0BD600700D40627C6
:103520001898C01DC108C90048680A680831C30F4F
:10353000DB071891190001D09CA108E0210501D5F5
:103540009BA104E0E10701D09AA100E09AA1430009
:1035500011985B08109165280CD006DC452809D02D
:1035600046281DD0472841D141E0662818D0672859
:103570003CD13CE00021112F01DB112000E0781C40
:103580000191009008A911A8FFF7E8FC1399059193
:103590000021119A15927F1C12980197009150E01A
:1035A0000120C00703900120019008A9009711A8ED
:1035B000FFF7D4FC139A149905920022119B0092F4
:1035C00012981593059A0192002901D0104602E045
:1035D000791C40180190381A01D5019804E0404246
:1035E000401E0090781C0190C01B029043E0012F08
:1035F00000DA01270021112F01DD112000E03846FB
:103600000191009008A911A8FFF7A8FC1399059152
:10361000119A0021129815920091019721070CD45C
:103620000599B94201DB019900E00191012904DD0E
:10363000159A491E515C302906D0B84201DA011DA5
:1036400005DA0121029115E00199491EEDE70028F4
:1036500005DC0099411800910199091A03E0019ACB
:10366000411C914200DD01910099401A401C0290DA
:103670000120C0070390200706D4029901988142D7
:1036800002DB0020C043029000206946C87707AFE4
:10369000012103980337C907884224D002201190E2
:1036A0002B201290039800280CDA404203902D2022
:1036B000129007E00A210398FCF712FD30317F1EBB
:1036C000039039701199481E11900029F2DC03987B
:1036D0000028EFD1791E1298087030782021084018
:1036E0004530BF1E387006A8C01BC01D039010983F
:1036F0000078002800D00120019941180298C017D5
:103700000918039809180498401A401E0490E00311
:1037100006D421461A9B199A049800F05FF84519BF
:1037200010980078002803D01A9A199990476D1CB8
:10373000E00324D521461A9B199A049800F04EF80C
:1037400045191CE00098002807DB0099059888427D
:1037500003DD1598405C199901E0199930201A9AF7
:10376000904700986D1C401C00900298401E0290EB
:10377000002804D11A9A2E20199990476D1C01999E
:10378000481E01900029DDDC05E038781A9A7F1C7C
:10379000199990476D1C0399481E03900029F4DC89
:1037A00021461A9B199A0498ACE600002D000000EF
:1037B0002B0000002000000000000000F8B50446C7
:1037C00000251E461746880404D405E0394620200B
:1037D000B0476D1C641EF9D52846F8BDFFB50446F8
:1037E000002581B01E46C80301D5302700E0202700
:1037F000880404D505E038460399B0476D1C641E63
:10380000F9D5284605B0F0BD4A68002A06D00A68F6
:10381000531C0B6010704868401E486070470000E1
:1038200010B5002823D0124B0022001F196803E0B6
:10383000814203D80A4649680029F9D1002A0AD0F2
:103840001368841A9C4204D100681818106010464E
:1038500002E0506000E01860002907D002680B1AEF
:10386000934203D10B68D21802604968416010BDD1
:1038700054000020FDF736FA1848FDF723F9FEF74B
:103880000CFFFEF701FBFEF7EBFAFEF701FCFEF77B
:1038900093FBFEF7ABFBFEF7C3FB1148FDF72CFED5
:1038A000114910480860FEF74BFB104C20680028B7
:1038B00010D0006C0068016810221143016020687C
:1038C00034210A5C016B006CFEF7B8F92068002116
:1038D00020304175FEF7A6FFFCE7000088130000CA
:1038E0007C0000203800002040000020180000204C
:1038F000F0B50B30C108C900144F0026144A0FE080
:1039000003688B420BD38B4205D95C1A4318456878
:1039100030C3083B00E04368136002C004E0021DAE
:1039200010680028ECD13046002803D13868002800
:1039300001D00020F0BD064A06481060064A121A5F
:10394000D208D20044C001203860D7E758000020D8
:1039500054000020640200206004002010000020B9
:103960000004004802000000000000000000000009
:103970000102030406070809000000000102030415
:10398000A0390008000000205C0000003C2F000867
:10399000FC3900085C000020040800004C2F0008DF
:1039A0000000004800200000000000480040000027
:1039B00000000020020000000000000000000100E4
:1039C000000100003921000800006400000100002F
:1039D00071080008010000001C0000200200000027
:1039E0000000000000127A00010000000400000046
:0C39F000000000000000000000000000CB
:04000005080000B13E
:00000001FF
